{
	"data": {
		"bytecode": {
			"linkReferences": {},
			"object": "6080604052600160065560016008553480156200001b57600080fd5b5060405162004df138038062004df1833981810160405260208110156200004157600080fd5b505160006200004f620000c3565b600080546001600160a01b0319166001600160a01b0383169081178255604051929350917f8be0079c531659141344cd1fd0a4f28419497f9722a3daafe3b4186f6b6457e0908290a35060018055600c80546001600160a01b0319166001600160a01b0392909216919091179055620000c7565b3390565b614d1a80620000d76000396000f3fe6080604052600436106102295760003560e01c806389097a6a11610123578063c879d8c6116100ab578063f2fde38b1161006f578063f2fde38b14610a20578063f3c6a59814610a53578063f3fef3a314610b01578063f62613ff14610b3a578063fdb5fefc14610c1c57610230565b8063c879d8c614610914578063e2de375c1461094d578063e6cd352614610980578063ef6a96fd146109d2578063efe97afd14610a0b57610230565b8063ae1914f8116100f2578063ae1914f814610815578063af81c5b914610858578063b3493bb614610891578063b3cbf396146108c4578063c6b99fe2146108ff57610230565b806389097a6a146106fc5780638da5cb5b146107b257806392e1df38146107c75780639f776b6a1461080057610230565b80634b3f31bf116101b15780636cc919c8116101755780636cc919c8146105c3578063715018a6146105f657806379502c551461060b57806380c3b8c21461063c57806384231efb146106c957610230565b80634b3f31bf146104b057806352a7de021461050f578063549b2fe9146105245780635cf3b15f1461055d5780635d5c02381461059057610230565b80632512c195116101f85780632512c195146103bc5780633df7fe70146103f5578063415f12401461043057806347e7ef241461045a57806349f7c1171461048657610230565b8063033284a214610235578063130fb1881461026a57806318c6d123146102b75780631d1a619f1461033a57610230565b3661023057005b600080fd5b34801561024157600080fd5b506102686004803603602081101561025857600080fd5b50356001600160a01b0316610c4f565b005b34801561027657600080fd5b506102a56004803603604081101561028d57600080fd5b506001600160a01b0381358116916020013516610d0e565b60408051918252519081900360200190f35b3480156102c357600080fd5b506102ea600480360360208110156102da57600080fd5b50356001600160a01b0316610d3b565b60408051602080825283518183015283519192839290830191858101910280838360005b8381101561032657818101518382015260200161030e565b505050509050019250505060405180910390f35b610268600480360360a081101561035057600080fd5b81359160208101359160408201919081019060a08101608082013564010000000081111561037d57600080fd5b82018360208201111561038f57600080fd5b803590602001918460018302840111640100000000831117156103b157600080fd5b509092509050610dcc565b3480156103c857600080fd5b506102a5600480360360408110156103df57600080fd5b506001600160a01b038135169060200135611ace565b34801561040157600080fd5b506102a56004803603604081101561041857600080fd5b506001600160a01b0381358116916020013516611b75565b34801561043c57600080fd5b506102686004803603602081101561045357600080fd5b5035611c13565b6102686004803603604081101561047057600080fd5b506001600160a01b038135169060200135612367565b34801561049257600080fd5b50610268600480360360208110156104a957600080fd5b503561259f565b3480156104bc57600080fd5b5061026860048036036101608110156104d457600080fd5b508035906020810135151590604081019060808101906001600160a01b0360c0820135169060e0810190610120810135906101400135612648565b34801561051b57600080fd5b50610268612901565b34801561053057600080fd5b506102a56004803603604081101561054757600080fd5b506001600160a01b038135169060200135612936565b34801561056957600080fd5b506102a56004803603602081101561058057600080fd5b50356001600160a01b031661295f565b34801561059c57600080fd5b506102a5600480360360208110156105b357600080fd5b50356001600160a01b0316612a22565b3480156105cf57600080fd5b50610268600480360360208110156105e657600080fd5b50356001600160a01b0316612a46565b34801561060257600080fd5b50610268612ac0565b34801561061757600080fd5b50610620612b62565b604080516001600160a01b039092168252519081900360200190f35b34801561064857600080fd5b5061066f6004803603602081101561065f57600080fd5b50356001600160a01b0316612b71565b604080516001600160a01b03909b168b5298151560208b0152961515898901526060890195909552608088019390935260a087019190915260c086015260e085015261010084015261012083015251908190036101400190f35b3480156106d557600080fd5b506102ea600480360360208110156106ec57600080fd5b50356001600160a01b0316612bd1565b34801561070857600080fd5b506107266004803603602081101561071f57600080fd5b5035612c5a565b6040518087815260200186815260200185815260200184600260200280838360005b83811015610760578181015183820152602001610748565b5050505090500183600260200280838360005b8381101561078b578181015183820152602001610773565b50505050905001826001600160a01b03168152602001965050505050505060405180910390f35b3480156107be57600080fd5b50610620612fb5565b3480156107d357600080fd5b50610620600480360360408110156107ea57600080fd5b506001600160a01b038135169060200135612fc4565b34801561080c57600080fd5b506102a5612fe9565b34801561082157600080fd5b506102686004803603606081101561083857600080fd5b506001600160a01b03813581169160208101359091169060400135612fef565b34801561086457600080fd5b506102686004803603604081101561087b57600080fd5b506001600160a01b03813516906020013561313d565b34801561089d57600080fd5b506102a5600480360360208110156108b457600080fd5b50356001600160a01b031661326f565b3480156108d057600080fd5b50610268600480360360408110156108e757600080fd5b506001600160a01b0381351690602001351515613290565b34801561090b57600080fd5b5061026861336d565b34801561092057600080fd5b506102a56004803603604081101561093757600080fd5b506001600160a01b03813516906020013561339f565b34801561095957600080fd5b506102a56004803603602081101561097057600080fd5b50356001600160a01b0316613438565b34801561098c57600080fd5b506109b9600480360360408110156109a357600080fd5b506001600160a01b03813516906020013561345c565b6040805192835260208301919091528051918290030190f35b3480156109de57600080fd5b506102a5600480360360408110156109f557600080fd5b506001600160a01b0381351690602001356134f7565b348015610a1757600080fd5b506102a561351c565b348015610a2c57600080fd5b5061026860048036036020811015610a4357600080fd5b50356001600160a01b0316613522565b348015610a5f57600080fd5b50610a6861361a565b604051808060200180602001838103835285818151815260200191508051906020019060200280838360005b83811015610aac578181015183820152602001610a94565b50505050905001838103825284818151815260200191508051906020019060200280838360005b83811015610aeb578181015183820152602001610ad3565b5050505090500194505050505060405180910390f35b348015610b0d57600080fd5b5061026860048036036040811015610b2457600080fd5b506001600160a01b03813516906020013561383b565b348015610b4657600080fd5b50610b6460048036036020811015610b5d57600080fd5b5035613a1f565b6040518088600260200280838360005b83811015610b8c578181015183820152602001610b74565b5050505089151592019182525060200186604080838360005b83811015610bbd578181015183820152602001610ba5565b50505050905001856001600160a01b0316815260200184600260200280838360005b83811015610bf7578181015183820152602001610bdf565b5050505090500183815260200182815260200197505050505050505060405180910390f35b348015610c2857600080fd5b506102a560048036036020811015610c3f57600080fd5b50356001600160a01b0316613ad4565b6001600160a01b03808216600090815260026020526040808220600c5460018201548351633c212b1f60e01b81526004810191909152336024820152925191941692633c212b1f926044808201939182900301818387803b158015610cb357600080fd5b505af1158015610cc7573d6000803e3d6000fd5b50503360009081526003602090815260408083206001600160a01b0388168452918290529091205490925015159050610d0957610d078160010184613b17565b505b505050565b6001600160a01b038083166000908152600360209081526040808320938516835292905220545b92915050565b60606000610d4883613438565b905060608167ffffffffffffffff81118015610d6357600080fd5b50604051908082528060200260200182016040528015610d8d578160200160208202803683370190505b50905060005b82811015610dc457610da585826134f7565b828281518110610db157fe5b6020908102919091010152600101610d93565b509392505050565b333214610e0a576040805162461bcd60e51b81526020600482015260076024820152666e6f7420656f6160c81b604482015290519081900360640190fd5b60026001541415610e50576040805162461bcd60e51b815260206004820152601f6024820152600080516020614bcd833981519152604482015290519081900360640190fd5b600260015533600090815260046020526040902085610ef257600880546001808201909255600081815260076020526040902080546001600160a01b031916331781559091018690559550610ea58187613b2c565b50610eb1600987613b2c565b50610ebf8160020186613b2c565b506000858152600482016020526040902054610edc906001613b38565b6000868152600483016020526040902055610faf565b6008548610610f3a576040805162461bcd60e51b815260206004820152600f60248201526e189859081c1bdcda5d1a5bdb881a59608a1b604482015290519081900360640190fd5b6000868152600760205260409020546001600160a01b03163314610f9a576040805162461bcd60e51b81526020600482015260126024820152713737ba103837b9b4ba34b7b71037bbb732b960711b604482015290519081900360640190fd5b60008681526007602052604090206001015494505b6000858152600560205260409020600281015460ff1661100e576040805162461bcd60e51b815260206004820152601560248201527450726f64756374696f6e206e6f742065786973747360581b604482015290519081900360640190fd5b843515806110205750600381015460ff165b801561104157506020850135158061104157506003810154610100900460ff165b611092576040805162461bcd60e51b815260206004820152601960248201527f50726f64756374696f6e2063616e206e6f7420626f72726f7700000000000000604482015290519081900360640190fd5b6110a98160005b01546001600160a01b0316613b92565b6110b4816001611099565b6110bc614927565b34815260008881526007602052604090206110d79083613dac565b604082015260005b60028110156113dd576111178782600281106110f757fe5b60200201358360400151836002811061110c57fe5b602002015190613b38565b8260400151826002811061112757fe5b6020020152600083826002811061113a57fe5b015460808401516001600160a01b039091169190911490826002811061115c57fe5b911515602090920201526080820151816002811061117657fe5b60200201511561126d5761119f87826002811061118f57fe5b8451916020919091020135613b38565b80835247108015906111f557506002600084838381106111bb57fe5b01546001600160a01b03168152602081019190915260409081016000206002908101549184015190839081106111ed57fe5b602002015111155b611246576040805162461bcd60e51b815260206004820152601c60248201527f696e73756666696369656e7420426e6220696e207468652062616e6b00000000604482015290519081900360640190fd5b8151611253904790613ed5565b8260200151826002811061126357fe5b60200201526113d5565b61128c83826002811061127c57fe5b01546001600160a01b0316613f17565b8260200151826002811061129c57fe5b602002018181525050816020015181600281106112b557fe5b60200201518782600281106112c657fe5b60200201351115801561131d57506002600084838381106112e357fe5b01546001600160a01b031681526020810191909152604090810160002060029081015491840151908390811061131557fe5b602002015111155b6113585760405162461bcd60e51b8152600401808060200182810382526024815260200180614cc16024913960400191505060405180910390fd5b61138787826002811061136757fe5b60200201358360200151836002811061137c57fe5b602002015190613ed5565b8260200151826002811061139757fe5b60200201526113d58382600281106113ab57fe5b015460048501546001600160a01b0391821691168984600281106113cb57fe5b6020020135613f98565b6001016110df565b6004838101548351604080860151905163c186c29b60e01b81529384018d815233602486018190526001600160a01b039094169463c186c29b948f9390928a928f92918f918f9190608481019087906044015b81546001600160a01b031681526001909101906020018083116114305750869050604080828437600081840152601f19601f82011690508083019250505084600260200280838360005b8381101561149257818101518382015260200161147a565b50505050905001806020018281038252848482818152602001925080828437600081840152601f19601f820116905080830192505050985050505050505050506000604051808303818588803b1580156114eb57600080fd5b505af11580156114ff573d6000803e3d6000fd5b5050600060a0860181905293505050505b600281101561176b578160800151816002811061152957fe5b60200201516115645761155f8260200151826002811061154557fe5b602002015161155985846002811061127c57fe5b90613ed5565b611583565b6115838260200151826002811061157757fe5b60200201514790613ed5565b8260600151826002811061159357fe5b6020020152604082015181600281106115a857fe5b6020020151826060015182600281106115bd57fe5b602002015110611696576115ef826040015182600281106115da57fe5b60200201518360600151836002811061137c57fe5b826060015182600281106115ff57fe5b60200201526040820151600090826002811061161757fe5b60200201526080820151816002811061162c57fe5b60200201516116735761166e83826002811061164457fe5b015460608401516001600160a01b03909116903390846002811061166457fe5b60200201516140f1565b611691565b611691338360600151836002811061168757fe5b6020020151614244565b611763565b600160a083015260608201516116c69082600281106116b157fe5b60200201518360400151836002811061137c57fe5b826040015182600281106116d657fe5b6020020152606082015160009082600281106116ee57fe5b602002015260058301816002811061170257fe5b01548260400151826002811061171457fe5b60200201511015611763576040805162461bcd60e51b8152602060048201526014602482015273746f6f20736d616c6c2064656274732073697a6560601b604482015290519081900360640190fd5b600101611510565b8160a00151156119655761177d614975565b6004848101546040858101519051600162bc061960e01b031981529283018d81526001600160a01b039092169263ff43f9e7928e928992909190606481019084906024015b81546001600160a01b031681526001909101906020018083116117c25750839050604080838360005b838110156118035781810151838201526020016117eb565b505050509050019350505050604080518083038186803b15801561182657600080fd5b505afa15801561183a573d6000803e3d6000fd5b505050506040513d601f19601f82011682018060405250604081101561185f57600080fd5b50604084015190915061187e906127109060005b602002015190614340565b600785015461188f90836000611873565b10156118d4576040805162461bcd60e51b815260206004820152600f60248201526e3130b2103bb7b935903330b1ba37b960891b604482015290519081900360640190fd5b60408301516118e890612710906001611873565b60078501546118f990836001611873565b101561193e576040805162461bcd60e51b815260206004820152600f60248201526e3130b2103bb7b935903330b1ba37b960891b604482015290519081900360640190fd5b61195f600760008c8152602001908152602001600020858560400151614399565b50611a2d565b6004808401546040805163f204b9c560e01b81529283018c9052516001600160a01b039091169163f204b9c5916024808301926020929190829003018186803b1580156119b157600080fd5b505afa1580156119c5573d6000803e3d6000fd5b505050506040513d60208110156119db57600080fd5b5051611a2d576119eb848a6144b6565b506119f760098a6144b6565b506000888152600485016020526040902054611a14906001613ed5565b6000898152600486016020526040902055611a2d612901565b887f5551b6ebe96e0c2ae3769efab219381753ed99d7509fd8875440f120cbfc63a6836040015184606001516040518083600260200280838360005b83811015611a81578181015183820152602001611a69565b5050505090500182600260200280838360005b83811015611aac578181015183820152602001611a94565b505050509050019250505060405180910390a250506001805550505050505050565b6001600160a01b03821660009081526002602052604081208054600160a01b900460ff16611b36576040805162461bcd60e51b815260206004820152601060248201526f746f6b656e206e6f742065786973747360801b604482015290519081900360640190fd5b6005810154611b485782915050610d35565b611b6d8160050154611b6783600401548661434090919063ffffffff16565b906144c2565b949350505050565b6001600160a01b038082166000908152600260209081526040808320600c5460018201548351631f46938b60e11b815260048101919091528887166024820152925194959194911692633e8d27169260448082019391829003018186803b158015611bdf57600080fd5b505afa158015611bf3573d6000803e3d6000fd5b505050506040513d6020811015611c0957600080fd5b5051949350505050565b333214611c51576040805162461bcd60e51b81526020600482015260076024820152666e6f7420656f6160c81b604482015290519081900360640190fd5b60026001541415611c97576040805162461bcd60e51b815260206004820152601f6024820152600080516020614bcd833981519152604482015290519081900360640190fd5b60026001908155600082815260076020908152604080832093840154835260059091529020611cc4614993565b611cce8383613dac565b80825260048381015460405163057dd56560e41b81529182018781526001600160a01b03909116926357dd5650928892879291606481019084906024015b81546001600160a01b03168152600190910190602001808311611d0c5750839050604080838360005b83811015611d4d578181015183820152602001611d35565b50505050905001935050505060206040518083038186803b158015611d7157600080fd5b505afa158015611d85573d6000803e3d6000fd5b505050506040513d6020811015611d9b57600080fd5b505160208201819052600883015411611ded576040805162461bcd60e51b815260206004820152600f60248201526e63616e2774206c697175696461746560881b604482015290519081900360640190fd5b60005b6002811015611e7f576000838260028110611e0757fe5b015460c08401516001600160a01b0390911691909114908260028110611e2957fe5b9115156020909202015260c08201518160028110611e4357fe5b6020020151611e6057611e5b83826002811061127c57fe5b611e62565b475b82604001518260028110611e7257fe5b6020020152600101611df0565b60048381015485548451604051632bd417d960e01b81529384018981526001600160a01b03928316602486018190529290931693632bd417d9938a93928992909190608481019084906044015b81546001600160a01b03168152600190910190602001808311611ecc5750839050604080838360005b83811015611f0d578181015183820152602001611ef5565b50505050905001945050505050600060405180830381600087803b158015611f3457600080fd5b505af1158015611f48573d6000803e3d6000fd5b505085546001600160a01b031660009081526004602052604090209150611f71905081876144b6565b50611f7d6009876144b6565b506001858101546000908152600483016020526040902054611f9e91613ed5565b6001860154600090815260048301602052604081209190915591505b60028210156122bf578260c001518260028110611fd357fe5b6020020151611ff057611feb84836002811061127c57fe5b611ff2565b475b6060840152604083015161201b90836002811061200b57fe5b6020020151606085015190613ed5565b60608401528251826002811061202d57fe5b60200201518360600151111561222b57825161204e90836002811061200b57fe5b6060840152600b546040805163321e4b8960e21b815290516120db9261271092611b67926001600160a01b039092169163c8792e2491600480820192602092909190829003018186803b1580156120a457600080fd5b505afa1580156120b8573d6000803e3d6000fd5b505050506040513d60208110156120ce57600080fd5b5051606087015190614340565b836080015183600281106120eb57fe5b6020020152608083015161210490836002811061200b57fe5b8360a00151836002811061211457fe5b60200201526080830151600090836002811061212c57fe5b60200201511115612198578260c00151826002811061214757fe5b60200201516121845761217f84836002811061215f57fe5b015460808501516001600160a01b03909116903390856002811061166457fe5b612198565b612198338460800151846002811061168757fe5b60008360a0015183600281106121aa57fe5b60200201511115612226578260c0015182600281106121c557fe5b6020020151612206576122018483600281106121dd57fe5b0154865460a08601516001600160a01b039283169290911690856002811061166457fe5b612226565b845460a0840151612226916001600160a01b031690846002811061168757fe5b6122b4565b612285836060015161227f8560000151856002811061224657fe5b602002015160026000898883811061225a57fe5b01546001600160a01b0316815260208101919091526040016000206002015490613ed5565b90613b38565b60026000868583811061229457fe5b01546001600160a01b031681526020810191909152604001600020600201555b816001019150611fba565b336001600160a01b0316867fc44097217ae3ad1577ad675336fd7a85dd60540e16f627d4f5a43d4fdf0f963b85608001518660a001516040518083600260200280838360005b8381101561231d578181015183820152602001612305565b5050505090500182600260200280838360005b83811015612348578181015183820152602001612330565b505050509050019250505060405180910390a350506001805550505050565b600260015414156123ad576040805162461bcd60e51b815260206004820152601f6024820152600080516020614bcd833981519152604482015290519081900360640190fd5b600260018190556001600160a01b038316600090815260209182526040808220338352600390935290208154600160a01b900460ff1680156123f757508154600160a81b900460ff165b6124325760405162461bcd60e51b8152600401808060200182810382526021815260200180614c5f6021913960400191505060405180910390fd5b61243b84613b92565b6001600160a01b0384161561245b5761245684333086614504565b61245f565b3492505b600282015461246e9084613b38565b60028301556000612482846115598761295f565b9050600081158061249557506003840154155b6124b9576124b482611b6786600301548861434090919063ffffffff16565b6124bb565b845b60038501549091506124cd9082613b38565b60038501556001600160a01b0386166000908152602084905260409020546124f59082613b38565b6001600160a01b03871660009081526020859052604090205561251b600184018761466b565b50600c54600185015460408051631ba724c760e21b8152600481019290925233602483015260448201849052516001600160a01b0390921691636e9c931c9160648082019260009290919082900301818387803b15801561257b57600080fd5b505af115801561258f573d6000803e3d6000fd5b5050600180555050505050505050565b600081815260056020526040808220600490810154825163362a3fad60e01b8152339281019290925291516001600160a01b039092169263362a3fad9260248084019382900301818387803b1580156125f757600080fd5b505af115801561260b573d6000803e3d6000fd5b5050336000908152600460208181526040808420878552928301909152909120549092501515905061264457610d0981600201836144b6565b5050565b612650614680565b6000546001600160a01b039081169116146126a0576040805162461bcd60e51b81526020600482018190526024820152600080516020614ca1833981519152604482015290519081900360640190fd5b84356001600160a01b0390811660208701359091161415612708576040805162461bcd60e51b815260206004820152601c60248201527f426f72726f7720746f6b656e732063616e6e6f742062652073616d6500000000604482015290519081900360640190fd5b853515158061271657508235155b6127515760405162461bcd60e51b815260040180806020018281038252602a815260200180614c35602a913960400191505060405180910390fd5b602086013515158061276557506020830135155b6127a05760405162461bcd60e51b815260040180806020018281038252602a815260200180614ba3602a913960400191505060405180910390fd5b61271082106127e05760405162461bcd60e51b8152600401808060200182810382526022815260200180614bed6022913960400191505060405180910390fd5b61232881106128205760405162461bcd60e51b8152600401808060200182810382526026815260200180614b7d6026913960400191505060405180910390fd5b876128375760068054600181019091559750612881565b6006548810612881576040805162461bcd60e51b8152602060048201526011602482015270189859081c1c9bd91d58dd1a5bdb881a59607a1b604482015290519081900360640190fd5b60008881526005602052604090206002808201805460ff19168a15151790556128b090600383019089906149ed565b506128bd81876002614a81565b506004810180546001600160a01b0319166001600160a01b0387161790556128ea60058201856002614ad3565b506007810192909255600890910155505050505050565b600061290c33613438565b90505b80156129335761292a61292533600184036134f7565b61259f565b6000190161290f565b50565b6001600160a01b03821660009081526004602052604081206129589083614684565b9392505050565b6001600160a01b03811660009081526002602052604081208054600160a01b900460ff166129c7576040805162461bcd60e51b815260206004820152601060248201526f746f6b656e206e6f742065786973747360801b604482015290519081900360640190fd5b60006001600160a01b038416156129e6576129e184613f17565b6129e8565b475b9050808260020154106129fb5780612a01565b81600201545b9050611b6d8260060154611559846004015484613b3890919063ffffffff16565b6001600160a01b0381166000908152600360205260408120610d3590600101614690565b612a4e614680565b6000546001600160a01b03908116911614612a9e576040805162461bcd60e51b81526020600482018190526024820152600080516020614ca1833981519152604482015290519081900360640190fd5b600b80546001600160a01b0319166001600160a01b0392909216919091179055565b612ac8614680565b6000546001600160a01b03908116911614612b18576040805162461bcd60e51b81526020600482018190526024820152600080516020614ca1833981519152604482015290519081900360640190fd5b600080546040516001600160a01b03909116907f8be0079c531659141344cd1fd0a4f28419497f9722a3daafe3b4186f6b6457e0908390a3600080546001600160a01b0319169055565b600b546001600160a01b031681565b6002602081905260009182526040909120805460018201549282015460038301546004840154600585015460068601546007909601546001600160a01b0386169760ff600160a01b8804811698600160a81b90980416969095949392918a565b60606000612bde8361326f565b905060608167ffffffffffffffff81118015612bf957600080fd5b50604051908082528060200260200182016040528015612c23578160200160208202803683370190505b50905060005b82811015610dc457612c3b8582612936565b828281518110612c4757fe5b6020908102919091010152600101612c29565b6000806000612c67614975565b612c6f614975565b6000868152600760209081526040808320600181015484526005909252822082612cae82825b01546001600160a01b03166002850160005b0154611ace565b90506000612ccf8360015b01546001600160a01b0316600286016001612ca7565b905083600101548360040160009054906101000a90046001600160a01b03166001600160a01b031663f204b9c58d6040518263ffffffff1660e01b81526004018082815260200191505060206040518083038186803b158015612d3157600080fd5b505afa158015612d45573d6000803e3d6000fd5b505050506040513d6020811015612d5b57600080fd5b81019080805190602001909291905050508460040160009054906101000a90046001600160a01b03166001600160a01b03166357dd56508e876000016040518060400160405280898152602001888152506040518463ffffffff1660e01b8152600401808481526020018360028015612df3576020028201915b81546001600160a01b03168152600190910190602001808311612dd5575b50839050604080838360005b83811015612e17578181015183820152602001612dff565b50505050905001935050505060206040518083038186803b158015612e3b57600080fd5b505afa158015612e4f573d6000803e3d6000fd5b505050506040513d6020811015612e6557600080fd5b81019080805190602001909291905050508560040160009054906101000a90046001600160a01b03166001600160a01b031663ff43f9e78f8860000160405180604001604052808a8152602001898152506040518463ffffffff1660e01b8152600401808481526020018360028015612efd576020028201915b81546001600160a01b03168152600190910190602001808311612edf575b50839050604080838360005b83811015612f21578181015183820152602001612f09565b505050509050019350505050604080518083038186803b158015612f4457600080fd5b505afa158015612f58573d6000803e3d6000fd5b505050506040513d601f19601f820116820180604052506040811015612f7d57600080fd5b506040805180820190915295865260208601949094529554919d909c50949a509098509096506001600160a01b031694509092505050565b6000546001600160a01b031690565b6001600160a01b03821660009081526003602052604081206129589060010183614684565b60085481565b612ff7614680565b6000546001600160a01b03908116911614613047576040805162461bcd60e51b81526020600482018190526024820152600080516020614ca1833981519152604482015290519081900360640190fd5b6002600154141561308d576040805162461bcd60e51b815260206004820152601f6024820152600080516020614bcd833981519152604482015290519081900360640190fd5b600260018190556001600160a01b0384166000818152602092909252604082209190156130c2576130bd85613f17565b6130c4565b475b60028301549091506130d69084613b38565b81106130e15761310a565b60068201546130f09084613ed5565b600683015560028201546131049084613ed5565b60028301555b6001600160a01b038516613127576131228484614244565b613132565b6131328585856140f1565b505060018055505050565b613145614680565b6000546001600160a01b03908116911614613195576040805162461bcd60e51b81526020600482018190526024820152600080516020614ca1833981519152604482015290519081900360640190fd5b6001600160a01b03821660009081526002602052604090208054600160a01b900460ff1615613202576040805162461bcd60e51b8152602060048201526014602482015273746f6b656e20616c72656164792065786973747360601b604482015290519081900360640190fd5b805460ff60a81b196001600160a01b039094166001600160a01b031960ff60a01b19909216600160a01b17919091161792909216600160a81b1782556001820155600060028201819055600382018190556004820181905560058201819055600682015542600790910155565b6001600160a01b0381166000908152600460205260408120610d3590614690565b613298614680565b6000546001600160a01b039081169116146132e8576040805162461bcd60e51b81526020600482018190526024820152600080516020614ca1833981519152604482015290519081900360640190fd5b6001600160a01b03821660009081526002602052604090208054600160a01b900460ff16613350576040805162461bcd60e51b815260206004820152601060248201526f746f6b656e206e6f742065786973747360801b604482015290519081900360640190fd5b8054911515600160a81b0260ff60a81b1990921691909117905550565b600061337833612a22565b90505b8015612933576133966133913360018403612fc4565b610c4f565b6000190161337b565b6001600160a01b03821660009081526002602052604081208054600160a01b900460ff16613407576040805162461bcd60e51b815260206004820152601060248201526f746f6b656e206e6f742065786973747360801b604482015290519081900360640190fd5b60048101546134195782915050610d35565b611b6d8160040154611b6783600501548661434090919063ffffffff16565b6001600160a01b0381166000908152600460205260408120610d3590600201614690565b6000818152600560205260408082206004808201548351635931c79360e01b81526001600160a01b0388811693820193909352845186959390921692635931c79392602480840193829003018186803b1580156134b857600080fd5b505afa1580156134cc573d6000803e3d6000fd5b505050506040513d60408110156134e257600080fd5b50805160209091015190969095509350505050565b6001600160a01b03821660009081526004602052604081206129589060020183614684565b60065481565b61352a614680565b6000546001600160a01b0390811691161461357a576040805162461bcd60e51b81526020600482018190526024820152600080516020614ca1833981519152604482015290519081900360640190fd5b6001600160a01b0381166135bf5760405162461bcd60e51b8152600401808060200182810382526026815260200180614c0f6026913960400191505060405180910390fd5b600080546040516001600160a01b03808516939216917f8be0079c531659141344cd1fd0a4f28419497f9722a3daafe3b4186f6b6457e091a3600080546001600160a01b0319166001600160a01b0392909216919091179055565b60608060006136296009614690565b905060608167ffffffffffffffff8111801561364457600080fd5b5060405190808252806020026020018201604052801561366e578160200160208202803683370190505b50905060608267ffffffffffffffff8111801561368a57600080fd5b506040519080825280602002602001820160405280156136b4578160200160208202803683370190505b50905060005b838110156138305760006136cf600983614684565b6000818152600760209081526040808320600181015484526005909252822092935091906136fd8282612c95565b9050600061370c836001612cb9565b90508488878151811061371b57fe5b6020908102919091018101919091526004848101546040805180820182528681529384018590525163057dd56560e41b81529182018881526001600160a01b03909116926357dd5650928992889291606481019084906024015b81546001600160a01b031681526001909101906020018083116137755750839050604080838360005b838110156137b657818101518382015260200161379e565b50505050905001935050505060206040518083038186803b1580156137da57600080fd5b505afa1580156137ee573d6000803e3d6000fd5b505050506040513d602081101561380457600080fd5b5051875188908890811061381457fe5b60200260200101818152505050505050508060010190506136ba565b509093509150509091565b60026001541415613881576040805162461bcd60e51b815260206004820152601f6024820152600080516020614bcd833981519152604482015290519081900360640190fd5b600260018190556001600160a01b038316600090815260209182526040808220338352600390935290208154600160a01b900460ff166138fa576040805162461bcd60e51b815260206004820152600f60248201526e151bdad95b881b9bdd08195e1a5cdd608a1b604482015290519081900360640190fd5b61390384613b92565b60006139208360030154611b676139198861295f565b8790614340565b60028401549091506139329082613ed5565b600284015560038301546139469085613ed5565b60038401556001600160a01b03851660009081526020839052604090205461396e9085613ed5565b6001600160a01b0380871660009081526020859052604080822093909355600c5460018701548451631cc6d2f960e31b8152600481019190915233602482015260448101899052935192169263e63697c8926064808301939282900301818387803b1580156139dc57600080fd5b505af11580156139f0573d6000803e3d6000fd5b505050506139fc61336d565b6001600160a01b038516613a14576131223382614244565b6131328533836140f1565b613a27614975565b6000613a31614975565b6000613a3b614975565b50505060009283525050600560208181526040928390208351808501855281546001600160a01b0390811682526001830154811682850152600283015486518088018852600385015460ff81811615158352610100909104811615158288015260048601548951808b01909a5297860154808a529689019690965260078501546008909501549398959091169690959091169390929190565b600080805b613ae284612a22565b811015613b1057613b06613aff85613afa8785612fc4565b611b75565b8390613b38565b9150600101613ad9565b5092915050565b6000612958836001600160a01b03841661469b565b60006129588383614761565b600082820183811015612958576040805162461bcd60e51b815260206004820152601b60248201527f536166654d6174683a206164646974696f6e206f766572666c6f770000000000604482015290519081900360640190fd5b6001600160a01b03811660009081526002602052604090208054600160a01b900460ff16613bfa576040805162461bcd60e51b815260206004820152601060248201526f746f6b656e206e6f742065786973747360801b604482015290519081900360640190fd5b8060070154421115612644576000613c1f826007015442613ed590919063ffffffff16565b60048301549091506000613c328561295f565b600b5460408051636d415b0160e11b815260048101869052602481018490526001600160a01b0389811660448301529151939450600093919092169163da82b602916064808301926020929190829003018186803b158015613c9357600080fd5b505afa158015613ca7573d6000803e3d6000fd5b505050506040513d6020811015613cbd57600080fd5b505190506000613ce3670de0b6b3a7640000611b6786613cdd868a614340565b90614340565b90506000613d71612710611b67600b60009054906101000a90046001600160a01b03166001600160a01b031663249c11bd6040518163ffffffff1660e01b815260040160206040518083038186803b158015613d3e57600080fd5b505afa158015613d52573d6000803e3d6000fd5b505050506040513d6020811015613d6857600080fd5b50518590614340565b6006880154909150613d839082613b38565b60068801556004870154613d979083613b38565b60048801555050426007860155505050505050565b613db4614975565b613dbc614975565b60005b6002811015610dc45760006002818684838110613dd857fe5b01546001600160a01b0316815260208101919091526040016000908120915060028088019084908110613e0757fe5b015490508015613eb757613e31868460028110613e2057fe5b01546001600160a01b031682611ace565b848460028110613e3d57fe5b6020020152600060028089019085908110613e5457fe5b0155613e75848460028110613e6557fe5b6020020151600284015490613b38565b60028301556005820154613e899082613ed5565b6005830155613ead848460028110613e9d57fe5b6020020151600484015490613ed5565b6004830155613ecb565b6000848460028110613ec557fe5b60200201525b5050600101613dbf565b600061295883836040518060400160405280601e81526020017f536166654d6174683a207375627472616374696f6e206f766572666c6f7700008152506147ab565b6000816001600160a01b03166370a08231306040518263ffffffff1660e01b815260040180826001600160a01b0316815260200191505060206040518083038186803b158015613f6657600080fd5b505afa158015613f7a573d6000803e3d6000fd5b505050506040513d6020811015613f9057600080fd5b505192915050565b604080516001600160a01b038481166024830152604480830185905283518084039091018152606490920183526020820180516001600160e01b031663095ea7b360e01b178152925182516000946060949389169392918291908083835b602083106140155780518252601f199092019160209182019101613ff6565b6001836020036101000a0380198251168184511680821785525050505050509050019150506000604051808303816000865af19150503d8060008114614077576040519150601f19603f3d011682016040523d82523d6000602084013e61407c565b606091505b50915091508180156140aa5750805115806140aa57508080602001905160208110156140a757600080fd5b50515b6140ea576040805162461bcd60e51b815260206004820152600c60248201526b2173616665417070726f766560a01b604482015290519081900360640190fd5b5050505050565b604080516001600160a01b038481166024830152604480830185905283518084039091018152606490920183526020820180516001600160e01b031663a9059cbb60e01b178152925182516000946060949389169392918291908083835b6020831061416e5780518252601f19909201916020918201910161414f565b6001836020036101000a0380198251168184511680821785525050505050509050019150506000604051808303816000865af19150503d80600081146141d0576040519150601f19603f3d011682016040523d82523d6000602084013e6141d5565b606091505b5091509150818015614203575080511580614203575080806020019051602081101561420057600080fd5b50515b6140ea576040805162461bcd60e51b815260206004820152600d60248201526c10b9b0b332aa3930b739b332b960991b604482015290519081900360640190fd5b604080516000808252602082019092526001600160a01b0384169083906040518082805190602001908083835b602083106142905780518252601f199092019160209182019101614271565b6001836020036101000a03801982511681845116808217855250505050505090500191505060006040518083038185875af1925050503d80600081146142f2576040519150601f19603f3d011682016040523d82523d6000602084013e6142f7565b606091505b5050905080610d09576040805162461bcd60e51b815260206004820152601060248201526f042e6c2cccaa8e4c2dce6cccae48aa8960831b604482015290519081900360640190fd5b60008261434f57506000610d35565b8282028284828161435c57fe5b04146129585760405162461bcd60e51b8152600401808060200182810382526021815260200180614c806021913960400191505060405180910390fd5b60005b6002811015610d07578181600281106143b157fe5b60200201516143bf576144ae565b600060028185848381106143cf57fe5b01546001600160a01b0316815260208101919091526040016000908120915061441e8584600281106143fd57fe5b01546001600160a01b031685856002811061441457fe5b602002015161339f565b905061443b8187600201856002811061443357fe5b015490613b38565b86600201846002811061444a57fe5b015561446b84846002811061445b57fe5b6020020151600284015490613ed5565b6002830155600582015461447f9082613b38565b60058301556144a384846002811061449357fe5b6020020151600484015490613b38565b826004018190555050505b60010161439c565b6000612958838361469b565b600061295883836040518060400160405280601a81526020017f536166654d6174683a206469766973696f6e206279207a65726f000000000000815250614842565b604080516001600160a01b0385811660248301528481166044830152606480830185905283518084039091018152608490920183526020820180516001600160e01b03166323b872dd60e01b17815292518251600094606094938a169392918291908083835b602083106145895780518252601f19909201916020918201910161456a565b6001836020036101000a0380198251168184511680821785525050505050509050019150506000604051808303816000865af19150503d80600081146145eb576040519150601f19603f3d011682016040523d82523d6000602084013e6145f0565b606091505b509150915081801561461e57508051158061461e575080806020019051602081101561461b57600080fd5b50515b614663576040805162461bcd60e51b815260206004820152601160248201527021736166655472616e7366657246726f6d60781b604482015290519081900360640190fd5b505050505050565b6000612958836001600160a01b038416614761565b3390565b600061295883836148a7565b6000610d358261490b565b6000818152600183016020526040812054801561475757835460001980830191908101906000908790839081106146ce57fe5b90600052602060002001549050808760000184815481106146eb57fe5b60009182526020808320909101929092558281526001898101909252604090209084019055865487908061471b57fe5b60019003818190600052602060002001600090559055866001016000878152602001908152602001600020600090556001945050505050610d35565b6000915050610d35565b600061476d838361490f565b6147a357508154600181810184556000848152602080822090930184905584548482528286019093526040902091909155610d35565b506000610d35565b6000818484111561483a5760405162461bcd60e51b81526004018080602001828103825283818151815260200191508051906020019080838360005b838110156147ff5781810151838201526020016147e7565b50505050905090810190601f16801561482c5780820380516001836020036101000a031916815260200191505b509250505060405180910390fd5b505050900390565b600081836148915760405162461bcd60e51b81526020600482018181528351602484015283519092839260449091019190850190808383600083156147ff5781810151838201526020016147e7565b50600083858161489d57fe5b0495945050505050565b815460009082106148e95760405162461bcd60e51b8152600401808060200182810382526022815260200180614b5b6022913960400191505060405180910390fd5b8260000182815481106148f857fe5b9060005260206000200154905092915050565b5490565b60009081526001919091016020526040902054151590565b6040518060c0016040528060008152602001614941614975565b815260200161494e614975565b815260200161495b614975565b8152602001614968614975565b8152600060209091015290565b60405180604001604052806002906020820280368337509192915050565b6040518060e001604052806149a6614975565b8152602001600081526020016149ba614975565b8152602001600081526020016149ce614975565b81526020016149db614975565b81526020016149e8614975565b905290565b600183019183908215614a715791602002820160005b83821115614a42578335151583826101000a81548160ff0219169083151502179055509260200192600101602081600001049283019260010302614a03565b8015614a6f5782816101000a81549060ff0219169055600101602081600001049283019260010302614a42565b505b50614a7d929150614b0d565b5090565b8260028101928215614ac7579160200282015b82811115614ac75781546001600160a01b0319166001600160a01b03843516178255602090920191600190910190614a94565b50614a7d929150614b26565b8260028101928215614b01579160200282015b82811115614b01578235825591602001919060010190614ae6565b50614a7d929150614b45565b5b80821115614a7d57805460ff19168155600101614b0e565b5b80821115614a7d5780546001600160a01b0319168155600101614b27565b5b80821115614a7d5760008155600101614b4656fe456e756d657261626c655365743a20696e646578206f7574206f6620626f756e64734c697175696461746520666163746f722073686f756c64206c657373207468616e2039303030546f6b656e20312063616e20626f72726f77206f72206d696e20646562742073686f756c6420626520305265656e7472616e637947756172643a207265656e7472616e742063616c6c004f70656e20666163746f722073686f756c64206c657373207468616e2031303030304f776e61626c653a206e6577206f776e657220697320746865207a65726f2061646472657373546f6b656e20302063616e20626f72726f77206f72206d696e20646562742073686f756c642062652030546f6b656e206e6f74206578697374206f722063616e6e6f74206465706f736974536166654d6174683a206d756c7469706c69636174696f6e206f766572666c6f774f776e61626c653a2063616c6c6572206973206e6f7420746865206f776e6572696e73756666696369656e7420626f72726f77546f6b656e20696e207468652062616e6ba2646970667358221220ab2eee4989fb03516d0411ae157e617a972315deb4e93ae165ba16cab714fbcc64736f6c634300060c0033",
			"opcodes": "PUSH1 0x80 PUSH1 0x40 MSTORE PUSH1 0x1 PUSH1 0x6 SSTORE PUSH1 0x1 PUSH1 0x8 SSTORE CALLVALUE DUP1 ISZERO PUSH3 0x1B JUMPI PUSH1 0x0 DUP1 REVERT JUMPDEST POP PUSH1 0x40 MLOAD PUSH3 0x4DF1 CODESIZE SUB DUP1 PUSH3 0x4DF1 DUP4 CODECOPY DUP2 DUP2 ADD PUSH1 0x40 MSTORE PUSH1 0x20 DUP2 LT ISZERO PUSH3 0x41 JUMPI PUSH1 0x0 DUP1 REVERT JUMPDEST POP MLOAD PUSH1 0x0 PUSH3 0x4F PUSH3 0xC3 JUMP JUMPDEST PUSH1 0x0 DUP1 SLOAD PUSH1 0x1 PUSH1 0x1 PUSH1 0xA0 SHL SUB NOT AND PUSH1 0x1 PUSH1 0x1 PUSH1 0xA0 SHL SUB DUP4 AND SWAP1 DUP2 OR DUP3 SSTORE PUSH1 0x40 MLOAD SWAP3 SWAP4 POP SWAP2 PUSH32 0x8BE0079C531659141344CD1FD0A4F28419497F9722A3DAAFE3B4186F6B6457E0 SWAP1 DUP3 SWAP1 LOG3 POP PUSH1 0x1 DUP1 SSTORE PUSH1 0xC DUP1 SLOAD PUSH1 0x1 PUSH1 0x1 PUSH1 0xA0 SHL SUB NOT AND PUSH1 0x1 PUSH1 0x1 PUSH1 0xA0 SHL SUB SWAP3 SWAP1 SWAP3 AND SWAP2 SWAP1 SWAP2 OR SWAP1 SSTORE PUSH3 0xC7 JUMP JUMPDEST CALLER SWAP1 JUMP JUMPDEST PUSH2 0x4D1A DUP1 PUSH3 0xD7 PUSH1 0x0 CODECOPY PUSH1 0x0 RETURN INVALID PUSH1 0x80 PUSH1 0x40 MSTORE PUSH1 0x4 CALLDATASIZE LT PUSH2 0x229 JUMPI PUSH1 0x0 CALLDATALOAD PUSH1 0xE0 SHR DUP1 PUSH4 0x89097A6A GT PUSH2 0x123 JUMPI DUP1 PUSH4 0xC879D8C6 GT PUSH2 0xAB JUMPI DUP1 PUSH4 0xF2FDE38B GT PUSH2 0x6F JUMPI DUP1 PUSH4 0xF2FDE38B EQ PUSH2 0xA20 JUMPI DUP1 PUSH4 0xF3C6A598 EQ PUSH2 0xA53 JUMPI DUP1 PUSH4 0xF3FEF3A3 EQ PUSH2 0xB01 JUMPI DUP1 PUSH4 0xF62613FF EQ PUSH2 0xB3A JUMPI DUP1 PUSH4 0xFDB5FEFC EQ PUSH2 0xC1C JUMPI PUSH2 0x230 JUMP JUMPDEST DUP1 PUSH4 0xC879D8C6 EQ PUSH2 0x914 JUMPI DUP1 PUSH4 0xE2DE375C EQ PUSH2 0x94D JUMPI DUP1 PUSH4 0xE6CD3526 EQ PUSH2 0x980 JUMPI DUP1 PUSH4 0xEF6A96FD EQ PUSH2 0x9D2 JUMPI DUP1 PUSH4 0xEFE97AFD EQ PUSH2 0xA0B JUMPI PUSH2 0x230 JUMP JUMPDEST DUP1 PUSH4 0xAE1914F8 GT PUSH2 0xF2 JUMPI DUP1 PUSH4 0xAE1914F8 EQ PUSH2 0x815 JUMPI DUP1 PUSH4 0xAF81C5B9 EQ PUSH2 0x858 JUMPI DUP1 PUSH4 0xB3493BB6 EQ PUSH2 0x891 JUMPI DUP1 PUSH4 0xB3CBF396 EQ PUSH2 0x8C4 JUMPI DUP1 PUSH4 0xC6B99FE2 EQ PUSH2 0x8FF JUMPI PUSH2 0x230 JUMP JUMPDEST DUP1 PUSH4 0x89097A6A EQ PUSH2 0x6FC JUMPI DUP1 PUSH4 0x8DA5CB5B EQ PUSH2 0x7B2 JUMPI DUP1 PUSH4 0x92E1DF38 EQ PUSH2 0x7C7 JUMPI DUP1 PUSH4 0x9F776B6A EQ PUSH2 0x800 JUMPI PUSH2 0x230 JUMP JUMPDEST DUP1 PUSH4 0x4B3F31BF GT PUSH2 0x1B1 JUMPI DUP1 PUSH4 0x6CC919C8 GT PUSH2 0x175 JUMPI DUP1 PUSH4 0x6CC919C8 EQ PUSH2 0x5C3 JUMPI DUP1 PUSH4 0x715018A6 EQ PUSH2 0x5F6 JUMPI DUP1 PUSH4 0x79502C55 EQ PUSH2 0x60B JUMPI DUP1 PUSH4 0x80C3B8C2 EQ PUSH2 0x63C JUMPI DUP1 PUSH4 0x84231EFB EQ PUSH2 0x6C9 JUMPI PUSH2 0x230 JUMP JUMPDEST DUP1 PUSH4 0x4B3F31BF EQ PUSH2 0x4B0 JUMPI DUP1 PUSH4 0x52A7DE02 EQ PUSH2 0x50F JUMPI DUP1 PUSH4 0x549B2FE9 EQ PUSH2 0x524 JUMPI DUP1 PUSH4 0x5CF3B15F EQ PUSH2 0x55D JUMPI DUP1 PUSH4 0x5D5C0238 EQ PUSH2 0x590 JUMPI PUSH2 0x230 JUMP JUMPDEST DUP1 PUSH4 0x2512C195 GT PUSH2 0x1F8 JUMPI DUP1 PUSH4 0x2512C195 EQ PUSH2 0x3BC JUMPI DUP1 PUSH4 0x3DF7FE70 EQ PUSH2 0x3F5 JUMPI DUP1 PUSH4 0x415F1240 EQ PUSH2 0x430 JUMPI DUP1 PUSH4 0x47E7EF24 EQ PUSH2 0x45A JUMPI DUP1 PUSH4 0x49F7C117 EQ PUSH2 0x486 JUMPI PUSH2 0x230 JUMP JUMPDEST DUP1 PUSH4 0x33284A2 EQ PUSH2 0x235 JUMPI DUP1 PUSH4 0x130FB188 EQ PUSH2 0x26A JUMPI DUP1 PUSH4 0x18C6D123 EQ PUSH2 0x2B7 JUMPI DUP1 PUSH4 0x1D1A619F EQ PUSH2 0x33A JUMPI PUSH2 0x230 JUMP JUMPDEST CALLDATASIZE PUSH2 0x230 JUMPI STOP JUMPDEST PUSH1 0x0 DUP1 REVERT JUMPDEST CALLVALUE DUP1 ISZERO PUSH2 0x241 JUMPI PUSH1 0x0 DUP1 REVERT JUMPDEST POP PUSH2 0x268 PUSH1 0x4 DUP1 CALLDATASIZE SUB PUSH1 0x20 DUP2 LT ISZERO PUSH2 0x258 JUMPI PUSH1 0x0 DUP1 REVERT JUMPDEST POP CALLDATALOAD PUSH1 0x1 PUSH1 0x1 PUSH1 0xA0 SHL SUB AND PUSH2 0xC4F JUMP JUMPDEST STOP JUMPDEST CALLVALUE DUP1 ISZERO PUSH2 0x276 JUMPI PUSH1 0x0 DUP1 REVERT JUMPDEST POP PUSH2 0x2A5 PUSH1 0x4 DUP1 CALLDATASIZE SUB PUSH1 0x40 DUP2 LT ISZERO PUSH2 0x28D JUMPI PUSH1 0x0 DUP1 REVERT JUMPDEST POP PUSH1 0x1 PUSH1 0x1 PUSH1 0xA0 SHL SUB DUP2 CALLDATALOAD DUP2 AND SWAP2 PUSH1 0x20 ADD CALLDATALOAD AND PUSH2 0xD0E JUMP JUMPDEST PUSH1 0x40 DUP1 MLOAD SWAP2 DUP3 MSTORE MLOAD SWAP1 DUP2 SWAP1 SUB PUSH1 0x20 ADD SWAP1 RETURN JUMPDEST CALLVALUE DUP1 ISZERO PUSH2 0x2C3 JUMPI PUSH1 0x0 DUP1 REVERT JUMPDEST POP PUSH2 0x2EA PUSH1 0x4 DUP1 CALLDATASIZE SUB PUSH1 0x20 DUP2 LT ISZERO PUSH2 0x2DA JUMPI PUSH1 0x0 DUP1 REVERT JUMPDEST POP CALLDATALOAD PUSH1 0x1 PUSH1 0x1 PUSH1 0xA0 SHL SUB AND PUSH2 0xD3B JUMP JUMPDEST PUSH1 0x40 DUP1 MLOAD PUSH1 0x20 DUP1 DUP3 MSTORE DUP4 MLOAD DUP2 DUP4 ADD MSTORE DUP4 MLOAD SWAP2 SWAP3 DUP4 SWAP3 SWAP1 DUP4 ADD SWAP2 DUP6 DUP2 ADD SWAP2 MUL DUP1 DUP4 DUP4 PUSH1 0x0 JUMPDEST DUP4 DUP2 LT ISZERO PUSH2 0x326 JUMPI DUP2 DUP2 ADD MLOAD DUP4 DUP3 ADD MSTORE PUSH1 0x20 ADD PUSH2 0x30E JUMP JUMPDEST POP POP POP POP SWAP1 POP ADD SWAP3 POP POP POP PUSH1 0x40 MLOAD DUP1 SWAP2 SUB SWAP1 RETURN JUMPDEST PUSH2 0x268 PUSH1 0x4 DUP1 CALLDATASIZE SUB PUSH1 0xA0 DUP2 LT ISZERO PUSH2 0x350 JUMPI PUSH1 0x0 DUP1 REVERT JUMPDEST DUP2 CALLDATALOAD SWAP2 PUSH1 0x20 DUP2 ADD CALLDATALOAD SWAP2 PUSH1 0x40 DUP3 ADD SWAP2 SWAP1 DUP2 ADD SWAP1 PUSH1 0xA0 DUP2 ADD PUSH1 0x80 DUP3 ADD CALLDATALOAD PUSH5 0x100000000 DUP2 GT ISZERO PUSH2 0x37D JUMPI PUSH1 0x0 DUP1 REVERT JUMPDEST DUP3 ADD DUP4 PUSH1 0x20 DUP3 ADD GT ISZERO PUSH2 0x38F JUMPI PUSH1 0x0 DUP1 REVERT JUMPDEST DUP1 CALLDATALOAD SWAP1 PUSH1 0x20 ADD SWAP2 DUP5 PUSH1 0x1 DUP4 MUL DUP5 ADD GT PUSH5 0x100000000 DUP4 GT OR ISZERO PUSH2 0x3B1 JUMPI PUSH1 0x0 DUP1 REVERT JUMPDEST POP SWAP1 SWAP3 POP SWAP1 POP PUSH2 0xDCC JUMP JUMPDEST CALLVALUE DUP1 ISZERO PUSH2 0x3C8 JUMPI PUSH1 0x0 DUP1 REVERT JUMPDEST POP PUSH2 0x2A5 PUSH1 0x4 DUP1 CALLDATASIZE SUB PUSH1 0x40 DUP2 LT ISZERO PUSH2 0x3DF JUMPI PUSH1 0x0 DUP1 REVERT JUMPDEST POP PUSH1 0x1 PUSH1 0x1 PUSH1 0xA0 SHL SUB DUP2 CALLDATALOAD AND SWAP1 PUSH1 0x20 ADD CALLDATALOAD PUSH2 0x1ACE JUMP JUMPDEST CALLVALUE DUP1 ISZERO PUSH2 0x401 JUMPI PUSH1 0x0 DUP1 REVERT JUMPDEST POP PUSH2 0x2A5 PUSH1 0x4 DUP1 CALLDATASIZE SUB PUSH1 0x40 DUP2 LT ISZERO PUSH2 0x418 JUMPI PUSH1 0x0 DUP1 REVERT JUMPDEST POP PUSH1 0x1 PUSH1 0x1 PUSH1 0xA0 SHL SUB DUP2 CALLDATALOAD DUP2 AND SWAP2 PUSH1 0x20 ADD CALLDATALOAD AND PUSH2 0x1B75 JUMP JUMPDEST CALLVALUE DUP1 ISZERO PUSH2 0x43C JUMPI PUSH1 0x0 DUP1 REVERT JUMPDEST POP PUSH2 0x268 PUSH1 0x4 DUP1 CALLDATASIZE SUB PUSH1 0x20 DUP2 LT ISZERO PUSH2 0x453 JUMPI PUSH1 0x0 DUP1 REVERT JUMPDEST POP CALLDATALOAD PUSH2 0x1C13 JUMP JUMPDEST PUSH2 0x268 PUSH1 0x4 DUP1 CALLDATASIZE SUB PUSH1 0x40 DUP2 LT ISZERO PUSH2 0x470 JUMPI PUSH1 0x0 DUP1 REVERT JUMPDEST POP PUSH1 0x1 PUSH1 0x1 PUSH1 0xA0 SHL SUB DUP2 CALLDATALOAD AND SWAP1 PUSH1 0x20 ADD CALLDATALOAD PUSH2 0x2367 JUMP JUMPDEST CALLVALUE DUP1 ISZERO PUSH2 0x492 JUMPI PUSH1 0x0 DUP1 REVERT JUMPDEST POP PUSH2 0x268 PUSH1 0x4 DUP1 CALLDATASIZE SUB PUSH1 0x20 DUP2 LT ISZERO PUSH2 0x4A9 JUMPI PUSH1 0x0 DUP1 REVERT JUMPDEST POP CALLDATALOAD PUSH2 0x259F JUMP JUMPDEST CALLVALUE DUP1 ISZERO PUSH2 0x4BC JUMPI PUSH1 0x0 DUP1 REVERT JUMPDEST POP PUSH2 0x268 PUSH1 0x4 DUP1 CALLDATASIZE SUB PUSH2 0x160 DUP2 LT ISZERO PUSH2 0x4D4 JUMPI PUSH1 0x0 DUP1 REVERT JUMPDEST POP DUP1 CALLDATALOAD SWAP1 PUSH1 0x20 DUP2 ADD CALLDATALOAD ISZERO ISZERO SWAP1 PUSH1 0x40 DUP2 ADD SWAP1 PUSH1 0x80 DUP2 ADD SWAP1 PUSH1 0x1 PUSH1 0x1 PUSH1 0xA0 SHL SUB PUSH1 0xC0 DUP3 ADD CALLDATALOAD AND SWAP1 PUSH1 0xE0 DUP2 ADD SWAP1 PUSH2 0x120 DUP2 ADD CALLDATALOAD SWAP1 PUSH2 0x140 ADD CALLDATALOAD PUSH2 0x2648 JUMP JUMPDEST CALLVALUE DUP1 ISZERO PUSH2 0x51B JUMPI PUSH1 0x0 DUP1 REVERT JUMPDEST POP PUSH2 0x268 PUSH2 0x2901 JUMP JUMPDEST CALLVALUE DUP1 ISZERO PUSH2 0x530 JUMPI PUSH1 0x0 DUP1 REVERT JUMPDEST POP PUSH2 0x2A5 PUSH1 0x4 DUP1 CALLDATASIZE SUB PUSH1 0x40 DUP2 LT ISZERO PUSH2 0x547 JUMPI PUSH1 0x0 DUP1 REVERT JUMPDEST POP PUSH1 0x1 PUSH1 0x1 PUSH1 0xA0 SHL SUB DUP2 CALLDATALOAD AND SWAP1 PUSH1 0x20 ADD CALLDATALOAD PUSH2 0x2936 JUMP JUMPDEST CALLVALUE DUP1 ISZERO PUSH2 0x569 JUMPI PUSH1 0x0 DUP1 REVERT JUMPDEST POP PUSH2 0x2A5 PUSH1 0x4 DUP1 CALLDATASIZE SUB PUSH1 0x20 DUP2 LT ISZERO PUSH2 0x580 JUMPI PUSH1 0x0 DUP1 REVERT JUMPDEST POP CALLDATALOAD PUSH1 0x1 PUSH1 0x1 PUSH1 0xA0 SHL SUB AND PUSH2 0x295F JUMP JUMPDEST CALLVALUE DUP1 ISZERO PUSH2 0x59C JUMPI PUSH1 0x0 DUP1 REVERT JUMPDEST POP PUSH2 0x2A5 PUSH1 0x4 DUP1 CALLDATASIZE SUB PUSH1 0x20 DUP2 LT ISZERO PUSH2 0x5B3 JUMPI PUSH1 0x0 DUP1 REVERT JUMPDEST POP CALLDATALOAD PUSH1 0x1 PUSH1 0x1 PUSH1 0xA0 SHL SUB AND PUSH2 0x2A22 JUMP JUMPDEST CALLVALUE DUP1 ISZERO PUSH2 0x5CF JUMPI PUSH1 0x0 DUP1 REVERT JUMPDEST POP PUSH2 0x268 PUSH1 0x4 DUP1 CALLDATASIZE SUB PUSH1 0x20 DUP2 LT ISZERO PUSH2 0x5E6 JUMPI PUSH1 0x0 DUP1 REVERT JUMPDEST POP CALLDATALOAD PUSH1 0x1 PUSH1 0x1 PUSH1 0xA0 SHL SUB AND PUSH2 0x2A46 JUMP JUMPDEST CALLVALUE DUP1 ISZERO PUSH2 0x602 JUMPI PUSH1 0x0 DUP1 REVERT JUMPDEST POP PUSH2 0x268 PUSH2 0x2AC0 JUMP JUMPDEST CALLVALUE DUP1 ISZERO PUSH2 0x617 JUMPI PUSH1 0x0 DUP1 REVERT JUMPDEST POP PUSH2 0x620 PUSH2 0x2B62 JUMP JUMPDEST PUSH1 0x40 DUP1 MLOAD PUSH1 0x1 PUSH1 0x1 PUSH1 0xA0 SHL SUB SWAP1 SWAP3 AND DUP3 MSTORE MLOAD SWAP1 DUP2 SWAP1 SUB PUSH1 0x20 ADD SWAP1 RETURN JUMPDEST CALLVALUE DUP1 ISZERO PUSH2 0x648 JUMPI PUSH1 0x0 DUP1 REVERT JUMPDEST POP PUSH2 0x66F PUSH1 0x4 DUP1 CALLDATASIZE SUB PUSH1 0x20 DUP2 LT ISZERO PUSH2 0x65F JUMPI PUSH1 0x0 DUP1 REVERT JUMPDEST POP CALLDATALOAD PUSH1 0x1 PUSH1 0x1 PUSH1 0xA0 SHL SUB AND PUSH2 0x2B71 JUMP JUMPDEST PUSH1 0x40 DUP1 MLOAD PUSH1 0x1 PUSH1 0x1 PUSH1 0xA0 SHL SUB SWAP1 SWAP12 AND DUP12 MSTORE SWAP9 ISZERO ISZERO PUSH1 0x20 DUP12 ADD MSTORE SWAP7 ISZERO ISZERO DUP10 DUP10 ADD MSTORE PUSH1 0x60 DUP10 ADD SWAP6 SWAP1 SWAP6 MSTORE PUSH1 0x80 DUP9 ADD SWAP4 SWAP1 SWAP4 MSTORE PUSH1 0xA0 DUP8 ADD SWAP2 SWAP1 SWAP2 MSTORE PUSH1 0xC0 DUP7 ADD MSTORE PUSH1 0xE0 DUP6 ADD MSTORE PUSH2 0x100 DUP5 ADD MSTORE PUSH2 0x120 DUP4 ADD MSTORE MLOAD SWAP1 DUP2 SWAP1 SUB PUSH2 0x140 ADD SWAP1 RETURN JUMPDEST CALLVALUE DUP1 ISZERO PUSH2 0x6D5 JUMPI PUSH1 0x0 DUP1 REVERT JUMPDEST POP PUSH2 0x2EA PUSH1 0x4 DUP1 CALLDATASIZE SUB PUSH1 0x20 DUP2 LT ISZERO PUSH2 0x6EC JUMPI PUSH1 0x0 DUP1 REVERT JUMPDEST POP CALLDATALOAD PUSH1 0x1 PUSH1 0x1 PUSH1 0xA0 SHL SUB AND PUSH2 0x2BD1 JUMP JUMPDEST CALLVALUE DUP1 ISZERO PUSH2 0x708 JUMPI PUSH1 0x0 DUP1 REVERT JUMPDEST POP PUSH2 0x726 PUSH1 0x4 DUP1 CALLDATASIZE SUB PUSH1 0x20 DUP2 LT ISZERO PUSH2 0x71F JUMPI PUSH1 0x0 DUP1 REVERT JUMPDEST POP CALLDATALOAD PUSH2 0x2C5A JUMP JUMPDEST PUSH1 0x40 MLOAD DUP1 DUP8 DUP2 MSTORE PUSH1 0x20 ADD DUP7 DUP2 MSTORE PUSH1 0x20 ADD DUP6 DUP2 MSTORE PUSH1 0x20 ADD DUP5 PUSH1 0x2 PUSH1 0x20 MUL DUP1 DUP4 DUP4 PUSH1 0x0 JUMPDEST DUP4 DUP2 LT ISZERO PUSH2 0x760 JUMPI DUP2 DUP2 ADD MLOAD DUP4 DUP3 ADD MSTORE PUSH1 0x20 ADD PUSH2 0x748 JUMP JUMPDEST POP POP POP POP SWAP1 POP ADD DUP4 PUSH1 0x2 PUSH1 0x20 MUL DUP1 DUP4 DUP4 PUSH1 0x0 JUMPDEST DUP4 DUP2 LT ISZERO PUSH2 0x78B JUMPI DUP2 DUP2 ADD MLOAD DUP4 DUP3 ADD MSTORE PUSH1 0x20 ADD PUSH2 0x773 JUMP JUMPDEST POP POP POP POP SWAP1 POP ADD DUP3 PUSH1 0x1 PUSH1 0x1 PUSH1 0xA0 SHL SUB AND DUP2 MSTORE PUSH1 0x20 ADD SWAP7 POP POP POP POP POP POP POP PUSH1 0x40 MLOAD DUP1 SWAP2 SUB SWAP1 RETURN JUMPDEST CALLVALUE DUP1 ISZERO PUSH2 0x7BE JUMPI PUSH1 0x0 DUP1 REVERT JUMPDEST POP PUSH2 0x620 PUSH2 0x2FB5 JUMP JUMPDEST CALLVALUE DUP1 ISZERO PUSH2 0x7D3 JUMPI PUSH1 0x0 DUP1 REVERT JUMPDEST POP PUSH2 0x620 PUSH1 0x4 DUP1 CALLDATASIZE SUB PUSH1 0x40 DUP2 LT ISZERO PUSH2 0x7EA JUMPI PUSH1 0x0 DUP1 REVERT JUMPDEST POP PUSH1 0x1 PUSH1 0x1 PUSH1 0xA0 SHL SUB DUP2 CALLDATALOAD AND SWAP1 PUSH1 0x20 ADD CALLDATALOAD PUSH2 0x2FC4 JUMP JUMPDEST CALLVALUE DUP1 ISZERO PUSH2 0x80C JUMPI PUSH1 0x0 DUP1 REVERT JUMPDEST POP PUSH2 0x2A5 PUSH2 0x2FE9 JUMP JUMPDEST CALLVALUE DUP1 ISZERO PUSH2 0x821 JUMPI PUSH1 0x0 DUP1 REVERT JUMPDEST POP PUSH2 0x268 PUSH1 0x4 DUP1 CALLDATASIZE SUB PUSH1 0x60 DUP2 LT ISZERO PUSH2 0x838 JUMPI PUSH1 0x0 DUP1 REVERT JUMPDEST POP PUSH1 0x1 PUSH1 0x1 PUSH1 0xA0 SHL SUB DUP2 CALLDATALOAD DUP2 AND SWAP2 PUSH1 0x20 DUP2 ADD CALLDATALOAD SWAP1 SWAP2 AND SWAP1 PUSH1 0x40 ADD CALLDATALOAD PUSH2 0x2FEF JUMP JUMPDEST CALLVALUE DUP1 ISZERO PUSH2 0x864 JUMPI PUSH1 0x0 DUP1 REVERT JUMPDEST POP PUSH2 0x268 PUSH1 0x4 DUP1 CALLDATASIZE SUB PUSH1 0x40 DUP2 LT ISZERO PUSH2 0x87B JUMPI PUSH1 0x0 DUP1 REVERT JUMPDEST POP PUSH1 0x1 PUSH1 0x1 PUSH1 0xA0 SHL SUB DUP2 CALLDATALOAD AND SWAP1 PUSH1 0x20 ADD CALLDATALOAD PUSH2 0x313D JUMP JUMPDEST CALLVALUE DUP1 ISZERO PUSH2 0x89D JUMPI PUSH1 0x0 DUP1 REVERT JUMPDEST POP PUSH2 0x2A5 PUSH1 0x4 DUP1 CALLDATASIZE SUB PUSH1 0x20 DUP2 LT ISZERO PUSH2 0x8B4 JUMPI PUSH1 0x0 DUP1 REVERT JUMPDEST POP CALLDATALOAD PUSH1 0x1 PUSH1 0x1 PUSH1 0xA0 SHL SUB AND PUSH2 0x326F JUMP JUMPDEST CALLVALUE DUP1 ISZERO PUSH2 0x8D0 JUMPI PUSH1 0x0 DUP1 REVERT JUMPDEST POP PUSH2 0x268 PUSH1 0x4 DUP1 CALLDATASIZE SUB PUSH1 0x40 DUP2 LT ISZERO PUSH2 0x8E7 JUMPI PUSH1 0x0 DUP1 REVERT JUMPDEST POP PUSH1 0x1 PUSH1 0x1 PUSH1 0xA0 SHL SUB DUP2 CALLDATALOAD AND SWAP1 PUSH1 0x20 ADD CALLDATALOAD ISZERO ISZERO PUSH2 0x3290 JUMP JUMPDEST CALLVALUE DUP1 ISZERO PUSH2 0x90B JUMPI PUSH1 0x0 DUP1 REVERT JUMPDEST POP PUSH2 0x268 PUSH2 0x336D JUMP JUMPDEST CALLVALUE DUP1 ISZERO PUSH2 0x920 JUMPI PUSH1 0x0 DUP1 REVERT JUMPDEST POP PUSH2 0x2A5 PUSH1 0x4 DUP1 CALLDATASIZE SUB PUSH1 0x40 DUP2 LT ISZERO PUSH2 0x937 JUMPI PUSH1 0x0 DUP1 REVERT JUMPDEST POP PUSH1 0x1 PUSH1 0x1 PUSH1 0xA0 SHL SUB DUP2 CALLDATALOAD AND SWAP1 PUSH1 0x20 ADD CALLDATALOAD PUSH2 0x339F JUMP JUMPDEST CALLVALUE DUP1 ISZERO PUSH2 0x959 JUMPI PUSH1 0x0 DUP1 REVERT JUMPDEST POP PUSH2 0x2A5 PUSH1 0x4 DUP1 CALLDATASIZE SUB PUSH1 0x20 DUP2 LT ISZERO PUSH2 0x970 JUMPI PUSH1 0x0 DUP1 REVERT JUMPDEST POP CALLDATALOAD PUSH1 0x1 PUSH1 0x1 PUSH1 0xA0 SHL SUB AND PUSH2 0x3438 JUMP JUMPDEST CALLVALUE DUP1 ISZERO PUSH2 0x98C JUMPI PUSH1 0x0 DUP1 REVERT JUMPDEST POP PUSH2 0x9B9 PUSH1 0x4 DUP1 CALLDATASIZE SUB PUSH1 0x40 DUP2 LT ISZERO PUSH2 0x9A3 JUMPI PUSH1 0x0 DUP1 REVERT JUMPDEST POP PUSH1 0x1 PUSH1 0x1 PUSH1 0xA0 SHL SUB DUP2 CALLDATALOAD AND SWAP1 PUSH1 0x20 ADD CALLDATALOAD PUSH2 0x345C JUMP JUMPDEST PUSH1 0x40 DUP1 MLOAD SWAP3 DUP4 MSTORE PUSH1 0x20 DUP4 ADD SWAP2 SWAP1 SWAP2 MSTORE DUP1 MLOAD SWAP2 DUP3 SWAP1 SUB ADD SWAP1 RETURN JUMPDEST CALLVALUE DUP1 ISZERO PUSH2 0x9DE JUMPI PUSH1 0x0 DUP1 REVERT JUMPDEST POP PUSH2 0x2A5 PUSH1 0x4 DUP1 CALLDATASIZE SUB PUSH1 0x40 DUP2 LT ISZERO PUSH2 0x9F5 JUMPI PUSH1 0x0 DUP1 REVERT JUMPDEST POP PUSH1 0x1 PUSH1 0x1 PUSH1 0xA0 SHL SUB DUP2 CALLDATALOAD AND SWAP1 PUSH1 0x20 ADD CALLDATALOAD PUSH2 0x34F7 JUMP JUMPDEST CALLVALUE DUP1 ISZERO PUSH2 0xA17 JUMPI PUSH1 0x0 DUP1 REVERT JUMPDEST POP PUSH2 0x2A5 PUSH2 0x351C JUMP JUMPDEST CALLVALUE DUP1 ISZERO PUSH2 0xA2C JUMPI PUSH1 0x0 DUP1 REVERT JUMPDEST POP PUSH2 0x268 PUSH1 0x4 DUP1 CALLDATASIZE SUB PUSH1 0x20 DUP2 LT ISZERO PUSH2 0xA43 JUMPI PUSH1 0x0 DUP1 REVERT JUMPDEST POP CALLDATALOAD PUSH1 0x1 PUSH1 0x1 PUSH1 0xA0 SHL SUB AND PUSH2 0x3522 JUMP JUMPDEST CALLVALUE DUP1 ISZERO PUSH2 0xA5F JUMPI PUSH1 0x0 DUP1 REVERT JUMPDEST POP PUSH2 0xA68 PUSH2 0x361A JUMP JUMPDEST PUSH1 0x40 MLOAD DUP1 DUP1 PUSH1 0x20 ADD DUP1 PUSH1 0x20 ADD DUP4 DUP2 SUB DUP4 MSTORE DUP6 DUP2 DUP2 MLOAD DUP2 MSTORE PUSH1 0x20 ADD SWAP2 POP DUP1 MLOAD SWAP1 PUSH1 0x20 ADD SWAP1 PUSH1 0x20 MUL DUP1 DUP4 DUP4 PUSH1 0x0 JUMPDEST DUP4 DUP2 LT ISZERO PUSH2 0xAAC JUMPI DUP2 DUP2 ADD MLOAD DUP4 DUP3 ADD MSTORE PUSH1 0x20 ADD PUSH2 0xA94 JUMP JUMPDEST POP POP POP POP SWAP1 POP ADD DUP4 DUP2 SUB DUP3 MSTORE DUP5 DUP2 DUP2 MLOAD DUP2 MSTORE PUSH1 0x20 ADD SWAP2 POP DUP1 MLOAD SWAP1 PUSH1 0x20 ADD SWAP1 PUSH1 0x20 MUL DUP1 DUP4 DUP4 PUSH1 0x0 JUMPDEST DUP4 DUP2 LT ISZERO PUSH2 0xAEB JUMPI DUP2 DUP2 ADD MLOAD DUP4 DUP3 ADD MSTORE PUSH1 0x20 ADD PUSH2 0xAD3 JUMP JUMPDEST POP POP POP POP SWAP1 POP ADD SWAP5 POP POP POP POP POP PUSH1 0x40 MLOAD DUP1 SWAP2 SUB SWAP1 RETURN JUMPDEST CALLVALUE DUP1 ISZERO PUSH2 0xB0D JUMPI PUSH1 0x0 DUP1 REVERT JUMPDEST POP PUSH2 0x268 PUSH1 0x4 DUP1 CALLDATASIZE SUB PUSH1 0x40 DUP2 LT ISZERO PUSH2 0xB24 JUMPI PUSH1 0x0 DUP1 REVERT JUMPDEST POP PUSH1 0x1 PUSH1 0x1 PUSH1 0xA0 SHL SUB DUP2 CALLDATALOAD AND SWAP1 PUSH1 0x20 ADD CALLDATALOAD PUSH2 0x383B JUMP JUMPDEST CALLVALUE DUP1 ISZERO PUSH2 0xB46 JUMPI PUSH1 0x0 DUP1 REVERT JUMPDEST POP PUSH2 0xB64 PUSH1 0x4 DUP1 CALLDATASIZE SUB PUSH1 0x20 DUP2 LT ISZERO PUSH2 0xB5D JUMPI PUSH1 0x0 DUP1 REVERT JUMPDEST POP CALLDATALOAD PUSH2 0x3A1F JUMP JUMPDEST PUSH1 0x40 MLOAD DUP1 DUP9 PUSH1 0x2 PUSH1 0x20 MUL DUP1 DUP4 DUP4 PUSH1 0x0 JUMPDEST DUP4 DUP2 LT ISZERO PUSH2 0xB8C JUMPI DUP2 DUP2 ADD MLOAD DUP4 DUP3 ADD MSTORE PUSH1 0x20 ADD PUSH2 0xB74 JUMP JUMPDEST POP POP POP POP DUP10 ISZERO ISZERO SWAP3 ADD SWAP2 DUP3 MSTORE POP PUSH1 0x20 ADD DUP7 PUSH1 0x40 DUP1 DUP4 DUP4 PUSH1 0x0 JUMPDEST DUP4 DUP2 LT ISZERO PUSH2 0xBBD JUMPI DUP2 DUP2 ADD MLOAD DUP4 DUP3 ADD MSTORE PUSH1 0x20 ADD PUSH2 0xBA5 JUMP JUMPDEST POP POP POP POP SWAP1 POP ADD DUP6 PUSH1 0x1 PUSH1 0x1 PUSH1 0xA0 SHL SUB AND DUP2 MSTORE PUSH1 0x20 ADD DUP5 PUSH1 0x2 PUSH1 0x20 MUL DUP1 DUP4 DUP4 PUSH1 0x0 JUMPDEST DUP4 DUP2 LT ISZERO PUSH2 0xBF7 JUMPI DUP2 DUP2 ADD MLOAD DUP4 DUP3 ADD MSTORE PUSH1 0x20 ADD PUSH2 0xBDF JUMP JUMPDEST POP POP POP POP SWAP1 POP ADD DUP4 DUP2 MSTORE PUSH1 0x20 ADD DUP3 DUP2 MSTORE PUSH1 0x20 ADD SWAP8 POP POP POP POP POP POP POP POP PUSH1 0x40 MLOAD DUP1 SWAP2 SUB SWAP1 RETURN JUMPDEST CALLVALUE DUP1 ISZERO PUSH2 0xC28 JUMPI PUSH1 0x0 DUP1 REVERT JUMPDEST POP PUSH2 0x2A5 PUSH1 0x4 DUP1 CALLDATASIZE SUB PUSH1 0x20 DUP2 LT ISZERO PUSH2 0xC3F JUMPI PUSH1 0x0 DUP1 REVERT JUMPDEST POP CALLDATALOAD PUSH1 0x1 PUSH1 0x1 PUSH1 0xA0 SHL SUB AND PUSH2 0x3AD4 JUMP JUMPDEST PUSH1 0x1 PUSH1 0x1 PUSH1 0xA0 SHL SUB DUP1 DUP3 AND PUSH1 0x0 SWAP1 DUP2 MSTORE PUSH1 0x2 PUSH1 0x20 MSTORE PUSH1 0x40 DUP1 DUP3 KECCAK256 PUSH1 0xC SLOAD PUSH1 0x1 DUP3 ADD SLOAD DUP4 MLOAD PUSH4 0x3C212B1F PUSH1 0xE0 SHL DUP2 MSTORE PUSH1 0x4 DUP2 ADD SWAP2 SWAP1 SWAP2 MSTORE CALLER PUSH1 0x24 DUP3 ADD MSTORE SWAP3 MLOAD SWAP2 SWAP5 AND SWAP3 PUSH4 0x3C212B1F SWAP3 PUSH1 0x44 DUP1 DUP3 ADD SWAP4 SWAP2 DUP3 SWAP1 SUB ADD DUP2 DUP4 DUP8 DUP1 EXTCODESIZE ISZERO DUP1 ISZERO PUSH2 0xCB3 JUMPI PUSH1 0x0 DUP1 REVERT JUMPDEST POP GAS CALL ISZERO DUP1 ISZERO PUSH2 0xCC7 JUMPI RETURNDATASIZE PUSH1 0x0 DUP1 RETURNDATACOPY RETURNDATASIZE PUSH1 0x0 REVERT JUMPDEST POP POP CALLER PUSH1 0x0 SWAP1 DUP2 MSTORE PUSH1 0x3 PUSH1 0x20 SWAP1 DUP2 MSTORE PUSH1 0x40 DUP1 DUP4 KECCAK256 PUSH1 0x1 PUSH1 0x1 PUSH1 0xA0 SHL SUB DUP9 AND DUP5 MSTORE SWAP2 DUP3 SWAP1 MSTORE SWAP1 SWAP2 KECCAK256 SLOAD SWAP1 SWAP3 POP ISZERO ISZERO SWAP1 POP PUSH2 0xD09 JUMPI PUSH2 0xD07 DUP2 PUSH1 0x1 ADD DUP5 PUSH2 0x3B17 JUMP JUMPDEST POP JUMPDEST POP POP POP JUMP JUMPDEST PUSH1 0x1 PUSH1 0x1 PUSH1 0xA0 SHL SUB DUP1 DUP4 AND PUSH1 0x0 SWAP1 DUP2 MSTORE PUSH1 0x3 PUSH1 0x20 SWAP1 DUP2 MSTORE PUSH1 0x40 DUP1 DUP4 KECCAK256 SWAP4 DUP6 AND DUP4 MSTORE SWAP3 SWAP1 MSTORE KECCAK256 SLOAD JUMPDEST SWAP3 SWAP2 POP POP JUMP JUMPDEST PUSH1 0x60 PUSH1 0x0 PUSH2 0xD48 DUP4 PUSH2 0x3438 JUMP JUMPDEST SWAP1 POP PUSH1 0x60 DUP2 PUSH8 0xFFFFFFFFFFFFFFFF DUP2 GT DUP1 ISZERO PUSH2 0xD63 JUMPI PUSH1 0x0 DUP1 REVERT JUMPDEST POP PUSH1 0x40 MLOAD SWAP1 DUP1 DUP3 MSTORE DUP1 PUSH1 0x20 MUL PUSH1 0x20 ADD DUP3 ADD PUSH1 0x40 MSTORE DUP1 ISZERO PUSH2 0xD8D JUMPI DUP2 PUSH1 0x20 ADD PUSH1 0x20 DUP3 MUL DUP1 CALLDATASIZE DUP4 CALLDATACOPY ADD SWAP1 POP JUMPDEST POP SWAP1 POP PUSH1 0x0 JUMPDEST DUP3 DUP2 LT ISZERO PUSH2 0xDC4 JUMPI PUSH2 0xDA5 DUP6 DUP3 PUSH2 0x34F7 JUMP JUMPDEST DUP3 DUP3 DUP2 MLOAD DUP2 LT PUSH2 0xDB1 JUMPI INVALID JUMPDEST PUSH1 0x20 SWAP1 DUP2 MUL SWAP2 SWAP1 SWAP2 ADD ADD MSTORE PUSH1 0x1 ADD PUSH2 0xD93 JUMP JUMPDEST POP SWAP4 SWAP3 POP POP POP JUMP JUMPDEST CALLER ORIGIN EQ PUSH2 0xE0A JUMPI PUSH1 0x40 DUP1 MLOAD PUSH3 0x461BCD PUSH1 0xE5 SHL DUP2 MSTORE PUSH1 0x20 PUSH1 0x4 DUP3 ADD MSTORE PUSH1 0x7 PUSH1 0x24 DUP3 ADD MSTORE PUSH7 0x6E6F7420656F61 PUSH1 0xC8 SHL PUSH1 0x44 DUP3 ADD MSTORE SWAP1 MLOAD SWAP1 DUP2 SWAP1 SUB PUSH1 0x64 ADD SWAP1 REVERT JUMPDEST PUSH1 0x2 PUSH1 0x1 SLOAD EQ ISZERO PUSH2 0xE50 JUMPI PUSH1 0x40 DUP1 MLOAD PUSH3 0x461BCD PUSH1 0xE5 SHL DUP2 MSTORE PUSH1 0x20 PUSH1 0x4 DUP3 ADD MSTORE PUSH1 0x1F PUSH1 0x24 DUP3 ADD MSTORE PUSH1 0x0 DUP1 MLOAD PUSH1 0x20 PUSH2 0x4BCD DUP4 CODECOPY DUP2 MLOAD SWAP2 MSTORE PUSH1 0x44 DUP3 ADD MSTORE SWAP1 MLOAD SWAP1 DUP2 SWAP1 SUB PUSH1 0x64 ADD SWAP1 REVERT JUMPDEST PUSH1 0x2 PUSH1 0x1 SSTORE CALLER PUSH1 0x0 SWAP1 DUP2 MSTORE PUSH1 0x4 PUSH1 0x20 MSTORE PUSH1 0x40 SWAP1 KECCAK256 DUP6 PUSH2 0xEF2 JUMPI PUSH1 0x8 DUP1 SLOAD PUSH1 0x1 DUP1 DUP3 ADD SWAP1 SWAP3 SSTORE PUSH1 0x0 DUP2 DUP2 MSTORE PUSH1 0x7 PUSH1 0x20 MSTORE PUSH1 0x40 SWAP1 KECCAK256 DUP1 SLOAD PUSH1 0x1 PUSH1 0x1 PUSH1 0xA0 SHL SUB NOT AND CALLER OR DUP2 SSTORE SWAP1 SWAP2 ADD DUP7 SWAP1 SSTORE SWAP6 POP PUSH2 0xEA5 DUP2 DUP8 PUSH2 0x3B2C JUMP JUMPDEST POP PUSH2 0xEB1 PUSH1 0x9 DUP8 PUSH2 0x3B2C JUMP JUMPDEST POP PUSH2 0xEBF DUP2 PUSH1 0x2 ADD DUP7 PUSH2 0x3B2C JUMP JUMPDEST POP PUSH1 0x0 DUP6 DUP2 MSTORE PUSH1 0x4 DUP3 ADD PUSH1 0x20 MSTORE PUSH1 0x40 SWAP1 KECCAK256 SLOAD PUSH2 0xEDC SWAP1 PUSH1 0x1 PUSH2 0x3B38 JUMP JUMPDEST PUSH1 0x0 DUP7 DUP2 MSTORE PUSH1 0x4 DUP4 ADD PUSH1 0x20 MSTORE PUSH1 0x40 SWAP1 KECCAK256 SSTORE PUSH2 0xFAF JUMP JUMPDEST PUSH1 0x8 SLOAD DUP7 LT PUSH2 0xF3A JUMPI PUSH1 0x40 DUP1 MLOAD PUSH3 0x461BCD PUSH1 0xE5 SHL DUP2 MSTORE PUSH1 0x20 PUSH1 0x4 DUP3 ADD MSTORE PUSH1 0xF PUSH1 0x24 DUP3 ADD MSTORE PUSH15 0x189859081C1BDCDA5D1A5BDB881A59 PUSH1 0x8A SHL PUSH1 0x44 DUP3 ADD MSTORE SWAP1 MLOAD SWAP1 DUP2 SWAP1 SUB PUSH1 0x64 ADD SWAP1 REVERT JUMPDEST PUSH1 0x0 DUP7 DUP2 MSTORE PUSH1 0x7 PUSH1 0x20 MSTORE PUSH1 0x40 SWAP1 KECCAK256 SLOAD PUSH1 0x1 PUSH1 0x1 PUSH1 0xA0 SHL SUB AND CALLER EQ PUSH2 0xF9A JUMPI PUSH1 0x40 DUP1 MLOAD PUSH3 0x461BCD PUSH1 0xE5 SHL DUP2 MSTORE PUSH1 0x20 PUSH1 0x4 DUP3 ADD MSTORE PUSH1 0x12 PUSH1 0x24 DUP3 ADD MSTORE PUSH18 0x3737BA103837B9B4BA34B7B71037BBB732B9 PUSH1 0x71 SHL PUSH1 0x44 DUP3 ADD MSTORE SWAP1 MLOAD SWAP1 DUP2 SWAP1 SUB PUSH1 0x64 ADD SWAP1 REVERT JUMPDEST PUSH1 0x0 DUP7 DUP2 MSTORE PUSH1 0x7 PUSH1 0x20 MSTORE PUSH1 0x40 SWAP1 KECCAK256 PUSH1 0x1 ADD SLOAD SWAP5 POP JUMPDEST PUSH1 0x0 DUP6 DUP2 MSTORE PUSH1 0x5 PUSH1 0x20 MSTORE PUSH1 0x40 SWAP1 KECCAK256 PUSH1 0x2 DUP2 ADD SLOAD PUSH1 0xFF AND PUSH2 0x100E JUMPI PUSH1 0x40 DUP1 MLOAD PUSH3 0x461BCD PUSH1 0xE5 SHL DUP2 MSTORE PUSH1 0x20 PUSH1 0x4 DUP3 ADD MSTORE PUSH1 0x15 PUSH1 0x24 DUP3 ADD MSTORE PUSH21 0x50726F64756374696F6E206E6F7420657869737473 PUSH1 0x58 SHL PUSH1 0x44 DUP3 ADD MSTORE SWAP1 MLOAD SWAP1 DUP2 SWAP1 SUB PUSH1 0x64 ADD SWAP1 REVERT JUMPDEST DUP5 CALLDATALOAD ISZERO DUP1 PUSH2 0x1020 JUMPI POP PUSH1 0x3 DUP2 ADD SLOAD PUSH1 0xFF AND JUMPDEST DUP1 ISZERO PUSH2 0x1041 JUMPI POP PUSH1 0x20 DUP6 ADD CALLDATALOAD ISZERO DUP1 PUSH2 0x1041 JUMPI POP PUSH1 0x3 DUP2 ADD SLOAD PUSH2 0x100 SWAP1 DIV PUSH1 0xFF AND JUMPDEST PUSH2 0x1092 JUMPI PUSH1 0x40 DUP1 MLOAD PUSH3 0x461BCD PUSH1 0xE5 SHL DUP2 MSTORE PUSH1 0x20 PUSH1 0x4 DUP3 ADD MSTORE PUSH1 0x19 PUSH1 0x24 DUP3 ADD MSTORE PUSH32 0x50726F64756374696F6E2063616E206E6F7420626F72726F7700000000000000 PUSH1 0x44 DUP3 ADD MSTORE SWAP1 MLOAD SWAP1 DUP2 SWAP1 SUB PUSH1 0x64 ADD SWAP1 REVERT JUMPDEST PUSH2 0x10A9 DUP2 PUSH1 0x0 JUMPDEST ADD SLOAD PUSH1 0x1 PUSH1 0x1 PUSH1 0xA0 SHL SUB AND PUSH2 0x3B92 JUMP JUMPDEST PUSH2 0x10B4 DUP2 PUSH1 0x1 PUSH2 0x1099 JUMP JUMPDEST PUSH2 0x10BC PUSH2 0x4927 JUMP JUMPDEST CALLVALUE DUP2 MSTORE PUSH1 0x0 DUP9 DUP2 MSTORE PUSH1 0x7 PUSH1 0x20 MSTORE PUSH1 0x40 SWAP1 KECCAK256 PUSH2 0x10D7 SWAP1 DUP4 PUSH2 0x3DAC JUMP JUMPDEST PUSH1 0x40 DUP3 ADD MSTORE PUSH1 0x0 JUMPDEST PUSH1 0x2 DUP2 LT ISZERO PUSH2 0x13DD JUMPI PUSH2 0x1117 DUP8 DUP3 PUSH1 0x2 DUP2 LT PUSH2 0x10F7 JUMPI INVALID JUMPDEST PUSH1 0x20 MUL ADD CALLDATALOAD DUP4 PUSH1 0x40 ADD MLOAD DUP4 PUSH1 0x2 DUP2 LT PUSH2 0x110C JUMPI INVALID JUMPDEST PUSH1 0x20 MUL ADD MLOAD SWAP1 PUSH2 0x3B38 JUMP JUMPDEST DUP3 PUSH1 0x40 ADD MLOAD DUP3 PUSH1 0x2 DUP2 LT PUSH2 0x1127 JUMPI INVALID JUMPDEST PUSH1 0x20 MUL ADD MSTORE PUSH1 0x0 DUP4 DUP3 PUSH1 0x2 DUP2 LT PUSH2 0x113A JUMPI INVALID JUMPDEST ADD SLOAD PUSH1 0x80 DUP5 ADD MLOAD PUSH1 0x1 PUSH1 0x1 PUSH1 0xA0 SHL SUB SWAP1 SWAP2 AND SWAP2 SWAP1 SWAP2 EQ SWAP1 DUP3 PUSH1 0x2 DUP2 LT PUSH2 0x115C JUMPI INVALID JUMPDEST SWAP2 ISZERO ISZERO PUSH1 0x20 SWAP1 SWAP3 MUL ADD MSTORE PUSH1 0x80 DUP3 ADD MLOAD DUP2 PUSH1 0x2 DUP2 LT PUSH2 0x1176 JUMPI INVALID JUMPDEST PUSH1 0x20 MUL ADD MLOAD ISZERO PUSH2 0x126D JUMPI PUSH2 0x119F DUP8 DUP3 PUSH1 0x2 DUP2 LT PUSH2 0x118F JUMPI INVALID JUMPDEST DUP5 MLOAD SWAP2 PUSH1 0x20 SWAP2 SWAP1 SWAP2 MUL ADD CALLDATALOAD PUSH2 0x3B38 JUMP JUMPDEST DUP1 DUP4 MSTORE SELFBALANCE LT DUP1 ISZERO SWAP1 PUSH2 0x11F5 JUMPI POP PUSH1 0x2 PUSH1 0x0 DUP5 DUP4 DUP4 DUP2 LT PUSH2 0x11BB JUMPI INVALID JUMPDEST ADD SLOAD PUSH1 0x1 PUSH1 0x1 PUSH1 0xA0 SHL SUB AND DUP2 MSTORE PUSH1 0x20 DUP2 ADD SWAP2 SWAP1 SWAP2 MSTORE PUSH1 0x40 SWAP1 DUP2 ADD PUSH1 0x0 KECCAK256 PUSH1 0x2 SWAP1 DUP2 ADD SLOAD SWAP2 DUP5 ADD MLOAD SWAP1 DUP4 SWAP1 DUP2 LT PUSH2 0x11ED JUMPI INVALID JUMPDEST PUSH1 0x20 MUL ADD MLOAD GT ISZERO JUMPDEST PUSH2 0x1246 JUMPI PUSH1 0x40 DUP1 MLOAD PUSH3 0x461BCD PUSH1 0xE5 SHL DUP2 MSTORE PUSH1 0x20 PUSH1 0x4 DUP3 ADD MSTORE PUSH1 0x1C PUSH1 0x24 DUP3 ADD MSTORE PUSH32 0x696E73756666696369656E7420426E6220696E207468652062616E6B00000000 PUSH1 0x44 DUP3 ADD MSTORE SWAP1 MLOAD SWAP1 DUP2 SWAP1 SUB PUSH1 0x64 ADD SWAP1 REVERT JUMPDEST DUP2 MLOAD PUSH2 0x1253 SWAP1 SELFBALANCE SWAP1 PUSH2 0x3ED5 JUMP JUMPDEST DUP3 PUSH1 0x20 ADD MLOAD DUP3 PUSH1 0x2 DUP2 LT PUSH2 0x1263 JUMPI INVALID JUMPDEST PUSH1 0x20 MUL ADD MSTORE PUSH2 0x13D5 JUMP JUMPDEST PUSH2 0x128C DUP4 DUP3 PUSH1 0x2 DUP2 LT PUSH2 0x127C JUMPI INVALID JUMPDEST ADD SLOAD PUSH1 0x1 PUSH1 0x1 PUSH1 0xA0 SHL SUB AND PUSH2 0x3F17 JUMP JUMPDEST DUP3 PUSH1 0x20 ADD MLOAD DUP3 PUSH1 0x2 DUP2 LT PUSH2 0x129C JUMPI INVALID JUMPDEST PUSH1 0x20 MUL ADD DUP2 DUP2 MSTORE POP POP DUP2 PUSH1 0x20 ADD MLOAD DUP2 PUSH1 0x2 DUP2 LT PUSH2 0x12B5 JUMPI INVALID JUMPDEST PUSH1 0x20 MUL ADD MLOAD DUP8 DUP3 PUSH1 0x2 DUP2 LT PUSH2 0x12C6 JUMPI INVALID JUMPDEST PUSH1 0x20 MUL ADD CALLDATALOAD GT ISZERO DUP1 ISZERO PUSH2 0x131D JUMPI POP PUSH1 0x2 PUSH1 0x0 DUP5 DUP4 DUP4 DUP2 LT PUSH2 0x12E3 JUMPI INVALID JUMPDEST ADD SLOAD PUSH1 0x1 PUSH1 0x1 PUSH1 0xA0 SHL SUB AND DUP2 MSTORE PUSH1 0x20 DUP2 ADD SWAP2 SWAP1 SWAP2 MSTORE PUSH1 0x40 SWAP1 DUP2 ADD PUSH1 0x0 KECCAK256 PUSH1 0x2 SWAP1 DUP2 ADD SLOAD SWAP2 DUP5 ADD MLOAD SWAP1 DUP4 SWAP1 DUP2 LT PUSH2 0x1315 JUMPI INVALID JUMPDEST PUSH1 0x20 MUL ADD MLOAD GT ISZERO JUMPDEST PUSH2 0x1358 JUMPI PUSH1 0x40 MLOAD PUSH3 0x461BCD PUSH1 0xE5 SHL DUP2 MSTORE PUSH1 0x4 ADD DUP1 DUP1 PUSH1 0x20 ADD DUP3 DUP2 SUB DUP3 MSTORE PUSH1 0x24 DUP2 MSTORE PUSH1 0x20 ADD DUP1 PUSH2 0x4CC1 PUSH1 0x24 SWAP2 CODECOPY PUSH1 0x40 ADD SWAP2 POP POP PUSH1 0x40 MLOAD DUP1 SWAP2 SUB SWAP1 REVERT JUMPDEST PUSH2 0x1387 DUP8 DUP3 PUSH1 0x2 DUP2 LT PUSH2 0x1367 JUMPI INVALID JUMPDEST PUSH1 0x20 MUL ADD CALLDATALOAD DUP4 PUSH1 0x20 ADD MLOAD DUP4 PUSH1 0x2 DUP2 LT PUSH2 0x137C JUMPI INVALID JUMPDEST PUSH1 0x20 MUL ADD MLOAD SWAP1 PUSH2 0x3ED5 JUMP JUMPDEST DUP3 PUSH1 0x20 ADD MLOAD DUP3 PUSH1 0x2 DUP2 LT PUSH2 0x1397 JUMPI INVALID JUMPDEST PUSH1 0x20 MUL ADD MSTORE PUSH2 0x13D5 DUP4 DUP3 PUSH1 0x2 DUP2 LT PUSH2 0x13AB JUMPI INVALID JUMPDEST ADD SLOAD PUSH1 0x4 DUP6 ADD SLOAD PUSH1 0x1 PUSH1 0x1 PUSH1 0xA0 SHL SUB SWAP2 DUP3 AND SWAP2 AND DUP10 DUP5 PUSH1 0x2 DUP2 LT PUSH2 0x13CB JUMPI INVALID JUMPDEST PUSH1 0x20 MUL ADD CALLDATALOAD PUSH2 0x3F98 JUMP JUMPDEST PUSH1 0x1 ADD PUSH2 0x10DF JUMP JUMPDEST PUSH1 0x4 DUP4 DUP2 ADD SLOAD DUP4 MLOAD PUSH1 0x40 DUP1 DUP7 ADD MLOAD SWAP1 MLOAD PUSH4 0xC186C29B PUSH1 0xE0 SHL DUP2 MSTORE SWAP4 DUP5 ADD DUP14 DUP2 MSTORE CALLER PUSH1 0x24 DUP7 ADD DUP2 SWAP1 MSTORE PUSH1 0x1 PUSH1 0x1 PUSH1 0xA0 SHL SUB SWAP1 SWAP5 AND SWAP5 PUSH4 0xC186C29B SWAP5 DUP16 SWAP4 SWAP1 SWAP3 DUP11 SWAP3 DUP16 SWAP3 SWAP2 DUP16 SWAP2 DUP16 SWAP2 SWAP1 PUSH1 0x84 DUP2 ADD SWAP1 DUP8 SWAP1 PUSH1 0x44 ADD JUMPDEST DUP2 SLOAD PUSH1 0x1 PUSH1 0x1 PUSH1 0xA0 SHL SUB AND DUP2 MSTORE PUSH1 0x1 SWAP1 SWAP2 ADD SWAP1 PUSH1 0x20 ADD DUP1 DUP4 GT PUSH2 0x1430 JUMPI POP DUP7 SWAP1 POP PUSH1 0x40 DUP1 DUP3 DUP5 CALLDATACOPY PUSH1 0x0 DUP2 DUP5 ADD MSTORE PUSH1 0x1F NOT PUSH1 0x1F DUP3 ADD AND SWAP1 POP DUP1 DUP4 ADD SWAP3 POP POP POP DUP5 PUSH1 0x2 PUSH1 0x20 MUL DUP1 DUP4 DUP4 PUSH1 0x0 JUMPDEST DUP4 DUP2 LT ISZERO PUSH2 0x1492 JUMPI DUP2 DUP2 ADD MLOAD DUP4 DUP3 ADD MSTORE PUSH1 0x20 ADD PUSH2 0x147A JUMP JUMPDEST POP POP POP POP SWAP1 POP ADD DUP1 PUSH1 0x20 ADD DUP3 DUP2 SUB DUP3 MSTORE DUP5 DUP5 DUP3 DUP2 DUP2 MSTORE PUSH1 0x20 ADD SWAP3 POP DUP1 DUP3 DUP5 CALLDATACOPY PUSH1 0x0 DUP2 DUP5 ADD MSTORE PUSH1 0x1F NOT PUSH1 0x1F DUP3 ADD AND SWAP1 POP DUP1 DUP4 ADD SWAP3 POP POP POP SWAP9 POP POP POP POP POP POP POP POP POP PUSH1 0x0 PUSH1 0x40 MLOAD DUP1 DUP4 SUB DUP2 DUP6 DUP9 DUP1 EXTCODESIZE ISZERO DUP1 ISZERO PUSH2 0x14EB JUMPI PUSH1 0x0 DUP1 REVERT JUMPDEST POP GAS CALL ISZERO DUP1 ISZERO PUSH2 0x14FF JUMPI RETURNDATASIZE PUSH1 0x0 DUP1 RETURNDATACOPY RETURNDATASIZE PUSH1 0x0 REVERT JUMPDEST POP POP PUSH1 0x0 PUSH1 0xA0 DUP7 ADD DUP2 SWAP1 MSTORE SWAP4 POP POP POP POP JUMPDEST PUSH1 0x2 DUP2 LT ISZERO PUSH2 0x176B JUMPI DUP2 PUSH1 0x80 ADD MLOAD DUP2 PUSH1 0x2 DUP2 LT PUSH2 0x1529 JUMPI INVALID JUMPDEST PUSH1 0x20 MUL ADD MLOAD PUSH2 0x1564 JUMPI PUSH2 0x155F DUP3 PUSH1 0x20 ADD MLOAD DUP3 PUSH1 0x2 DUP2 LT PUSH2 0x1545 JUMPI INVALID JUMPDEST PUSH1 0x20 MUL ADD MLOAD PUSH2 0x1559 DUP6 DUP5 PUSH1 0x2 DUP2 LT PUSH2 0x127C JUMPI INVALID JUMPDEST SWAP1 PUSH2 0x3ED5 JUMP JUMPDEST PUSH2 0x1583 JUMP JUMPDEST PUSH2 0x1583 DUP3 PUSH1 0x20 ADD MLOAD DUP3 PUSH1 0x2 DUP2 LT PUSH2 0x1577 JUMPI INVALID JUMPDEST PUSH1 0x20 MUL ADD MLOAD SELFBALANCE SWAP1 PUSH2 0x3ED5 JUMP JUMPDEST DUP3 PUSH1 0x60 ADD MLOAD DUP3 PUSH1 0x2 DUP2 LT PUSH2 0x1593 JUMPI INVALID JUMPDEST PUSH1 0x20 MUL ADD MSTORE PUSH1 0x40 DUP3 ADD MLOAD DUP2 PUSH1 0x2 DUP2 LT PUSH2 0x15A8 JUMPI INVALID JUMPDEST PUSH1 0x20 MUL ADD MLOAD DUP3 PUSH1 0x60 ADD MLOAD DUP3 PUSH1 0x2 DUP2 LT PUSH2 0x15BD JUMPI INVALID JUMPDEST PUSH1 0x20 MUL ADD MLOAD LT PUSH2 0x1696 JUMPI PUSH2 0x15EF DUP3 PUSH1 0x40 ADD MLOAD DUP3 PUSH1 0x2 DUP2 LT PUSH2 0x15DA JUMPI INVALID JUMPDEST PUSH1 0x20 MUL ADD MLOAD DUP4 PUSH1 0x60 ADD MLOAD DUP4 PUSH1 0x2 DUP2 LT PUSH2 0x137C JUMPI INVALID JUMPDEST DUP3 PUSH1 0x60 ADD MLOAD DUP3 PUSH1 0x2 DUP2 LT PUSH2 0x15FF JUMPI INVALID JUMPDEST PUSH1 0x20 MUL ADD MSTORE PUSH1 0x40 DUP3 ADD MLOAD PUSH1 0x0 SWAP1 DUP3 PUSH1 0x2 DUP2 LT PUSH2 0x1617 JUMPI INVALID JUMPDEST PUSH1 0x20 MUL ADD MSTORE PUSH1 0x80 DUP3 ADD MLOAD DUP2 PUSH1 0x2 DUP2 LT PUSH2 0x162C JUMPI INVALID JUMPDEST PUSH1 0x20 MUL ADD MLOAD PUSH2 0x1673 JUMPI PUSH2 0x166E DUP4 DUP3 PUSH1 0x2 DUP2 LT PUSH2 0x1644 JUMPI INVALID JUMPDEST ADD SLOAD PUSH1 0x60 DUP5 ADD MLOAD PUSH1 0x1 PUSH1 0x1 PUSH1 0xA0 SHL SUB SWAP1 SWAP2 AND SWAP1 CALLER SWAP1 DUP5 PUSH1 0x2 DUP2 LT PUSH2 0x1664 JUMPI INVALID JUMPDEST PUSH1 0x20 MUL ADD MLOAD PUSH2 0x40F1 JUMP JUMPDEST PUSH2 0x1691 JUMP JUMPDEST PUSH2 0x1691 CALLER DUP4 PUSH1 0x60 ADD MLOAD DUP4 PUSH1 0x2 DUP2 LT PUSH2 0x1687 JUMPI INVALID JUMPDEST PUSH1 0x20 MUL ADD MLOAD PUSH2 0x4244 JUMP JUMPDEST PUSH2 0x1763 JUMP JUMPDEST PUSH1 0x1 PUSH1 0xA0 DUP4 ADD MSTORE PUSH1 0x60 DUP3 ADD MLOAD PUSH2 0x16C6 SWAP1 DUP3 PUSH1 0x2 DUP2 LT PUSH2 0x16B1 JUMPI INVALID JUMPDEST PUSH1 0x20 MUL ADD MLOAD DUP4 PUSH1 0x40 ADD MLOAD DUP4 PUSH1 0x2 DUP2 LT PUSH2 0x137C JUMPI INVALID JUMPDEST DUP3 PUSH1 0x40 ADD MLOAD DUP3 PUSH1 0x2 DUP2 LT PUSH2 0x16D6 JUMPI INVALID JUMPDEST PUSH1 0x20 MUL ADD MSTORE PUSH1 0x60 DUP3 ADD MLOAD PUSH1 0x0 SWAP1 DUP3 PUSH1 0x2 DUP2 LT PUSH2 0x16EE JUMPI INVALID JUMPDEST PUSH1 0x20 MUL ADD MSTORE PUSH1 0x5 DUP4 ADD DUP2 PUSH1 0x2 DUP2 LT PUSH2 0x1702 JUMPI INVALID JUMPDEST ADD SLOAD DUP3 PUSH1 0x40 ADD MLOAD DUP3 PUSH1 0x2 DUP2 LT PUSH2 0x1714 JUMPI INVALID JUMPDEST PUSH1 0x20 MUL ADD MLOAD LT ISZERO PUSH2 0x1763 JUMPI PUSH1 0x40 DUP1 MLOAD PUSH3 0x461BCD PUSH1 0xE5 SHL DUP2 MSTORE PUSH1 0x20 PUSH1 0x4 DUP3 ADD MSTORE PUSH1 0x14 PUSH1 0x24 DUP3 ADD MSTORE PUSH20 0x746F6F20736D616C6C2064656274732073697A65 PUSH1 0x60 SHL PUSH1 0x44 DUP3 ADD MSTORE SWAP1 MLOAD SWAP1 DUP2 SWAP1 SUB PUSH1 0x64 ADD SWAP1 REVERT JUMPDEST PUSH1 0x1 ADD PUSH2 0x1510 JUMP JUMPDEST DUP2 PUSH1 0xA0 ADD MLOAD ISZERO PUSH2 0x1965 JUMPI PUSH2 0x177D PUSH2 0x4975 JUMP JUMPDEST PUSH1 0x4 DUP5 DUP2 ADD SLOAD PUSH1 0x40 DUP6 DUP2 ADD MLOAD SWAP1 MLOAD PUSH1 0x1 PUSH3 0xBC0619 PUSH1 0xE0 SHL SUB NOT DUP2 MSTORE SWAP3 DUP4 ADD DUP14 DUP2 MSTORE PUSH1 0x1 PUSH1 0x1 PUSH1 0xA0 SHL SUB SWAP1 SWAP3 AND SWAP3 PUSH4 0xFF43F9E7 SWAP3 DUP15 SWAP3 DUP10 SWAP3 SWAP1 SWAP2 SWAP1 PUSH1 0x64 DUP2 ADD SWAP1 DUP5 SWAP1 PUSH1 0x24 ADD JUMPDEST DUP2 SLOAD PUSH1 0x1 PUSH1 0x1 PUSH1 0xA0 SHL SUB AND DUP2 MSTORE PUSH1 0x1 SWAP1 SWAP2 ADD SWAP1 PUSH1 0x20 ADD DUP1 DUP4 GT PUSH2 0x17C2 JUMPI POP DUP4 SWAP1 POP PUSH1 0x40 DUP1 DUP4 DUP4 PUSH1 0x0 JUMPDEST DUP4 DUP2 LT ISZERO PUSH2 0x1803 JUMPI DUP2 DUP2 ADD MLOAD DUP4 DUP3 ADD MSTORE PUSH1 0x20 ADD PUSH2 0x17EB JUMP JUMPDEST POP POP POP POP SWAP1 POP ADD SWAP4 POP POP POP POP PUSH1 0x40 DUP1 MLOAD DUP1 DUP4 SUB DUP2 DUP7 DUP1 EXTCODESIZE ISZERO DUP1 ISZERO PUSH2 0x1826 JUMPI PUSH1 0x0 DUP1 REVERT JUMPDEST POP GAS STATICCALL ISZERO DUP1 ISZERO PUSH2 0x183A JUMPI RETURNDATASIZE PUSH1 0x0 DUP1 RETURNDATACOPY RETURNDATASIZE PUSH1 0x0 REVERT JUMPDEST POP POP POP POP PUSH1 0x40 MLOAD RETURNDATASIZE PUSH1 0x1F NOT PUSH1 0x1F DUP3 ADD AND DUP3 ADD DUP1 PUSH1 0x40 MSTORE POP PUSH1 0x40 DUP2 LT ISZERO PUSH2 0x185F JUMPI PUSH1 0x0 DUP1 REVERT JUMPDEST POP PUSH1 0x40 DUP5 ADD MLOAD SWAP1 SWAP2 POP PUSH2 0x187E SWAP1 PUSH2 0x2710 SWAP1 PUSH1 0x0 JUMPDEST PUSH1 0x20 MUL ADD MLOAD SWAP1 PUSH2 0x4340 JUMP JUMPDEST PUSH1 0x7 DUP6 ADD SLOAD PUSH2 0x188F SWAP1 DUP4 PUSH1 0x0 PUSH2 0x1873 JUMP JUMPDEST LT ISZERO PUSH2 0x18D4 JUMPI PUSH1 0x40 DUP1 MLOAD PUSH3 0x461BCD PUSH1 0xE5 SHL DUP2 MSTORE PUSH1 0x20 PUSH1 0x4 DUP3 ADD MSTORE PUSH1 0xF PUSH1 0x24 DUP3 ADD MSTORE PUSH15 0x3130B2103BB7B935903330B1BA37B9 PUSH1 0x89 SHL PUSH1 0x44 DUP3 ADD MSTORE SWAP1 MLOAD SWAP1 DUP2 SWAP1 SUB PUSH1 0x64 ADD SWAP1 REVERT JUMPDEST PUSH1 0x40 DUP4 ADD MLOAD PUSH2 0x18E8 SWAP1 PUSH2 0x2710 SWAP1 PUSH1 0x1 PUSH2 0x1873 JUMP JUMPDEST PUSH1 0x7 DUP6 ADD SLOAD PUSH2 0x18F9 SWAP1 DUP4 PUSH1 0x1 PUSH2 0x1873 JUMP JUMPDEST LT ISZERO PUSH2 0x193E JUMPI PUSH1 0x40 DUP1 MLOAD PUSH3 0x461BCD PUSH1 0xE5 SHL DUP2 MSTORE PUSH1 0x20 PUSH1 0x4 DUP3 ADD MSTORE PUSH1 0xF PUSH1 0x24 DUP3 ADD MSTORE PUSH15 0x3130B2103BB7B935903330B1BA37B9 PUSH1 0x89 SHL PUSH1 0x44 DUP3 ADD MSTORE SWAP1 MLOAD SWAP1 DUP2 SWAP1 SUB PUSH1 0x64 ADD SWAP1 REVERT JUMPDEST PUSH2 0x195F PUSH1 0x7 PUSH1 0x0 DUP13 DUP2 MSTORE PUSH1 0x20 ADD SWAP1 DUP2 MSTORE PUSH1 0x20 ADD PUSH1 0x0 KECCAK256 DUP6 DUP6 PUSH1 0x40 ADD MLOAD PUSH2 0x4399 JUMP JUMPDEST POP PUSH2 0x1A2D JUMP JUMPDEST PUSH1 0x4 DUP1 DUP5 ADD SLOAD PUSH1 0x40 DUP1 MLOAD PUSH4 0xF204B9C5 PUSH1 0xE0 SHL DUP2 MSTORE SWAP3 DUP4 ADD DUP13 SWAP1 MSTORE MLOAD PUSH1 0x1 PUSH1 0x1 PUSH1 0xA0 SHL SUB SWAP1 SWAP2 AND SWAP2 PUSH4 0xF204B9C5 SWAP2 PUSH1 0x24 DUP1 DUP4 ADD SWAP3 PUSH1 0x20 SWAP3 SWAP2 SWAP1 DUP3 SWAP1 SUB ADD DUP2 DUP7 DUP1 EXTCODESIZE ISZERO DUP1 ISZERO PUSH2 0x19B1 JUMPI PUSH1 0x0 DUP1 REVERT JUMPDEST POP GAS STATICCALL ISZERO DUP1 ISZERO PUSH2 0x19C5 JUMPI RETURNDATASIZE PUSH1 0x0 DUP1 RETURNDATACOPY RETURNDATASIZE PUSH1 0x0 REVERT JUMPDEST POP POP POP POP PUSH1 0x40 MLOAD RETURNDATASIZE PUSH1 0x20 DUP2 LT ISZERO PUSH2 0x19DB JUMPI PUSH1 0x0 DUP1 REVERT JUMPDEST POP MLOAD PUSH2 0x1A2D JUMPI PUSH2 0x19EB DUP5 DUP11 PUSH2 0x44B6 JUMP JUMPDEST POP PUSH2 0x19F7 PUSH1 0x9 DUP11 PUSH2 0x44B6 JUMP JUMPDEST POP PUSH1 0x0 DUP9 DUP2 MSTORE PUSH1 0x4 DUP6 ADD PUSH1 0x20 MSTORE PUSH1 0x40 SWAP1 KECCAK256 SLOAD PUSH2 0x1A14 SWAP1 PUSH1 0x1 PUSH2 0x3ED5 JUMP JUMPDEST PUSH1 0x0 DUP10 DUP2 MSTORE PUSH1 0x4 DUP7 ADD PUSH1 0x20 MSTORE PUSH1 0x40 SWAP1 KECCAK256 SSTORE PUSH2 0x1A2D PUSH2 0x2901 JUMP JUMPDEST DUP9 PUSH32 0x5551B6EBE96E0C2AE3769EFAB219381753ED99D7509FD8875440F120CBFC63A6 DUP4 PUSH1 0x40 ADD MLOAD DUP5 PUSH1 0x60 ADD MLOAD PUSH1 0x40 MLOAD DUP1 DUP4 PUSH1 0x2 PUSH1 0x20 MUL DUP1 DUP4 DUP4 PUSH1 0x0 JUMPDEST DUP4 DUP2 LT ISZERO PUSH2 0x1A81 JUMPI DUP2 DUP2 ADD MLOAD DUP4 DUP3 ADD MSTORE PUSH1 0x20 ADD PUSH2 0x1A69 JUMP JUMPDEST POP POP POP POP SWAP1 POP ADD DUP3 PUSH1 0x2 PUSH1 0x20 MUL DUP1 DUP4 DUP4 PUSH1 0x0 JUMPDEST DUP4 DUP2 LT ISZERO PUSH2 0x1AAC JUMPI DUP2 DUP2 ADD MLOAD DUP4 DUP3 ADD MSTORE PUSH1 0x20 ADD PUSH2 0x1A94 JUMP JUMPDEST POP POP POP POP SWAP1 POP ADD SWAP3 POP POP POP PUSH1 0x40 MLOAD DUP1 SWAP2 SUB SWAP1 LOG2 POP POP PUSH1 0x1 DUP1 SSTORE POP POP POP POP POP POP POP JUMP JUMPDEST PUSH1 0x1 PUSH1 0x1 PUSH1 0xA0 SHL SUB DUP3 AND PUSH1 0x0 SWAP1 DUP2 MSTORE PUSH1 0x2 PUSH1 0x20 MSTORE PUSH1 0x40 DUP2 KECCAK256 DUP1 SLOAD PUSH1 0x1 PUSH1 0xA0 SHL SWAP1 DIV PUSH1 0xFF AND PUSH2 0x1B36 JUMPI PUSH1 0x40 DUP1 MLOAD PUSH3 0x461BCD PUSH1 0xE5 SHL DUP2 MSTORE PUSH1 0x20 PUSH1 0x4 DUP3 ADD MSTORE PUSH1 0x10 PUSH1 0x24 DUP3 ADD MSTORE PUSH16 0x746F6B656E206E6F7420657869737473 PUSH1 0x80 SHL PUSH1 0x44 DUP3 ADD MSTORE SWAP1 MLOAD SWAP1 DUP2 SWAP1 SUB PUSH1 0x64 ADD SWAP1 REVERT JUMPDEST PUSH1 0x5 DUP2 ADD SLOAD PUSH2 0x1B48 JUMPI DUP3 SWAP2 POP POP PUSH2 0xD35 JUMP JUMPDEST PUSH2 0x1B6D DUP2 PUSH1 0x5 ADD SLOAD PUSH2 0x1B67 DUP4 PUSH1 0x4 ADD SLOAD DUP7 PUSH2 0x4340 SWAP1 SWAP2 SWAP1 PUSH4 0xFFFFFFFF AND JUMP JUMPDEST SWAP1 PUSH2 0x44C2 JUMP JUMPDEST SWAP5 SWAP4 POP POP POP POP JUMP JUMPDEST PUSH1 0x1 PUSH1 0x1 PUSH1 0xA0 SHL SUB DUP1 DUP3 AND PUSH1 0x0 SWAP1 DUP2 MSTORE PUSH1 0x2 PUSH1 0x20 SWAP1 DUP2 MSTORE PUSH1 0x40 DUP1 DUP4 KECCAK256 PUSH1 0xC SLOAD PUSH1 0x1 DUP3 ADD SLOAD DUP4 MLOAD PUSH4 0x1F46938B PUSH1 0xE1 SHL DUP2 MSTORE PUSH1 0x4 DUP2 ADD SWAP2 SWAP1 SWAP2 MSTORE DUP9 DUP8 AND PUSH1 0x24 DUP3 ADD MSTORE SWAP3 MLOAD SWAP5 SWAP6 SWAP2 SWAP5 SWAP2 AND SWAP3 PUSH4 0x3E8D2716 SWAP3 PUSH1 0x44 DUP1 DUP3 ADD SWAP4 SWAP2 DUP3 SWAP1 SUB ADD DUP2 DUP7 DUP1 EXTCODESIZE ISZERO DUP1 ISZERO PUSH2 0x1BDF JUMPI PUSH1 0x0 DUP1 REVERT JUMPDEST POP GAS STATICCALL ISZERO DUP1 ISZERO PUSH2 0x1BF3 JUMPI RETURNDATASIZE PUSH1 0x0 DUP1 RETURNDATACOPY RETURNDATASIZE PUSH1 0x0 REVERT JUMPDEST POP POP POP POP PUSH1 0x40 MLOAD RETURNDATASIZE PUSH1 0x20 DUP2 LT ISZERO PUSH2 0x1C09 JUMPI PUSH1 0x0 DUP1 REVERT JUMPDEST POP MLOAD SWAP5 SWAP4 POP POP POP POP JUMP JUMPDEST CALLER ORIGIN EQ PUSH2 0x1C51 JUMPI PUSH1 0x40 DUP1 MLOAD PUSH3 0x461BCD PUSH1 0xE5 SHL DUP2 MSTORE PUSH1 0x20 PUSH1 0x4 DUP3 ADD MSTORE PUSH1 0x7 PUSH1 0x24 DUP3 ADD MSTORE PUSH7 0x6E6F7420656F61 PUSH1 0xC8 SHL PUSH1 0x44 DUP3 ADD MSTORE SWAP1 MLOAD SWAP1 DUP2 SWAP1 SUB PUSH1 0x64 ADD SWAP1 REVERT JUMPDEST PUSH1 0x2 PUSH1 0x1 SLOAD EQ ISZERO PUSH2 0x1C97 JUMPI PUSH1 0x40 DUP1 MLOAD PUSH3 0x461BCD PUSH1 0xE5 SHL DUP2 MSTORE PUSH1 0x20 PUSH1 0x4 DUP3 ADD MSTORE PUSH1 0x1F PUSH1 0x24 DUP3 ADD MSTORE PUSH1 0x0 DUP1 MLOAD PUSH1 0x20 PUSH2 0x4BCD DUP4 CODECOPY DUP2 MLOAD SWAP2 MSTORE PUSH1 0x44 DUP3 ADD MSTORE SWAP1 MLOAD SWAP1 DUP2 SWAP1 SUB PUSH1 0x64 ADD SWAP1 REVERT JUMPDEST PUSH1 0x2 PUSH1 0x1 SWAP1 DUP2 SSTORE PUSH1 0x0 DUP3 DUP2 MSTORE PUSH1 0x7 PUSH1 0x20 SWAP1 DUP2 MSTORE PUSH1 0x40 DUP1 DUP4 KECCAK256 SWAP4 DUP5 ADD SLOAD DUP4 MSTORE PUSH1 0x5 SWAP1 SWAP2 MSTORE SWAP1 KECCAK256 PUSH2 0x1CC4 PUSH2 0x4993 JUMP JUMPDEST PUSH2 0x1CCE DUP4 DUP4 PUSH2 0x3DAC JUMP JUMPDEST DUP1 DUP3 MSTORE PUSH1 0x4 DUP4 DUP2 ADD SLOAD PUSH1 0x40 MLOAD PUSH4 0x57DD565 PUSH1 0xE4 SHL DUP2 MSTORE SWAP2 DUP3 ADD DUP8 DUP2 MSTORE PUSH1 0x1 PUSH1 0x1 PUSH1 0xA0 SHL SUB SWAP1 SWAP2 AND SWAP3 PUSH4 0x57DD5650 SWAP3 DUP9 SWAP3 DUP8 SWAP3 SWAP2 PUSH1 0x64 DUP2 ADD SWAP1 DUP5 SWAP1 PUSH1 0x24 ADD JUMPDEST DUP2 SLOAD PUSH1 0x1 PUSH1 0x1 PUSH1 0xA0 SHL SUB AND DUP2 MSTORE PUSH1 0x1 SWAP1 SWAP2 ADD SWAP1 PUSH1 0x20 ADD DUP1 DUP4 GT PUSH2 0x1D0C JUMPI POP DUP4 SWAP1 POP PUSH1 0x40 DUP1 DUP4 DUP4 PUSH1 0x0 JUMPDEST DUP4 DUP2 LT ISZERO PUSH2 0x1D4D JUMPI DUP2 DUP2 ADD MLOAD DUP4 DUP3 ADD MSTORE PUSH1 0x20 ADD PUSH2 0x1D35 JUMP JUMPDEST POP POP POP POP SWAP1 POP ADD SWAP4 POP POP POP POP PUSH1 0x20 PUSH1 0x40 MLOAD DUP1 DUP4 SUB DUP2 DUP7 DUP1 EXTCODESIZE ISZERO DUP1 ISZERO PUSH2 0x1D71 JUMPI PUSH1 0x0 DUP1 REVERT JUMPDEST POP GAS STATICCALL ISZERO DUP1 ISZERO PUSH2 0x1D85 JUMPI RETURNDATASIZE PUSH1 0x0 DUP1 RETURNDATACOPY RETURNDATASIZE PUSH1 0x0 REVERT JUMPDEST POP POP POP POP PUSH1 0x40 MLOAD RETURNDATASIZE PUSH1 0x20 DUP2 LT ISZERO PUSH2 0x1D9B JUMPI PUSH1 0x0 DUP1 REVERT JUMPDEST POP MLOAD PUSH1 0x20 DUP3 ADD DUP2 SWAP1 MSTORE PUSH1 0x8 DUP4 ADD SLOAD GT PUSH2 0x1DED JUMPI PUSH1 0x40 DUP1 MLOAD PUSH3 0x461BCD PUSH1 0xE5 SHL DUP2 MSTORE PUSH1 0x20 PUSH1 0x4 DUP3 ADD MSTORE PUSH1 0xF PUSH1 0x24 DUP3 ADD MSTORE PUSH15 0x63616E2774206C6971756964617465 PUSH1 0x88 SHL PUSH1 0x44 DUP3 ADD MSTORE SWAP1 MLOAD SWAP1 DUP2 SWAP1 SUB PUSH1 0x64 ADD SWAP1 REVERT JUMPDEST PUSH1 0x0 JUMPDEST PUSH1 0x2 DUP2 LT ISZERO PUSH2 0x1E7F JUMPI PUSH1 0x0 DUP4 DUP3 PUSH1 0x2 DUP2 LT PUSH2 0x1E07 JUMPI INVALID JUMPDEST ADD SLOAD PUSH1 0xC0 DUP5 ADD MLOAD PUSH1 0x1 PUSH1 0x1 PUSH1 0xA0 SHL SUB SWAP1 SWAP2 AND SWAP2 SWAP1 SWAP2 EQ SWAP1 DUP3 PUSH1 0x2 DUP2 LT PUSH2 0x1E29 JUMPI INVALID JUMPDEST SWAP2 ISZERO ISZERO PUSH1 0x20 SWAP1 SWAP3 MUL ADD MSTORE PUSH1 0xC0 DUP3 ADD MLOAD DUP2 PUSH1 0x2 DUP2 LT PUSH2 0x1E43 JUMPI INVALID JUMPDEST PUSH1 0x20 MUL ADD MLOAD PUSH2 0x1E60 JUMPI PUSH2 0x1E5B DUP4 DUP3 PUSH1 0x2 DUP2 LT PUSH2 0x127C JUMPI INVALID JUMPDEST PUSH2 0x1E62 JUMP JUMPDEST SELFBALANCE JUMPDEST DUP3 PUSH1 0x40 ADD MLOAD DUP3 PUSH1 0x2 DUP2 LT PUSH2 0x1E72 JUMPI INVALID JUMPDEST PUSH1 0x20 MUL ADD MSTORE PUSH1 0x1 ADD PUSH2 0x1DF0 JUMP JUMPDEST PUSH1 0x4 DUP4 DUP2 ADD SLOAD DUP6 SLOAD DUP5 MLOAD PUSH1 0x40 MLOAD PUSH4 0x2BD417D9 PUSH1 0xE0 SHL DUP2 MSTORE SWAP4 DUP5 ADD DUP10 DUP2 MSTORE PUSH1 0x1 PUSH1 0x1 PUSH1 0xA0 SHL SUB SWAP3 DUP4 AND PUSH1 0x24 DUP7 ADD DUP2 SWAP1 MSTORE SWAP3 SWAP1 SWAP4 AND SWAP4 PUSH4 0x2BD417D9 SWAP4 DUP11 SWAP4 SWAP3 DUP10 SWAP3 SWAP1 SWAP2 SWAP1 PUSH1 0x84 DUP2 ADD SWAP1 DUP5 SWAP1 PUSH1 0x44 ADD JUMPDEST DUP2 SLOAD PUSH1 0x1 PUSH1 0x1 PUSH1 0xA0 SHL SUB AND DUP2 MSTORE PUSH1 0x1 SWAP1 SWAP2 ADD SWAP1 PUSH1 0x20 ADD DUP1 DUP4 GT PUSH2 0x1ECC JUMPI POP DUP4 SWAP1 POP PUSH1 0x40 DUP1 DUP4 DUP4 PUSH1 0x0 JUMPDEST DUP4 DUP2 LT ISZERO PUSH2 0x1F0D JUMPI DUP2 DUP2 ADD MLOAD DUP4 DUP3 ADD MSTORE PUSH1 0x20 ADD PUSH2 0x1EF5 JUMP JUMPDEST POP POP POP POP SWAP1 POP ADD SWAP5 POP POP POP POP POP PUSH1 0x0 PUSH1 0x40 MLOAD DUP1 DUP4 SUB DUP2 PUSH1 0x0 DUP8 DUP1 EXTCODESIZE ISZERO DUP1 ISZERO PUSH2 0x1F34 JUMPI PUSH1 0x0 DUP1 REVERT JUMPDEST POP GAS CALL ISZERO DUP1 ISZERO PUSH2 0x1F48 JUMPI RETURNDATASIZE PUSH1 0x0 DUP1 RETURNDATACOPY RETURNDATASIZE PUSH1 0x0 REVERT JUMPDEST POP POP DUP6 SLOAD PUSH1 0x1 PUSH1 0x1 PUSH1 0xA0 SHL SUB AND PUSH1 0x0 SWAP1 DUP2 MSTORE PUSH1 0x4 PUSH1 0x20 MSTORE PUSH1 0x40 SWAP1 KECCAK256 SWAP2 POP PUSH2 0x1F71 SWAP1 POP DUP2 DUP8 PUSH2 0x44B6 JUMP JUMPDEST POP PUSH2 0x1F7D PUSH1 0x9 DUP8 PUSH2 0x44B6 JUMP JUMPDEST POP PUSH1 0x1 DUP6 DUP2 ADD SLOAD PUSH1 0x0 SWAP1 DUP2 MSTORE PUSH1 0x4 DUP4 ADD PUSH1 0x20 MSTORE PUSH1 0x40 SWAP1 KECCAK256 SLOAD PUSH2 0x1F9E SWAP2 PUSH2 0x3ED5 JUMP JUMPDEST PUSH1 0x1 DUP7 ADD SLOAD PUSH1 0x0 SWAP1 DUP2 MSTORE PUSH1 0x4 DUP4 ADD PUSH1 0x20 MSTORE PUSH1 0x40 DUP2 KECCAK256 SWAP2 SWAP1 SWAP2 SSTORE SWAP2 POP JUMPDEST PUSH1 0x2 DUP3 LT ISZERO PUSH2 0x22BF JUMPI DUP3 PUSH1 0xC0 ADD MLOAD DUP3 PUSH1 0x2 DUP2 LT PUSH2 0x1FD3 JUMPI INVALID JUMPDEST PUSH1 0x20 MUL ADD MLOAD PUSH2 0x1FF0 JUMPI PUSH2 0x1FEB DUP5 DUP4 PUSH1 0x2 DUP2 LT PUSH2 0x127C JUMPI INVALID JUMPDEST PUSH2 0x1FF2 JUMP JUMPDEST SELFBALANCE JUMPDEST PUSH1 0x60 DUP5 ADD MSTORE PUSH1 0x40 DUP4 ADD MLOAD PUSH2 0x201B SWAP1 DUP4 PUSH1 0x2 DUP2 LT PUSH2 0x200B JUMPI INVALID JUMPDEST PUSH1 0x20 MUL ADD MLOAD PUSH1 0x60 DUP6 ADD MLOAD SWAP1 PUSH2 0x3ED5 JUMP JUMPDEST PUSH1 0x60 DUP5 ADD MSTORE DUP3 MLOAD DUP3 PUSH1 0x2 DUP2 LT PUSH2 0x202D JUMPI INVALID JUMPDEST PUSH1 0x20 MUL ADD MLOAD DUP4 PUSH1 0x60 ADD MLOAD GT ISZERO PUSH2 0x222B JUMPI DUP3 MLOAD PUSH2 0x204E SWAP1 DUP4 PUSH1 0x2 DUP2 LT PUSH2 0x200B JUMPI INVALID JUMPDEST PUSH1 0x60 DUP5 ADD MSTORE PUSH1 0xB SLOAD PUSH1 0x40 DUP1 MLOAD PUSH4 0x321E4B89 PUSH1 0xE2 SHL DUP2 MSTORE SWAP1 MLOAD PUSH2 0x20DB SWAP3 PUSH2 0x2710 SWAP3 PUSH2 0x1B67 SWAP3 PUSH1 0x1 PUSH1 0x1 PUSH1 0xA0 SHL SUB SWAP1 SWAP3 AND SWAP2 PUSH4 0xC8792E24 SWAP2 PUSH1 0x4 DUP1 DUP3 ADD SWAP3 PUSH1 0x20 SWAP3 SWAP1 SWAP2 SWAP1 DUP3 SWAP1 SUB ADD DUP2 DUP7 DUP1 EXTCODESIZE ISZERO DUP1 ISZERO PUSH2 0x20A4 JUMPI PUSH1 0x0 DUP1 REVERT JUMPDEST POP GAS STATICCALL ISZERO DUP1 ISZERO PUSH2 0x20B8 JUMPI RETURNDATASIZE PUSH1 0x0 DUP1 RETURNDATACOPY RETURNDATASIZE PUSH1 0x0 REVERT JUMPDEST POP POP POP POP PUSH1 0x40 MLOAD RETURNDATASIZE PUSH1 0x20 DUP2 LT ISZERO PUSH2 0x20CE JUMPI PUSH1 0x0 DUP1 REVERT JUMPDEST POP MLOAD PUSH1 0x60 DUP8 ADD MLOAD SWAP1 PUSH2 0x4340 JUMP JUMPDEST DUP4 PUSH1 0x80 ADD MLOAD DUP4 PUSH1 0x2 DUP2 LT PUSH2 0x20EB JUMPI INVALID JUMPDEST PUSH1 0x20 MUL ADD MSTORE PUSH1 0x80 DUP4 ADD MLOAD PUSH2 0x2104 SWAP1 DUP4 PUSH1 0x2 DUP2 LT PUSH2 0x200B JUMPI INVALID JUMPDEST DUP4 PUSH1 0xA0 ADD MLOAD DUP4 PUSH1 0x2 DUP2 LT PUSH2 0x2114 JUMPI INVALID JUMPDEST PUSH1 0x20 MUL ADD MSTORE PUSH1 0x80 DUP4 ADD MLOAD PUSH1 0x0 SWAP1 DUP4 PUSH1 0x2 DUP2 LT PUSH2 0x212C JUMPI INVALID JUMPDEST PUSH1 0x20 MUL ADD MLOAD GT ISZERO PUSH2 0x2198 JUMPI DUP3 PUSH1 0xC0 ADD MLOAD DUP3 PUSH1 0x2 DUP2 LT PUSH2 0x2147 JUMPI INVALID JUMPDEST PUSH1 0x20 MUL ADD MLOAD PUSH2 0x2184 JUMPI PUSH2 0x217F DUP5 DUP4 PUSH1 0x2 DUP2 LT PUSH2 0x215F JUMPI INVALID JUMPDEST ADD SLOAD PUSH1 0x80 DUP6 ADD MLOAD PUSH1 0x1 PUSH1 0x1 PUSH1 0xA0 SHL SUB SWAP1 SWAP2 AND SWAP1 CALLER SWAP1 DUP6 PUSH1 0x2 DUP2 LT PUSH2 0x1664 JUMPI INVALID JUMPDEST PUSH2 0x2198 JUMP JUMPDEST PUSH2 0x2198 CALLER DUP5 PUSH1 0x80 ADD MLOAD DUP5 PUSH1 0x2 DUP2 LT PUSH2 0x1687 JUMPI INVALID JUMPDEST PUSH1 0x0 DUP4 PUSH1 0xA0 ADD MLOAD DUP4 PUSH1 0x2 DUP2 LT PUSH2 0x21AA JUMPI INVALID JUMPDEST PUSH1 0x20 MUL ADD MLOAD GT ISZERO PUSH2 0x2226 JUMPI DUP3 PUSH1 0xC0 ADD MLOAD DUP3 PUSH1 0x2 DUP2 LT PUSH2 0x21C5 JUMPI INVALID JUMPDEST PUSH1 0x20 MUL ADD MLOAD PUSH2 0x2206 JUMPI PUSH2 0x2201 DUP5 DUP4 PUSH1 0x2 DUP2 LT PUSH2 0x21DD JUMPI INVALID JUMPDEST ADD SLOAD DUP7 SLOAD PUSH1 0xA0 DUP7 ADD MLOAD PUSH1 0x1 PUSH1 0x1 PUSH1 0xA0 SHL SUB SWAP3 DUP4 AND SWAP3 SWAP1 SWAP2 AND SWAP1 DUP6 PUSH1 0x2 DUP2 LT PUSH2 0x1664 JUMPI INVALID JUMPDEST PUSH2 0x2226 JUMP JUMPDEST DUP5 SLOAD PUSH1 0xA0 DUP5 ADD MLOAD PUSH2 0x2226 SWAP2 PUSH1 0x1 PUSH1 0x1 PUSH1 0xA0 SHL SUB AND SWAP1 DUP5 PUSH1 0x2 DUP2 LT PUSH2 0x1687 JUMPI INVALID JUMPDEST PUSH2 0x22B4 JUMP JUMPDEST PUSH2 0x2285 DUP4 PUSH1 0x60 ADD MLOAD PUSH2 0x227F DUP6 PUSH1 0x0 ADD MLOAD DUP6 PUSH1 0x2 DUP2 LT PUSH2 0x2246 JUMPI INVALID JUMPDEST PUSH1 0x20 MUL ADD MLOAD PUSH1 0x2 PUSH1 0x0 DUP10 DUP9 DUP4 DUP2 LT PUSH2 0x225A JUMPI INVALID JUMPDEST ADD SLOAD PUSH1 0x1 PUSH1 0x1 PUSH1 0xA0 SHL SUB AND DUP2 MSTORE PUSH1 0x20 DUP2 ADD SWAP2 SWAP1 SWAP2 MSTORE PUSH1 0x40 ADD PUSH1 0x0 KECCAK256 PUSH1 0x2 ADD SLOAD SWAP1 PUSH2 0x3ED5 JUMP JUMPDEST SWAP1 PUSH2 0x3B38 JUMP JUMPDEST PUSH1 0x2 PUSH1 0x0 DUP7 DUP6 DUP4 DUP2 LT PUSH2 0x2294 JUMPI INVALID JUMPDEST ADD SLOAD PUSH1 0x1 PUSH1 0x1 PUSH1 0xA0 SHL SUB AND DUP2 MSTORE PUSH1 0x20 DUP2 ADD SWAP2 SWAP1 SWAP2 MSTORE PUSH1 0x40 ADD PUSH1 0x0 KECCAK256 PUSH1 0x2 ADD SSTORE JUMPDEST DUP2 PUSH1 0x1 ADD SWAP2 POP PUSH2 0x1FBA JUMP JUMPDEST CALLER PUSH1 0x1 PUSH1 0x1 PUSH1 0xA0 SHL SUB AND DUP7 PUSH32 0xC44097217AE3AD1577AD675336FD7A85DD60540E16F627D4F5A43D4FDF0F963B DUP6 PUSH1 0x80 ADD MLOAD DUP7 PUSH1 0xA0 ADD MLOAD PUSH1 0x40 MLOAD DUP1 DUP4 PUSH1 0x2 PUSH1 0x20 MUL DUP1 DUP4 DUP4 PUSH1 0x0 JUMPDEST DUP4 DUP2 LT ISZERO PUSH2 0x231D JUMPI DUP2 DUP2 ADD MLOAD DUP4 DUP3 ADD MSTORE PUSH1 0x20 ADD PUSH2 0x2305 JUMP JUMPDEST POP POP POP POP SWAP1 POP ADD DUP3 PUSH1 0x2 PUSH1 0x20 MUL DUP1 DUP4 DUP4 PUSH1 0x0 JUMPDEST DUP4 DUP2 LT ISZERO PUSH2 0x2348 JUMPI DUP2 DUP2 ADD MLOAD DUP4 DUP3 ADD MSTORE PUSH1 0x20 ADD PUSH2 0x2330 JUMP JUMPDEST POP POP POP POP SWAP1 POP ADD SWAP3 POP POP POP PUSH1 0x40 MLOAD DUP1 SWAP2 SUB SWAP1 LOG3 POP POP PUSH1 0x1 DUP1 SSTORE POP POP POP POP JUMP JUMPDEST PUSH1 0x2 PUSH1 0x1 SLOAD EQ ISZERO PUSH2 0x23AD JUMPI PUSH1 0x40 DUP1 MLOAD PUSH3 0x461BCD PUSH1 0xE5 SHL DUP2 MSTORE PUSH1 0x20 PUSH1 0x4 DUP3 ADD MSTORE PUSH1 0x1F PUSH1 0x24 DUP3 ADD MSTORE PUSH1 0x0 DUP1 MLOAD PUSH1 0x20 PUSH2 0x4BCD DUP4 CODECOPY DUP2 MLOAD SWAP2 MSTORE PUSH1 0x44 DUP3 ADD MSTORE SWAP1 MLOAD SWAP1 DUP2 SWAP1 SUB PUSH1 0x64 ADD SWAP1 REVERT JUMPDEST PUSH1 0x2 PUSH1 0x1 DUP2 SWAP1 SSTORE PUSH1 0x1 PUSH1 0x1 PUSH1 0xA0 SHL SUB DUP4 AND PUSH1 0x0 SWAP1 DUP2 MSTORE PUSH1 0x20 SWAP2 DUP3 MSTORE PUSH1 0x40 DUP1 DUP3 KECCAK256 CALLER DUP4 MSTORE PUSH1 0x3 SWAP1 SWAP4 MSTORE SWAP1 KECCAK256 DUP2 SLOAD PUSH1 0x1 PUSH1 0xA0 SHL SWAP1 DIV PUSH1 0xFF AND DUP1 ISZERO PUSH2 0x23F7 JUMPI POP DUP2 SLOAD PUSH1 0x1 PUSH1 0xA8 SHL SWAP1 DIV PUSH1 0xFF AND JUMPDEST PUSH2 0x2432 JUMPI PUSH1 0x40 MLOAD PUSH3 0x461BCD PUSH1 0xE5 SHL DUP2 MSTORE PUSH1 0x4 ADD DUP1 DUP1 PUSH1 0x20 ADD DUP3 DUP2 SUB DUP3 MSTORE PUSH1 0x21 DUP2 MSTORE PUSH1 0x20 ADD DUP1 PUSH2 0x4C5F PUSH1 0x21 SWAP2 CODECOPY PUSH1 0x40 ADD SWAP2 POP POP PUSH1 0x40 MLOAD DUP1 SWAP2 SUB SWAP1 REVERT JUMPDEST PUSH2 0x243B DUP5 PUSH2 0x3B92 JUMP JUMPDEST PUSH1 0x1 PUSH1 0x1 PUSH1 0xA0 SHL SUB DUP5 AND ISZERO PUSH2 0x245B JUMPI PUSH2 0x2456 DUP5 CALLER ADDRESS DUP7 PUSH2 0x4504 JUMP JUMPDEST PUSH2 0x245F JUMP JUMPDEST CALLVALUE SWAP3 POP JUMPDEST PUSH1 0x2 DUP3 ADD SLOAD PUSH2 0x246E SWAP1 DUP5 PUSH2 0x3B38 JUMP JUMPDEST PUSH1 0x2 DUP4 ADD SSTORE PUSH1 0x0 PUSH2 0x2482 DUP5 PUSH2 0x1559 DUP8 PUSH2 0x295F JUMP JUMPDEST SWAP1 POP PUSH1 0x0 DUP2 ISZERO DUP1 PUSH2 0x2495 JUMPI POP PUSH1 0x3 DUP5 ADD SLOAD ISZERO JUMPDEST PUSH2 0x24B9 JUMPI PUSH2 0x24B4 DUP3 PUSH2 0x1B67 DUP7 PUSH1 0x3 ADD SLOAD DUP9 PUSH2 0x4340 SWAP1 SWAP2 SWAP1 PUSH4 0xFFFFFFFF AND JUMP JUMPDEST PUSH2 0x24BB JUMP JUMPDEST DUP5 JUMPDEST PUSH1 0x3 DUP6 ADD SLOAD SWAP1 SWAP2 POP PUSH2 0x24CD SWAP1 DUP3 PUSH2 0x3B38 JUMP JUMPDEST PUSH1 0x3 DUP6 ADD SSTORE PUSH1 0x1 PUSH1 0x1 PUSH1 0xA0 SHL SUB DUP7 AND PUSH1 0x0 SWAP1 DUP2 MSTORE PUSH1 0x20 DUP5 SWAP1 MSTORE PUSH1 0x40 SWAP1 KECCAK256 SLOAD PUSH2 0x24F5 SWAP1 DUP3 PUSH2 0x3B38 JUMP JUMPDEST PUSH1 0x1 PUSH1 0x1 PUSH1 0xA0 SHL SUB DUP8 AND PUSH1 0x0 SWAP1 DUP2 MSTORE PUSH1 0x20 DUP6 SWAP1 MSTORE PUSH1 0x40 SWAP1 KECCAK256 SSTORE PUSH2 0x251B PUSH1 0x1 DUP5 ADD DUP8 PUSH2 0x466B JUMP JUMPDEST POP PUSH1 0xC SLOAD PUSH1 0x1 DUP6 ADD SLOAD PUSH1 0x40 DUP1 MLOAD PUSH4 0x1BA724C7 PUSH1 0xE2 SHL DUP2 MSTORE PUSH1 0x4 DUP2 ADD SWAP3 SWAP1 SWAP3 MSTORE CALLER PUSH1 0x24 DUP4 ADD MSTORE PUSH1 0x44 DUP3 ADD DUP5 SWAP1 MSTORE MLOAD PUSH1 0x1 PUSH1 0x1 PUSH1 0xA0 SHL SUB SWAP1 SWAP3 AND SWAP2 PUSH4 0x6E9C931C SWAP2 PUSH1 0x64 DUP1 DUP3 ADD SWAP3 PUSH1 0x0 SWAP3 SWAP1 SWAP2 SWAP1 DUP3 SWAP1 SUB ADD DUP2 DUP4 DUP8 DUP1 EXTCODESIZE ISZERO DUP1 ISZERO PUSH2 0x257B JUMPI PUSH1 0x0 DUP1 REVERT JUMPDEST POP GAS CALL ISZERO DUP1 ISZERO PUSH2 0x258F JUMPI RETURNDATASIZE PUSH1 0x0 DUP1 RETURNDATACOPY RETURNDATASIZE PUSH1 0x0 REVERT JUMPDEST POP POP PUSH1 0x1 DUP1 SSTORE POP POP POP POP POP POP POP POP JUMP JUMPDEST PUSH1 0x0 DUP2 DUP2 MSTORE PUSH1 0x5 PUSH1 0x20 MSTORE PUSH1 0x40 DUP1 DUP3 KECCAK256 PUSH1 0x4 SWAP1 DUP2 ADD SLOAD DUP3 MLOAD PUSH4 0x362A3FAD PUSH1 0xE0 SHL DUP2 MSTORE CALLER SWAP3 DUP2 ADD SWAP3 SWAP1 SWAP3 MSTORE SWAP2 MLOAD PUSH1 0x1 PUSH1 0x1 PUSH1 0xA0 SHL SUB SWAP1 SWAP3 AND SWAP3 PUSH4 0x362A3FAD SWAP3 PUSH1 0x24 DUP1 DUP5 ADD SWAP4 DUP3 SWAP1 SUB ADD DUP2 DUP4 DUP8 DUP1 EXTCODESIZE ISZERO DUP1 ISZERO PUSH2 0x25F7 JUMPI PUSH1 0x0 DUP1 REVERT JUMPDEST POP GAS CALL ISZERO DUP1 ISZERO PUSH2 0x260B JUMPI RETURNDATASIZE PUSH1 0x0 DUP1 RETURNDATACOPY RETURNDATASIZE PUSH1 0x0 REVERT JUMPDEST POP POP CALLER PUSH1 0x0 SWAP1 DUP2 MSTORE PUSH1 0x4 PUSH1 0x20 DUP2 DUP2 MSTORE PUSH1 0x40 DUP1 DUP5 KECCAK256 DUP8 DUP6 MSTORE SWAP3 DUP4 ADD SWAP1 SWAP2 MSTORE SWAP1 SWAP2 KECCAK256 SLOAD SWAP1 SWAP3 POP ISZERO ISZERO SWAP1 POP PUSH2 0x2644 JUMPI PUSH2 0xD09 DUP2 PUSH1 0x2 ADD DUP4 PUSH2 0x44B6 JUMP JUMPDEST POP POP JUMP JUMPDEST PUSH2 0x2650 PUSH2 0x4680 JUMP JUMPDEST PUSH1 0x0 SLOAD PUSH1 0x1 PUSH1 0x1 PUSH1 0xA0 SHL SUB SWAP1 DUP2 AND SWAP2 AND EQ PUSH2 0x26A0 JUMPI PUSH1 0x40 DUP1 MLOAD PUSH3 0x461BCD PUSH1 0xE5 SHL DUP2 MSTORE PUSH1 0x20 PUSH1 0x4 DUP3 ADD DUP2 SWAP1 MSTORE PUSH1 0x24 DUP3 ADD MSTORE PUSH1 0x0 DUP1 MLOAD PUSH1 0x20 PUSH2 0x4CA1 DUP4 CODECOPY DUP2 MLOAD SWAP2 MSTORE PUSH1 0x44 DUP3 ADD MSTORE SWAP1 MLOAD SWAP1 DUP2 SWAP1 SUB PUSH1 0x64 ADD SWAP1 REVERT JUMPDEST DUP5 CALLDATALOAD PUSH1 0x1 PUSH1 0x1 PUSH1 0xA0 SHL SUB SWAP1 DUP2 AND PUSH1 0x20 DUP8 ADD CALLDATALOAD SWAP1 SWAP2 AND EQ ISZERO PUSH2 0x2708 JUMPI PUSH1 0x40 DUP1 MLOAD PUSH3 0x461BCD PUSH1 0xE5 SHL DUP2 MSTORE PUSH1 0x20 PUSH1 0x4 DUP3 ADD MSTORE PUSH1 0x1C PUSH1 0x24 DUP3 ADD MSTORE PUSH32 0x426F72726F7720746F6B656E732063616E6E6F742062652073616D6500000000 PUSH1 0x44 DUP3 ADD MSTORE SWAP1 MLOAD SWAP1 DUP2 SWAP1 SUB PUSH1 0x64 ADD SWAP1 REVERT JUMPDEST DUP6 CALLDATALOAD ISZERO ISZERO DUP1 PUSH2 0x2716 JUMPI POP DUP3 CALLDATALOAD ISZERO JUMPDEST PUSH2 0x2751 JUMPI PUSH1 0x40 MLOAD PUSH3 0x461BCD PUSH1 0xE5 SHL DUP2 MSTORE PUSH1 0x4 ADD DUP1 DUP1 PUSH1 0x20 ADD DUP3 DUP2 SUB DUP3 MSTORE PUSH1 0x2A DUP2 MSTORE PUSH1 0x20 ADD DUP1 PUSH2 0x4C35 PUSH1 0x2A SWAP2 CODECOPY PUSH1 0x40 ADD SWAP2 POP POP PUSH1 0x40 MLOAD DUP1 SWAP2 SUB SWAP1 REVERT JUMPDEST PUSH1 0x20 DUP7 ADD CALLDATALOAD ISZERO ISZERO DUP1 PUSH2 0x2765 JUMPI POP PUSH1 0x20 DUP4 ADD CALLDATALOAD ISZERO JUMPDEST PUSH2 0x27A0 JUMPI PUSH1 0x40 MLOAD PUSH3 0x461BCD PUSH1 0xE5 SHL DUP2 MSTORE PUSH1 0x4 ADD DUP1 DUP1 PUSH1 0x20 ADD DUP3 DUP2 SUB DUP3 MSTORE PUSH1 0x2A DUP2 MSTORE PUSH1 0x20 ADD DUP1 PUSH2 0x4BA3 PUSH1 0x2A SWAP2 CODECOPY PUSH1 0x40 ADD SWAP2 POP POP PUSH1 0x40 MLOAD DUP1 SWAP2 SUB SWAP1 REVERT JUMPDEST PUSH2 0x2710 DUP3 LT PUSH2 0x27E0 JUMPI PUSH1 0x40 MLOAD PUSH3 0x461BCD PUSH1 0xE5 SHL DUP2 MSTORE PUSH1 0x4 ADD DUP1 DUP1 PUSH1 0x20 ADD DUP3 DUP2 SUB DUP3 MSTORE PUSH1 0x22 DUP2 MSTORE PUSH1 0x20 ADD DUP1 PUSH2 0x4BED PUSH1 0x22 SWAP2 CODECOPY PUSH1 0x40 ADD SWAP2 POP POP PUSH1 0x40 MLOAD DUP1 SWAP2 SUB SWAP1 REVERT JUMPDEST PUSH2 0x2328 DUP2 LT PUSH2 0x2820 JUMPI PUSH1 0x40 MLOAD PUSH3 0x461BCD PUSH1 0xE5 SHL DUP2 MSTORE PUSH1 0x4 ADD DUP1 DUP1 PUSH1 0x20 ADD DUP3 DUP2 SUB DUP3 MSTORE PUSH1 0x26 DUP2 MSTORE PUSH1 0x20 ADD DUP1 PUSH2 0x4B7D PUSH1 0x26 SWAP2 CODECOPY PUSH1 0x40 ADD SWAP2 POP POP PUSH1 0x40 MLOAD DUP1 SWAP2 SUB SWAP1 REVERT JUMPDEST DUP8 PUSH2 0x2837 JUMPI PUSH1 0x6 DUP1 SLOAD PUSH1 0x1 DUP2 ADD SWAP1 SWAP2 SSTORE SWAP8 POP PUSH2 0x2881 JUMP JUMPDEST PUSH1 0x6 SLOAD DUP9 LT PUSH2 0x2881 JUMPI PUSH1 0x40 DUP1 MLOAD PUSH3 0x461BCD PUSH1 0xE5 SHL DUP2 MSTORE PUSH1 0x20 PUSH1 0x4 DUP3 ADD MSTORE PUSH1 0x11 PUSH1 0x24 DUP3 ADD MSTORE PUSH17 0x189859081C1C9BD91D58DD1A5BDB881A59 PUSH1 0x7A SHL PUSH1 0x44 DUP3 ADD MSTORE SWAP1 MLOAD SWAP1 DUP2 SWAP1 SUB PUSH1 0x64 ADD SWAP1 REVERT JUMPDEST PUSH1 0x0 DUP9 DUP2 MSTORE PUSH1 0x5 PUSH1 0x20 MSTORE PUSH1 0x40 SWAP1 KECCAK256 PUSH1 0x2 DUP1 DUP3 ADD DUP1 SLOAD PUSH1 0xFF NOT AND DUP11 ISZERO ISZERO OR SWAP1 SSTORE PUSH2 0x28B0 SWAP1 PUSH1 0x3 DUP4 ADD SWAP1 DUP10 SWAP1 PUSH2 0x49ED JUMP JUMPDEST POP PUSH2 0x28BD DUP2 DUP8 PUSH1 0x2 PUSH2 0x4A81 JUMP JUMPDEST POP PUSH1 0x4 DUP2 ADD DUP1 SLOAD PUSH1 0x1 PUSH1 0x1 PUSH1 0xA0 SHL SUB NOT AND PUSH1 0x1 PUSH1 0x1 PUSH1 0xA0 SHL SUB DUP8 AND OR SWAP1 SSTORE PUSH2 0x28EA PUSH1 0x5 DUP3 ADD DUP6 PUSH1 0x2 PUSH2 0x4AD3 JUMP JUMPDEST POP PUSH1 0x7 DUP2 ADD SWAP3 SWAP1 SWAP3 SSTORE PUSH1 0x8 SWAP1 SWAP2 ADD SSTORE POP POP POP POP POP POP JUMP JUMPDEST PUSH1 0x0 PUSH2 0x290C CALLER PUSH2 0x3438 JUMP JUMPDEST SWAP1 POP JUMPDEST DUP1 ISZERO PUSH2 0x2933 JUMPI PUSH2 0x292A PUSH2 0x2925 CALLER PUSH1 0x1 DUP5 SUB PUSH2 0x34F7 JUMP JUMPDEST PUSH2 0x259F JUMP JUMPDEST PUSH1 0x0 NOT ADD PUSH2 0x290F JUMP JUMPDEST POP JUMP JUMPDEST PUSH1 0x1 PUSH1 0x1 PUSH1 0xA0 SHL SUB DUP3 AND PUSH1 0x0 SWAP1 DUP2 MSTORE PUSH1 0x4 PUSH1 0x20 MSTORE PUSH1 0x40 DUP2 KECCAK256 PUSH2 0x2958 SWAP1 DUP4 PUSH2 0x4684 JUMP JUMPDEST SWAP4 SWAP3 POP POP POP JUMP JUMPDEST PUSH1 0x1 PUSH1 0x1 PUSH1 0xA0 SHL SUB DUP2 AND PUSH1 0x0 SWAP1 DUP2 MSTORE PUSH1 0x2 PUSH1 0x20 MSTORE PUSH1 0x40 DUP2 KECCAK256 DUP1 SLOAD PUSH1 0x1 PUSH1 0xA0 SHL SWAP1 DIV PUSH1 0xFF AND PUSH2 0x29C7 JUMPI PUSH1 0x40 DUP1 MLOAD PUSH3 0x461BCD PUSH1 0xE5 SHL DUP2 MSTORE PUSH1 0x20 PUSH1 0x4 DUP3 ADD MSTORE PUSH1 0x10 PUSH1 0x24 DUP3 ADD MSTORE PUSH16 0x746F6B656E206E6F7420657869737473 PUSH1 0x80 SHL PUSH1 0x44 DUP3 ADD MSTORE SWAP1 MLOAD SWAP1 DUP2 SWAP1 SUB PUSH1 0x64 ADD SWAP1 REVERT JUMPDEST PUSH1 0x0 PUSH1 0x1 PUSH1 0x1 PUSH1 0xA0 SHL SUB DUP5 AND ISZERO PUSH2 0x29E6 JUMPI PUSH2 0x29E1 DUP5 PUSH2 0x3F17 JUMP JUMPDEST PUSH2 0x29E8 JUMP JUMPDEST SELFBALANCE JUMPDEST SWAP1 POP DUP1 DUP3 PUSH1 0x2 ADD SLOAD LT PUSH2 0x29FB JUMPI DUP1 PUSH2 0x2A01 JUMP JUMPDEST DUP2 PUSH1 0x2 ADD SLOAD JUMPDEST SWAP1 POP PUSH2 0x1B6D DUP3 PUSH1 0x6 ADD SLOAD PUSH2 0x1559 DUP5 PUSH1 0x4 ADD SLOAD DUP5 PUSH2 0x3B38 SWAP1 SWAP2 SWAP1 PUSH4 0xFFFFFFFF AND JUMP JUMPDEST PUSH1 0x1 PUSH1 0x1 PUSH1 0xA0 SHL SUB DUP2 AND PUSH1 0x0 SWAP1 DUP2 MSTORE PUSH1 0x3 PUSH1 0x20 MSTORE PUSH1 0x40 DUP2 KECCAK256 PUSH2 0xD35 SWAP1 PUSH1 0x1 ADD PUSH2 0x4690 JUMP JUMPDEST PUSH2 0x2A4E PUSH2 0x4680 JUMP JUMPDEST PUSH1 0x0 SLOAD PUSH1 0x1 PUSH1 0x1 PUSH1 0xA0 SHL SUB SWAP1 DUP2 AND SWAP2 AND EQ PUSH2 0x2A9E JUMPI PUSH1 0x40 DUP1 MLOAD PUSH3 0x461BCD PUSH1 0xE5 SHL DUP2 MSTORE PUSH1 0x20 PUSH1 0x4 DUP3 ADD DUP2 SWAP1 MSTORE PUSH1 0x24 DUP3 ADD MSTORE PUSH1 0x0 DUP1 MLOAD PUSH1 0x20 PUSH2 0x4CA1 DUP4 CODECOPY DUP2 MLOAD SWAP2 MSTORE PUSH1 0x44 DUP3 ADD MSTORE SWAP1 MLOAD SWAP1 DUP2 SWAP1 SUB PUSH1 0x64 ADD SWAP1 REVERT JUMPDEST PUSH1 0xB DUP1 SLOAD PUSH1 0x1 PUSH1 0x1 PUSH1 0xA0 SHL SUB NOT AND PUSH1 0x1 PUSH1 0x1 PUSH1 0xA0 SHL SUB SWAP3 SWAP1 SWAP3 AND SWAP2 SWAP1 SWAP2 OR SWAP1 SSTORE JUMP JUMPDEST PUSH2 0x2AC8 PUSH2 0x4680 JUMP JUMPDEST PUSH1 0x0 SLOAD PUSH1 0x1 PUSH1 0x1 PUSH1 0xA0 SHL SUB SWAP1 DUP2 AND SWAP2 AND EQ PUSH2 0x2B18 JUMPI PUSH1 0x40 DUP1 MLOAD PUSH3 0x461BCD PUSH1 0xE5 SHL DUP2 MSTORE PUSH1 0x20 PUSH1 0x4 DUP3 ADD DUP2 SWAP1 MSTORE PUSH1 0x24 DUP3 ADD MSTORE PUSH1 0x0 DUP1 MLOAD PUSH1 0x20 PUSH2 0x4CA1 DUP4 CODECOPY DUP2 MLOAD SWAP2 MSTORE PUSH1 0x44 DUP3 ADD MSTORE SWAP1 MLOAD SWAP1 DUP2 SWAP1 SUB PUSH1 0x64 ADD SWAP1 REVERT JUMPDEST PUSH1 0x0 DUP1 SLOAD PUSH1 0x40 MLOAD PUSH1 0x1 PUSH1 0x1 PUSH1 0xA0 SHL SUB SWAP1 SWAP2 AND SWAP1 PUSH32 0x8BE0079C531659141344CD1FD0A4F28419497F9722A3DAAFE3B4186F6B6457E0 SWAP1 DUP4 SWAP1 LOG3 PUSH1 0x0 DUP1 SLOAD PUSH1 0x1 PUSH1 0x1 PUSH1 0xA0 SHL SUB NOT AND SWAP1 SSTORE JUMP JUMPDEST PUSH1 0xB SLOAD PUSH1 0x1 PUSH1 0x1 PUSH1 0xA0 SHL SUB AND DUP2 JUMP JUMPDEST PUSH1 0x2 PUSH1 0x20 DUP2 SWAP1 MSTORE PUSH1 0x0 SWAP2 DUP3 MSTORE PUSH1 0x40 SWAP1 SWAP2 KECCAK256 DUP1 SLOAD PUSH1 0x1 DUP3 ADD SLOAD SWAP3 DUP3 ADD SLOAD PUSH1 0x3 DUP4 ADD SLOAD PUSH1 0x4 DUP5 ADD SLOAD PUSH1 0x5 DUP6 ADD SLOAD PUSH1 0x6 DUP7 ADD SLOAD PUSH1 0x7 SWAP1 SWAP7 ADD SLOAD PUSH1 0x1 PUSH1 0x1 PUSH1 0xA0 SHL SUB DUP7 AND SWAP8 PUSH1 0xFF PUSH1 0x1 PUSH1 0xA0 SHL DUP9 DIV DUP2 AND SWAP9 PUSH1 0x1 PUSH1 0xA8 SHL SWAP1 SWAP9 DIV AND SWAP7 SWAP1 SWAP6 SWAP5 SWAP4 SWAP3 SWAP2 DUP11 JUMP JUMPDEST PUSH1 0x60 PUSH1 0x0 PUSH2 0x2BDE DUP4 PUSH2 0x326F JUMP JUMPDEST SWAP1 POP PUSH1 0x60 DUP2 PUSH8 0xFFFFFFFFFFFFFFFF DUP2 GT DUP1 ISZERO PUSH2 0x2BF9 JUMPI PUSH1 0x0 DUP1 REVERT JUMPDEST POP PUSH1 0x40 MLOAD SWAP1 DUP1 DUP3 MSTORE DUP1 PUSH1 0x20 MUL PUSH1 0x20 ADD DUP3 ADD PUSH1 0x40 MSTORE DUP1 ISZERO PUSH2 0x2C23 JUMPI DUP2 PUSH1 0x20 ADD PUSH1 0x20 DUP3 MUL DUP1 CALLDATASIZE DUP4 CALLDATACOPY ADD SWAP1 POP JUMPDEST POP SWAP1 POP PUSH1 0x0 JUMPDEST DUP3 DUP2 LT ISZERO PUSH2 0xDC4 JUMPI PUSH2 0x2C3B DUP6 DUP3 PUSH2 0x2936 JUMP JUMPDEST DUP3 DUP3 DUP2 MLOAD DUP2 LT PUSH2 0x2C47 JUMPI INVALID JUMPDEST PUSH1 0x20 SWAP1 DUP2 MUL SWAP2 SWAP1 SWAP2 ADD ADD MSTORE PUSH1 0x1 ADD PUSH2 0x2C29 JUMP JUMPDEST PUSH1 0x0 DUP1 PUSH1 0x0 PUSH2 0x2C67 PUSH2 0x4975 JUMP JUMPDEST PUSH2 0x2C6F PUSH2 0x4975 JUMP JUMPDEST PUSH1 0x0 DUP7 DUP2 MSTORE PUSH1 0x7 PUSH1 0x20 SWAP1 DUP2 MSTORE PUSH1 0x40 DUP1 DUP4 KECCAK256 PUSH1 0x1 DUP2 ADD SLOAD DUP5 MSTORE PUSH1 0x5 SWAP1 SWAP3 MSTORE DUP3 KECCAK256 DUP3 PUSH2 0x2CAE DUP3 DUP3 JUMPDEST ADD SLOAD PUSH1 0x1 PUSH1 0x1 PUSH1 0xA0 SHL SUB AND PUSH1 0x2 DUP6 ADD PUSH1 0x0 JUMPDEST ADD SLOAD PUSH2 0x1ACE JUMP JUMPDEST SWAP1 POP PUSH1 0x0 PUSH2 0x2CCF DUP4 PUSH1 0x1 JUMPDEST ADD SLOAD PUSH1 0x1 PUSH1 0x1 PUSH1 0xA0 SHL SUB AND PUSH1 0x2 DUP7 ADD PUSH1 0x1 PUSH2 0x2CA7 JUMP JUMPDEST SWAP1 POP DUP4 PUSH1 0x1 ADD SLOAD DUP4 PUSH1 0x4 ADD PUSH1 0x0 SWAP1 SLOAD SWAP1 PUSH2 0x100 EXP SWAP1 DIV PUSH1 0x1 PUSH1 0x1 PUSH1 0xA0 SHL SUB AND PUSH1 0x1 PUSH1 0x1 PUSH1 0xA0 SHL SUB AND PUSH4 0xF204B9C5 DUP14 PUSH1 0x40 MLOAD DUP3 PUSH4 0xFFFFFFFF AND PUSH1 0xE0 SHL DUP2 MSTORE PUSH1 0x4 ADD DUP1 DUP3 DUP2 MSTORE PUSH1 0x20 ADD SWAP2 POP POP PUSH1 0x20 PUSH1 0x40 MLOAD DUP1 DUP4 SUB DUP2 DUP7 DUP1 EXTCODESIZE ISZERO DUP1 ISZERO PUSH2 0x2D31 JUMPI PUSH1 0x0 DUP1 REVERT JUMPDEST POP GAS STATICCALL ISZERO DUP1 ISZERO PUSH2 0x2D45 JUMPI RETURNDATASIZE PUSH1 0x0 DUP1 RETURNDATACOPY RETURNDATASIZE PUSH1 0x0 REVERT JUMPDEST POP POP POP POP PUSH1 0x40 MLOAD RETURNDATASIZE PUSH1 0x20 DUP2 LT ISZERO PUSH2 0x2D5B JUMPI PUSH1 0x0 DUP1 REVERT JUMPDEST DUP2 ADD SWAP1 DUP1 DUP1 MLOAD SWAP1 PUSH1 0x20 ADD SWAP1 SWAP3 SWAP2 SWAP1 POP POP POP DUP5 PUSH1 0x4 ADD PUSH1 0x0 SWAP1 SLOAD SWAP1 PUSH2 0x100 EXP SWAP1 DIV PUSH1 0x1 PUSH1 0x1 PUSH1 0xA0 SHL SUB AND PUSH1 0x1 PUSH1 0x1 PUSH1 0xA0 SHL SUB AND PUSH4 0x57DD5650 DUP15 DUP8 PUSH1 0x0 ADD PUSH1 0x40 MLOAD DUP1 PUSH1 0x40 ADD PUSH1 0x40 MSTORE DUP1 DUP10 DUP2 MSTORE PUSH1 0x20 ADD DUP9 DUP2 MSTORE POP PUSH1 0x40 MLOAD DUP5 PUSH4 0xFFFFFFFF AND PUSH1 0xE0 SHL DUP2 MSTORE PUSH1 0x4 ADD DUP1 DUP5 DUP2 MSTORE PUSH1 0x20 ADD DUP4 PUSH1 0x2 DUP1 ISZERO PUSH2 0x2DF3 JUMPI PUSH1 0x20 MUL DUP3 ADD SWAP2 JUMPDEST DUP2 SLOAD PUSH1 0x1 PUSH1 0x1 PUSH1 0xA0 SHL SUB AND DUP2 MSTORE PUSH1 0x1 SWAP1 SWAP2 ADD SWAP1 PUSH1 0x20 ADD DUP1 DUP4 GT PUSH2 0x2DD5 JUMPI JUMPDEST POP DUP4 SWAP1 POP PUSH1 0x40 DUP1 DUP4 DUP4 PUSH1 0x0 JUMPDEST DUP4 DUP2 LT ISZERO PUSH2 0x2E17 JUMPI DUP2 DUP2 ADD MLOAD DUP4 DUP3 ADD MSTORE PUSH1 0x20 ADD PUSH2 0x2DFF JUMP JUMPDEST POP POP POP POP SWAP1 POP ADD SWAP4 POP POP POP POP PUSH1 0x20 PUSH1 0x40 MLOAD DUP1 DUP4 SUB DUP2 DUP7 DUP1 EXTCODESIZE ISZERO DUP1 ISZERO PUSH2 0x2E3B JUMPI PUSH1 0x0 DUP1 REVERT JUMPDEST POP GAS STATICCALL ISZERO DUP1 ISZERO PUSH2 0x2E4F JUMPI RETURNDATASIZE PUSH1 0x0 DUP1 RETURNDATACOPY RETURNDATASIZE PUSH1 0x0 REVERT JUMPDEST POP POP POP POP PUSH1 0x40 MLOAD RETURNDATASIZE PUSH1 0x20 DUP2 LT ISZERO PUSH2 0x2E65 JUMPI PUSH1 0x0 DUP1 REVERT JUMPDEST DUP2 ADD SWAP1 DUP1 DUP1 MLOAD SWAP1 PUSH1 0x20 ADD SWAP1 SWAP3 SWAP2 SWAP1 POP POP POP DUP6 PUSH1 0x4 ADD PUSH1 0x0 SWAP1 SLOAD SWAP1 PUSH2 0x100 EXP SWAP1 DIV PUSH1 0x1 PUSH1 0x1 PUSH1 0xA0 SHL SUB AND PUSH1 0x1 PUSH1 0x1 PUSH1 0xA0 SHL SUB AND PUSH4 0xFF43F9E7 DUP16 DUP9 PUSH1 0x0 ADD PUSH1 0x40 MLOAD DUP1 PUSH1 0x40 ADD PUSH1 0x40 MSTORE DUP1 DUP11 DUP2 MSTORE PUSH1 0x20 ADD DUP10 DUP2 MSTORE POP PUSH1 0x40 MLOAD DUP5 PUSH4 0xFFFFFFFF AND PUSH1 0xE0 SHL DUP2 MSTORE PUSH1 0x4 ADD DUP1 DUP5 DUP2 MSTORE PUSH1 0x20 ADD DUP4 PUSH1 0x2 DUP1 ISZERO PUSH2 0x2EFD JUMPI PUSH1 0x20 MUL DUP3 ADD SWAP2 JUMPDEST DUP2 SLOAD PUSH1 0x1 PUSH1 0x1 PUSH1 0xA0 SHL SUB AND DUP2 MSTORE PUSH1 0x1 SWAP1 SWAP2 ADD SWAP1 PUSH1 0x20 ADD DUP1 DUP4 GT PUSH2 0x2EDF JUMPI JUMPDEST POP DUP4 SWAP1 POP PUSH1 0x40 DUP1 DUP4 DUP4 PUSH1 0x0 JUMPDEST DUP4 DUP2 LT ISZERO PUSH2 0x2F21 JUMPI DUP2 DUP2 ADD MLOAD DUP4 DUP3 ADD MSTORE PUSH1 0x20 ADD PUSH2 0x2F09 JUMP JUMPDEST POP POP POP POP SWAP1 POP ADD SWAP4 POP POP POP POP PUSH1 0x40 DUP1 MLOAD DUP1 DUP4 SUB DUP2 DUP7 DUP1 EXTCODESIZE ISZERO DUP1 ISZERO PUSH2 0x2F44 JUMPI PUSH1 0x0 DUP1 REVERT JUMPDEST POP GAS STATICCALL ISZERO DUP1 ISZERO PUSH2 0x2F58 JUMPI RETURNDATASIZE PUSH1 0x0 DUP1 RETURNDATACOPY RETURNDATASIZE PUSH1 0x0 REVERT JUMPDEST POP POP POP POP PUSH1 0x40 MLOAD RETURNDATASIZE PUSH1 0x1F NOT PUSH1 0x1F DUP3 ADD AND DUP3 ADD DUP1 PUSH1 0x40 MSTORE POP PUSH1 0x40 DUP2 LT ISZERO PUSH2 0x2F7D JUMPI PUSH1 0x0 DUP1 REVERT JUMPDEST POP PUSH1 0x40 DUP1 MLOAD DUP1 DUP3 ADD SWAP1 SWAP2 MSTORE SWAP6 DUP7 MSTORE PUSH1 0x20 DUP7 ADD SWAP5 SWAP1 SWAP5 MSTORE SWAP6 SLOAD SWAP2 SWAP14 SWAP1 SWAP13 POP SWAP5 SWAP11 POP SWAP1 SWAP9 POP SWAP1 SWAP7 POP PUSH1 0x1 PUSH1 0x1 PUSH1 0xA0 SHL SUB AND SWAP5 POP SWAP1 SWAP3 POP POP POP JUMP JUMPDEST PUSH1 0x0 SLOAD PUSH1 0x1 PUSH1 0x1 PUSH1 0xA0 SHL SUB AND SWAP1 JUMP JUMPDEST PUSH1 0x1 PUSH1 0x1 PUSH1 0xA0 SHL SUB DUP3 AND PUSH1 0x0 SWAP1 DUP2 MSTORE PUSH1 0x3 PUSH1 0x20 MSTORE PUSH1 0x40 DUP2 KECCAK256 PUSH2 0x2958 SWAP1 PUSH1 0x1 ADD DUP4 PUSH2 0x4684 JUMP JUMPDEST PUSH1 0x8 SLOAD DUP2 JUMP JUMPDEST PUSH2 0x2FF7 PUSH2 0x4680 JUMP JUMPDEST PUSH1 0x0 SLOAD PUSH1 0x1 PUSH1 0x1 PUSH1 0xA0 SHL SUB SWAP1 DUP2 AND SWAP2 AND EQ PUSH2 0x3047 JUMPI PUSH1 0x40 DUP1 MLOAD PUSH3 0x461BCD PUSH1 0xE5 SHL DUP2 MSTORE PUSH1 0x20 PUSH1 0x4 DUP3 ADD DUP2 SWAP1 MSTORE PUSH1 0x24 DUP3 ADD MSTORE PUSH1 0x0 DUP1 MLOAD PUSH1 0x20 PUSH2 0x4CA1 DUP4 CODECOPY DUP2 MLOAD SWAP2 MSTORE PUSH1 0x44 DUP3 ADD MSTORE SWAP1 MLOAD SWAP1 DUP2 SWAP1 SUB PUSH1 0x64 ADD SWAP1 REVERT JUMPDEST PUSH1 0x2 PUSH1 0x1 SLOAD EQ ISZERO PUSH2 0x308D JUMPI PUSH1 0x40 DUP1 MLOAD PUSH3 0x461BCD PUSH1 0xE5 SHL DUP2 MSTORE PUSH1 0x20 PUSH1 0x4 DUP3 ADD MSTORE PUSH1 0x1F PUSH1 0x24 DUP3 ADD MSTORE PUSH1 0x0 DUP1 MLOAD PUSH1 0x20 PUSH2 0x4BCD DUP4 CODECOPY DUP2 MLOAD SWAP2 MSTORE PUSH1 0x44 DUP3 ADD MSTORE SWAP1 MLOAD SWAP1 DUP2 SWAP1 SUB PUSH1 0x64 ADD SWAP1 REVERT JUMPDEST PUSH1 0x2 PUSH1 0x1 DUP2 SWAP1 SSTORE PUSH1 0x1 PUSH1 0x1 PUSH1 0xA0 SHL SUB DUP5 AND PUSH1 0x0 DUP2 DUP2 MSTORE PUSH1 0x20 SWAP3 SWAP1 SWAP3 MSTORE PUSH1 0x40 DUP3 KECCAK256 SWAP2 SWAP1 ISZERO PUSH2 0x30C2 JUMPI PUSH2 0x30BD DUP6 PUSH2 0x3F17 JUMP JUMPDEST PUSH2 0x30C4 JUMP JUMPDEST SELFBALANCE JUMPDEST PUSH1 0x2 DUP4 ADD SLOAD SWAP1 SWAP2 POP PUSH2 0x30D6 SWAP1 DUP5 PUSH2 0x3B38 JUMP JUMPDEST DUP2 LT PUSH2 0x30E1 JUMPI PUSH2 0x310A JUMP JUMPDEST PUSH1 0x6 DUP3 ADD SLOAD PUSH2 0x30F0 SWAP1 DUP5 PUSH2 0x3ED5 JUMP JUMPDEST PUSH1 0x6 DUP4 ADD SSTORE PUSH1 0x2 DUP3 ADD SLOAD PUSH2 0x3104 SWAP1 DUP5 PUSH2 0x3ED5 JUMP JUMPDEST PUSH1 0x2 DUP4 ADD SSTORE JUMPDEST PUSH1 0x1 PUSH1 0x1 PUSH1 0xA0 SHL SUB DUP6 AND PUSH2 0x3127 JUMPI PUSH2 0x3122 DUP5 DUP5 PUSH2 0x4244 JUMP JUMPDEST PUSH2 0x3132 JUMP JUMPDEST PUSH2 0x3132 DUP6 DUP6 DUP6 PUSH2 0x40F1 JUMP JUMPDEST POP POP PUSH1 0x1 DUP1 SSTORE POP POP POP JUMP JUMPDEST PUSH2 0x3145 PUSH2 0x4680 JUMP JUMPDEST PUSH1 0x0 SLOAD PUSH1 0x1 PUSH1 0x1 PUSH1 0xA0 SHL SUB SWAP1 DUP2 AND SWAP2 AND EQ PUSH2 0x3195 JUMPI PUSH1 0x40 DUP1 MLOAD PUSH3 0x461BCD PUSH1 0xE5 SHL DUP2 MSTORE PUSH1 0x20 PUSH1 0x4 DUP3 ADD DUP2 SWAP1 MSTORE PUSH1 0x24 DUP3 ADD MSTORE PUSH1 0x0 DUP1 MLOAD PUSH1 0x20 PUSH2 0x4CA1 DUP4 CODECOPY DUP2 MLOAD SWAP2 MSTORE PUSH1 0x44 DUP3 ADD MSTORE SWAP1 MLOAD SWAP1 DUP2 SWAP1 SUB PUSH1 0x64 ADD SWAP1 REVERT JUMPDEST PUSH1 0x1 PUSH1 0x1 PUSH1 0xA0 SHL SUB DUP3 AND PUSH1 0x0 SWAP1 DUP2 MSTORE PUSH1 0x2 PUSH1 0x20 MSTORE PUSH1 0x40 SWAP1 KECCAK256 DUP1 SLOAD PUSH1 0x1 PUSH1 0xA0 SHL SWAP1 DIV PUSH1 0xFF AND ISZERO PUSH2 0x3202 JUMPI PUSH1 0x40 DUP1 MLOAD PUSH3 0x461BCD PUSH1 0xE5 SHL DUP2 MSTORE PUSH1 0x20 PUSH1 0x4 DUP3 ADD MSTORE PUSH1 0x14 PUSH1 0x24 DUP3 ADD MSTORE PUSH20 0x746F6B656E20616C726561647920657869737473 PUSH1 0x60 SHL PUSH1 0x44 DUP3 ADD MSTORE SWAP1 MLOAD SWAP1 DUP2 SWAP1 SUB PUSH1 0x64 ADD SWAP1 REVERT JUMPDEST DUP1 SLOAD PUSH1 0xFF PUSH1 0xA8 SHL NOT PUSH1 0x1 PUSH1 0x1 PUSH1 0xA0 SHL SUB SWAP1 SWAP5 AND PUSH1 0x1 PUSH1 0x1 PUSH1 0xA0 SHL SUB NOT PUSH1 0xFF PUSH1 0xA0 SHL NOT SWAP1 SWAP3 AND PUSH1 0x1 PUSH1 0xA0 SHL OR SWAP2 SWAP1 SWAP2 AND OR SWAP3 SWAP1 SWAP3 AND PUSH1 0x1 PUSH1 0xA8 SHL OR DUP3 SSTORE PUSH1 0x1 DUP3 ADD SSTORE PUSH1 0x0 PUSH1 0x2 DUP3 ADD DUP2 SWAP1 SSTORE PUSH1 0x3 DUP3 ADD DUP2 SWAP1 SSTORE PUSH1 0x4 DUP3 ADD DUP2 SWAP1 SSTORE PUSH1 0x5 DUP3 ADD DUP2 SWAP1 SSTORE PUSH1 0x6 DUP3 ADD SSTORE TIMESTAMP PUSH1 0x7 SWAP1 SWAP2 ADD SSTORE JUMP JUMPDEST PUSH1 0x1 PUSH1 0x1 PUSH1 0xA0 SHL SUB DUP2 AND PUSH1 0x0 SWAP1 DUP2 MSTORE PUSH1 0x4 PUSH1 0x20 MSTORE PUSH1 0x40 DUP2 KECCAK256 PUSH2 0xD35 SWAP1 PUSH2 0x4690 JUMP JUMPDEST PUSH2 0x3298 PUSH2 0x4680 JUMP JUMPDEST PUSH1 0x0 SLOAD PUSH1 0x1 PUSH1 0x1 PUSH1 0xA0 SHL SUB SWAP1 DUP2 AND SWAP2 AND EQ PUSH2 0x32E8 JUMPI PUSH1 0x40 DUP1 MLOAD PUSH3 0x461BCD PUSH1 0xE5 SHL DUP2 MSTORE PUSH1 0x20 PUSH1 0x4 DUP3 ADD DUP2 SWAP1 MSTORE PUSH1 0x24 DUP3 ADD MSTORE PUSH1 0x0 DUP1 MLOAD PUSH1 0x20 PUSH2 0x4CA1 DUP4 CODECOPY DUP2 MLOAD SWAP2 MSTORE PUSH1 0x44 DUP3 ADD MSTORE SWAP1 MLOAD SWAP1 DUP2 SWAP1 SUB PUSH1 0x64 ADD SWAP1 REVERT JUMPDEST PUSH1 0x1 PUSH1 0x1 PUSH1 0xA0 SHL SUB DUP3 AND PUSH1 0x0 SWAP1 DUP2 MSTORE PUSH1 0x2 PUSH1 0x20 MSTORE PUSH1 0x40 SWAP1 KECCAK256 DUP1 SLOAD PUSH1 0x1 PUSH1 0xA0 SHL SWAP1 DIV PUSH1 0xFF AND PUSH2 0x3350 JUMPI PUSH1 0x40 DUP1 MLOAD PUSH3 0x461BCD PUSH1 0xE5 SHL DUP2 MSTORE PUSH1 0x20 PUSH1 0x4 DUP3 ADD MSTORE PUSH1 0x10 PUSH1 0x24 DUP3 ADD MSTORE PUSH16 0x746F6B656E206E6F7420657869737473 PUSH1 0x80 SHL PUSH1 0x44 DUP3 ADD MSTORE SWAP1 MLOAD SWAP1 DUP2 SWAP1 SUB PUSH1 0x64 ADD SWAP1 REVERT JUMPDEST DUP1 SLOAD SWAP2 ISZERO ISZERO PUSH1 0x1 PUSH1 0xA8 SHL MUL PUSH1 0xFF PUSH1 0xA8 SHL NOT SWAP1 SWAP3 AND SWAP2 SWAP1 SWAP2 OR SWAP1 SSTORE POP JUMP JUMPDEST PUSH1 0x0 PUSH2 0x3378 CALLER PUSH2 0x2A22 JUMP JUMPDEST SWAP1 POP JUMPDEST DUP1 ISZERO PUSH2 0x2933 JUMPI PUSH2 0x3396 PUSH2 0x3391 CALLER PUSH1 0x1 DUP5 SUB PUSH2 0x2FC4 JUMP JUMPDEST PUSH2 0xC4F JUMP JUMPDEST PUSH1 0x0 NOT ADD PUSH2 0x337B JUMP JUMPDEST PUSH1 0x1 PUSH1 0x1 PUSH1 0xA0 SHL SUB DUP3 AND PUSH1 0x0 SWAP1 DUP2 MSTORE PUSH1 0x2 PUSH1 0x20 MSTORE PUSH1 0x40 DUP2 KECCAK256 DUP1 SLOAD PUSH1 0x1 PUSH1 0xA0 SHL SWAP1 DIV PUSH1 0xFF AND PUSH2 0x3407 JUMPI PUSH1 0x40 DUP1 MLOAD PUSH3 0x461BCD PUSH1 0xE5 SHL DUP2 MSTORE PUSH1 0x20 PUSH1 0x4 DUP3 ADD MSTORE PUSH1 0x10 PUSH1 0x24 DUP3 ADD MSTORE PUSH16 0x746F6B656E206E6F7420657869737473 PUSH1 0x80 SHL PUSH1 0x44 DUP3 ADD MSTORE SWAP1 MLOAD SWAP1 DUP2 SWAP1 SUB PUSH1 0x64 ADD SWAP1 REVERT JUMPDEST PUSH1 0x4 DUP2 ADD SLOAD PUSH2 0x3419 JUMPI DUP3 SWAP2 POP POP PUSH2 0xD35 JUMP JUMPDEST PUSH2 0x1B6D DUP2 PUSH1 0x4 ADD SLOAD PUSH2 0x1B67 DUP4 PUSH1 0x5 ADD SLOAD DUP7 PUSH2 0x4340 SWAP1 SWAP2 SWAP1 PUSH4 0xFFFFFFFF AND JUMP JUMPDEST PUSH1 0x1 PUSH1 0x1 PUSH1 0xA0 SHL SUB DUP2 AND PUSH1 0x0 SWAP1 DUP2 MSTORE PUSH1 0x4 PUSH1 0x20 MSTORE PUSH1 0x40 DUP2 KECCAK256 PUSH2 0xD35 SWAP1 PUSH1 0x2 ADD PUSH2 0x4690 JUMP JUMPDEST PUSH1 0x0 DUP2 DUP2 MSTORE PUSH1 0x5 PUSH1 0x20 MSTORE PUSH1 0x40 DUP1 DUP3 KECCAK256 PUSH1 0x4 DUP1 DUP3 ADD SLOAD DUP4 MLOAD PUSH4 0x5931C793 PUSH1 0xE0 SHL DUP2 MSTORE PUSH1 0x1 PUSH1 0x1 PUSH1 0xA0 SHL SUB DUP9 DUP2 AND SWAP4 DUP3 ADD SWAP4 SWAP1 SWAP4 MSTORE DUP5 MLOAD DUP7 SWAP6 SWAP4 SWAP1 SWAP3 AND SWAP3 PUSH4 0x5931C793 SWAP3 PUSH1 0x24 DUP1 DUP5 ADD SWAP4 DUP3 SWAP1 SUB ADD DUP2 DUP7 DUP1 EXTCODESIZE ISZERO DUP1 ISZERO PUSH2 0x34B8 JUMPI PUSH1 0x0 DUP1 REVERT JUMPDEST POP GAS STATICCALL ISZERO DUP1 ISZERO PUSH2 0x34CC JUMPI RETURNDATASIZE PUSH1 0x0 DUP1 RETURNDATACOPY RETURNDATASIZE PUSH1 0x0 REVERT JUMPDEST POP POP POP POP PUSH1 0x40 MLOAD RETURNDATASIZE PUSH1 0x40 DUP2 LT ISZERO PUSH2 0x34E2 JUMPI PUSH1 0x0 DUP1 REVERT JUMPDEST POP DUP1 MLOAD PUSH1 0x20 SWAP1 SWAP2 ADD MLOAD SWAP1 SWAP7 SWAP1 SWAP6 POP SWAP4 POP POP POP POP JUMP JUMPDEST PUSH1 0x1 PUSH1 0x1 PUSH1 0xA0 SHL SUB DUP3 AND PUSH1 0x0 SWAP1 DUP2 MSTORE PUSH1 0x4 PUSH1 0x20 MSTORE PUSH1 0x40 DUP2 KECCAK256 PUSH2 0x2958 SWAP1 PUSH1 0x2 ADD DUP4 PUSH2 0x4684 JUMP JUMPDEST PUSH1 0x6 SLOAD DUP2 JUMP JUMPDEST PUSH2 0x352A PUSH2 0x4680 JUMP JUMPDEST PUSH1 0x0 SLOAD PUSH1 0x1 PUSH1 0x1 PUSH1 0xA0 SHL SUB SWAP1 DUP2 AND SWAP2 AND EQ PUSH2 0x357A JUMPI PUSH1 0x40 DUP1 MLOAD PUSH3 0x461BCD PUSH1 0xE5 SHL DUP2 MSTORE PUSH1 0x20 PUSH1 0x4 DUP3 ADD DUP2 SWAP1 MSTORE PUSH1 0x24 DUP3 ADD MSTORE PUSH1 0x0 DUP1 MLOAD PUSH1 0x20 PUSH2 0x4CA1 DUP4 CODECOPY DUP2 MLOAD SWAP2 MSTORE PUSH1 0x44 DUP3 ADD MSTORE SWAP1 MLOAD SWAP1 DUP2 SWAP1 SUB PUSH1 0x64 ADD SWAP1 REVERT JUMPDEST PUSH1 0x1 PUSH1 0x1 PUSH1 0xA0 SHL SUB DUP2 AND PUSH2 0x35BF JUMPI PUSH1 0x40 MLOAD PUSH3 0x461BCD PUSH1 0xE5 SHL DUP2 MSTORE PUSH1 0x4 ADD DUP1 DUP1 PUSH1 0x20 ADD DUP3 DUP2 SUB DUP3 MSTORE PUSH1 0x26 DUP2 MSTORE PUSH1 0x20 ADD DUP1 PUSH2 0x4C0F PUSH1 0x26 SWAP2 CODECOPY PUSH1 0x40 ADD SWAP2 POP POP PUSH1 0x40 MLOAD DUP1 SWAP2 SUB SWAP1 REVERT JUMPDEST PUSH1 0x0 DUP1 SLOAD PUSH1 0x40 MLOAD PUSH1 0x1 PUSH1 0x1 PUSH1 0xA0 SHL SUB DUP1 DUP6 AND SWAP4 SWAP3 AND SWAP2 PUSH32 0x8BE0079C531659141344CD1FD0A4F28419497F9722A3DAAFE3B4186F6B6457E0 SWAP2 LOG3 PUSH1 0x0 DUP1 SLOAD PUSH1 0x1 PUSH1 0x1 PUSH1 0xA0 SHL SUB NOT AND PUSH1 0x1 PUSH1 0x1 PUSH1 0xA0 SHL SUB SWAP3 SWAP1 SWAP3 AND SWAP2 SWAP1 SWAP2 OR SWAP1 SSTORE JUMP JUMPDEST PUSH1 0x60 DUP1 PUSH1 0x0 PUSH2 0x3629 PUSH1 0x9 PUSH2 0x4690 JUMP JUMPDEST SWAP1 POP PUSH1 0x60 DUP2 PUSH8 0xFFFFFFFFFFFFFFFF DUP2 GT DUP1 ISZERO PUSH2 0x3644 JUMPI PUSH1 0x0 DUP1 REVERT JUMPDEST POP PUSH1 0x40 MLOAD SWAP1 DUP1 DUP3 MSTORE DUP1 PUSH1 0x20 MUL PUSH1 0x20 ADD DUP3 ADD PUSH1 0x40 MSTORE DUP1 ISZERO PUSH2 0x366E JUMPI DUP2 PUSH1 0x20 ADD PUSH1 0x20 DUP3 MUL DUP1 CALLDATASIZE DUP4 CALLDATACOPY ADD SWAP1 POP JUMPDEST POP SWAP1 POP PUSH1 0x60 DUP3 PUSH8 0xFFFFFFFFFFFFFFFF DUP2 GT DUP1 ISZERO PUSH2 0x368A JUMPI PUSH1 0x0 DUP1 REVERT JUMPDEST POP PUSH1 0x40 MLOAD SWAP1 DUP1 DUP3 MSTORE DUP1 PUSH1 0x20 MUL PUSH1 0x20 ADD DUP3 ADD PUSH1 0x40 MSTORE DUP1 ISZERO PUSH2 0x36B4 JUMPI DUP2 PUSH1 0x20 ADD PUSH1 0x20 DUP3 MUL DUP1 CALLDATASIZE DUP4 CALLDATACOPY ADD SWAP1 POP JUMPDEST POP SWAP1 POP PUSH1 0x0 JUMPDEST DUP4 DUP2 LT ISZERO PUSH2 0x3830 JUMPI PUSH1 0x0 PUSH2 0x36CF PUSH1 0x9 DUP4 PUSH2 0x4684 JUMP JUMPDEST PUSH1 0x0 DUP2 DUP2 MSTORE PUSH1 0x7 PUSH1 0x20 SWAP1 DUP2 MSTORE PUSH1 0x40 DUP1 DUP4 KECCAK256 PUSH1 0x1 DUP2 ADD SLOAD DUP5 MSTORE PUSH1 0x5 SWAP1 SWAP3 MSTORE DUP3 KECCAK256 SWAP3 SWAP4 POP SWAP2 SWAP1 PUSH2 0x36FD DUP3 DUP3 PUSH2 0x2C95 JUMP JUMPDEST SWAP1 POP PUSH1 0x0 PUSH2 0x370C DUP4 PUSH1 0x1 PUSH2 0x2CB9 JUMP JUMPDEST SWAP1 POP DUP5 DUP9 DUP8 DUP2 MLOAD DUP2 LT PUSH2 0x371B JUMPI INVALID JUMPDEST PUSH1 0x20 SWAP1 DUP2 MUL SWAP2 SWAP1 SWAP2 ADD DUP2 ADD SWAP2 SWAP1 SWAP2 MSTORE PUSH1 0x4 DUP5 DUP2 ADD SLOAD PUSH1 0x40 DUP1 MLOAD DUP1 DUP3 ADD DUP3 MSTORE DUP7 DUP2 MSTORE SWAP4 DUP5 ADD DUP6 SWAP1 MSTORE MLOAD PUSH4 0x57DD565 PUSH1 0xE4 SHL DUP2 MSTORE SWAP2 DUP3 ADD DUP9 DUP2 MSTORE PUSH1 0x1 PUSH1 0x1 PUSH1 0xA0 SHL SUB SWAP1 SWAP2 AND SWAP3 PUSH4 0x57DD5650 SWAP3 DUP10 SWAP3 DUP9 SWAP3 SWAP2 PUSH1 0x64 DUP2 ADD SWAP1 DUP5 SWAP1 PUSH1 0x24 ADD JUMPDEST DUP2 SLOAD PUSH1 0x1 PUSH1 0x1 PUSH1 0xA0 SHL SUB AND DUP2 MSTORE PUSH1 0x1 SWAP1 SWAP2 ADD SWAP1 PUSH1 0x20 ADD DUP1 DUP4 GT PUSH2 0x3775 JUMPI POP DUP4 SWAP1 POP PUSH1 0x40 DUP1 DUP4 DUP4 PUSH1 0x0 JUMPDEST DUP4 DUP2 LT ISZERO PUSH2 0x37B6 JUMPI DUP2 DUP2 ADD MLOAD DUP4 DUP3 ADD MSTORE PUSH1 0x20 ADD PUSH2 0x379E JUMP JUMPDEST POP POP POP POP SWAP1 POP ADD SWAP4 POP POP POP POP PUSH1 0x20 PUSH1 0x40 MLOAD DUP1 DUP4 SUB DUP2 DUP7 DUP1 EXTCODESIZE ISZERO DUP1 ISZERO PUSH2 0x37DA JUMPI PUSH1 0x0 DUP1 REVERT JUMPDEST POP GAS STATICCALL ISZERO DUP1 ISZERO PUSH2 0x37EE JUMPI RETURNDATASIZE PUSH1 0x0 DUP1 RETURNDATACOPY RETURNDATASIZE PUSH1 0x0 REVERT JUMPDEST POP POP POP POP PUSH1 0x40 MLOAD RETURNDATASIZE PUSH1 0x20 DUP2 LT ISZERO PUSH2 0x3804 JUMPI PUSH1 0x0 DUP1 REVERT JUMPDEST POP MLOAD DUP8 MLOAD DUP9 SWAP1 DUP9 SWAP1 DUP2 LT PUSH2 0x3814 JUMPI INVALID JUMPDEST PUSH1 0x20 MUL PUSH1 0x20 ADD ADD DUP2 DUP2 MSTORE POP POP POP POP POP POP POP DUP1 PUSH1 0x1 ADD SWAP1 POP PUSH2 0x36BA JUMP JUMPDEST POP SWAP1 SWAP4 POP SWAP2 POP POP SWAP1 SWAP2 JUMP JUMPDEST PUSH1 0x2 PUSH1 0x1 SLOAD EQ ISZERO PUSH2 0x3881 JUMPI PUSH1 0x40 DUP1 MLOAD PUSH3 0x461BCD PUSH1 0xE5 SHL DUP2 MSTORE PUSH1 0x20 PUSH1 0x4 DUP3 ADD MSTORE PUSH1 0x1F PUSH1 0x24 DUP3 ADD MSTORE PUSH1 0x0 DUP1 MLOAD PUSH1 0x20 PUSH2 0x4BCD DUP4 CODECOPY DUP2 MLOAD SWAP2 MSTORE PUSH1 0x44 DUP3 ADD MSTORE SWAP1 MLOAD SWAP1 DUP2 SWAP1 SUB PUSH1 0x64 ADD SWAP1 REVERT JUMPDEST PUSH1 0x2 PUSH1 0x1 DUP2 SWAP1 SSTORE PUSH1 0x1 PUSH1 0x1 PUSH1 0xA0 SHL SUB DUP4 AND PUSH1 0x0 SWAP1 DUP2 MSTORE PUSH1 0x20 SWAP2 DUP3 MSTORE PUSH1 0x40 DUP1 DUP3 KECCAK256 CALLER DUP4 MSTORE PUSH1 0x3 SWAP1 SWAP4 MSTORE SWAP1 KECCAK256 DUP2 SLOAD PUSH1 0x1 PUSH1 0xA0 SHL SWAP1 DIV PUSH1 0xFF AND PUSH2 0x38FA JUMPI PUSH1 0x40 DUP1 MLOAD PUSH3 0x461BCD PUSH1 0xE5 SHL DUP2 MSTORE PUSH1 0x20 PUSH1 0x4 DUP3 ADD MSTORE PUSH1 0xF PUSH1 0x24 DUP3 ADD MSTORE PUSH15 0x151BDAD95B881B9BDD08195E1A5CDD PUSH1 0x8A SHL PUSH1 0x44 DUP3 ADD MSTORE SWAP1 MLOAD SWAP1 DUP2 SWAP1 SUB PUSH1 0x64 ADD SWAP1 REVERT JUMPDEST PUSH2 0x3903 DUP5 PUSH2 0x3B92 JUMP JUMPDEST PUSH1 0x0 PUSH2 0x3920 DUP4 PUSH1 0x3 ADD SLOAD PUSH2 0x1B67 PUSH2 0x3919 DUP9 PUSH2 0x295F JUMP JUMPDEST DUP8 SWAP1 PUSH2 0x4340 JUMP JUMPDEST PUSH1 0x2 DUP5 ADD SLOAD SWAP1 SWAP2 POP PUSH2 0x3932 SWAP1 DUP3 PUSH2 0x3ED5 JUMP JUMPDEST PUSH1 0x2 DUP5 ADD SSTORE PUSH1 0x3 DUP4 ADD SLOAD PUSH2 0x3946 SWAP1 DUP6 PUSH2 0x3ED5 JUMP JUMPDEST PUSH1 0x3 DUP5 ADD SSTORE PUSH1 0x1 PUSH1 0x1 PUSH1 0xA0 SHL SUB DUP6 AND PUSH1 0x0 SWAP1 DUP2 MSTORE PUSH1 0x20 DUP4 SWAP1 MSTORE PUSH1 0x40 SWAP1 KECCAK256 SLOAD PUSH2 0x396E SWAP1 DUP6 PUSH2 0x3ED5 JUMP JUMPDEST PUSH1 0x1 PUSH1 0x1 PUSH1 0xA0 SHL SUB DUP1 DUP8 AND PUSH1 0x0 SWAP1 DUP2 MSTORE PUSH1 0x20 DUP6 SWAP1 MSTORE PUSH1 0x40 DUP1 DUP3 KECCAK256 SWAP4 SWAP1 SWAP4 SSTORE PUSH1 0xC SLOAD PUSH1 0x1 DUP8 ADD SLOAD DUP5 MLOAD PUSH4 0x1CC6D2F9 PUSH1 0xE3 SHL DUP2 MSTORE PUSH1 0x4 DUP2 ADD SWAP2 SWAP1 SWAP2 MSTORE CALLER PUSH1 0x24 DUP3 ADD MSTORE PUSH1 0x44 DUP2 ADD DUP10 SWAP1 MSTORE SWAP4 MLOAD SWAP3 AND SWAP3 PUSH4 0xE63697C8 SWAP3 PUSH1 0x64 DUP1 DUP4 ADD SWAP4 SWAP3 DUP3 SWAP1 SUB ADD DUP2 DUP4 DUP8 DUP1 EXTCODESIZE ISZERO DUP1 ISZERO PUSH2 0x39DC JUMPI PUSH1 0x0 DUP1 REVERT JUMPDEST POP GAS CALL ISZERO DUP1 ISZERO PUSH2 0x39F0 JUMPI RETURNDATASIZE PUSH1 0x0 DUP1 RETURNDATACOPY RETURNDATASIZE PUSH1 0x0 REVERT JUMPDEST POP POP POP POP PUSH2 0x39FC PUSH2 0x336D JUMP JUMPDEST PUSH1 0x1 PUSH1 0x1 PUSH1 0xA0 SHL SUB DUP6 AND PUSH2 0x3A14 JUMPI PUSH2 0x3122 CALLER DUP3 PUSH2 0x4244 JUMP JUMPDEST PUSH2 0x3132 DUP6 CALLER DUP4 PUSH2 0x40F1 JUMP JUMPDEST PUSH2 0x3A27 PUSH2 0x4975 JUMP JUMPDEST PUSH1 0x0 PUSH2 0x3A31 PUSH2 0x4975 JUMP JUMPDEST PUSH1 0x0 PUSH2 0x3A3B PUSH2 0x4975 JUMP JUMPDEST POP POP POP PUSH1 0x0 SWAP3 DUP4 MSTORE POP POP PUSH1 0x5 PUSH1 0x20 DUP2 DUP2 MSTORE PUSH1 0x40 SWAP3 DUP4 SWAP1 KECCAK256 DUP4 MLOAD DUP1 DUP6 ADD DUP6 MSTORE DUP2 SLOAD PUSH1 0x1 PUSH1 0x1 PUSH1 0xA0 SHL SUB SWAP1 DUP2 AND DUP3 MSTORE PUSH1 0x1 DUP4 ADD SLOAD DUP2 AND DUP3 DUP6 ADD MSTORE PUSH1 0x2 DUP4 ADD SLOAD DUP7 MLOAD DUP1 DUP9 ADD DUP9 MSTORE PUSH1 0x3 DUP6 ADD SLOAD PUSH1 0xFF DUP2 DUP2 AND ISZERO ISZERO DUP4 MSTORE PUSH2 0x100 SWAP1 SWAP2 DIV DUP2 AND ISZERO ISZERO DUP3 DUP9 ADD MSTORE PUSH1 0x4 DUP7 ADD SLOAD DUP10 MLOAD DUP1 DUP12 ADD SWAP1 SWAP11 MSTORE SWAP8 DUP7 ADD SLOAD DUP1 DUP11 MSTORE SWAP7 DUP10 ADD SWAP7 SWAP1 SWAP7 MSTORE PUSH1 0x7 DUP6 ADD SLOAD PUSH1 0x8 SWAP1 SWAP6 ADD SLOAD SWAP4 SWAP9 SWAP6 SWAP1 SWAP2 AND SWAP7 SWAP1 SWAP6 SWAP1 SWAP2 AND SWAP4 SWAP1 SWAP3 SWAP2 SWAP1 JUMP JUMPDEST PUSH1 0x0 DUP1 DUP1 JUMPDEST PUSH2 0x3AE2 DUP5 PUSH2 0x2A22 JUMP JUMPDEST DUP2 LT ISZERO PUSH2 0x3B10 JUMPI PUSH2 0x3B06 PUSH2 0x3AFF DUP6 PUSH2 0x3AFA DUP8 DUP6 PUSH2 0x2FC4 JUMP JUMPDEST PUSH2 0x1B75 JUMP JUMPDEST DUP4 SWAP1 PUSH2 0x3B38 JUMP JUMPDEST SWAP2 POP PUSH1 0x1 ADD PUSH2 0x3AD9 JUMP JUMPDEST POP SWAP3 SWAP2 POP POP JUMP JUMPDEST PUSH1 0x0 PUSH2 0x2958 DUP4 PUSH1 0x1 PUSH1 0x1 PUSH1 0xA0 SHL SUB DUP5 AND PUSH2 0x469B JUMP JUMPDEST PUSH1 0x0 PUSH2 0x2958 DUP4 DUP4 PUSH2 0x4761 JUMP JUMPDEST PUSH1 0x0 DUP3 DUP3 ADD DUP4 DUP2 LT ISZERO PUSH2 0x2958 JUMPI PUSH1 0x40 DUP1 MLOAD PUSH3 0x461BCD PUSH1 0xE5 SHL DUP2 MSTORE PUSH1 0x20 PUSH1 0x4 DUP3 ADD MSTORE PUSH1 0x1B PUSH1 0x24 DUP3 ADD MSTORE PUSH32 0x536166654D6174683A206164646974696F6E206F766572666C6F770000000000 PUSH1 0x44 DUP3 ADD MSTORE SWAP1 MLOAD SWAP1 DUP2 SWAP1 SUB PUSH1 0x64 ADD SWAP1 REVERT JUMPDEST PUSH1 0x1 PUSH1 0x1 PUSH1 0xA0 SHL SUB DUP2 AND PUSH1 0x0 SWAP1 DUP2 MSTORE PUSH1 0x2 PUSH1 0x20 MSTORE PUSH1 0x40 SWAP1 KECCAK256 DUP1 SLOAD PUSH1 0x1 PUSH1 0xA0 SHL SWAP1 DIV PUSH1 0xFF AND PUSH2 0x3BFA JUMPI PUSH1 0x40 DUP1 MLOAD PUSH3 0x461BCD PUSH1 0xE5 SHL DUP2 MSTORE PUSH1 0x20 PUSH1 0x4 DUP3 ADD MSTORE PUSH1 0x10 PUSH1 0x24 DUP3 ADD MSTORE PUSH16 0x746F6B656E206E6F7420657869737473 PUSH1 0x80 SHL PUSH1 0x44 DUP3 ADD MSTORE SWAP1 MLOAD SWAP1 DUP2 SWAP1 SUB PUSH1 0x64 ADD SWAP1 REVERT JUMPDEST DUP1 PUSH1 0x7 ADD SLOAD TIMESTAMP GT ISZERO PUSH2 0x2644 JUMPI PUSH1 0x0 PUSH2 0x3C1F DUP3 PUSH1 0x7 ADD SLOAD TIMESTAMP PUSH2 0x3ED5 SWAP1 SWAP2 SWAP1 PUSH4 0xFFFFFFFF AND JUMP JUMPDEST PUSH1 0x4 DUP4 ADD SLOAD SWAP1 SWAP2 POP PUSH1 0x0 PUSH2 0x3C32 DUP6 PUSH2 0x295F JUMP JUMPDEST PUSH1 0xB SLOAD PUSH1 0x40 DUP1 MLOAD PUSH4 0x6D415B01 PUSH1 0xE1 SHL DUP2 MSTORE PUSH1 0x4 DUP2 ADD DUP7 SWAP1 MSTORE PUSH1 0x24 DUP2 ADD DUP5 SWAP1 MSTORE PUSH1 0x1 PUSH1 0x1 PUSH1 0xA0 SHL SUB DUP10 DUP2 AND PUSH1 0x44 DUP4 ADD MSTORE SWAP2 MLOAD SWAP4 SWAP5 POP PUSH1 0x0 SWAP4 SWAP2 SWAP1 SWAP3 AND SWAP2 PUSH4 0xDA82B602 SWAP2 PUSH1 0x64 DUP1 DUP4 ADD SWAP3 PUSH1 0x20 SWAP3 SWAP2 SWAP1 DUP3 SWAP1 SUB ADD DUP2 DUP7 DUP1 EXTCODESIZE ISZERO DUP1 ISZERO PUSH2 0x3C93 JUMPI PUSH1 0x0 DUP1 REVERT JUMPDEST POP GAS STATICCALL ISZERO DUP1 ISZERO PUSH2 0x3CA7 JUMPI RETURNDATASIZE PUSH1 0x0 DUP1 RETURNDATACOPY RETURNDATASIZE PUSH1 0x0 REVERT JUMPDEST POP POP POP POP PUSH1 0x40 MLOAD RETURNDATASIZE PUSH1 0x20 DUP2 LT ISZERO PUSH2 0x3CBD JUMPI PUSH1 0x0 DUP1 REVERT JUMPDEST POP MLOAD SWAP1 POP PUSH1 0x0 PUSH2 0x3CE3 PUSH8 0xDE0B6B3A7640000 PUSH2 0x1B67 DUP7 PUSH2 0x3CDD DUP7 DUP11 PUSH2 0x4340 JUMP JUMPDEST SWAP1 PUSH2 0x4340 JUMP JUMPDEST SWAP1 POP PUSH1 0x0 PUSH2 0x3D71 PUSH2 0x2710 PUSH2 0x1B67 PUSH1 0xB PUSH1 0x0 SWAP1 SLOAD SWAP1 PUSH2 0x100 EXP SWAP1 DIV PUSH1 0x1 PUSH1 0x1 PUSH1 0xA0 SHL SUB AND PUSH1 0x1 PUSH1 0x1 PUSH1 0xA0 SHL SUB AND PUSH4 0x249C11BD PUSH1 0x40 MLOAD DUP2 PUSH4 0xFFFFFFFF AND PUSH1 0xE0 SHL DUP2 MSTORE PUSH1 0x4 ADD PUSH1 0x20 PUSH1 0x40 MLOAD DUP1 DUP4 SUB DUP2 DUP7 DUP1 EXTCODESIZE ISZERO DUP1 ISZERO PUSH2 0x3D3E JUMPI PUSH1 0x0 DUP1 REVERT JUMPDEST POP GAS STATICCALL ISZERO DUP1 ISZERO PUSH2 0x3D52 JUMPI RETURNDATASIZE PUSH1 0x0 DUP1 RETURNDATACOPY RETURNDATASIZE PUSH1 0x0 REVERT JUMPDEST POP POP POP POP PUSH1 0x40 MLOAD RETURNDATASIZE PUSH1 0x20 DUP2 LT ISZERO PUSH2 0x3D68 JUMPI PUSH1 0x0 DUP1 REVERT JUMPDEST POP MLOAD DUP6 SWAP1 PUSH2 0x4340 JUMP JUMPDEST PUSH1 0x6 DUP9 ADD SLOAD SWAP1 SWAP2 POP PUSH2 0x3D83 SWAP1 DUP3 PUSH2 0x3B38 JUMP JUMPDEST PUSH1 0x6 DUP9 ADD SSTORE PUSH1 0x4 DUP8 ADD SLOAD PUSH2 0x3D97 SWAP1 DUP4 PUSH2 0x3B38 JUMP JUMPDEST PUSH1 0x4 DUP9 ADD SSTORE POP POP TIMESTAMP PUSH1 0x7 DUP7 ADD SSTORE POP POP POP POP POP POP JUMP JUMPDEST PUSH2 0x3DB4 PUSH2 0x4975 JUMP JUMPDEST PUSH2 0x3DBC PUSH2 0x4975 JUMP JUMPDEST PUSH1 0x0 JUMPDEST PUSH1 0x2 DUP2 LT ISZERO PUSH2 0xDC4 JUMPI PUSH1 0x0 PUSH1 0x2 DUP2 DUP7 DUP5 DUP4 DUP2 LT PUSH2 0x3DD8 JUMPI INVALID JUMPDEST ADD SLOAD PUSH1 0x1 PUSH1 0x1 PUSH1 0xA0 SHL SUB AND DUP2 MSTORE PUSH1 0x20 DUP2 ADD SWAP2 SWAP1 SWAP2 MSTORE PUSH1 0x40 ADD PUSH1 0x0 SWAP1 DUP2 KECCAK256 SWAP2 POP PUSH1 0x2 DUP1 DUP9 ADD SWAP1 DUP5 SWAP1 DUP2 LT PUSH2 0x3E07 JUMPI INVALID JUMPDEST ADD SLOAD SWAP1 POP DUP1 ISZERO PUSH2 0x3EB7 JUMPI PUSH2 0x3E31 DUP7 DUP5 PUSH1 0x2 DUP2 LT PUSH2 0x3E20 JUMPI INVALID JUMPDEST ADD SLOAD PUSH1 0x1 PUSH1 0x1 PUSH1 0xA0 SHL SUB AND DUP3 PUSH2 0x1ACE JUMP JUMPDEST DUP5 DUP5 PUSH1 0x2 DUP2 LT PUSH2 0x3E3D JUMPI INVALID JUMPDEST PUSH1 0x20 MUL ADD MSTORE PUSH1 0x0 PUSH1 0x2 DUP1 DUP10 ADD SWAP1 DUP6 SWAP1 DUP2 LT PUSH2 0x3E54 JUMPI INVALID JUMPDEST ADD SSTORE PUSH2 0x3E75 DUP5 DUP5 PUSH1 0x2 DUP2 LT PUSH2 0x3E65 JUMPI INVALID JUMPDEST PUSH1 0x20 MUL ADD MLOAD PUSH1 0x2 DUP5 ADD SLOAD SWAP1 PUSH2 0x3B38 JUMP JUMPDEST PUSH1 0x2 DUP4 ADD SSTORE PUSH1 0x5 DUP3 ADD SLOAD PUSH2 0x3E89 SWAP1 DUP3 PUSH2 0x3ED5 JUMP JUMPDEST PUSH1 0x5 DUP4 ADD SSTORE PUSH2 0x3EAD DUP5 DUP5 PUSH1 0x2 DUP2 LT PUSH2 0x3E9D JUMPI INVALID JUMPDEST PUSH1 0x20 MUL ADD MLOAD PUSH1 0x4 DUP5 ADD SLOAD SWAP1 PUSH2 0x3ED5 JUMP JUMPDEST PUSH1 0x4 DUP4 ADD SSTORE PUSH2 0x3ECB JUMP JUMPDEST PUSH1 0x0 DUP5 DUP5 PUSH1 0x2 DUP2 LT PUSH2 0x3EC5 JUMPI INVALID JUMPDEST PUSH1 0x20 MUL ADD MSTORE JUMPDEST POP POP PUSH1 0x1 ADD PUSH2 0x3DBF JUMP JUMPDEST PUSH1 0x0 PUSH2 0x2958 DUP4 DUP4 PUSH1 0x40 MLOAD DUP1 PUSH1 0x40 ADD PUSH1 0x40 MSTORE DUP1 PUSH1 0x1E DUP2 MSTORE PUSH1 0x20 ADD PUSH32 0x536166654D6174683A207375627472616374696F6E206F766572666C6F770000 DUP2 MSTORE POP PUSH2 0x47AB JUMP JUMPDEST PUSH1 0x0 DUP2 PUSH1 0x1 PUSH1 0x1 PUSH1 0xA0 SHL SUB AND PUSH4 0x70A08231 ADDRESS PUSH1 0x40 MLOAD DUP3 PUSH4 0xFFFFFFFF AND PUSH1 0xE0 SHL DUP2 MSTORE PUSH1 0x4 ADD DUP1 DUP3 PUSH1 0x1 PUSH1 0x1 PUSH1 0xA0 SHL SUB AND DUP2 MSTORE PUSH1 0x20 ADD SWAP2 POP POP PUSH1 0x20 PUSH1 0x40 MLOAD DUP1 DUP4 SUB DUP2 DUP7 DUP1 EXTCODESIZE ISZERO DUP1 ISZERO PUSH2 0x3F66 JUMPI PUSH1 0x0 DUP1 REVERT JUMPDEST POP GAS STATICCALL ISZERO DUP1 ISZERO PUSH2 0x3F7A JUMPI RETURNDATASIZE PUSH1 0x0 DUP1 RETURNDATACOPY RETURNDATASIZE PUSH1 0x0 REVERT JUMPDEST POP POP POP POP PUSH1 0x40 MLOAD RETURNDATASIZE PUSH1 0x20 DUP2 LT ISZERO PUSH2 0x3F90 JUMPI PUSH1 0x0 DUP1 REVERT JUMPDEST POP MLOAD SWAP3 SWAP2 POP POP JUMP JUMPDEST PUSH1 0x40 DUP1 MLOAD PUSH1 0x1 PUSH1 0x1 PUSH1 0xA0 SHL SUB DUP5 DUP2 AND PUSH1 0x24 DUP4 ADD MSTORE PUSH1 0x44 DUP1 DUP4 ADD DUP6 SWAP1 MSTORE DUP4 MLOAD DUP1 DUP5 SUB SWAP1 SWAP2 ADD DUP2 MSTORE PUSH1 0x64 SWAP1 SWAP3 ADD DUP4 MSTORE PUSH1 0x20 DUP3 ADD DUP1 MLOAD PUSH1 0x1 PUSH1 0x1 PUSH1 0xE0 SHL SUB AND PUSH4 0x95EA7B3 PUSH1 0xE0 SHL OR DUP2 MSTORE SWAP3 MLOAD DUP3 MLOAD PUSH1 0x0 SWAP5 PUSH1 0x60 SWAP5 SWAP4 DUP10 AND SWAP4 SWAP3 SWAP2 DUP3 SWAP2 SWAP1 DUP1 DUP4 DUP4 JUMPDEST PUSH1 0x20 DUP4 LT PUSH2 0x4015 JUMPI DUP1 MLOAD DUP3 MSTORE PUSH1 0x1F NOT SWAP1 SWAP3 ADD SWAP2 PUSH1 0x20 SWAP2 DUP3 ADD SWAP2 ADD PUSH2 0x3FF6 JUMP JUMPDEST PUSH1 0x1 DUP4 PUSH1 0x20 SUB PUSH2 0x100 EXP SUB DUP1 NOT DUP3 MLOAD AND DUP2 DUP5 MLOAD AND DUP1 DUP3 OR DUP6 MSTORE POP POP POP POP POP POP SWAP1 POP ADD SWAP2 POP POP PUSH1 0x0 PUSH1 0x40 MLOAD DUP1 DUP4 SUB DUP2 PUSH1 0x0 DUP7 GAS CALL SWAP2 POP POP RETURNDATASIZE DUP1 PUSH1 0x0 DUP2 EQ PUSH2 0x4077 JUMPI PUSH1 0x40 MLOAD SWAP2 POP PUSH1 0x1F NOT PUSH1 0x3F RETURNDATASIZE ADD AND DUP3 ADD PUSH1 0x40 MSTORE RETURNDATASIZE DUP3 MSTORE RETURNDATASIZE PUSH1 0x0 PUSH1 0x20 DUP5 ADD RETURNDATACOPY PUSH2 0x407C JUMP JUMPDEST PUSH1 0x60 SWAP2 POP JUMPDEST POP SWAP2 POP SWAP2 POP DUP2 DUP1 ISZERO PUSH2 0x40AA JUMPI POP DUP1 MLOAD ISZERO DUP1 PUSH2 0x40AA JUMPI POP DUP1 DUP1 PUSH1 0x20 ADD SWAP1 MLOAD PUSH1 0x20 DUP2 LT ISZERO PUSH2 0x40A7 JUMPI PUSH1 0x0 DUP1 REVERT JUMPDEST POP MLOAD JUMPDEST PUSH2 0x40EA JUMPI PUSH1 0x40 DUP1 MLOAD PUSH3 0x461BCD PUSH1 0xE5 SHL DUP2 MSTORE PUSH1 0x20 PUSH1 0x4 DUP3 ADD MSTORE PUSH1 0xC PUSH1 0x24 DUP3 ADD MSTORE PUSH12 0x2173616665417070726F7665 PUSH1 0xA0 SHL PUSH1 0x44 DUP3 ADD MSTORE SWAP1 MLOAD SWAP1 DUP2 SWAP1 SUB PUSH1 0x64 ADD SWAP1 REVERT JUMPDEST POP POP POP POP POP JUMP JUMPDEST PUSH1 0x40 DUP1 MLOAD PUSH1 0x1 PUSH1 0x1 PUSH1 0xA0 SHL SUB DUP5 DUP2 AND PUSH1 0x24 DUP4 ADD MSTORE PUSH1 0x44 DUP1 DUP4 ADD DUP6 SWAP1 MSTORE DUP4 MLOAD DUP1 DUP5 SUB SWAP1 SWAP2 ADD DUP2 MSTORE PUSH1 0x64 SWAP1 SWAP3 ADD DUP4 MSTORE PUSH1 0x20 DUP3 ADD DUP1 MLOAD PUSH1 0x1 PUSH1 0x1 PUSH1 0xE0 SHL SUB AND PUSH4 0xA9059CBB PUSH1 0xE0 SHL OR DUP2 MSTORE SWAP3 MLOAD DUP3 MLOAD PUSH1 0x0 SWAP5 PUSH1 0x60 SWAP5 SWAP4 DUP10 AND SWAP4 SWAP3 SWAP2 DUP3 SWAP2 SWAP1 DUP1 DUP4 DUP4 JUMPDEST PUSH1 0x20 DUP4 LT PUSH2 0x416E JUMPI DUP1 MLOAD DUP3 MSTORE PUSH1 0x1F NOT SWAP1 SWAP3 ADD SWAP2 PUSH1 0x20 SWAP2 DUP3 ADD SWAP2 ADD PUSH2 0x414F JUMP JUMPDEST PUSH1 0x1 DUP4 PUSH1 0x20 SUB PUSH2 0x100 EXP SUB DUP1 NOT DUP3 MLOAD AND DUP2 DUP5 MLOAD AND DUP1 DUP3 OR DUP6 MSTORE POP POP POP POP POP POP SWAP1 POP ADD SWAP2 POP POP PUSH1 0x0 PUSH1 0x40 MLOAD DUP1 DUP4 SUB DUP2 PUSH1 0x0 DUP7 GAS CALL SWAP2 POP POP RETURNDATASIZE DUP1 PUSH1 0x0 DUP2 EQ PUSH2 0x41D0 JUMPI PUSH1 0x40 MLOAD SWAP2 POP PUSH1 0x1F NOT PUSH1 0x3F RETURNDATASIZE ADD AND DUP3 ADD PUSH1 0x40 MSTORE RETURNDATASIZE DUP3 MSTORE RETURNDATASIZE PUSH1 0x0 PUSH1 0x20 DUP5 ADD RETURNDATACOPY PUSH2 0x41D5 JUMP JUMPDEST PUSH1 0x60 SWAP2 POP JUMPDEST POP SWAP2 POP SWAP2 POP DUP2 DUP1 ISZERO PUSH2 0x4203 JUMPI POP DUP1 MLOAD ISZERO DUP1 PUSH2 0x4203 JUMPI POP DUP1 DUP1 PUSH1 0x20 ADD SWAP1 MLOAD PUSH1 0x20 DUP2 LT ISZERO PUSH2 0x4200 JUMPI PUSH1 0x0 DUP1 REVERT JUMPDEST POP MLOAD JUMPDEST PUSH2 0x40EA JUMPI PUSH1 0x40 DUP1 MLOAD PUSH3 0x461BCD PUSH1 0xE5 SHL DUP2 MSTORE PUSH1 0x20 PUSH1 0x4 DUP3 ADD MSTORE PUSH1 0xD PUSH1 0x24 DUP3 ADD MSTORE PUSH13 0x10B9B0B332AA3930B739B332B9 PUSH1 0x99 SHL PUSH1 0x44 DUP3 ADD MSTORE SWAP1 MLOAD SWAP1 DUP2 SWAP1 SUB PUSH1 0x64 ADD SWAP1 REVERT JUMPDEST PUSH1 0x40 DUP1 MLOAD PUSH1 0x0 DUP1 DUP3 MSTORE PUSH1 0x20 DUP3 ADD SWAP1 SWAP3 MSTORE PUSH1 0x1 PUSH1 0x1 PUSH1 0xA0 SHL SUB DUP5 AND SWAP1 DUP4 SWAP1 PUSH1 0x40 MLOAD DUP1 DUP3 DUP1 MLOAD SWAP1 PUSH1 0x20 ADD SWAP1 DUP1 DUP4 DUP4 JUMPDEST PUSH1 0x20 DUP4 LT PUSH2 0x4290 JUMPI DUP1 MLOAD DUP3 MSTORE PUSH1 0x1F NOT SWAP1 SWAP3 ADD SWAP2 PUSH1 0x20 SWAP2 DUP3 ADD SWAP2 ADD PUSH2 0x4271 JUMP JUMPDEST PUSH1 0x1 DUP4 PUSH1 0x20 SUB PUSH2 0x100 EXP SUB DUP1 NOT DUP3 MLOAD AND DUP2 DUP5 MLOAD AND DUP1 DUP3 OR DUP6 MSTORE POP POP POP POP POP POP SWAP1 POP ADD SWAP2 POP POP PUSH1 0x0 PUSH1 0x40 MLOAD DUP1 DUP4 SUB DUP2 DUP6 DUP8 GAS CALL SWAP3 POP POP POP RETURNDATASIZE DUP1 PUSH1 0x0 DUP2 EQ PUSH2 0x42F2 JUMPI PUSH1 0x40 MLOAD SWAP2 POP PUSH1 0x1F NOT PUSH1 0x3F RETURNDATASIZE ADD AND DUP3 ADD PUSH1 0x40 MSTORE RETURNDATASIZE DUP3 MSTORE RETURNDATASIZE PUSH1 0x0 PUSH1 0x20 DUP5 ADD RETURNDATACOPY PUSH2 0x42F7 JUMP JUMPDEST PUSH1 0x60 SWAP2 POP JUMPDEST POP POP SWAP1 POP DUP1 PUSH2 0xD09 JUMPI PUSH1 0x40 DUP1 MLOAD PUSH3 0x461BCD PUSH1 0xE5 SHL DUP2 MSTORE PUSH1 0x20 PUSH1 0x4 DUP3 ADD MSTORE PUSH1 0x10 PUSH1 0x24 DUP3 ADD MSTORE PUSH16 0x42E6C2CCCAA8E4C2DCE6CCCAE48AA89 PUSH1 0x83 SHL PUSH1 0x44 DUP3 ADD MSTORE SWAP1 MLOAD SWAP1 DUP2 SWAP1 SUB PUSH1 0x64 ADD SWAP1 REVERT JUMPDEST PUSH1 0x0 DUP3 PUSH2 0x434F JUMPI POP PUSH1 0x0 PUSH2 0xD35 JUMP JUMPDEST DUP3 DUP3 MUL DUP3 DUP5 DUP3 DUP2 PUSH2 0x435C JUMPI INVALID JUMPDEST DIV EQ PUSH2 0x2958 JUMPI PUSH1 0x40 MLOAD PUSH3 0x461BCD PUSH1 0xE5 SHL DUP2 MSTORE PUSH1 0x4 ADD DUP1 DUP1 PUSH1 0x20 ADD DUP3 DUP2 SUB DUP3 MSTORE PUSH1 0x21 DUP2 MSTORE PUSH1 0x20 ADD DUP1 PUSH2 0x4C80 PUSH1 0x21 SWAP2 CODECOPY PUSH1 0x40 ADD SWAP2 POP POP PUSH1 0x40 MLOAD DUP1 SWAP2 SUB SWAP1 REVERT JUMPDEST PUSH1 0x0 JUMPDEST PUSH1 0x2 DUP2 LT ISZERO PUSH2 0xD07 JUMPI DUP2 DUP2 PUSH1 0x2 DUP2 LT PUSH2 0x43B1 JUMPI INVALID JUMPDEST PUSH1 0x20 MUL ADD MLOAD PUSH2 0x43BF JUMPI PUSH2 0x44AE JUMP JUMPDEST PUSH1 0x0 PUSH1 0x2 DUP2 DUP6 DUP5 DUP4 DUP2 LT PUSH2 0x43CF JUMPI INVALID JUMPDEST ADD SLOAD PUSH1 0x1 PUSH1 0x1 PUSH1 0xA0 SHL SUB AND DUP2 MSTORE PUSH1 0x20 DUP2 ADD SWAP2 SWAP1 SWAP2 MSTORE PUSH1 0x40 ADD PUSH1 0x0 SWAP1 DUP2 KECCAK256 SWAP2 POP PUSH2 0x441E DUP6 DUP5 PUSH1 0x2 DUP2 LT PUSH2 0x43FD JUMPI INVALID JUMPDEST ADD SLOAD PUSH1 0x1 PUSH1 0x1 PUSH1 0xA0 SHL SUB AND DUP6 DUP6 PUSH1 0x2 DUP2 LT PUSH2 0x4414 JUMPI INVALID JUMPDEST PUSH1 0x20 MUL ADD MLOAD PUSH2 0x339F JUMP JUMPDEST SWAP1 POP PUSH2 0x443B DUP2 DUP8 PUSH1 0x2 ADD DUP6 PUSH1 0x2 DUP2 LT PUSH2 0x4433 JUMPI INVALID JUMPDEST ADD SLOAD SWAP1 PUSH2 0x3B38 JUMP JUMPDEST DUP7 PUSH1 0x2 ADD DUP5 PUSH1 0x2 DUP2 LT PUSH2 0x444A JUMPI INVALID JUMPDEST ADD SSTORE PUSH2 0x446B DUP5 DUP5 PUSH1 0x2 DUP2 LT PUSH2 0x445B JUMPI INVALID JUMPDEST PUSH1 0x20 MUL ADD MLOAD PUSH1 0x2 DUP5 ADD SLOAD SWAP1 PUSH2 0x3ED5 JUMP JUMPDEST PUSH1 0x2 DUP4 ADD SSTORE PUSH1 0x5 DUP3 ADD SLOAD PUSH2 0x447F SWAP1 DUP3 PUSH2 0x3B38 JUMP JUMPDEST PUSH1 0x5 DUP4 ADD SSTORE PUSH2 0x44A3 DUP5 DUP5 PUSH1 0x2 DUP2 LT PUSH2 0x4493 JUMPI INVALID JUMPDEST PUSH1 0x20 MUL ADD MLOAD PUSH1 0x4 DUP5 ADD SLOAD SWAP1 PUSH2 0x3B38 JUMP JUMPDEST DUP3 PUSH1 0x4 ADD DUP2 SWAP1 SSTORE POP POP POP JUMPDEST PUSH1 0x1 ADD PUSH2 0x439C JUMP JUMPDEST PUSH1 0x0 PUSH2 0x2958 DUP4 DUP4 PUSH2 0x469B JUMP JUMPDEST PUSH1 0x0 PUSH2 0x2958 DUP4 DUP4 PUSH1 0x40 MLOAD DUP1 PUSH1 0x40 ADD PUSH1 0x40 MSTORE DUP1 PUSH1 0x1A DUP2 MSTORE PUSH1 0x20 ADD PUSH32 0x536166654D6174683A206469766973696F6E206279207A65726F000000000000 DUP2 MSTORE POP PUSH2 0x4842 JUMP JUMPDEST PUSH1 0x40 DUP1 MLOAD PUSH1 0x1 PUSH1 0x1 PUSH1 0xA0 SHL SUB DUP6 DUP2 AND PUSH1 0x24 DUP4 ADD MSTORE DUP5 DUP2 AND PUSH1 0x44 DUP4 ADD MSTORE PUSH1 0x64 DUP1 DUP4 ADD DUP6 SWAP1 MSTORE DUP4 MLOAD DUP1 DUP5 SUB SWAP1 SWAP2 ADD DUP2 MSTORE PUSH1 0x84 SWAP1 SWAP3 ADD DUP4 MSTORE PUSH1 0x20 DUP3 ADD DUP1 MLOAD PUSH1 0x1 PUSH1 0x1 PUSH1 0xE0 SHL SUB AND PUSH4 0x23B872DD PUSH1 0xE0 SHL OR DUP2 MSTORE SWAP3 MLOAD DUP3 MLOAD PUSH1 0x0 SWAP5 PUSH1 0x60 SWAP5 SWAP4 DUP11 AND SWAP4 SWAP3 SWAP2 DUP3 SWAP2 SWAP1 DUP1 DUP4 DUP4 JUMPDEST PUSH1 0x20 DUP4 LT PUSH2 0x4589 JUMPI DUP1 MLOAD DUP3 MSTORE PUSH1 0x1F NOT SWAP1 SWAP3 ADD SWAP2 PUSH1 0x20 SWAP2 DUP3 ADD SWAP2 ADD PUSH2 0x456A JUMP JUMPDEST PUSH1 0x1 DUP4 PUSH1 0x20 SUB PUSH2 0x100 EXP SUB DUP1 NOT DUP3 MLOAD AND DUP2 DUP5 MLOAD AND DUP1 DUP3 OR DUP6 MSTORE POP POP POP POP POP POP SWAP1 POP ADD SWAP2 POP POP PUSH1 0x0 PUSH1 0x40 MLOAD DUP1 DUP4 SUB DUP2 PUSH1 0x0 DUP7 GAS CALL SWAP2 POP POP RETURNDATASIZE DUP1 PUSH1 0x0 DUP2 EQ PUSH2 0x45EB JUMPI PUSH1 0x40 MLOAD SWAP2 POP PUSH1 0x1F NOT PUSH1 0x3F RETURNDATASIZE ADD AND DUP3 ADD PUSH1 0x40 MSTORE RETURNDATASIZE DUP3 MSTORE RETURNDATASIZE PUSH1 0x0 PUSH1 0x20 DUP5 ADD RETURNDATACOPY PUSH2 0x45F0 JUMP JUMPDEST PUSH1 0x60 SWAP2 POP JUMPDEST POP SWAP2 POP SWAP2 POP DUP2 DUP1 ISZERO PUSH2 0x461E JUMPI POP DUP1 MLOAD ISZERO DUP1 PUSH2 0x461E JUMPI POP DUP1 DUP1 PUSH1 0x20 ADD SWAP1 MLOAD PUSH1 0x20 DUP2 LT ISZERO PUSH2 0x461B JUMPI PUSH1 0x0 DUP1 REVERT JUMPDEST POP MLOAD JUMPDEST PUSH2 0x4663 JUMPI PUSH1 0x40 DUP1 MLOAD PUSH3 0x461BCD PUSH1 0xE5 SHL DUP2 MSTORE PUSH1 0x20 PUSH1 0x4 DUP3 ADD MSTORE PUSH1 0x11 PUSH1 0x24 DUP3 ADD MSTORE PUSH17 0x21736166655472616E7366657246726F6D PUSH1 0x78 SHL PUSH1 0x44 DUP3 ADD MSTORE SWAP1 MLOAD SWAP1 DUP2 SWAP1 SUB PUSH1 0x64 ADD SWAP1 REVERT JUMPDEST POP POP POP POP POP POP JUMP JUMPDEST PUSH1 0x0 PUSH2 0x2958 DUP4 PUSH1 0x1 PUSH1 0x1 PUSH1 0xA0 SHL SUB DUP5 AND PUSH2 0x4761 JUMP JUMPDEST CALLER SWAP1 JUMP JUMPDEST PUSH1 0x0 PUSH2 0x2958 DUP4 DUP4 PUSH2 0x48A7 JUMP JUMPDEST PUSH1 0x0 PUSH2 0xD35 DUP3 PUSH2 0x490B JUMP JUMPDEST PUSH1 0x0 DUP2 DUP2 MSTORE PUSH1 0x1 DUP4 ADD PUSH1 0x20 MSTORE PUSH1 0x40 DUP2 KECCAK256 SLOAD DUP1 ISZERO PUSH2 0x4757 JUMPI DUP4 SLOAD PUSH1 0x0 NOT DUP1 DUP4 ADD SWAP2 SWAP1 DUP2 ADD SWAP1 PUSH1 0x0 SWAP1 DUP8 SWAP1 DUP4 SWAP1 DUP2 LT PUSH2 0x46CE JUMPI INVALID JUMPDEST SWAP1 PUSH1 0x0 MSTORE PUSH1 0x20 PUSH1 0x0 KECCAK256 ADD SLOAD SWAP1 POP DUP1 DUP8 PUSH1 0x0 ADD DUP5 DUP2 SLOAD DUP2 LT PUSH2 0x46EB JUMPI INVALID JUMPDEST PUSH1 0x0 SWAP2 DUP3 MSTORE PUSH1 0x20 DUP1 DUP4 KECCAK256 SWAP1 SWAP2 ADD SWAP3 SWAP1 SWAP3 SSTORE DUP3 DUP2 MSTORE PUSH1 0x1 DUP10 DUP2 ADD SWAP1 SWAP3 MSTORE PUSH1 0x40 SWAP1 KECCAK256 SWAP1 DUP5 ADD SWAP1 SSTORE DUP7 SLOAD DUP8 SWAP1 DUP1 PUSH2 0x471B JUMPI INVALID JUMPDEST PUSH1 0x1 SWAP1 SUB DUP2 DUP2 SWAP1 PUSH1 0x0 MSTORE PUSH1 0x20 PUSH1 0x0 KECCAK256 ADD PUSH1 0x0 SWAP1 SSTORE SWAP1 SSTORE DUP7 PUSH1 0x1 ADD PUSH1 0x0 DUP8 DUP2 MSTORE PUSH1 0x20 ADD SWAP1 DUP2 MSTORE PUSH1 0x20 ADD PUSH1 0x0 KECCAK256 PUSH1 0x0 SWAP1 SSTORE PUSH1 0x1 SWAP5 POP POP POP POP POP PUSH2 0xD35 JUMP JUMPDEST PUSH1 0x0 SWAP2 POP POP PUSH2 0xD35 JUMP JUMPDEST PUSH1 0x0 PUSH2 0x476D DUP4 DUP4 PUSH2 0x490F JUMP JUMPDEST PUSH2 0x47A3 JUMPI POP DUP2 SLOAD PUSH1 0x1 DUP2 DUP2 ADD DUP5 SSTORE PUSH1 0x0 DUP5 DUP2 MSTORE PUSH1 0x20 DUP1 DUP3 KECCAK256 SWAP1 SWAP4 ADD DUP5 SWAP1 SSTORE DUP5 SLOAD DUP5 DUP3 MSTORE DUP3 DUP7 ADD SWAP1 SWAP4 MSTORE PUSH1 0x40 SWAP1 KECCAK256 SWAP2 SWAP1 SWAP2 SSTORE PUSH2 0xD35 JUMP JUMPDEST POP PUSH1 0x0 PUSH2 0xD35 JUMP JUMPDEST PUSH1 0x0 DUP2 DUP5 DUP5 GT ISZERO PUSH2 0x483A JUMPI PUSH1 0x40 MLOAD PUSH3 0x461BCD PUSH1 0xE5 SHL DUP2 MSTORE PUSH1 0x4 ADD DUP1 DUP1 PUSH1 0x20 ADD DUP3 DUP2 SUB DUP3 MSTORE DUP4 DUP2 DUP2 MLOAD DUP2 MSTORE PUSH1 0x20 ADD SWAP2 POP DUP1 MLOAD SWAP1 PUSH1 0x20 ADD SWAP1 DUP1 DUP4 DUP4 PUSH1 0x0 JUMPDEST DUP4 DUP2 LT ISZERO PUSH2 0x47FF JUMPI DUP2 DUP2 ADD MLOAD DUP4 DUP3 ADD MSTORE PUSH1 0x20 ADD PUSH2 0x47E7 JUMP JUMPDEST POP POP POP POP SWAP1 POP SWAP1 DUP2 ADD SWAP1 PUSH1 0x1F AND DUP1 ISZERO PUSH2 0x482C JUMPI DUP1 DUP3 SUB DUP1 MLOAD PUSH1 0x1 DUP4 PUSH1 0x20 SUB PUSH2 0x100 EXP SUB NOT AND DUP2 MSTORE PUSH1 0x20 ADD SWAP2 POP JUMPDEST POP SWAP3 POP POP POP PUSH1 0x40 MLOAD DUP1 SWAP2 SUB SWAP1 REVERT JUMPDEST POP POP POP SWAP1 SUB SWAP1 JUMP JUMPDEST PUSH1 0x0 DUP2 DUP4 PUSH2 0x4891 JUMPI PUSH1 0x40 MLOAD PUSH3 0x461BCD PUSH1 0xE5 SHL DUP2 MSTORE PUSH1 0x20 PUSH1 0x4 DUP3 ADD DUP2 DUP2 MSTORE DUP4 MLOAD PUSH1 0x24 DUP5 ADD MSTORE DUP4 MLOAD SWAP1 SWAP3 DUP4 SWAP3 PUSH1 0x44 SWAP1 SWAP2 ADD SWAP2 SWAP1 DUP6 ADD SWAP1 DUP1 DUP4 DUP4 PUSH1 0x0 DUP4 ISZERO PUSH2 0x47FF JUMPI DUP2 DUP2 ADD MLOAD DUP4 DUP3 ADD MSTORE PUSH1 0x20 ADD PUSH2 0x47E7 JUMP JUMPDEST POP PUSH1 0x0 DUP4 DUP6 DUP2 PUSH2 0x489D JUMPI INVALID JUMPDEST DIV SWAP6 SWAP5 POP POP POP POP POP JUMP JUMPDEST DUP2 SLOAD PUSH1 0x0 SWAP1 DUP3 LT PUSH2 0x48E9 JUMPI PUSH1 0x40 MLOAD PUSH3 0x461BCD PUSH1 0xE5 SHL DUP2 MSTORE PUSH1 0x4 ADD DUP1 DUP1 PUSH1 0x20 ADD DUP3 DUP2 SUB DUP3 MSTORE PUSH1 0x22 DUP2 MSTORE PUSH1 0x20 ADD DUP1 PUSH2 0x4B5B PUSH1 0x22 SWAP2 CODECOPY PUSH1 0x40 ADD SWAP2 POP POP PUSH1 0x40 MLOAD DUP1 SWAP2 SUB SWAP1 REVERT JUMPDEST DUP3 PUSH1 0x0 ADD DUP3 DUP2 SLOAD DUP2 LT PUSH2 0x48F8 JUMPI INVALID JUMPDEST SWAP1 PUSH1 0x0 MSTORE PUSH1 0x20 PUSH1 0x0 KECCAK256 ADD SLOAD SWAP1 POP SWAP3 SWAP2 POP POP JUMP JUMPDEST SLOAD SWAP1 JUMP JUMPDEST PUSH1 0x0 SWAP1 DUP2 MSTORE PUSH1 0x1 SWAP2 SWAP1 SWAP2 ADD PUSH1 0x20 MSTORE PUSH1 0x40 SWAP1 KECCAK256 SLOAD ISZERO ISZERO SWAP1 JUMP JUMPDEST PUSH1 0x40 MLOAD DUP1 PUSH1 0xC0 ADD PUSH1 0x40 MSTORE DUP1 PUSH1 0x0 DUP2 MSTORE PUSH1 0x20 ADD PUSH2 0x4941 PUSH2 0x4975 JUMP JUMPDEST DUP2 MSTORE PUSH1 0x20 ADD PUSH2 0x494E PUSH2 0x4975 JUMP JUMPDEST DUP2 MSTORE PUSH1 0x20 ADD PUSH2 0x495B PUSH2 0x4975 JUMP JUMPDEST DUP2 MSTORE PUSH1 0x20 ADD PUSH2 0x4968 PUSH2 0x4975 JUMP JUMPDEST DUP2 MSTORE PUSH1 0x0 PUSH1 0x20 SWAP1 SWAP2 ADD MSTORE SWAP1 JUMP JUMPDEST PUSH1 0x40 MLOAD DUP1 PUSH1 0x40 ADD PUSH1 0x40 MSTORE DUP1 PUSH1 0x2 SWAP1 PUSH1 0x20 DUP3 MUL DUP1 CALLDATASIZE DUP4 CALLDATACOPY POP SWAP2 SWAP3 SWAP2 POP POP JUMP JUMPDEST PUSH1 0x40 MLOAD DUP1 PUSH1 0xE0 ADD PUSH1 0x40 MSTORE DUP1 PUSH2 0x49A6 PUSH2 0x4975 JUMP JUMPDEST DUP2 MSTORE PUSH1 0x20 ADD PUSH1 0x0 DUP2 MSTORE PUSH1 0x20 ADD PUSH2 0x49BA PUSH2 0x4975 JUMP JUMPDEST DUP2 MSTORE PUSH1 0x20 ADD PUSH1 0x0 DUP2 MSTORE PUSH1 0x20 ADD PUSH2 0x49CE PUSH2 0x4975 JUMP JUMPDEST DUP2 MSTORE PUSH1 0x20 ADD PUSH2 0x49DB PUSH2 0x4975 JUMP JUMPDEST DUP2 MSTORE PUSH1 0x20 ADD PUSH2 0x49E8 PUSH2 0x4975 JUMP JUMPDEST SWAP1 MSTORE SWAP1 JUMP JUMPDEST PUSH1 0x1 DUP4 ADD SWAP2 DUP4 SWAP1 DUP3 ISZERO PUSH2 0x4A71 JUMPI SWAP2 PUSH1 0x20 MUL DUP3 ADD PUSH1 0x0 JUMPDEST DUP4 DUP3 GT ISZERO PUSH2 0x4A42 JUMPI DUP4 CALLDATALOAD ISZERO ISZERO DUP4 DUP3 PUSH2 0x100 EXP DUP2 SLOAD DUP2 PUSH1 0xFF MUL NOT AND SWAP1 DUP4 ISZERO ISZERO MUL OR SWAP1 SSTORE POP SWAP3 PUSH1 0x20 ADD SWAP3 PUSH1 0x1 ADD PUSH1 0x20 DUP2 PUSH1 0x0 ADD DIV SWAP3 DUP4 ADD SWAP3 PUSH1 0x1 SUB MUL PUSH2 0x4A03 JUMP JUMPDEST DUP1 ISZERO PUSH2 0x4A6F JUMPI DUP3 DUP2 PUSH2 0x100 EXP DUP2 SLOAD SWAP1 PUSH1 0xFF MUL NOT AND SWAP1 SSTORE PUSH1 0x1 ADD PUSH1 0x20 DUP2 PUSH1 0x0 ADD DIV SWAP3 DUP4 ADD SWAP3 PUSH1 0x1 SUB MUL PUSH2 0x4A42 JUMP JUMPDEST POP JUMPDEST POP PUSH2 0x4A7D SWAP3 SWAP2 POP PUSH2 0x4B0D JUMP JUMPDEST POP SWAP1 JUMP JUMPDEST DUP3 PUSH1 0x2 DUP2 ADD SWAP3 DUP3 ISZERO PUSH2 0x4AC7 JUMPI SWAP2 PUSH1 0x20 MUL DUP3 ADD JUMPDEST DUP3 DUP2 GT ISZERO PUSH2 0x4AC7 JUMPI DUP2 SLOAD PUSH1 0x1 PUSH1 0x1 PUSH1 0xA0 SHL SUB NOT AND PUSH1 0x1 PUSH1 0x1 PUSH1 0xA0 SHL SUB DUP5 CALLDATALOAD AND OR DUP3 SSTORE PUSH1 0x20 SWAP1 SWAP3 ADD SWAP2 PUSH1 0x1 SWAP1 SWAP2 ADD SWAP1 PUSH2 0x4A94 JUMP JUMPDEST POP PUSH2 0x4A7D SWAP3 SWAP2 POP PUSH2 0x4B26 JUMP JUMPDEST DUP3 PUSH1 0x2 DUP2 ADD SWAP3 DUP3 ISZERO PUSH2 0x4B01 JUMPI SWAP2 PUSH1 0x20 MUL DUP3 ADD JUMPDEST DUP3 DUP2 GT ISZERO PUSH2 0x4B01 JUMPI DUP3 CALLDATALOAD DUP3 SSTORE SWAP2 PUSH1 0x20 ADD SWAP2 SWAP1 PUSH1 0x1 ADD SWAP1 PUSH2 0x4AE6 JUMP JUMPDEST POP PUSH2 0x4A7D SWAP3 SWAP2 POP PUSH2 0x4B45 JUMP JUMPDEST JUMPDEST DUP1 DUP3 GT ISZERO PUSH2 0x4A7D JUMPI DUP1 SLOAD PUSH1 0xFF NOT AND DUP2 SSTORE PUSH1 0x1 ADD PUSH2 0x4B0E JUMP JUMPDEST JUMPDEST DUP1 DUP3 GT ISZERO PUSH2 0x4A7D JUMPI DUP1 SLOAD PUSH1 0x1 PUSH1 0x1 PUSH1 0xA0 SHL SUB NOT AND DUP2 SSTORE PUSH1 0x1 ADD PUSH2 0x4B27 JUMP JUMPDEST JUMPDEST DUP1 DUP3 GT ISZERO PUSH2 0x4A7D JUMPI PUSH1 0x0 DUP2 SSTORE PUSH1 0x1 ADD PUSH2 0x4B46 JUMP INVALID GASLIMIT PUSH15 0x756D657261626C655365743A20696E PUSH5 0x6578206F75 PUSH21 0x206F6620626F756E64734C69717569646174652066 PUSH2 0x6374 PUSH16 0x722073686F756C64206C657373207468 PUSH2 0x6E20 CODECOPY ADDRESS ADDRESS ADDRESS SLOAD PUSH16 0x6B656E20312063616E20626F72726F77 KECCAK256 PUSH16 0x72206D696E20646562742073686F756C PUSH5 0x2062652030 MSTORE PUSH6 0x656E7472616E PUSH4 0x79477561 PUSH19 0x643A207265656E7472616E742063616C6C004F PUSH17 0x656E20666163746F722073686F756C6420 PUSH13 0x657373207468616E2031303030 ADDRESS 0x4F PUSH24 0x6E61626C653A206E6577206F776E65722069732074686520 PUSH27 0x65726F2061646472657373546F6B656E20302063616E20626F7272 PUSH16 0x77206F72206D696E2064656274207368 PUSH16 0x756C642062652030546F6B656E206E6F PUSH21 0x206578697374206F722063616E6E6F74206465706F PUSH20 0x6974536166654D6174683A206D756C7469706C69 PUSH4 0x6174696F PUSH15 0x206F766572666C6F774F776E61626C PUSH6 0x3A2063616C6C PUSH6 0x72206973206E PUSH16 0x7420746865206F776E6572696E737566 PUSH7 0x696369656E7420 PUSH3 0x6F7272 PUSH16 0x77546F6B656E20696E20746865206261 PUSH15 0x6BA2646970667358221220AB2EEE49 DUP10 0xFB SUB MLOAD PUSH14 0x411AE157E617A972315DEB4E93A 0xE1 PUSH6 0xBA16CAB714FB 0xCC PUSH5 0x736F6C6343 STOP MOD 0xC STOP CALLER "
		},
		"gasEstimates": {
			"creation": {
				"codeDepositCost": "3947600",
				"executionCost": "infinite",
				"totalCost": "infinite"
			},
			"external": {
				"addToken(address,uint256)": "infinite",
				"allPosIdAndHealth()": "infinite",
				"banks(address)": "7211",
				"config()": "1126",
				"currentPos()": "1110",
				"currentProdId()": "1131",
				"debtShareToVal(address,uint256)": "infinite",
				"debtValToShare(address,uint256)": "infinite",
				"deposit(address,uint256)": "infinite",
				"earn(address)": "infinite",
				"earnPertoken(address,address)": "infinite",
				"getBankRewards()": "infinite",
				"getBankRewardsPerToken(address)": "infinite",
				"getRewardsAllProd()": "infinite",
				"getRewardsPerProd(uint256)": "infinite",
				"liquidate(uint256)": "infinite",
				"opPosition(uint256,uint256,uint256[2],bytes)": "infinite",
				"opProduction(uint256,bool,bool[2],address[2],address,uint256[2],uint256,uint256)": "infinite",
				"owner()": "1105",
				"positionInfo(uint256)": "infinite",
				"productionsInfo(uint256)": "infinite",
				"renounceOwnership()": "infinite",
				"totalToken(address)": "infinite",
				"transferOwnership(address)": "infinite",
				"updateConfig(address)": "infinite",
				"updateToken(address,bool)": "infinite",
				"userAllPosId(address)": "infinite",
				"userAllProdId(address)": "infinite",
				"userBankAddress(address,uint256)": "infinite",
				"userBanksNum(address)": "infinite",
				"userEarnPerProd(address,uint256)": "infinite",
				"userPosId(address,uint256)": "infinite",
				"userPosNum(address)": "infinite",
				"userProdId(address,uint256)": "infinite",
				"userProdNum(address)": "infinite",
				"userSharesPerTokoen(address,address)": "1321",
				"withdraw(address,uint256)": "infinite",
				"withdrawReserve(address,address,uint256)": "infinite"
			},
			"internal": {
				"_addDebt(struct Bank.Position storage pointer,struct Bank.Production storage pointer,uint256[2] memory)": "infinite",
				"_calInterest(address)": "infinite",
				"_removeDebt(struct Bank.Position storage pointer,struct Bank.Production storage pointer)": "infinite"
			}
		},
		"methodIdentifiers": {
			"addToken(address,uint256)": "af81c5b9",
			"allPosIdAndHealth()": "f3c6a598",
			"banks(address)": "80c3b8c2",
			"config()": "79502c55",
			"currentPos()": "9f776b6a",
			"currentProdId()": "efe97afd",
			"debtShareToVal(address,uint256)": "2512c195",
			"debtValToShare(address,uint256)": "c879d8c6",
			"deposit(address,uint256)": "47e7ef24",
			"earn(address)": "fdb5fefc",
			"earnPertoken(address,address)": "3df7fe70",
			"getBankRewards()": "c6b99fe2",
			"getBankRewardsPerToken(address)": "033284a2",
			"getRewardsAllProd()": "52a7de02",
			"getRewardsPerProd(uint256)": "49f7c117",
			"liquidate(uint256)": "415f1240",
			"opPosition(uint256,uint256,uint256[2],bytes)": "1d1a619f",
			"opProduction(uint256,bool,bool[2],address[2],address,uint256[2],uint256,uint256)": "4b3f31bf",
			"owner()": "8da5cb5b",
			"positionInfo(uint256)": "89097a6a",
			"productionsInfo(uint256)": "f62613ff",
			"renounceOwnership()": "715018a6",
			"totalToken(address)": "5cf3b15f",
			"transferOwnership(address)": "f2fde38b",
			"updateConfig(address)": "6cc919c8",
			"updateToken(address,bool)": "b3cbf396",
			"userAllPosId(address)": "84231efb",
			"userAllProdId(address)": "18c6d123",
			"userBankAddress(address,uint256)": "92e1df38",
			"userBanksNum(address)": "5d5c0238",
			"userEarnPerProd(address,uint256)": "e6cd3526",
			"userPosId(address,uint256)": "549b2fe9",
			"userPosNum(address)": "b3493bb6",
			"userProdId(address,uint256)": "ef6a96fd",
			"userProdNum(address)": "e2de375c",
			"userSharesPerTokoen(address,address)": "130fb188",
			"withdraw(address,uint256)": "f3fef3a3",
			"withdrawReserve(address,address,uint256)": "ae1914f8"
		}
	},
	"abi": [
		{
			"inputs": [
				{
					"internalType": "address",
					"name": "_stakingRewards",
					"type": "address"
				}
			],
			"stateMutability": "nonpayable",
			"type": "constructor"
		},
		{
			"anonymous": false,
			"inputs": [
				{
					"indexed": true,
					"internalType": "uint256",
					"name": "id",
					"type": "uint256"
				},
				{
					"indexed": true,
					"internalType": "address",
					"name": "killer",
					"type": "address"
				},
				{
					"indexed": false,
					"internalType": "uint256[2]",
					"name": "prize",
					"type": "uint256[2]"
				},
				{
					"indexed": false,
					"internalType": "uint256[2]",
					"name": "left",
					"type": "uint256[2]"
				}
			],
			"name": "Liquidate",
			"type": "event"
		},
		{
			"anonymous": false,
			"inputs": [
				{
					"indexed": true,
					"internalType": "uint256",
					"name": "id",
					"type": "uint256"
				},
				{
					"indexed": false,
					"internalType": "uint256[2]",
					"name": "debts",
					"type": "uint256[2]"
				},
				{
					"indexed": false,
					"internalType": "uint256[2]",
					"name": "backs",
					"type": "uint256[2]"
				}
			],
			"name": "OpPosition",
			"type": "event"
		},
		{
			"anonymous": false,
			"inputs": [
				{
					"indexed": true,
					"internalType": "address",
					"name": "previousOwner",
					"type": "address"
				},
				{
					"indexed": true,
					"internalType": "address",
					"name": "newOwner",
					"type": "address"
				}
			],
			"name": "OwnershipTransferred",
			"type": "event"
		},
		{
			"inputs": [
				{
					"internalType": "address",
					"name": "token",
					"type": "address"
				},
				{
					"internalType": "uint256",
					"name": "poolId",
					"type": "uint256"
				}
			],
			"name": "addToken",
			"outputs": [],
			"stateMutability": "nonpayable",
			"type": "function"
		},
		{
			"inputs": [],
			"name": "allPosIdAndHealth",
			"outputs": [
				{
					"internalType": "uint256[]",
					"name": "",
					"type": "uint256[]"
				},
				{
					"internalType": "uint256[]",
					"name": "",
					"type": "uint256[]"
				}
			],
			"stateMutability": "view",
			"type": "function"
		},
		{
			"inputs": [
				{
					"internalType": "address",
					"name": "",
					"type": "address"
				}
			],
			"name": "banks",
			"outputs": [
				{
					"internalType": "address",
					"name": "tokenAddr",
					"type": "address"
				},
				{
					"internalType": "bool",
					"name": "isOpen",
					"type": "bool"
				},
				{
					"internalType": "bool",
					"name": "canDeposit",
					"type": "bool"
				},
				{
					"internalType": "uint256",
					"name": "poolId",
					"type": "uint256"
				},
				{
					"internalType": "uint256",
					"name": "totalVal",
					"type": "uint256"
				},
				{
					"internalType": "uint256",
					"name": "totalShares",
					"type": "uint256"
				},
				{
					"internalType": "uint256",
					"name": "totalDebt",
					"type": "uint256"
				},
				{
					"internalType": "uint256",
					"name": "totalDebtShares",
					"type": "uint256"
				},
				{
					"internalType": "uint256",
					"name": "totalReserve",
					"type": "uint256"
				},
				{
					"internalType": "uint256",
					"name": "lastInterestTime",
					"type": "uint256"
				}
			],
			"stateMutability": "view",
			"type": "function"
		},
		{
			"inputs": [],
			"name": "config",
			"outputs": [
				{
					"internalType": "contract IBankConfig",
					"name": "",
					"type": "address"
				}
			],
			"stateMutability": "view",
			"type": "function"
		},
		{
			"inputs": [],
			"name": "currentPos",
			"outputs": [
				{
					"internalType": "uint256",
					"name": "",
					"type": "uint256"
				}
			],
			"stateMutability": "view",
			"type": "function"
		},
		{
			"inputs": [],
			"name": "currentProdId",
			"outputs": [
				{
					"internalType": "uint256",
					"name": "",
					"type": "uint256"
				}
			],
			"stateMutability": "view",
			"type": "function"
		},
		{
			"inputs": [
				{
					"internalType": "address",
					"name": "token",
					"type": "address"
				},
				{
					"internalType": "uint256",
					"name": "debtShare",
					"type": "uint256"
				}
			],
			"name": "debtShareToVal",
			"outputs": [
				{
					"internalType": "uint256",
					"name": "",
					"type": "uint256"
				}
			],
			"stateMutability": "view",
			"type": "function"
		},
		{
			"inputs": [
				{
					"internalType": "address",
					"name": "token",
					"type": "address"
				},
				{
					"internalType": "uint256",
					"name": "debtVal",
					"type": "uint256"
				}
			],
			"name": "debtValToShare",
			"outputs": [
				{
					"internalType": "uint256",
					"name": "",
					"type": "uint256"
				}
			],
			"stateMutability": "view",
			"type": "function"
		},
		{
			"inputs": [
				{
					"internalType": "address",
					"name": "token",
					"type": "address"
				},
				{
					"internalType": "uint256",
					"name": "amount",
					"type": "uint256"
				}
			],
			"name": "deposit",
			"outputs": [],
			"stateMutability": "payable",
			"type": "function"
		},
		{
			"inputs": [
				{
					"internalType": "address",
					"name": "account",
					"type": "address"
				}
			],
			"name": "earn",
			"outputs": [
				{
					"internalType": "uint256",
					"name": "",
					"type": "uint256"
				}
			],
			"stateMutability": "view",
			"type": "function"
		},
		{
			"inputs": [
				{
					"internalType": "address",
					"name": "account",
					"type": "address"
				},
				{
					"internalType": "address",
					"name": "token",
					"type": "address"
				}
			],
			"name": "earnPertoken",
			"outputs": [
				{
					"internalType": "uint256",
					"name": "",
					"type": "uint256"
				}
			],
			"stateMutability": "view",
			"type": "function"
		},
		{
			"inputs": [],
			"name": "getBankRewards",
			"outputs": [],
			"stateMutability": "nonpayable",
			"type": "function"
		},
		{
			"inputs": [
				{
					"internalType": "address",
					"name": "token",
					"type": "address"
				}
			],
			"name": "getBankRewardsPerToken",
			"outputs": [],
			"stateMutability": "nonpayable",
			"type": "function"
		},
		{
			"inputs": [],
			"name": "getRewardsAllProd",
			"outputs": [],
			"stateMutability": "nonpayable",
			"type": "function"
		},
		{
			"inputs": [
				{
					"internalType": "uint256",
					"name": "prodId",
					"type": "uint256"
				}
			],
			"name": "getRewardsPerProd",
			"outputs": [],
			"stateMutability": "nonpayable",
			"type": "function"
		},
		{
			"inputs": [
				{
					"internalType": "uint256",
					"name": "posId",
					"type": "uint256"
				}
			],
			"name": "liquidate",
			"outputs": [],
			"stateMutability": "nonpayable",
			"type": "function"
		},
		{
			"inputs": [
				{
					"internalType": "uint256",
					"name": "posId",
					"type": "uint256"
				},
				{
					"internalType": "uint256",
					"name": "prodId",
					"type": "uint256"
				},
				{
					"internalType": "uint256[2]",
					"name": "borrow",
					"type": "uint256[2]"
				},
				{
					"internalType": "bytes",
					"name": "data",
					"type": "bytes"
				}
			],
			"name": "opPosition",
			"outputs": [],
			"stateMutability": "payable",
			"type": "function"
		},
		{
			"inputs": [
				{
					"internalType": "uint256",
					"name": "prodId",
					"type": "uint256"
				},
				{
					"internalType": "bool",
					"name": "isOpen",
					"type": "bool"
				},
				{
					"internalType": "bool[2]",
					"name": "canBorrow",
					"type": "bool[2]"
				},
				{
					"internalType": "address[2]",
					"name": "borrowToken",
					"type": "address[2]"
				},
				{
					"internalType": "address",
					"name": "goblin",
					"type": "address"
				},
				{
					"internalType": "uint256[2]",
					"name": "minDebt",
					"type": "uint256[2]"
				},
				{
					"internalType": "uint256",
					"name": "openFactor",
					"type": "uint256"
				},
				{
					"internalType": "uint256",
					"name": "liquidateFactor",
					"type": "uint256"
				}
			],
			"name": "opProduction",
			"outputs": [],
			"stateMutability": "nonpayable",
			"type": "function"
		},
		{
			"inputs": [],
			"name": "owner",
			"outputs": [
				{
					"internalType": "address",
					"name": "",
					"type": "address"
				}
			],
			"stateMutability": "view",
			"type": "function"
		},
		{
			"inputs": [
				{
					"internalType": "uint256",
					"name": "posId",
					"type": "uint256"
				}
			],
			"name": "positionInfo",
			"outputs": [
				{
					"internalType": "uint256",
					"name": "",
					"type": "uint256"
				},
				{
					"internalType": "uint256",
					"name": "",
					"type": "uint256"
				},
				{
					"internalType": "uint256",
					"name": "",
					"type": "uint256"
				},
				{
					"internalType": "uint256[2]",
					"name": "",
					"type": "uint256[2]"
				},
				{
					"internalType": "uint256[2]",
					"name": "",
					"type": "uint256[2]"
				},
				{
					"internalType": "address",
					"name": "",
					"type": "address"
				}
			],
			"stateMutability": "view",
			"type": "function"
		},
		{
			"inputs": [
				{
					"internalType": "uint256",
					"name": "prodId",
					"type": "uint256"
				}
			],
			"name": "productionsInfo",
			"outputs": [
				{
					"internalType": "address[2]",
					"name": "",
					"type": "address[2]"
				},
				{
					"internalType": "bool",
					"name": "",
					"type": "bool"
				},
				{
					"internalType": "bool[2]",
					"name": "",
					"type": "bool[2]"
				},
				{
					"internalType": "address",
					"name": "",
					"type": "address"
				},
				{
					"internalType": "uint256[2]",
					"name": "",
					"type": "uint256[2]"
				},
				{
					"internalType": "uint256",
					"name": "",
					"type": "uint256"
				},
				{
					"internalType": "uint256",
					"name": "",
					"type": "uint256"
				}
			],
			"stateMutability": "view",
			"type": "function"
		},
		{
			"inputs": [],
			"name": "renounceOwnership",
			"outputs": [],
			"stateMutability": "nonpayable",
			"type": "function"
		},
		{
			"inputs": [
				{
					"internalType": "address",
					"name": "token",
					"type": "address"
				}
			],
			"name": "totalToken",
			"outputs": [
				{
					"internalType": "uint256",
					"name": "",
					"type": "uint256"
				}
			],
			"stateMutability": "view",
			"type": "function"
		},
		{
			"inputs": [
				{
					"internalType": "address",
					"name": "newOwner",
					"type": "address"
				}
			],
			"name": "transferOwnership",
			"outputs": [],
			"stateMutability": "nonpayable",
			"type": "function"
		},
		{
			"inputs": [
				{
					"internalType": "contract IBankConfig",
					"name": "_config",
					"type": "address"
				}
			],
			"name": "updateConfig",
			"outputs": [],
			"stateMutability": "nonpayable",
			"type": "function"
		},
		{
			"inputs": [
				{
					"internalType": "address",
					"name": "token",
					"type": "address"
				},
				{
					"internalType": "bool",
					"name": "canDeposit",
					"type": "bool"
				}
			],
			"name": "updateToken",
			"outputs": [],
			"stateMutability": "nonpayable",
			"type": "function"
		},
		{
			"inputs": [
				{
					"internalType": "address",
					"name": "account",
					"type": "address"
				}
			],
			"name": "userAllPosId",
			"outputs": [
				{
					"internalType": "uint256[]",
					"name": "",
					"type": "uint256[]"
				}
			],
			"stateMutability": "view",
			"type": "function"
		},
		{
			"inputs": [
				{
					"internalType": "address",
					"name": "account",
					"type": "address"
				}
			],
			"name": "userAllProdId",
			"outputs": [
				{
					"internalType": "uint256[]",
					"name": "",
					"type": "uint256[]"
				}
			],
			"stateMutability": "view",
			"type": "function"
		},
		{
			"inputs": [
				{
					"internalType": "address",
					"name": "account",
					"type": "address"
				},
				{
					"internalType": "uint256",
					"name": "index",
					"type": "uint256"
				}
			],
			"name": "userBankAddress",
			"outputs": [
				{
					"internalType": "address",
					"name": "",
					"type": "address"
				}
			],
			"stateMutability": "view",
			"type": "function"
		},
		{
			"inputs": [
				{
					"internalType": "address",
					"name": "account",
					"type": "address"
				}
			],
			"name": "userBanksNum",
			"outputs": [
				{
					"internalType": "uint256",
					"name": "",
					"type": "uint256"
				}
			],
			"stateMutability": "view",
			"type": "function"
		},
		{
			"inputs": [
				{
					"internalType": "address",
					"name": "account",
					"type": "address"
				},
				{
					"internalType": "uint256",
					"name": "prodId",
					"type": "uint256"
				}
			],
			"name": "userEarnPerProd",
			"outputs": [
				{
					"internalType": "uint256",
					"name": "",
					"type": "uint256"
				},
				{
					"internalType": "uint256",
					"name": "",
					"type": "uint256"
				}
			],
			"stateMutability": "view",
			"type": "function"
		},
		{
			"inputs": [
				{
					"internalType": "address",
					"name": "account",
					"type": "address"
				},
				{
					"internalType": "uint256",
					"name": "index",
					"type": "uint256"
				}
			],
			"name": "userPosId",
			"outputs": [
				{
					"internalType": "uint256",
					"name": "",
					"type": "uint256"
				}
			],
			"stateMutability": "view",
			"type": "function"
		},
		{
			"inputs": [
				{
					"internalType": "address",
					"name": "account",
					"type": "address"
				}
			],
			"name": "userPosNum",
			"outputs": [
				{
					"internalType": "uint256",
					"name": "",
					"type": "uint256"
				}
			],
			"stateMutability": "view",
			"type": "function"
		},
		{
			"inputs": [
				{
					"internalType": "address",
					"name": "account",
					"type": "address"
				},
				{
					"internalType": "uint256",
					"name": "index",
					"type": "uint256"
				}
			],
			"name": "userProdId",
			"outputs": [
				{
					"internalType": "uint256",
					"name": "",
					"type": "uint256"
				}
			],
			"stateMutability": "view",
			"type": "function"
		},
		{
			"inputs": [
				{
					"internalType": "address",
					"name": "account",
					"type": "address"
				}
			],
			"name": "userProdNum",
			"outputs": [
				{
					"internalType": "uint256",
					"name": "",
					"type": "uint256"
				}
			],
			"stateMutability": "view",
			"type": "function"
		},
		{
			"inputs": [
				{
					"internalType": "address",
					"name": "account",
					"type": "address"
				},
				{
					"internalType": "address",
					"name": "token",
					"type": "address"
				}
			],
			"name": "userSharesPerTokoen",
			"outputs": [
				{
					"internalType": "uint256",
					"name": "",
					"type": "uint256"
				}
			],
			"stateMutability": "view",
			"type": "function"
		},
		{
			"inputs": [
				{
					"internalType": "address",
					"name": "token",
					"type": "address"
				},
				{
					"internalType": "uint256",
					"name": "withdrawShares",
					"type": "uint256"
				}
			],
			"name": "withdraw",
			"outputs": [],
			"stateMutability": "nonpayable",
			"type": "function"
		},
		{
			"inputs": [
				{
					"internalType": "address",
					"name": "token",
					"type": "address"
				},
				{
					"internalType": "address",
					"name": "to",
					"type": "address"
				},
				{
					"internalType": "uint256",
					"name": "value",
					"type": "uint256"
				}
			],
			"name": "withdrawReserve",
			"outputs": [],
			"stateMutability": "nonpayable",
			"type": "function"
		},
		{
			"stateMutability": "payable",
			"type": "receive"
		}
	]
}