{
	"data": {
		"bytecode": {
			"linkReferences": {},
			"object": "60806040523480156200001157600080fd5b50604051620043da380380620043da83398181016040526101608110156200003857600080fd5b508051602082015160408301516060840151608085015160a086015160c087015160e08801516101008901516101208a0151610140909a01519899979896979596949593949293919290919060006200009062000578565b600080546001600160a01b0319166001600160a01b0383169081178255604051929350917f8be0079c531659141344cd1fd0a4f28419497f9722a3daafe3b4186f6b6457e0908290a350600180819055508a600c60006101000a8154816001600160a01b0302191690836001600160a01b03160217905550846001600160a01b031663ad5c46486040518163ffffffff1660e01b815260040160206040518083038186803b1580156200014257600080fd5b505afa15801562000157573d6000803e3d6000fd5b505050506040513d60208110156200016e57600080fd5b5051600980546001600160a01b03199081166001600160a01b03938416179091556002805482168d841617905560038b90556004805482168b84161781556005805483168b8516179055600689905560088054909216878416179091556040805163c45a015560e01b8152905160009389169263c45a015592808201926020929091829003018186803b1580156200020557600080fd5b505afa1580156200021a573d6000803e3d6000fd5b505050506040513d60208110156200023157600080fd5b505190506001600160a01b038416156200024c578362000259565b6009546001600160a01b03165b93506001600160a01b038316156200027257826200027f565b6009546001600160a01b03165b9250806001600160a01b031663e6a4390585856040518363ffffffff1660e01b815260040180836001600160a01b03168152602001826001600160a01b031681526020019250505060206040518083038186803b158015620002e057600080fd5b505afa158015620002f5573d6000803e3d6000fd5b505050506040513d60208110156200030c57600080fd5b5051600780546001600160a01b0319166001600160a01b039283161790819055166200036f576040805162461bcd60e51b815260206004820152600d60248201526c14185a5c881b9bdd08195e1a5d609a1b604482015290519081900360640190fd5b600760009054906101000a90046001600160a01b03166001600160a01b0316630dfe16816040518163ffffffff1660e01b815260040160206040518083038186803b158015620003be57600080fd5b505afa158015620003d3573d6000803e3d6000fd5b505050506040513d6020811015620003ea57600080fd5b5051600a80546001600160a01b0319166001600160a01b039283161790556007546040805163d21220a760e01b81529051919092169163d21220a7916004808301926020929190829003018186803b1580156200044657600080fd5b505afa1580156200045b573d6000803e3d6000fd5b505050506040513d60208110156200047257600080fd5b5051600b80546001600160a01b03199081166001600160a01b039384161790915560158054909116848316179081905581166000908152601460209081526040808320805460ff19166001179055600754600554825163095ea7b360e01b815290861660048201526000196024820152915194169363095ea7b393604480840194938390030190829087803b1580156200050b57600080fd5b505af115801562000520573d6000803e3d6000fd5b505050506040513d60208110156200053757600080fd5b505060045460085462000566916001600160a01b0391821691166000196200057c602090811b62002e9317901c565b505050505050505050505050620006dd565b3390565b604080516001600160a01b038481166024830152604480830185905283518084039091018152606490920183526020820180516001600160e01b031663095ea7b360e01b178152925182516000946060949389169392918291908083835b60208310620005fb5780518252601f199092019160209182019101620005da565b6001836020036101000a0380198251168184511680821785525050505050509050019150506000604051808303816000865af19150503d80600081146200065f576040519150601f19603f3d011682016040523d82523d6000602084013e62000664565b606091505b5091509150818015620006955750805115806200069557508080602001905160208110156200069257600080fd5b50515b620006d6576040805162461bcd60e51b815260206004820152600c60248201526b2173616665417070726f766560a01b604482015290519081900360640190fd5b5050505050565b613ced80620006ed6000396000f3fe6080604052600436106101f25760003560e01c8063785629b81161010d578063e7956f21116100a0578063f204b9c51161006f578063f204b9c514610710578063f2fde38b1461073a578063f88acf8c1461076d578063fe05cdea146107a0578063ff43f9e7146107d0576101f9565b8063e7956f2114610652578063ea3ec12d146106d1578063f04b5fa0146106e6578063f128b5f4146106fb576101f9565b8063d02eb3f4116100dc578063d02eb3f4146105dd578063d21220a7146105f2578063d75734c814610607578063dce174841461063d576101f9565b8063785629b8146104e55780638046326e146104fa5780638da5cb5b14610530578063c186c29b14610545576101f9565b80633e0dc34e116101855780635fcbd285116101545780635fcbd2851461045f578063715018a6146104745780637637b237146104895780637697f368146104d0576101f9565b80633e0dc34e146103b5578063570ca735146103ca57806357dd5650146103df5780635931c79314610413576101f9565b80631ec82cb8116101c15780631ec82cb8146102e55780632bd417d91461032a578063362a3fad1461036d57806336e9332d146103a0576101f9565b80630dfe1681146101fe5780630e15561a1461022f57806317fc3ac7146102565780631959a0021461028c576101f9565b366101f957005b600080fd5b34801561020a57600080fd5b5061021361083f565b604080516001600160a01b039092168252519081900360200190f35b34801561023b57600080fd5b5061024461084e565b60408051918252519081900360200190f35b34801561026257600080fd5b506102446004803603606081101561027957600080fd5b5080359060208101359060400135610961565b34801561029857600080fd5b506102bf600480360360208110156102af57600080fd5b50356001600160a01b0316610a47565b604080519485526020850193909352838301919091526060830152519081900360800190f35b3480156102f157600080fd5b506103286004803603606081101561030857600080fd5b506001600160a01b03813581169160208101359091169060400135610a6e565b005b34801561033657600080fd5b50610328600480360360c081101561034d57600080fd5b508035906001600160a01b03602082013516906040810190608001610b40565b34801561037957600080fd5b506103286004803603602081101561039057600080fd5b50356001600160a01b03166113b9565b3480156103ac57600080fd5b5061021361156c565b3480156103c157600080fd5b5061024461157b565b3480156103d657600080fd5b50610213611581565b3480156103eb57600080fd5b50610244600480360360a081101561040257600080fd5b508035906020810190606001611590565b34801561041f57600080fd5b506104466004803603602081101561043657600080fd5b50356001600160a01b03166118be565b6040805192835260208301919091528051918290030190f35b34801561046b57600080fd5b506102136119a1565b34801561048057600080fd5b506103286119b0565b34801561049557600080fd5b506104bc600480360360208110156104ac57600080fd5b50356001600160a01b0316611a52565b604080519115158252519081900360200190f35b3480156104dc57600080fd5b50610244611a67565b3480156104f157600080fd5b50610213611a6d565b34801561050657600080fd5b506102446004803603606081101561051d57600080fd5b5080359060208101359060400135611a7c565b34801561053c57600080fd5b50610213611af7565b610328600480360361012081101561055c57600080fd5b8135916001600160a01b03602082013516916040820191608081019160c082019190810190610120810161010082013564010000000081111561059e57600080fd5b8201836020820111156105b057600080fd5b803590602001918460018302840111640100000000831117156105d257600080fd5b509092509050611b06565b3480156105e957600080fd5b50610213612752565b3480156105fe57600080fd5b50610213612761565b34801561061357600080fd5b506102446004803603606081101561062a57600080fd5b5080359060208101359060400135612770565b34801561064957600080fd5b5061021361281c565b34801561065e57600080fd5b506103286004803603604081101561067557600080fd5b81019060208101813564010000000081111561069057600080fd5b8201836020820111156106a257600080fd5b803590602001918460208302840111640100000000831117156106c457600080fd5b919350915035151561282b565b3480156106dd57600080fd5b506102136128e0565b3480156106f257600080fd5b506102bf6128ef565b34801561070757600080fd5b506102446128fe565b34801561071c57600080fd5b506102446004803603602081101561073357600080fd5b5035612948565b34801561074657600080fd5b506103286004803603602081101561075d57600080fd5b50356001600160a01b031661295a565b34801561077957600080fd5b506103286004803603602081101561079057600080fd5b50356001600160a01b0316612a52565b3480156107ac57600080fd5b50610244600480360360408110156107c357600080fd5b5080359060200135612acc565b3480156107dc57600080fd5b50610804600480360360a08110156107f357600080fd5b508035906020810190606001612aee565b6040518082600260200280838360005b8381101561082c578181015183820152602001610814565b5050505090500191505060405180910390f35b600a546001600160a01b031681565b60055460065460408051631175a1dd60e01b815260048101929092523060248301525160009283926001600160a01b0390911691631175a1dd91604480820192602092909190829003018186803b1580156108a857600080fd5b505afa1580156108bc573d6000803e3d6000fd5b505050506040513d60208110156108d257600080fd5b50516004805460408051635931c79360e01b815230938101939093525192935061095a926001600160a01b0390911691635931c793916024808301926020929190829003018186803b15801561092757600080fd5b505afa15801561093b573d6000803e3d6000fd5b505050506040513d602081101561095157600080fd5b50518290612fe5565b9150505b90565b60008361097057506000610a40565b600083116109c5576040805162461bcd60e51b815260206004820181905260248201527f4765742073656c6c20696e20616d6f756e742c2072496e206d757374203e2030604482015290519081900360640190fd5b838211610a035760405162461bcd60e51b8152600401808060200182810382526024815260200180613bc16024913960400191505060405180910390fd5b6000610a1b6103e8610a158688613048565b90613048565b90506000610a2f6103e5610a1586896130a1565b9050610a3b82826130e3565b925050505b9392505050565b60116020526000908152604090208054600182015460028301546003909301549192909184565b610a76613125565b6000546001600160a01b03908116911614610ac6576040805162461bcd60e51b81526020600482018190526024820152600080516020613c73833981519152604482015290519081900360640190fd5b60026001541415610b1e576040805162461bcd60e51b815260206004820152601f60248201527f5265656e7472616e637947756172643a207265656e7472616e742063616c6c00604482015290519081900360640190fd5b6002600155610b376001600160a01b0384168383613129565b50506001805550565b600c546001600160a01b03163314610b8e576040805162461bcd60e51b815260206004820152600c60248201526b3737ba1037b832b930ba37b960a11b604482015290519081900360640190fd5b60026001541415610be6576040805162461bcd60e51b815260206004820152601f60248201527f5265656e7472616e637947756172643a207265656e7472616e742063616c6c00604482015290519081900360640190fd5b6002600155600a5482356001600160a01b0390811691161480610c185750600b5482356001600160a01b039081169116145b80610c2b57506001600160a01b03823516155b610c665760405162461bcd60e51b8152600401808060200182810382526025815260200180613be56025913960400191505060405180910390fd5b600a5460208301356001600160a01b0390811691161480610c995750600b5460208301356001600160a01b039081169116145b80610caf57506001600160a01b03602083013516155b610cea5760405162461bcd60e51b8152600401808060200182810382526025815260200180613c936025913960400191505060405180910390fd5b610cf38361327c565b600254600354600086815260126020526040808220548151631cc6d2f960e31b815260048101949094526001600160a01b0388811660248601526044850191909152905193169263e63697c892606480820193929182900301818387803b158015610d5d57600080fd5b505af1158015610d71573d6000803e3d6000fd5b50505050610d7f848461331b565b600754604080516370a0823160e01b815230600482015290516000926001600160a01b0316916370a08231916024808301926020929190829003018186803b158015610dca57600080fd5b505afa158015610dde573d6000803e3d6000fd5b505050506040513d6020811015610df457600080fd5b50516007546015546040805163a9059cbb60e01b81526001600160a01b03928316600482015260248101859052905193945091169163a9059cbb916044808201926020929091908290030181600087803b158015610e5157600080fd5b505af1158015610e65573d6000803e3d6000fd5b505050506040513d6020811015610e7b57600080fd5b5050600854600090610e95906001600160a01b0316613418565b60155460408051808201825260008082526020808301919091526007548351630dfe168160e01b815293519596506001600160a01b039485169563e2be73ad9530958c95948c9490921692630dfe168192600480840193919291829003018186803b158015610f0357600080fd5b505afa158015610f17573d6000803e3d6000fd5b505050506040513d6020811015610f2d57600080fd5b50516007546040805163d21220a760e01b815290516001600160a01b039092169163d21220a791600480820192602092909190829003018186803b158015610f7457600080fd5b505afa158015610f88573d6000803e3d6000fd5b505050506040513d6020811015610f9e57600080fd5b5051604080516001600160a01b03938416602082015291831682820152612710606083015260026080808401919091528151808403909101815260a083018083526001600160e01b031960e08b901b16905292871660a483019081529160c40190869080828437600081840152601f19601f82011690508083019250505084600260200280838360005b83811015611040578181015183820152602001611028565b5050505090500183600260200280828437600081840152601f19601f82011690508083019250505080602001828103825283818151815260200191508051906020019080838360005b838110156110a1578181015183820152602001611089565b50505050905090810190601f1680156110ce5780820380516001836020036101000a031916815260200191505b5096505050505050506040805180830381600087803b1580156110f057600080fd5b505af1158015611104573d6000803e3d6000fd5b505050506040513d601f19601f82011682018060405250604081101561112957600080fd5b50506008548190611142906001600160a01b0316613418565b111561116757600854819061115f906001600160a01b0316613418565b03905061116b565b5060005b6004546008546001600160a01b039182169163b6b55f25916111999185916111939116613418565b906130a1565b6040518263ffffffff1660e01b815260040180828152602001915050600060405180830381600087803b1580156111cf57600080fd5b505af11580156111e3573d6000803e3d6000fd5b505050506111ef613b7a565b60005b60028110156112fd57600086826002811061120957fe5b60200201356001600160a01b03166001600160a01b03161415611257574782826002811061123357fe5b60200201526112523383836002811061124857fe5b602002015161349b565b6112da565b61128286826002811061126657fe5b60200201356001600160a01b03166001600160a01b0316613418565b82826002811061128e57fe5b60200201526112da338383600281106112a357fe5b60200201518884600281106112b457fe5b60200201356001600160a01b03166001600160a01b03166131299092919063ffffffff16565b600088815260136020526040812082600281106112f357fe5b01556001016111f2565b50867f1f360a4b3409f88d8ba44894322aa45ba66784aa465bc8473c91c34a93b77f68600760009054906101000a90046001600160a01b031685888560405180856001600160a01b0316815260200184815260200183600260200280828437600081840152601f19601f82011690508083019250505082600260200280838360005b8381101561139757818101518382015260200161137f565b5050505090500194505050505060405180910390a25050600180555050505050565b6113c28161327c565b6001600160a01b03811660009081526011602052604090206001810154156114f8576004805460408051635931c79360e01b81526001600160a01b038681169482019490945290519290911691632e1a7d4d918391635931c79391602480820192602092909190829003018186803b15801561143d57600080fd5b505afa158015611451573d6000803e3d6000fd5b505050506040513d602081101561146757600080fd5b5051604080516001600160e01b031960e085901b168152600481019290925251602480830192600092919082900301818387803b1580156114a757600080fd5b505af11580156114bb573d6000803e3d6000fd5b50505060018201546008546114dc92506001600160a01b0316908490613129565b6001810154600e546114ed916130a1565b600e55600060018201555b60025460035460408051633c212b1f60e01b815260048101929092526001600160a01b0385811660248401529051921691633c212b1f9160448082019260009290919082900301818387803b15801561155057600080fd5b505af1158015611564573d6000803e3d6000fd5b505050505050565b6002546001600160a01b031681565b60035481565b600c546001600160a01b031681565b600a5460009083356001600160a01b03908116911614806115c05750600b5483356001600160a01b039081169116145b806115d357506001600160a01b03833516155b61160e5760405162461bcd60e51b8152600401808060200182810382526025815260200180613be56025913960400191505060405180910390fd5b600a5460208401356001600160a01b03908116911614806116415750600b5460208401356001600160a01b039081169116145b8061165757506001600160a01b03602084013516155b6116925760405162461bcd60e51b8152600401808060200182810382526025815260200180613c936025913960400191505060405180910390fd5b600084815260126020908152604080832054601390925290912080541515806116bf575060008160010154115b156118b257600754604080516318160ddd60e01b815290516000926001600160a01b0316916318160ddd916004808301926020929190829003018186803b15801561170957600080fd5b505afa15801561171d573d6000803e3d6000fd5b505050506040513d602081101561173357600080fd5b505160075460408051630240bc6b60e21b8152905192935060009283926001600160a01b031691630902f1ac916004808301926060929190829003018186803b15801561177f57600080fd5b505afa158015611793573d6000803e3d6000fd5b505050506040513d60608110156117a957600080fd5b508051602090910151600b546001600160701b0392831694509116915088356001600160a01b039081169116148061180457506001600160a01b038835161580156118045750600954600b546001600160a01b039081169116145b1561180b57905b60006118218461181b8886613048565b906130e3565b905060006118338561181b8986613048565b905061183f84836130a1565b935061184b83826130a1565b86549093501561189057600061186a85858c3560208e01358787613597565b90506118818760005b015461181b83612710613048565b98505050505050505050610a40565b60006118a5848660208d01358d358688613597565b9050611881876001611873565b61271092505050610a40565b6001600160a01b0381166000908152601160205260408120600181015460028201548392916119139161190d90670de0b6b3a76400009061181b90611905906111936128fe565b865490613048565b90612fe5565b60025460035460408051631f46938b60e11b815260048101929092526001600160a01b0388811660248401529051921691633e8d271691604480820192602092909190829003018186803b15801561196a57600080fd5b505afa15801561197e573d6000803e3d6000fd5b505050506040513d602081101561199457600080fd5b5051909350915050915091565b6007546001600160a01b031681565b6119b8613125565b6000546001600160a01b03908116911614611a08576040805162461bcd60e51b81526020600482018190526024820152600080516020613c73833981519152604482015290519081900360640190fd5b600080546040516001600160a01b03909116907f8be0079c531659141344cd1fd0a4f28419497f9722a3daafe3b4186f6b6457e0908390a3600080546001600160a01b0319169055565b60146020526000908152604090205460ff1681565b60065481565b6015546001600160a01b031681565b600083611a8b57506000610a40565b600083118015611a9b5750600082115b611ae1576040805162461bcd60e51b815260206004820152601260248201527162616420726573657276652076616c75657360701b604482015290519081900360640190fd5b611aef8461181b8585613048565b949350505050565b6000546001600160a01b031690565b600c546001600160a01b03163314611b54576040805162461bcd60e51b815260206004820152600c60248201526b3737ba1037b832b930ba37b960a11b604482015290519081900360640190fd5b60026001541415611bac576040805162461bcd60e51b815260206004820152601f60248201527f5265656e7472616e637947756172643a207265656e7472616e742063616c6c00604482015290519081900360640190fd5b600260015584356001600160a01b0390811660208701359091161415611bd157600080fd5b600a5485356001600160a01b0390811691161480611bfe5750600b5485356001600160a01b039081169116145b80611c1157506001600160a01b03853516155b611c4c5760405162461bcd60e51b8152600401808060200182810382526022815260200180613c306022913960400191505060405180910390fd5b600a5460208601356001600160a01b0390811691161480611c7f5750600b5460208601356001600160a01b039081169116145b80611c9557506001600160a01b03602086013516155b611cd05760405162461bcd60e51b8152600401808060200182810382526022815260200180613c306022913960400191505060405180910390fd5b611cd8613b98565b611ce18761327c565b6000888152601260205260409020548152611cfc888861331b565b6000606084846040811015611d1057600080fd5b6001600160a01b038235169190810190604081016020820135640100000000811115611d3b57600080fd5b820183602082011115611d4d57600080fd5b80359060200191846001830284011164010000000083111715611d6f57600080fd5b91908080601f01602080910402602001604051908101604052809392919081815260200183838082843760009201829052506001600160a01b0389168152601460205260409020549799509297505060ff9095169450611e1b9350505050576040805162461bcd60e51b815260206004820152601860248201527f756e617070726f76656420776f726b2073747261746567790000000000000000604482015290519081900360640190fd5b600754604080516370a0823160e01b815230600482015290516001600160a01b039092169163a9059cbb91859184916370a08231916024808301926020929190829003018186803b158015611e6f57600080fd5b505afa158015611e83573d6000803e3d6000fd5b505050506040513d6020811015611e9957600080fd5b5051604080516001600160e01b031960e086901b1681526001600160a01b03909316600484015260248301919091525160448083019260209291908290030181600087803b158015611eea57600080fd5b505af1158015611efe573d6000803e3d6000fd5b505050506040513d6020811015611f1457600080fd5b50600090505b6002811015612007576000888260028110611f3157fe5b6020020135118015611f6657506000898260028110611f4c57fe5b60200201356001600160a01b03166001600160a01b031614155b15611fff57611fb433308a8460028110611f7c57fe5b60200201358c8560028110611f8d57fe5b60200201356001600160a01b03166001600160a01b0316613641909392919063ffffffff16565b611fec8360008b8460028110611fc657fe5b60200201356001600160a01b03166001600160a01b0316612e939092919063ffffffff16565b611fff836000198b8460028110611fc657fe5b600101611f1a565b5060085461201d906001600160a01b0316613418565b604084015261202a613b7a565b826001600160a01b031663e2be73ad348c8c8c8c886040518763ffffffff1660e01b815260040180866001600160a01b0316815260200185600260200280828437600083820152601f01601f1916909101905084604080828437600083820152601f01601f1916909101905083604080828437600081840152601f19601f82011690508083019250505080602001828103825283818151815260200191508051906020019080838360005b838110156120ed5781810151838201526020016120d5565b50505050905090810190601f16801561211a5780820380516001836020036101000a031916815260200191505b50965050505050505060408051808303818588803b15801561213b57600080fd5b505af115801561214f573d6000803e3d6000fd5b50505050506040513d601f19601f82011682018060405250604081101561217557600080fd5b50604085015160085491925090612194906001600160a01b0316613418565b11156121bf5760408401516008546121b4906001600160a01b0316613418565b0360408501526121c7565b600060408501525b6121d18b8b6137a0565b60045460408501516008546001600160a01b039283169263b6b55f25926121fe9290916111939116613418565b6040518263ffffffff1660e01b815260040180828152602001915050600060405180830381600087803b15801561223457600080fd5b505af1158015612248573d6000803e3d6000fd5b50505060008c815260126020908152604080832054888301528e835260139091528082206007548251630240bc6b60e21b8152925191945083926001600160a01b0390911691630902f1ac91600480820192606092909190829003018186803b1580156122b457600080fd5b505afa1580156122c8573d6000803e3d6000fd5b505050506040513d60608110156122de57600080fd5b508051602090910151600b546001600160701b039283169450911691508c356001600160a01b039081169116148061233957506001600160a01b038c35161580156123395750600954600b546001600160a01b039081169116145b1561234057905b6020870151875111156124df576020870151875161235d916130a1565b876060018181525050600260009054906101000a90046001600160a01b03166001600160a01b031663e63697c86003548f8a606001516040518463ffffffff1660e01b815260040180848152602001836001600160a01b031681526020018281526020019350505050600060405180830381600087803b1580156123e057600080fd5b505af11580156123f4573d6000803e3d6000fd5b5050505060008460006002811061240757fe5b6020020151118061241b5750602084015115155b156124da5782541561248657600061243b85600160200201518484611a7c565b9050612450818660005b602002015190612fe5565b84541115612477578451612470908290611193908760005b0154906130a1565b8455612480565b60018460005b01555b506124da565b8351600090612496908385611a7c565b90506124a481866001612445565b846001015411156124d0576124c6816111938760016020020151876001612468565b84600101556124d8565b600184815b01555b505b6126b0565b6020870151875110156126b057865160208801516124fc916130a1565b876060018181525050600260009054906101000a90046001600160a01b03166001600160a01b0316636e9c931c6003548f8a606001516040518463ffffffff1660e01b815260040180848152602001836001600160a01b031681526020018281526020019350505050600060405180830381600087803b15801561257f57600080fd5b505af1158015612593573d6000803e3d6000fd5b50505050826000600281106125a457fe5b01541580156125b557508260010154155b15612634576125cd828560015b602002015190613048565b6125d9828660006125c2565b111561260a5760006125f48560015b60200201518385612770565b905061260281866000612445565b84600061247d565b600061261e85825b60200201518484612770565b905061262c81866001612445565b8460016124d5565b83511515806126465750602084015115155b156126b05782541561268457600061265f8560016125e8565b905061267c8161190d87600060200201518760005b015490612fe5565b8460006124d5565b60006126908582612612565b90506126a98161190d8760016020020151876001612674565b8460010155505b60005b600281101561273d5760008d82600281106126ca57fe5b60200201356001600160a01b03166001600160a01b031614156126f6576126f1334761349b565b612735565b60006127078e836002811061126657fe5b90508015612733576127338e836002811061271e57fe5b60200201356001600160a01b03163383613129565b505b6001016126b3565b50506001805550505050505050505050505050565b6009546001600160a01b031681565b600b546001600160a01b031681565b60008361277f57506000610a40565b60008311801561278f5750600082115b6127d5576040805162461bcd60e51b815260206004820152601260248201527162616420726573657276652076616c75657360701b604482015290519081900360640190fd5b60006127e3856103e5613048565b905060006127f18285613048565b905060006128058361190d886103e8613048565b905061281182826130e3565b979650505050505050565b6008546001600160a01b031681565b612833613125565b6000546001600160a01b03908116911614612883576040805162461bcd60e51b81526020600482018190526024820152600080516020613c73833981519152604482015290519081900360640190fd5b8160005b818110156128d95782601460008787858181106128a057fe5b602090810292909201356001600160a01b0316835250810191909152604001600020805460ff1916911515919091179055600101612887565b5050505050565b6005546001600160a01b031681565b600d54600e54600f5460105484565b600d546000901561293f57612938600d6002015461190d600d6000015461181b670de0b6b3a7640000610a15600d6001015461119361084e565b905061095e565b50600f5461095e565b60126020526000908152604090205481565b612962613125565b6000546001600160a01b039081169116146129b2576040805162461bcd60e51b81526020600482018190526024820152600080516020613c73833981519152604482015290519081900360640190fd5b6001600160a01b0381166129f75760405162461bcd60e51b8152600401808060200182810382526026815260200180613c0a6026913960400191505060405180910390fd5b600080546040516001600160a01b03808516939216917f8be0079c531659141344cd1fd0a4f28419497f9722a3daafe3b4186f6b6457e091a3600080546001600160a01b0319166001600160a01b0392909216919091179055565b612a5a613125565b6000546001600160a01b03908116911614612aaa576040805162461bcd60e51b81526020600482018190526024820152600080516020613c73833981519152604482015290519081900360640190fd5b601580546001600160a01b0319166001600160a01b0392909216919091179055565b60136020528160005260406000208160028110612ae557fe5b01549150829050565b612af6613b7a565b600a5483356001600160a01b0390811691161480612b235750600b5483356001600160a01b039081169116145b80612b3657506001600160a01b03833516155b612b715760405162461bcd60e51b8152600401808060200182810382526025815260200180613be56025913960400191505060405180910390fd5b600a5460208401356001600160a01b0390811691161480612ba45750600b5460208401356001600160a01b039081169116145b80612bba57506001600160a01b03602084013516155b612bf55760405162461bcd60e51b8152600401808060200182810382526025815260200180613c936025913960400191505060405180910390fd5b60008481526012602090815260408083205460075482516318160ddd60e01b815292519194936001600160a01b03909116926318160ddd9260048083019392829003018186803b158015612c4857600080fd5b505afa158015612c5c573d6000803e3d6000fd5b505050506040513d6020811015612c7257600080fd5b505160075460408051630240bc6b60e21b8152905192935060009283926001600160a01b031691630902f1ac916004808301926060929190829003018186803b158015612cbe57600080fd5b505afa158015612cd2573d6000803e3d6000fd5b505050506040513d6060811015612ce857600080fd5b508051602090910151600b546001600160701b0392831694509116915087356001600160a01b0390811691161480612d4357506001600160a01b03873516158015612d435750600954600b546001600160a01b039081169116145b15612d4a57905b6000612d5a8461181b8786613048565b90506000612d6c8561181b8886613048565b9050612d7884836130a1565b9350612d8483826130a1565b925087356020890135612da66a084595161401484a00000061190d8585613048565b612db08583613048565b1115612e02576000612dc687878585898961391c565b9050848111612dd55780612dd7565b845b9050612de385826130a1565b9450612dfa612df3828989612770565b8590612fe5565b935050612e73565b612e0c8383613048565b612e256a084595161401484a00000061190d8785613048565b1015612e73576000612e3b86888486888a61391c565b9050838111612e4a5780612e4c565b835b9050612e63612e5c82888a612770565b8690612fe5565b9450612e6f84826130a1565b9350505b505060408051808201909152918252602082015298975050505050505050565b604080516001600160a01b038481166024830152604480830185905283518084039091018152606490920183526020820180516001600160e01b031663095ea7b360e01b178152925182516000946060949389169392918291908083835b60208310612f105780518252601f199092019160209182019101612ef1565b6001836020036101000a0380198251168184511680821785525050505050509050019150506000604051808303816000865af19150503d8060008114612f72576040519150601f19603f3d011682016040523d82523d6000602084013e612f77565b606091505b5091509150818015612fa5575080511580612fa55750808060200190516020811015612fa257600080fd5b50515b6128d9576040805162461bcd60e51b815260206004820152600c60248201526b2173616665417070726f766560a01b604482015290519081900360640190fd5b60008282018381101561303f576040805162461bcd60e51b815260206004820152601b60248201527f536166654d6174683a206164646974696f6e206f766572666c6f770000000000604482015290519081900360640190fd5b90505b92915050565b60008261305757506000613042565b8282028284828161306457fe5b041461303f5760405162461bcd60e51b8152600401808060200182810382526021815260200180613c526021913960400191505060405180910390fd5b600061303f83836040518060400160405280601e81526020017f536166654d6174683a207375627472616374696f6e206f766572666c6f770000815250613a2d565b600061303f83836040518060400160405280601a81526020017f536166654d6174683a206469766973696f6e206279207a65726f000000000000815250613ac4565b3390565b604080516001600160a01b038481166024830152604480830185905283518084039091018152606490920183526020820180516001600160e01b031663a9059cbb60e01b178152925182516000946060949389169392918291908083835b602083106131a65780518252601f199092019160209182019101613187565b6001836020036101000a0380198251168184511680821785525050505050509050019150506000604051808303816000865af19150503d8060008114613208576040519150601f19603f3d011682016040523d82523d6000602084013e61320d565b606091505b509150915081801561323b57508051158061323b575080806020019051602081101561323857600080fd5b50515b6128d9576040805162461bcd60e51b815260206004820152600d60248201526c10b9b0b332aa3930b739b332b960991b604482015290519081900360640190fd5b60105442146132a05761328d6128fe565b600f5561329861084e565b600e55426010555b6001600160a01b038116600081815260116020526040902090158015906132cb575042816003015414155b1561331757613303816001015461190d670de0b6b3a764000061181b6119058660020154600d600201546130a190919063ffffffff16565b6001820155600f5460028201554260038201555b5050565b6000828152601260205260409020548015613413576001600160a01b038083166000908152601160205260408082206005546006548351630441a3e760e41b815260048101919091526024810187905292519194169263441a3e70926044808201939182900301818387803b15801561339357600080fd5b505af11580156133a7573d6000803e3d6000fd5b5050600d546133b992509050836130a1565b600d5580546133c890836130a1565b81556000848152601260209081526040808320929092558151848152915186927fc84a6b5196fc6fb3bc943120255d7f3efee1424717da5bbc24f922ed8426ea2c92908290030190a2505b505050565b6000816001600160a01b03166370a08231306040518263ffffffff1660e01b815260040180826001600160a01b0316815260200191505060206040518083038186803b15801561346757600080fd5b505afa15801561347b573d6000803e3d6000fd5b505050506040513d602081101561349157600080fd5b505190505b919050565b604080516000808252602082019092526001600160a01b0384169083906040518082805190602001908083835b602083106134e75780518252601f1990920191602091820191016134c8565b6001836020036101000a03801982511681845116808217855250505050505090500191505060006040518083038185875af1925050503d8060008114613549576040519150601f19603f3d011682016040523d82523d6000602084013e61354e565b606091505b5050905080613413576040805162461bcd60e51b815260206004820152601060248201526f042e6c2cccaa8e4c2dce6cccae48aa8960831b604482015290519081900360640190fd5b6000838211156135e35760006135b0858403888a612770565b9050856135bd8583612fe5565b11156135d8576135d1866111938684612fe5565b93506135dd565b600093505b50613634565b8582850311156135f65760009250613634565b60006136058386038989610961565b90506136118682612fe5565b84111561362d576136268661119386846130a1565b9350613632565b600093505b505b50815b9695505050505050565b604080516001600160a01b0385811660248301528481166044830152606480830185905283518084039091018152608490920183526020820180516001600160e01b03166323b872dd60e01b17815292518251600094606094938a169392918291908083835b602083106136c65780518252601f1990920191602091820191016136a7565b6001836020036101000a0380198251168184511680821785525050505050509050019150506000604051808303816000865af19150503d8060008114613728576040519150601f19603f3d011682016040523d82523d6000602084013e61372d565b606091505b509150915081801561375b57508051158061375b575080806020019051602081101561375857600080fd5b50515b611564576040805162461bcd60e51b815260206004820152601160248201527021736166655472616e7366657246726f6d60781b604482015290519081900360640190fd5b600754604080516370a0823160e01b815230600482015290516000926001600160a01b0316916370a08231916024808301926020929190829003018186803b1580156137eb57600080fd5b505afa1580156137ff573d6000803e3d6000fd5b505050506040513d602081101561381557600080fd5b505190508015613413576001600160a01b038083166000908152601160205260408082206005546006548351631c57762b60e31b815260048101919091526024810187905292519194169263e2bbb158926044808201939182900301818387803b15801561388257600080fd5b505af1158015613896573d6000803e3d6000fd5b5050506000858152601260205260409020546138b3915083612fe5565b600085815260126020526040902055600d546138cf9083612fe5565b600d5580546138de9083612fe5565b815560408051838152905185917f575f7e3945a96aca9eb04485edad4d0525b0cf2f686b62c51a4d7e089ac00585919081900360200190a250505050565b60006139288286613048565b6139328486613048565b11613984576040805162461bcd60e51b815260206004820152601d60248201527f6e612f64612073686f756c64206c61676572207468616e206e622f6462000000604482015290519081900360640190fd5b84613990575081613637565b60006139aa6139a38661181b868a613048565b85906130a1565b905060006139c06103e561181b8b6103e8613048565b905060006139d28761181b8a8c613048565b905060006139e4846111938585612fe5565b905060006139f28585613048565b9050613a1d600261181b84611193613a18613a0e876004613048565b61190d8980613048565b613b29565b9c9b505050505050505050505050565b60008184841115613abc5760405162461bcd60e51b81526004018080602001828103825283818151815260200191508051906020019080838360005b83811015613a81578181015183820152602001613a69565b50505050905090810190601f168015613aae5780820380516001836020036101000a031916815260200191505b509250505060405180910390fd5b505050900390565b60008183613b135760405162461bcd60e51b8152602060048201818152835160248401528351909283926044909101919085019080838360008315613a81578181015183820152602001613a69565b506000838581613b1f57fe5b0495945050505050565b60006003821115613b6c575080600160028204015b81811015613b6657809150600281828581613b5557fe5b040181613b5e57fe5b049050613b3e565b50613496565b811561349657506001919050565b60405180604001604052806002906020820280368337509192915050565b604051806080016040528060008152602001600081526020016000815260200160008152509056fe4765742073656c6c20696e20616d6f756e742c20724f7574206d757374203e20614f7574626f72726f77546f6b656e735b305d206e6f7420746f6b656e3020616e6420746f6b656e314f776e61626c653a206e6577206f776e657220697320746865207a65726f2061646472657373626f72726f77546f6b656e73206e6f7420746f6b656e3020616e6420746f6b656e31536166654d6174683a206d756c7469706c69636174696f6e206f766572666c6f774f776e61626c653a2063616c6c6572206973206e6f7420746865206f776e6572626f72726f77546f6b656e735b315d206e6f7420746f6b656e3020616e6420746f6b656e31a26469706673582212203b4f0eff74d25ba6801eccdf449bafbd6a637eb88259de185ce044d2405ee61964736f6c634300060c0033",
			"opcodes": "PUSH1 0x80 PUSH1 0x40 MSTORE CALLVALUE DUP1 ISZERO PUSH3 0x11 JUMPI PUSH1 0x0 DUP1 REVERT JUMPDEST POP PUSH1 0x40 MLOAD PUSH3 0x43DA CODESIZE SUB DUP1 PUSH3 0x43DA DUP4 CODECOPY DUP2 DUP2 ADD PUSH1 0x40 MSTORE PUSH2 0x160 DUP2 LT ISZERO PUSH3 0x38 JUMPI PUSH1 0x0 DUP1 REVERT JUMPDEST POP DUP1 MLOAD PUSH1 0x20 DUP3 ADD MLOAD PUSH1 0x40 DUP4 ADD MLOAD PUSH1 0x60 DUP5 ADD MLOAD PUSH1 0x80 DUP6 ADD MLOAD PUSH1 0xA0 DUP7 ADD MLOAD PUSH1 0xC0 DUP8 ADD MLOAD PUSH1 0xE0 DUP9 ADD MLOAD PUSH2 0x100 DUP10 ADD MLOAD PUSH2 0x120 DUP11 ADD MLOAD PUSH2 0x140 SWAP1 SWAP11 ADD MLOAD SWAP9 SWAP10 SWAP8 SWAP9 SWAP7 SWAP8 SWAP6 SWAP7 SWAP5 SWAP6 SWAP4 SWAP5 SWAP3 SWAP4 SWAP2 SWAP3 SWAP1 SWAP2 SWAP1 PUSH1 0x0 PUSH3 0x90 PUSH3 0x578 JUMP JUMPDEST PUSH1 0x0 DUP1 SLOAD PUSH1 0x1 PUSH1 0x1 PUSH1 0xA0 SHL SUB NOT AND PUSH1 0x1 PUSH1 0x1 PUSH1 0xA0 SHL SUB DUP4 AND SWAP1 DUP2 OR DUP3 SSTORE PUSH1 0x40 MLOAD SWAP3 SWAP4 POP SWAP2 PUSH32 0x8BE0079C531659141344CD1FD0A4F28419497F9722A3DAAFE3B4186F6B6457E0 SWAP1 DUP3 SWAP1 LOG3 POP PUSH1 0x1 DUP1 DUP2 SWAP1 SSTORE POP DUP11 PUSH1 0xC PUSH1 0x0 PUSH2 0x100 EXP DUP2 SLOAD DUP2 PUSH1 0x1 PUSH1 0x1 PUSH1 0xA0 SHL SUB MUL NOT AND SWAP1 DUP4 PUSH1 0x1 PUSH1 0x1 PUSH1 0xA0 SHL SUB AND MUL OR SWAP1 SSTORE POP DUP5 PUSH1 0x1 PUSH1 0x1 PUSH1 0xA0 SHL SUB AND PUSH4 0xAD5C4648 PUSH1 0x40 MLOAD DUP2 PUSH4 0xFFFFFFFF AND PUSH1 0xE0 SHL DUP2 MSTORE PUSH1 0x4 ADD PUSH1 0x20 PUSH1 0x40 MLOAD DUP1 DUP4 SUB DUP2 DUP7 DUP1 EXTCODESIZE ISZERO DUP1 ISZERO PUSH3 0x142 JUMPI PUSH1 0x0 DUP1 REVERT JUMPDEST POP GAS STATICCALL ISZERO DUP1 ISZERO PUSH3 0x157 JUMPI RETURNDATASIZE PUSH1 0x0 DUP1 RETURNDATACOPY RETURNDATASIZE PUSH1 0x0 REVERT JUMPDEST POP POP POP POP PUSH1 0x40 MLOAD RETURNDATASIZE PUSH1 0x20 DUP2 LT ISZERO PUSH3 0x16E JUMPI PUSH1 0x0 DUP1 REVERT JUMPDEST POP MLOAD PUSH1 0x9 DUP1 SLOAD PUSH1 0x1 PUSH1 0x1 PUSH1 0xA0 SHL SUB NOT SWAP1 DUP2 AND PUSH1 0x1 PUSH1 0x1 PUSH1 0xA0 SHL SUB SWAP4 DUP5 AND OR SWAP1 SWAP2 SSTORE PUSH1 0x2 DUP1 SLOAD DUP3 AND DUP14 DUP5 AND OR SWAP1 SSTORE PUSH1 0x3 DUP12 SWAP1 SSTORE PUSH1 0x4 DUP1 SLOAD DUP3 AND DUP12 DUP5 AND OR DUP2 SSTORE PUSH1 0x5 DUP1 SLOAD DUP4 AND DUP12 DUP6 AND OR SWAP1 SSTORE PUSH1 0x6 DUP10 SWAP1 SSTORE PUSH1 0x8 DUP1 SLOAD SWAP1 SWAP3 AND DUP8 DUP5 AND OR SWAP1 SWAP2 SSTORE PUSH1 0x40 DUP1 MLOAD PUSH4 0xC45A0155 PUSH1 0xE0 SHL DUP2 MSTORE SWAP1 MLOAD PUSH1 0x0 SWAP4 DUP10 AND SWAP3 PUSH4 0xC45A0155 SWAP3 DUP1 DUP3 ADD SWAP3 PUSH1 0x20 SWAP3 SWAP1 SWAP2 DUP3 SWAP1 SUB ADD DUP2 DUP7 DUP1 EXTCODESIZE ISZERO DUP1 ISZERO PUSH3 0x205 JUMPI PUSH1 0x0 DUP1 REVERT JUMPDEST POP GAS STATICCALL ISZERO DUP1 ISZERO PUSH3 0x21A JUMPI RETURNDATASIZE PUSH1 0x0 DUP1 RETURNDATACOPY RETURNDATASIZE PUSH1 0x0 REVERT JUMPDEST POP POP POP POP PUSH1 0x40 MLOAD RETURNDATASIZE PUSH1 0x20 DUP2 LT ISZERO PUSH3 0x231 JUMPI PUSH1 0x0 DUP1 REVERT JUMPDEST POP MLOAD SWAP1 POP PUSH1 0x1 PUSH1 0x1 PUSH1 0xA0 SHL SUB DUP5 AND ISZERO PUSH3 0x24C JUMPI DUP4 PUSH3 0x259 JUMP JUMPDEST PUSH1 0x9 SLOAD PUSH1 0x1 PUSH1 0x1 PUSH1 0xA0 SHL SUB AND JUMPDEST SWAP4 POP PUSH1 0x1 PUSH1 0x1 PUSH1 0xA0 SHL SUB DUP4 AND ISZERO PUSH3 0x272 JUMPI DUP3 PUSH3 0x27F JUMP JUMPDEST PUSH1 0x9 SLOAD PUSH1 0x1 PUSH1 0x1 PUSH1 0xA0 SHL SUB AND JUMPDEST SWAP3 POP DUP1 PUSH1 0x1 PUSH1 0x1 PUSH1 0xA0 SHL SUB AND PUSH4 0xE6A43905 DUP6 DUP6 PUSH1 0x40 MLOAD DUP4 PUSH4 0xFFFFFFFF AND PUSH1 0xE0 SHL DUP2 MSTORE PUSH1 0x4 ADD DUP1 DUP4 PUSH1 0x1 PUSH1 0x1 PUSH1 0xA0 SHL SUB AND DUP2 MSTORE PUSH1 0x20 ADD DUP3 PUSH1 0x1 PUSH1 0x1 PUSH1 0xA0 SHL SUB AND DUP2 MSTORE PUSH1 0x20 ADD SWAP3 POP POP POP PUSH1 0x20 PUSH1 0x40 MLOAD DUP1 DUP4 SUB DUP2 DUP7 DUP1 EXTCODESIZE ISZERO DUP1 ISZERO PUSH3 0x2E0 JUMPI PUSH1 0x0 DUP1 REVERT JUMPDEST POP GAS STATICCALL ISZERO DUP1 ISZERO PUSH3 0x2F5 JUMPI RETURNDATASIZE PUSH1 0x0 DUP1 RETURNDATACOPY RETURNDATASIZE PUSH1 0x0 REVERT JUMPDEST POP POP POP POP PUSH1 0x40 MLOAD RETURNDATASIZE PUSH1 0x20 DUP2 LT ISZERO PUSH3 0x30C JUMPI PUSH1 0x0 DUP1 REVERT JUMPDEST POP MLOAD PUSH1 0x7 DUP1 SLOAD PUSH1 0x1 PUSH1 0x1 PUSH1 0xA0 SHL SUB NOT AND PUSH1 0x1 PUSH1 0x1 PUSH1 0xA0 SHL SUB SWAP3 DUP4 AND OR SWAP1 DUP2 SWAP1 SSTORE AND PUSH3 0x36F JUMPI PUSH1 0x40 DUP1 MLOAD PUSH3 0x461BCD PUSH1 0xE5 SHL DUP2 MSTORE PUSH1 0x20 PUSH1 0x4 DUP3 ADD MSTORE PUSH1 0xD PUSH1 0x24 DUP3 ADD MSTORE PUSH13 0x14185A5C881B9BDD08195E1A5D PUSH1 0x9A SHL PUSH1 0x44 DUP3 ADD MSTORE SWAP1 MLOAD SWAP1 DUP2 SWAP1 SUB PUSH1 0x64 ADD SWAP1 REVERT JUMPDEST PUSH1 0x7 PUSH1 0x0 SWAP1 SLOAD SWAP1 PUSH2 0x100 EXP SWAP1 DIV PUSH1 0x1 PUSH1 0x1 PUSH1 0xA0 SHL SUB AND PUSH1 0x1 PUSH1 0x1 PUSH1 0xA0 SHL SUB AND PUSH4 0xDFE1681 PUSH1 0x40 MLOAD DUP2 PUSH4 0xFFFFFFFF AND PUSH1 0xE0 SHL DUP2 MSTORE PUSH1 0x4 ADD PUSH1 0x20 PUSH1 0x40 MLOAD DUP1 DUP4 SUB DUP2 DUP7 DUP1 EXTCODESIZE ISZERO DUP1 ISZERO PUSH3 0x3BE JUMPI PUSH1 0x0 DUP1 REVERT JUMPDEST POP GAS STATICCALL ISZERO DUP1 ISZERO PUSH3 0x3D3 JUMPI RETURNDATASIZE PUSH1 0x0 DUP1 RETURNDATACOPY RETURNDATASIZE PUSH1 0x0 REVERT JUMPDEST POP POP POP POP PUSH1 0x40 MLOAD RETURNDATASIZE PUSH1 0x20 DUP2 LT ISZERO PUSH3 0x3EA JUMPI PUSH1 0x0 DUP1 REVERT JUMPDEST POP MLOAD PUSH1 0xA DUP1 SLOAD PUSH1 0x1 PUSH1 0x1 PUSH1 0xA0 SHL SUB NOT AND PUSH1 0x1 PUSH1 0x1 PUSH1 0xA0 SHL SUB SWAP3 DUP4 AND OR SWAP1 SSTORE PUSH1 0x7 SLOAD PUSH1 0x40 DUP1 MLOAD PUSH4 0xD21220A7 PUSH1 0xE0 SHL DUP2 MSTORE SWAP1 MLOAD SWAP2 SWAP1 SWAP3 AND SWAP2 PUSH4 0xD21220A7 SWAP2 PUSH1 0x4 DUP1 DUP4 ADD SWAP3 PUSH1 0x20 SWAP3 SWAP2 SWAP1 DUP3 SWAP1 SUB ADD DUP2 DUP7 DUP1 EXTCODESIZE ISZERO DUP1 ISZERO PUSH3 0x446 JUMPI PUSH1 0x0 DUP1 REVERT JUMPDEST POP GAS STATICCALL ISZERO DUP1 ISZERO PUSH3 0x45B JUMPI RETURNDATASIZE PUSH1 0x0 DUP1 RETURNDATACOPY RETURNDATASIZE PUSH1 0x0 REVERT JUMPDEST POP POP POP POP PUSH1 0x40 MLOAD RETURNDATASIZE PUSH1 0x20 DUP2 LT ISZERO PUSH3 0x472 JUMPI PUSH1 0x0 DUP1 REVERT JUMPDEST POP MLOAD PUSH1 0xB DUP1 SLOAD PUSH1 0x1 PUSH1 0x1 PUSH1 0xA0 SHL SUB NOT SWAP1 DUP2 AND PUSH1 0x1 PUSH1 0x1 PUSH1 0xA0 SHL SUB SWAP4 DUP5 AND OR SWAP1 SWAP2 SSTORE PUSH1 0x15 DUP1 SLOAD SWAP1 SWAP2 AND DUP5 DUP4 AND OR SWAP1 DUP2 SWAP1 SSTORE DUP2 AND PUSH1 0x0 SWAP1 DUP2 MSTORE PUSH1 0x14 PUSH1 0x20 SWAP1 DUP2 MSTORE PUSH1 0x40 DUP1 DUP4 KECCAK256 DUP1 SLOAD PUSH1 0xFF NOT AND PUSH1 0x1 OR SWAP1 SSTORE PUSH1 0x7 SLOAD PUSH1 0x5 SLOAD DUP3 MLOAD PUSH4 0x95EA7B3 PUSH1 0xE0 SHL DUP2 MSTORE SWAP1 DUP7 AND PUSH1 0x4 DUP3 ADD MSTORE PUSH1 0x0 NOT PUSH1 0x24 DUP3 ADD MSTORE SWAP2 MLOAD SWAP5 AND SWAP4 PUSH4 0x95EA7B3 SWAP4 PUSH1 0x44 DUP1 DUP5 ADD SWAP5 SWAP4 DUP4 SWAP1 SUB ADD SWAP1 DUP3 SWAP1 DUP8 DUP1 EXTCODESIZE ISZERO DUP1 ISZERO PUSH3 0x50B JUMPI PUSH1 0x0 DUP1 REVERT JUMPDEST POP GAS CALL ISZERO DUP1 ISZERO PUSH3 0x520 JUMPI RETURNDATASIZE PUSH1 0x0 DUP1 RETURNDATACOPY RETURNDATASIZE PUSH1 0x0 REVERT JUMPDEST POP POP POP POP PUSH1 0x40 MLOAD RETURNDATASIZE PUSH1 0x20 DUP2 LT ISZERO PUSH3 0x537 JUMPI PUSH1 0x0 DUP1 REVERT JUMPDEST POP POP PUSH1 0x4 SLOAD PUSH1 0x8 SLOAD PUSH3 0x566 SWAP2 PUSH1 0x1 PUSH1 0x1 PUSH1 0xA0 SHL SUB SWAP2 DUP3 AND SWAP2 AND PUSH1 0x0 NOT PUSH3 0x57C PUSH1 0x20 SWAP1 DUP2 SHL PUSH3 0x2E93 OR SWAP1 SHR JUMP JUMPDEST POP POP POP POP POP POP POP POP POP POP POP POP PUSH3 0x6DD JUMP JUMPDEST CALLER SWAP1 JUMP JUMPDEST PUSH1 0x40 DUP1 MLOAD PUSH1 0x1 PUSH1 0x1 PUSH1 0xA0 SHL SUB DUP5 DUP2 AND PUSH1 0x24 DUP4 ADD MSTORE PUSH1 0x44 DUP1 DUP4 ADD DUP6 SWAP1 MSTORE DUP4 MLOAD DUP1 DUP5 SUB SWAP1 SWAP2 ADD DUP2 MSTORE PUSH1 0x64 SWAP1 SWAP3 ADD DUP4 MSTORE PUSH1 0x20 DUP3 ADD DUP1 MLOAD PUSH1 0x1 PUSH1 0x1 PUSH1 0xE0 SHL SUB AND PUSH4 0x95EA7B3 PUSH1 0xE0 SHL OR DUP2 MSTORE SWAP3 MLOAD DUP3 MLOAD PUSH1 0x0 SWAP5 PUSH1 0x60 SWAP5 SWAP4 DUP10 AND SWAP4 SWAP3 SWAP2 DUP3 SWAP2 SWAP1 DUP1 DUP4 DUP4 JUMPDEST PUSH1 0x20 DUP4 LT PUSH3 0x5FB JUMPI DUP1 MLOAD DUP3 MSTORE PUSH1 0x1F NOT SWAP1 SWAP3 ADD SWAP2 PUSH1 0x20 SWAP2 DUP3 ADD SWAP2 ADD PUSH3 0x5DA JUMP JUMPDEST PUSH1 0x1 DUP4 PUSH1 0x20 SUB PUSH2 0x100 EXP SUB DUP1 NOT DUP3 MLOAD AND DUP2 DUP5 MLOAD AND DUP1 DUP3 OR DUP6 MSTORE POP POP POP POP POP POP SWAP1 POP ADD SWAP2 POP POP PUSH1 0x0 PUSH1 0x40 MLOAD DUP1 DUP4 SUB DUP2 PUSH1 0x0 DUP7 GAS CALL SWAP2 POP POP RETURNDATASIZE DUP1 PUSH1 0x0 DUP2 EQ PUSH3 0x65F JUMPI PUSH1 0x40 MLOAD SWAP2 POP PUSH1 0x1F NOT PUSH1 0x3F RETURNDATASIZE ADD AND DUP3 ADD PUSH1 0x40 MSTORE RETURNDATASIZE DUP3 MSTORE RETURNDATASIZE PUSH1 0x0 PUSH1 0x20 DUP5 ADD RETURNDATACOPY PUSH3 0x664 JUMP JUMPDEST PUSH1 0x60 SWAP2 POP JUMPDEST POP SWAP2 POP SWAP2 POP DUP2 DUP1 ISZERO PUSH3 0x695 JUMPI POP DUP1 MLOAD ISZERO DUP1 PUSH3 0x695 JUMPI POP DUP1 DUP1 PUSH1 0x20 ADD SWAP1 MLOAD PUSH1 0x20 DUP2 LT ISZERO PUSH3 0x692 JUMPI PUSH1 0x0 DUP1 REVERT JUMPDEST POP MLOAD JUMPDEST PUSH3 0x6D6 JUMPI PUSH1 0x40 DUP1 MLOAD PUSH3 0x461BCD PUSH1 0xE5 SHL DUP2 MSTORE PUSH1 0x20 PUSH1 0x4 DUP3 ADD MSTORE PUSH1 0xC PUSH1 0x24 DUP3 ADD MSTORE PUSH12 0x2173616665417070726F7665 PUSH1 0xA0 SHL PUSH1 0x44 DUP3 ADD MSTORE SWAP1 MLOAD SWAP1 DUP2 SWAP1 SUB PUSH1 0x64 ADD SWAP1 REVERT JUMPDEST POP POP POP POP POP JUMP JUMPDEST PUSH2 0x3CED DUP1 PUSH3 0x6ED PUSH1 0x0 CODECOPY PUSH1 0x0 RETURN INVALID PUSH1 0x80 PUSH1 0x40 MSTORE PUSH1 0x4 CALLDATASIZE LT PUSH2 0x1F2 JUMPI PUSH1 0x0 CALLDATALOAD PUSH1 0xE0 SHR DUP1 PUSH4 0x785629B8 GT PUSH2 0x10D JUMPI DUP1 PUSH4 0xE7956F21 GT PUSH2 0xA0 JUMPI DUP1 PUSH4 0xF204B9C5 GT PUSH2 0x6F JUMPI DUP1 PUSH4 0xF204B9C5 EQ PUSH2 0x710 JUMPI DUP1 PUSH4 0xF2FDE38B EQ PUSH2 0x73A JUMPI DUP1 PUSH4 0xF88ACF8C EQ PUSH2 0x76D JUMPI DUP1 PUSH4 0xFE05CDEA EQ PUSH2 0x7A0 JUMPI DUP1 PUSH4 0xFF43F9E7 EQ PUSH2 0x7D0 JUMPI PUSH2 0x1F9 JUMP JUMPDEST DUP1 PUSH4 0xE7956F21 EQ PUSH2 0x652 JUMPI DUP1 PUSH4 0xEA3EC12D EQ PUSH2 0x6D1 JUMPI DUP1 PUSH4 0xF04B5FA0 EQ PUSH2 0x6E6 JUMPI DUP1 PUSH4 0xF128B5F4 EQ PUSH2 0x6FB JUMPI PUSH2 0x1F9 JUMP JUMPDEST DUP1 PUSH4 0xD02EB3F4 GT PUSH2 0xDC JUMPI DUP1 PUSH4 0xD02EB3F4 EQ PUSH2 0x5DD JUMPI DUP1 PUSH4 0xD21220A7 EQ PUSH2 0x5F2 JUMPI DUP1 PUSH4 0xD75734C8 EQ PUSH2 0x607 JUMPI DUP1 PUSH4 0xDCE17484 EQ PUSH2 0x63D JUMPI PUSH2 0x1F9 JUMP JUMPDEST DUP1 PUSH4 0x785629B8 EQ PUSH2 0x4E5 JUMPI DUP1 PUSH4 0x8046326E EQ PUSH2 0x4FA JUMPI DUP1 PUSH4 0x8DA5CB5B EQ PUSH2 0x530 JUMPI DUP1 PUSH4 0xC186C29B EQ PUSH2 0x545 JUMPI PUSH2 0x1F9 JUMP JUMPDEST DUP1 PUSH4 0x3E0DC34E GT PUSH2 0x185 JUMPI DUP1 PUSH4 0x5FCBD285 GT PUSH2 0x154 JUMPI DUP1 PUSH4 0x5FCBD285 EQ PUSH2 0x45F JUMPI DUP1 PUSH4 0x715018A6 EQ PUSH2 0x474 JUMPI DUP1 PUSH4 0x7637B237 EQ PUSH2 0x489 JUMPI DUP1 PUSH4 0x7697F368 EQ PUSH2 0x4D0 JUMPI PUSH2 0x1F9 JUMP JUMPDEST DUP1 PUSH4 0x3E0DC34E EQ PUSH2 0x3B5 JUMPI DUP1 PUSH4 0x570CA735 EQ PUSH2 0x3CA JUMPI DUP1 PUSH4 0x57DD5650 EQ PUSH2 0x3DF JUMPI DUP1 PUSH4 0x5931C793 EQ PUSH2 0x413 JUMPI PUSH2 0x1F9 JUMP JUMPDEST DUP1 PUSH4 0x1EC82CB8 GT PUSH2 0x1C1 JUMPI DUP1 PUSH4 0x1EC82CB8 EQ PUSH2 0x2E5 JUMPI DUP1 PUSH4 0x2BD417D9 EQ PUSH2 0x32A JUMPI DUP1 PUSH4 0x362A3FAD EQ PUSH2 0x36D JUMPI DUP1 PUSH4 0x36E9332D EQ PUSH2 0x3A0 JUMPI PUSH2 0x1F9 JUMP JUMPDEST DUP1 PUSH4 0xDFE1681 EQ PUSH2 0x1FE JUMPI DUP1 PUSH4 0xE15561A EQ PUSH2 0x22F JUMPI DUP1 PUSH4 0x17FC3AC7 EQ PUSH2 0x256 JUMPI DUP1 PUSH4 0x1959A002 EQ PUSH2 0x28C JUMPI PUSH2 0x1F9 JUMP JUMPDEST CALLDATASIZE PUSH2 0x1F9 JUMPI STOP JUMPDEST PUSH1 0x0 DUP1 REVERT JUMPDEST CALLVALUE DUP1 ISZERO PUSH2 0x20A JUMPI PUSH1 0x0 DUP1 REVERT JUMPDEST POP PUSH2 0x213 PUSH2 0x83F JUMP JUMPDEST PUSH1 0x40 DUP1 MLOAD PUSH1 0x1 PUSH1 0x1 PUSH1 0xA0 SHL SUB SWAP1 SWAP3 AND DUP3 MSTORE MLOAD SWAP1 DUP2 SWAP1 SUB PUSH1 0x20 ADD SWAP1 RETURN JUMPDEST CALLVALUE DUP1 ISZERO PUSH2 0x23B JUMPI PUSH1 0x0 DUP1 REVERT JUMPDEST POP PUSH2 0x244 PUSH2 0x84E JUMP JUMPDEST PUSH1 0x40 DUP1 MLOAD SWAP2 DUP3 MSTORE MLOAD SWAP1 DUP2 SWAP1 SUB PUSH1 0x20 ADD SWAP1 RETURN JUMPDEST CALLVALUE DUP1 ISZERO PUSH2 0x262 JUMPI PUSH1 0x0 DUP1 REVERT JUMPDEST POP PUSH2 0x244 PUSH1 0x4 DUP1 CALLDATASIZE SUB PUSH1 0x60 DUP2 LT ISZERO PUSH2 0x279 JUMPI PUSH1 0x0 DUP1 REVERT JUMPDEST POP DUP1 CALLDATALOAD SWAP1 PUSH1 0x20 DUP2 ADD CALLDATALOAD SWAP1 PUSH1 0x40 ADD CALLDATALOAD PUSH2 0x961 JUMP JUMPDEST CALLVALUE DUP1 ISZERO PUSH2 0x298 JUMPI PUSH1 0x0 DUP1 REVERT JUMPDEST POP PUSH2 0x2BF PUSH1 0x4 DUP1 CALLDATASIZE SUB PUSH1 0x20 DUP2 LT ISZERO PUSH2 0x2AF JUMPI PUSH1 0x0 DUP1 REVERT JUMPDEST POP CALLDATALOAD PUSH1 0x1 PUSH1 0x1 PUSH1 0xA0 SHL SUB AND PUSH2 0xA47 JUMP JUMPDEST PUSH1 0x40 DUP1 MLOAD SWAP5 DUP6 MSTORE PUSH1 0x20 DUP6 ADD SWAP4 SWAP1 SWAP4 MSTORE DUP4 DUP4 ADD SWAP2 SWAP1 SWAP2 MSTORE PUSH1 0x60 DUP4 ADD MSTORE MLOAD SWAP1 DUP2 SWAP1 SUB PUSH1 0x80 ADD SWAP1 RETURN JUMPDEST CALLVALUE DUP1 ISZERO PUSH2 0x2F1 JUMPI PUSH1 0x0 DUP1 REVERT JUMPDEST POP PUSH2 0x328 PUSH1 0x4 DUP1 CALLDATASIZE SUB PUSH1 0x60 DUP2 LT ISZERO PUSH2 0x308 JUMPI PUSH1 0x0 DUP1 REVERT JUMPDEST POP PUSH1 0x1 PUSH1 0x1 PUSH1 0xA0 SHL SUB DUP2 CALLDATALOAD DUP2 AND SWAP2 PUSH1 0x20 DUP2 ADD CALLDATALOAD SWAP1 SWAP2 AND SWAP1 PUSH1 0x40 ADD CALLDATALOAD PUSH2 0xA6E JUMP JUMPDEST STOP JUMPDEST CALLVALUE DUP1 ISZERO PUSH2 0x336 JUMPI PUSH1 0x0 DUP1 REVERT JUMPDEST POP PUSH2 0x328 PUSH1 0x4 DUP1 CALLDATASIZE SUB PUSH1 0xC0 DUP2 LT ISZERO PUSH2 0x34D JUMPI PUSH1 0x0 DUP1 REVERT JUMPDEST POP DUP1 CALLDATALOAD SWAP1 PUSH1 0x1 PUSH1 0x1 PUSH1 0xA0 SHL SUB PUSH1 0x20 DUP3 ADD CALLDATALOAD AND SWAP1 PUSH1 0x40 DUP2 ADD SWAP1 PUSH1 0x80 ADD PUSH2 0xB40 JUMP JUMPDEST CALLVALUE DUP1 ISZERO PUSH2 0x379 JUMPI PUSH1 0x0 DUP1 REVERT JUMPDEST POP PUSH2 0x328 PUSH1 0x4 DUP1 CALLDATASIZE SUB PUSH1 0x20 DUP2 LT ISZERO PUSH2 0x390 JUMPI PUSH1 0x0 DUP1 REVERT JUMPDEST POP CALLDATALOAD PUSH1 0x1 PUSH1 0x1 PUSH1 0xA0 SHL SUB AND PUSH2 0x13B9 JUMP JUMPDEST CALLVALUE DUP1 ISZERO PUSH2 0x3AC JUMPI PUSH1 0x0 DUP1 REVERT JUMPDEST POP PUSH2 0x213 PUSH2 0x156C JUMP JUMPDEST CALLVALUE DUP1 ISZERO PUSH2 0x3C1 JUMPI PUSH1 0x0 DUP1 REVERT JUMPDEST POP PUSH2 0x244 PUSH2 0x157B JUMP JUMPDEST CALLVALUE DUP1 ISZERO PUSH2 0x3D6 JUMPI PUSH1 0x0 DUP1 REVERT JUMPDEST POP PUSH2 0x213 PUSH2 0x1581 JUMP JUMPDEST CALLVALUE DUP1 ISZERO PUSH2 0x3EB JUMPI PUSH1 0x0 DUP1 REVERT JUMPDEST POP PUSH2 0x244 PUSH1 0x4 DUP1 CALLDATASIZE SUB PUSH1 0xA0 DUP2 LT ISZERO PUSH2 0x402 JUMPI PUSH1 0x0 DUP1 REVERT JUMPDEST POP DUP1 CALLDATALOAD SWAP1 PUSH1 0x20 DUP2 ADD SWAP1 PUSH1 0x60 ADD PUSH2 0x1590 JUMP JUMPDEST CALLVALUE DUP1 ISZERO PUSH2 0x41F JUMPI PUSH1 0x0 DUP1 REVERT JUMPDEST POP PUSH2 0x446 PUSH1 0x4 DUP1 CALLDATASIZE SUB PUSH1 0x20 DUP2 LT ISZERO PUSH2 0x436 JUMPI PUSH1 0x0 DUP1 REVERT JUMPDEST POP CALLDATALOAD PUSH1 0x1 PUSH1 0x1 PUSH1 0xA0 SHL SUB AND PUSH2 0x18BE JUMP JUMPDEST PUSH1 0x40 DUP1 MLOAD SWAP3 DUP4 MSTORE PUSH1 0x20 DUP4 ADD SWAP2 SWAP1 SWAP2 MSTORE DUP1 MLOAD SWAP2 DUP3 SWAP1 SUB ADD SWAP1 RETURN JUMPDEST CALLVALUE DUP1 ISZERO PUSH2 0x46B JUMPI PUSH1 0x0 DUP1 REVERT JUMPDEST POP PUSH2 0x213 PUSH2 0x19A1 JUMP JUMPDEST CALLVALUE DUP1 ISZERO PUSH2 0x480 JUMPI PUSH1 0x0 DUP1 REVERT JUMPDEST POP PUSH2 0x328 PUSH2 0x19B0 JUMP JUMPDEST CALLVALUE DUP1 ISZERO PUSH2 0x495 JUMPI PUSH1 0x0 DUP1 REVERT JUMPDEST POP PUSH2 0x4BC PUSH1 0x4 DUP1 CALLDATASIZE SUB PUSH1 0x20 DUP2 LT ISZERO PUSH2 0x4AC JUMPI PUSH1 0x0 DUP1 REVERT JUMPDEST POP CALLDATALOAD PUSH1 0x1 PUSH1 0x1 PUSH1 0xA0 SHL SUB AND PUSH2 0x1A52 JUMP JUMPDEST PUSH1 0x40 DUP1 MLOAD SWAP2 ISZERO ISZERO DUP3 MSTORE MLOAD SWAP1 DUP2 SWAP1 SUB PUSH1 0x20 ADD SWAP1 RETURN JUMPDEST CALLVALUE DUP1 ISZERO PUSH2 0x4DC JUMPI PUSH1 0x0 DUP1 REVERT JUMPDEST POP PUSH2 0x244 PUSH2 0x1A67 JUMP JUMPDEST CALLVALUE DUP1 ISZERO PUSH2 0x4F1 JUMPI PUSH1 0x0 DUP1 REVERT JUMPDEST POP PUSH2 0x213 PUSH2 0x1A6D JUMP JUMPDEST CALLVALUE DUP1 ISZERO PUSH2 0x506 JUMPI PUSH1 0x0 DUP1 REVERT JUMPDEST POP PUSH2 0x244 PUSH1 0x4 DUP1 CALLDATASIZE SUB PUSH1 0x60 DUP2 LT ISZERO PUSH2 0x51D JUMPI PUSH1 0x0 DUP1 REVERT JUMPDEST POP DUP1 CALLDATALOAD SWAP1 PUSH1 0x20 DUP2 ADD CALLDATALOAD SWAP1 PUSH1 0x40 ADD CALLDATALOAD PUSH2 0x1A7C JUMP JUMPDEST CALLVALUE DUP1 ISZERO PUSH2 0x53C JUMPI PUSH1 0x0 DUP1 REVERT JUMPDEST POP PUSH2 0x213 PUSH2 0x1AF7 JUMP JUMPDEST PUSH2 0x328 PUSH1 0x4 DUP1 CALLDATASIZE SUB PUSH2 0x120 DUP2 LT ISZERO PUSH2 0x55C JUMPI PUSH1 0x0 DUP1 REVERT JUMPDEST DUP2 CALLDATALOAD SWAP2 PUSH1 0x1 PUSH1 0x1 PUSH1 0xA0 SHL SUB PUSH1 0x20 DUP3 ADD CALLDATALOAD AND SWAP2 PUSH1 0x40 DUP3 ADD SWAP2 PUSH1 0x80 DUP2 ADD SWAP2 PUSH1 0xC0 DUP3 ADD SWAP2 SWAP1 DUP2 ADD SWAP1 PUSH2 0x120 DUP2 ADD PUSH2 0x100 DUP3 ADD CALLDATALOAD PUSH5 0x100000000 DUP2 GT ISZERO PUSH2 0x59E JUMPI PUSH1 0x0 DUP1 REVERT JUMPDEST DUP3 ADD DUP4 PUSH1 0x20 DUP3 ADD GT ISZERO PUSH2 0x5B0 JUMPI PUSH1 0x0 DUP1 REVERT JUMPDEST DUP1 CALLDATALOAD SWAP1 PUSH1 0x20 ADD SWAP2 DUP5 PUSH1 0x1 DUP4 MUL DUP5 ADD GT PUSH5 0x100000000 DUP4 GT OR ISZERO PUSH2 0x5D2 JUMPI PUSH1 0x0 DUP1 REVERT JUMPDEST POP SWAP1 SWAP3 POP SWAP1 POP PUSH2 0x1B06 JUMP JUMPDEST CALLVALUE DUP1 ISZERO PUSH2 0x5E9 JUMPI PUSH1 0x0 DUP1 REVERT JUMPDEST POP PUSH2 0x213 PUSH2 0x2752 JUMP JUMPDEST CALLVALUE DUP1 ISZERO PUSH2 0x5FE JUMPI PUSH1 0x0 DUP1 REVERT JUMPDEST POP PUSH2 0x213 PUSH2 0x2761 JUMP JUMPDEST CALLVALUE DUP1 ISZERO PUSH2 0x613 JUMPI PUSH1 0x0 DUP1 REVERT JUMPDEST POP PUSH2 0x244 PUSH1 0x4 DUP1 CALLDATASIZE SUB PUSH1 0x60 DUP2 LT ISZERO PUSH2 0x62A JUMPI PUSH1 0x0 DUP1 REVERT JUMPDEST POP DUP1 CALLDATALOAD SWAP1 PUSH1 0x20 DUP2 ADD CALLDATALOAD SWAP1 PUSH1 0x40 ADD CALLDATALOAD PUSH2 0x2770 JUMP JUMPDEST CALLVALUE DUP1 ISZERO PUSH2 0x649 JUMPI PUSH1 0x0 DUP1 REVERT JUMPDEST POP PUSH2 0x213 PUSH2 0x281C JUMP JUMPDEST CALLVALUE DUP1 ISZERO PUSH2 0x65E JUMPI PUSH1 0x0 DUP1 REVERT JUMPDEST POP PUSH2 0x328 PUSH1 0x4 DUP1 CALLDATASIZE SUB PUSH1 0x40 DUP2 LT ISZERO PUSH2 0x675 JUMPI PUSH1 0x0 DUP1 REVERT JUMPDEST DUP2 ADD SWAP1 PUSH1 0x20 DUP2 ADD DUP2 CALLDATALOAD PUSH5 0x100000000 DUP2 GT ISZERO PUSH2 0x690 JUMPI PUSH1 0x0 DUP1 REVERT JUMPDEST DUP3 ADD DUP4 PUSH1 0x20 DUP3 ADD GT ISZERO PUSH2 0x6A2 JUMPI PUSH1 0x0 DUP1 REVERT JUMPDEST DUP1 CALLDATALOAD SWAP1 PUSH1 0x20 ADD SWAP2 DUP5 PUSH1 0x20 DUP4 MUL DUP5 ADD GT PUSH5 0x100000000 DUP4 GT OR ISZERO PUSH2 0x6C4 JUMPI PUSH1 0x0 DUP1 REVERT JUMPDEST SWAP2 SWAP4 POP SWAP2 POP CALLDATALOAD ISZERO ISZERO PUSH2 0x282B JUMP JUMPDEST CALLVALUE DUP1 ISZERO PUSH2 0x6DD JUMPI PUSH1 0x0 DUP1 REVERT JUMPDEST POP PUSH2 0x213 PUSH2 0x28E0 JUMP JUMPDEST CALLVALUE DUP1 ISZERO PUSH2 0x6F2 JUMPI PUSH1 0x0 DUP1 REVERT JUMPDEST POP PUSH2 0x2BF PUSH2 0x28EF JUMP JUMPDEST CALLVALUE DUP1 ISZERO PUSH2 0x707 JUMPI PUSH1 0x0 DUP1 REVERT JUMPDEST POP PUSH2 0x244 PUSH2 0x28FE JUMP JUMPDEST CALLVALUE DUP1 ISZERO PUSH2 0x71C JUMPI PUSH1 0x0 DUP1 REVERT JUMPDEST POP PUSH2 0x244 PUSH1 0x4 DUP1 CALLDATASIZE SUB PUSH1 0x20 DUP2 LT ISZERO PUSH2 0x733 JUMPI PUSH1 0x0 DUP1 REVERT JUMPDEST POP CALLDATALOAD PUSH2 0x2948 JUMP JUMPDEST CALLVALUE DUP1 ISZERO PUSH2 0x746 JUMPI PUSH1 0x0 DUP1 REVERT JUMPDEST POP PUSH2 0x328 PUSH1 0x4 DUP1 CALLDATASIZE SUB PUSH1 0x20 DUP2 LT ISZERO PUSH2 0x75D JUMPI PUSH1 0x0 DUP1 REVERT JUMPDEST POP CALLDATALOAD PUSH1 0x1 PUSH1 0x1 PUSH1 0xA0 SHL SUB AND PUSH2 0x295A JUMP JUMPDEST CALLVALUE DUP1 ISZERO PUSH2 0x779 JUMPI PUSH1 0x0 DUP1 REVERT JUMPDEST POP PUSH2 0x328 PUSH1 0x4 DUP1 CALLDATASIZE SUB PUSH1 0x20 DUP2 LT ISZERO PUSH2 0x790 JUMPI PUSH1 0x0 DUP1 REVERT JUMPDEST POP CALLDATALOAD PUSH1 0x1 PUSH1 0x1 PUSH1 0xA0 SHL SUB AND PUSH2 0x2A52 JUMP JUMPDEST CALLVALUE DUP1 ISZERO PUSH2 0x7AC JUMPI PUSH1 0x0 DUP1 REVERT JUMPDEST POP PUSH2 0x244 PUSH1 0x4 DUP1 CALLDATASIZE SUB PUSH1 0x40 DUP2 LT ISZERO PUSH2 0x7C3 JUMPI PUSH1 0x0 DUP1 REVERT JUMPDEST POP DUP1 CALLDATALOAD SWAP1 PUSH1 0x20 ADD CALLDATALOAD PUSH2 0x2ACC JUMP JUMPDEST CALLVALUE DUP1 ISZERO PUSH2 0x7DC JUMPI PUSH1 0x0 DUP1 REVERT JUMPDEST POP PUSH2 0x804 PUSH1 0x4 DUP1 CALLDATASIZE SUB PUSH1 0xA0 DUP2 LT ISZERO PUSH2 0x7F3 JUMPI PUSH1 0x0 DUP1 REVERT JUMPDEST POP DUP1 CALLDATALOAD SWAP1 PUSH1 0x20 DUP2 ADD SWAP1 PUSH1 0x60 ADD PUSH2 0x2AEE JUMP JUMPDEST PUSH1 0x40 MLOAD DUP1 DUP3 PUSH1 0x2 PUSH1 0x20 MUL DUP1 DUP4 DUP4 PUSH1 0x0 JUMPDEST DUP4 DUP2 LT ISZERO PUSH2 0x82C JUMPI DUP2 DUP2 ADD MLOAD DUP4 DUP3 ADD MSTORE PUSH1 0x20 ADD PUSH2 0x814 JUMP JUMPDEST POP POP POP POP SWAP1 POP ADD SWAP2 POP POP PUSH1 0x40 MLOAD DUP1 SWAP2 SUB SWAP1 RETURN JUMPDEST PUSH1 0xA SLOAD PUSH1 0x1 PUSH1 0x1 PUSH1 0xA0 SHL SUB AND DUP2 JUMP JUMPDEST PUSH1 0x5 SLOAD PUSH1 0x6 SLOAD PUSH1 0x40 DUP1 MLOAD PUSH4 0x1175A1DD PUSH1 0xE0 SHL DUP2 MSTORE PUSH1 0x4 DUP2 ADD SWAP3 SWAP1 SWAP3 MSTORE ADDRESS PUSH1 0x24 DUP4 ADD MSTORE MLOAD PUSH1 0x0 SWAP3 DUP4 SWAP3 PUSH1 0x1 PUSH1 0x1 PUSH1 0xA0 SHL SUB SWAP1 SWAP2 AND SWAP2 PUSH4 0x1175A1DD SWAP2 PUSH1 0x44 DUP1 DUP3 ADD SWAP3 PUSH1 0x20 SWAP3 SWAP1 SWAP2 SWAP1 DUP3 SWAP1 SUB ADD DUP2 DUP7 DUP1 EXTCODESIZE ISZERO DUP1 ISZERO PUSH2 0x8A8 JUMPI PUSH1 0x0 DUP1 REVERT JUMPDEST POP GAS STATICCALL ISZERO DUP1 ISZERO PUSH2 0x8BC JUMPI RETURNDATASIZE PUSH1 0x0 DUP1 RETURNDATACOPY RETURNDATASIZE PUSH1 0x0 REVERT JUMPDEST POP POP POP POP PUSH1 0x40 MLOAD RETURNDATASIZE PUSH1 0x20 DUP2 LT ISZERO PUSH2 0x8D2 JUMPI PUSH1 0x0 DUP1 REVERT JUMPDEST POP MLOAD PUSH1 0x4 DUP1 SLOAD PUSH1 0x40 DUP1 MLOAD PUSH4 0x5931C793 PUSH1 0xE0 SHL DUP2 MSTORE ADDRESS SWAP4 DUP2 ADD SWAP4 SWAP1 SWAP4 MSTORE MLOAD SWAP3 SWAP4 POP PUSH2 0x95A SWAP3 PUSH1 0x1 PUSH1 0x1 PUSH1 0xA0 SHL SUB SWAP1 SWAP2 AND SWAP2 PUSH4 0x5931C793 SWAP2 PUSH1 0x24 DUP1 DUP4 ADD SWAP3 PUSH1 0x20 SWAP3 SWAP2 SWAP1 DUP3 SWAP1 SUB ADD DUP2 DUP7 DUP1 EXTCODESIZE ISZERO DUP1 ISZERO PUSH2 0x927 JUMPI PUSH1 0x0 DUP1 REVERT JUMPDEST POP GAS STATICCALL ISZERO DUP1 ISZERO PUSH2 0x93B JUMPI RETURNDATASIZE PUSH1 0x0 DUP1 RETURNDATACOPY RETURNDATASIZE PUSH1 0x0 REVERT JUMPDEST POP POP POP POP PUSH1 0x40 MLOAD RETURNDATASIZE PUSH1 0x20 DUP2 LT ISZERO PUSH2 0x951 JUMPI PUSH1 0x0 DUP1 REVERT JUMPDEST POP MLOAD DUP3 SWAP1 PUSH2 0x2FE5 JUMP JUMPDEST SWAP2 POP POP JUMPDEST SWAP1 JUMP JUMPDEST PUSH1 0x0 DUP4 PUSH2 0x970 JUMPI POP PUSH1 0x0 PUSH2 0xA40 JUMP JUMPDEST PUSH1 0x0 DUP4 GT PUSH2 0x9C5 JUMPI PUSH1 0x40 DUP1 MLOAD PUSH3 0x461BCD PUSH1 0xE5 SHL DUP2 MSTORE PUSH1 0x20 PUSH1 0x4 DUP3 ADD DUP2 SWAP1 MSTORE PUSH1 0x24 DUP3 ADD MSTORE PUSH32 0x4765742073656C6C20696E20616D6F756E742C2072496E206D757374203E2030 PUSH1 0x44 DUP3 ADD MSTORE SWAP1 MLOAD SWAP1 DUP2 SWAP1 SUB PUSH1 0x64 ADD SWAP1 REVERT JUMPDEST DUP4 DUP3 GT PUSH2 0xA03 JUMPI PUSH1 0x40 MLOAD PUSH3 0x461BCD PUSH1 0xE5 SHL DUP2 MSTORE PUSH1 0x4 ADD DUP1 DUP1 PUSH1 0x20 ADD DUP3 DUP2 SUB DUP3 MSTORE PUSH1 0x24 DUP2 MSTORE PUSH1 0x20 ADD DUP1 PUSH2 0x3BC1 PUSH1 0x24 SWAP2 CODECOPY PUSH1 0x40 ADD SWAP2 POP POP PUSH1 0x40 MLOAD DUP1 SWAP2 SUB SWAP1 REVERT JUMPDEST PUSH1 0x0 PUSH2 0xA1B PUSH2 0x3E8 PUSH2 0xA15 DUP7 DUP9 PUSH2 0x3048 JUMP JUMPDEST SWAP1 PUSH2 0x3048 JUMP JUMPDEST SWAP1 POP PUSH1 0x0 PUSH2 0xA2F PUSH2 0x3E5 PUSH2 0xA15 DUP7 DUP10 PUSH2 0x30A1 JUMP JUMPDEST SWAP1 POP PUSH2 0xA3B DUP3 DUP3 PUSH2 0x30E3 JUMP JUMPDEST SWAP3 POP POP POP JUMPDEST SWAP4 SWAP3 POP POP POP JUMP JUMPDEST PUSH1 0x11 PUSH1 0x20 MSTORE PUSH1 0x0 SWAP1 DUP2 MSTORE PUSH1 0x40 SWAP1 KECCAK256 DUP1 SLOAD PUSH1 0x1 DUP3 ADD SLOAD PUSH1 0x2 DUP4 ADD SLOAD PUSH1 0x3 SWAP1 SWAP4 ADD SLOAD SWAP2 SWAP3 SWAP1 SWAP2 DUP5 JUMP JUMPDEST PUSH2 0xA76 PUSH2 0x3125 JUMP JUMPDEST PUSH1 0x0 SLOAD PUSH1 0x1 PUSH1 0x1 PUSH1 0xA0 SHL SUB SWAP1 DUP2 AND SWAP2 AND EQ PUSH2 0xAC6 JUMPI PUSH1 0x40 DUP1 MLOAD PUSH3 0x461BCD PUSH1 0xE5 SHL DUP2 MSTORE PUSH1 0x20 PUSH1 0x4 DUP3 ADD DUP2 SWAP1 MSTORE PUSH1 0x24 DUP3 ADD MSTORE PUSH1 0x0 DUP1 MLOAD PUSH1 0x20 PUSH2 0x3C73 DUP4 CODECOPY DUP2 MLOAD SWAP2 MSTORE PUSH1 0x44 DUP3 ADD MSTORE SWAP1 MLOAD SWAP1 DUP2 SWAP1 SUB PUSH1 0x64 ADD SWAP1 REVERT JUMPDEST PUSH1 0x2 PUSH1 0x1 SLOAD EQ ISZERO PUSH2 0xB1E JUMPI PUSH1 0x40 DUP1 MLOAD PUSH3 0x461BCD PUSH1 0xE5 SHL DUP2 MSTORE PUSH1 0x20 PUSH1 0x4 DUP3 ADD MSTORE PUSH1 0x1F PUSH1 0x24 DUP3 ADD MSTORE PUSH32 0x5265656E7472616E637947756172643A207265656E7472616E742063616C6C00 PUSH1 0x44 DUP3 ADD MSTORE SWAP1 MLOAD SWAP1 DUP2 SWAP1 SUB PUSH1 0x64 ADD SWAP1 REVERT JUMPDEST PUSH1 0x2 PUSH1 0x1 SSTORE PUSH2 0xB37 PUSH1 0x1 PUSH1 0x1 PUSH1 0xA0 SHL SUB DUP5 AND DUP4 DUP4 PUSH2 0x3129 JUMP JUMPDEST POP POP PUSH1 0x1 DUP1 SSTORE POP JUMP JUMPDEST PUSH1 0xC SLOAD PUSH1 0x1 PUSH1 0x1 PUSH1 0xA0 SHL SUB AND CALLER EQ PUSH2 0xB8E JUMPI PUSH1 0x40 DUP1 MLOAD PUSH3 0x461BCD PUSH1 0xE5 SHL DUP2 MSTORE PUSH1 0x20 PUSH1 0x4 DUP3 ADD MSTORE PUSH1 0xC PUSH1 0x24 DUP3 ADD MSTORE PUSH12 0x3737BA1037B832B930BA37B9 PUSH1 0xA1 SHL PUSH1 0x44 DUP3 ADD MSTORE SWAP1 MLOAD SWAP1 DUP2 SWAP1 SUB PUSH1 0x64 ADD SWAP1 REVERT JUMPDEST PUSH1 0x2 PUSH1 0x1 SLOAD EQ ISZERO PUSH2 0xBE6 JUMPI PUSH1 0x40 DUP1 MLOAD PUSH3 0x461BCD PUSH1 0xE5 SHL DUP2 MSTORE PUSH1 0x20 PUSH1 0x4 DUP3 ADD MSTORE PUSH1 0x1F PUSH1 0x24 DUP3 ADD MSTORE PUSH32 0x5265656E7472616E637947756172643A207265656E7472616E742063616C6C00 PUSH1 0x44 DUP3 ADD MSTORE SWAP1 MLOAD SWAP1 DUP2 SWAP1 SUB PUSH1 0x64 ADD SWAP1 REVERT JUMPDEST PUSH1 0x2 PUSH1 0x1 SSTORE PUSH1 0xA SLOAD DUP3 CALLDATALOAD PUSH1 0x1 PUSH1 0x1 PUSH1 0xA0 SHL SUB SWAP1 DUP2 AND SWAP2 AND EQ DUP1 PUSH2 0xC18 JUMPI POP PUSH1 0xB SLOAD DUP3 CALLDATALOAD PUSH1 0x1 PUSH1 0x1 PUSH1 0xA0 SHL SUB SWAP1 DUP2 AND SWAP2 AND EQ JUMPDEST DUP1 PUSH2 0xC2B JUMPI POP PUSH1 0x1 PUSH1 0x1 PUSH1 0xA0 SHL SUB DUP3 CALLDATALOAD AND ISZERO JUMPDEST PUSH2 0xC66 JUMPI PUSH1 0x40 MLOAD PUSH3 0x461BCD PUSH1 0xE5 SHL DUP2 MSTORE PUSH1 0x4 ADD DUP1 DUP1 PUSH1 0x20 ADD DUP3 DUP2 SUB DUP3 MSTORE PUSH1 0x25 DUP2 MSTORE PUSH1 0x20 ADD DUP1 PUSH2 0x3BE5 PUSH1 0x25 SWAP2 CODECOPY PUSH1 0x40 ADD SWAP2 POP POP PUSH1 0x40 MLOAD DUP1 SWAP2 SUB SWAP1 REVERT JUMPDEST PUSH1 0xA SLOAD PUSH1 0x20 DUP4 ADD CALLDATALOAD PUSH1 0x1 PUSH1 0x1 PUSH1 0xA0 SHL SUB SWAP1 DUP2 AND SWAP2 AND EQ DUP1 PUSH2 0xC99 JUMPI POP PUSH1 0xB SLOAD PUSH1 0x20 DUP4 ADD CALLDATALOAD PUSH1 0x1 PUSH1 0x1 PUSH1 0xA0 SHL SUB SWAP1 DUP2 AND SWAP2 AND EQ JUMPDEST DUP1 PUSH2 0xCAF JUMPI POP PUSH1 0x1 PUSH1 0x1 PUSH1 0xA0 SHL SUB PUSH1 0x20 DUP4 ADD CALLDATALOAD AND ISZERO JUMPDEST PUSH2 0xCEA JUMPI PUSH1 0x40 MLOAD PUSH3 0x461BCD PUSH1 0xE5 SHL DUP2 MSTORE PUSH1 0x4 ADD DUP1 DUP1 PUSH1 0x20 ADD DUP3 DUP2 SUB DUP3 MSTORE PUSH1 0x25 DUP2 MSTORE PUSH1 0x20 ADD DUP1 PUSH2 0x3C93 PUSH1 0x25 SWAP2 CODECOPY PUSH1 0x40 ADD SWAP2 POP POP PUSH1 0x40 MLOAD DUP1 SWAP2 SUB SWAP1 REVERT JUMPDEST PUSH2 0xCF3 DUP4 PUSH2 0x327C JUMP JUMPDEST PUSH1 0x2 SLOAD PUSH1 0x3 SLOAD PUSH1 0x0 DUP7 DUP2 MSTORE PUSH1 0x12 PUSH1 0x20 MSTORE PUSH1 0x40 DUP1 DUP3 KECCAK256 SLOAD DUP2 MLOAD PUSH4 0x1CC6D2F9 PUSH1 0xE3 SHL DUP2 MSTORE PUSH1 0x4 DUP2 ADD SWAP5 SWAP1 SWAP5 MSTORE PUSH1 0x1 PUSH1 0x1 PUSH1 0xA0 SHL SUB DUP9 DUP2 AND PUSH1 0x24 DUP7 ADD MSTORE PUSH1 0x44 DUP6 ADD SWAP2 SWAP1 SWAP2 MSTORE SWAP1 MLOAD SWAP4 AND SWAP3 PUSH4 0xE63697C8 SWAP3 PUSH1 0x64 DUP1 DUP3 ADD SWAP4 SWAP3 SWAP2 DUP3 SWAP1 SUB ADD DUP2 DUP4 DUP8 DUP1 EXTCODESIZE ISZERO DUP1 ISZERO PUSH2 0xD5D JUMPI PUSH1 0x0 DUP1 REVERT JUMPDEST POP GAS CALL ISZERO DUP1 ISZERO PUSH2 0xD71 JUMPI RETURNDATASIZE PUSH1 0x0 DUP1 RETURNDATACOPY RETURNDATASIZE PUSH1 0x0 REVERT JUMPDEST POP POP POP POP PUSH2 0xD7F DUP5 DUP5 PUSH2 0x331B JUMP JUMPDEST PUSH1 0x7 SLOAD PUSH1 0x40 DUP1 MLOAD PUSH4 0x70A08231 PUSH1 0xE0 SHL DUP2 MSTORE ADDRESS PUSH1 0x4 DUP3 ADD MSTORE SWAP1 MLOAD PUSH1 0x0 SWAP3 PUSH1 0x1 PUSH1 0x1 PUSH1 0xA0 SHL SUB AND SWAP2 PUSH4 0x70A08231 SWAP2 PUSH1 0x24 DUP1 DUP4 ADD SWAP3 PUSH1 0x20 SWAP3 SWAP2 SWAP1 DUP3 SWAP1 SUB ADD DUP2 DUP7 DUP1 EXTCODESIZE ISZERO DUP1 ISZERO PUSH2 0xDCA JUMPI PUSH1 0x0 DUP1 REVERT JUMPDEST POP GAS STATICCALL ISZERO DUP1 ISZERO PUSH2 0xDDE JUMPI RETURNDATASIZE PUSH1 0x0 DUP1 RETURNDATACOPY RETURNDATASIZE PUSH1 0x0 REVERT JUMPDEST POP POP POP POP PUSH1 0x40 MLOAD RETURNDATASIZE PUSH1 0x20 DUP2 LT ISZERO PUSH2 0xDF4 JUMPI PUSH1 0x0 DUP1 REVERT JUMPDEST POP MLOAD PUSH1 0x7 SLOAD PUSH1 0x15 SLOAD PUSH1 0x40 DUP1 MLOAD PUSH4 0xA9059CBB PUSH1 0xE0 SHL DUP2 MSTORE PUSH1 0x1 PUSH1 0x1 PUSH1 0xA0 SHL SUB SWAP3 DUP4 AND PUSH1 0x4 DUP3 ADD MSTORE PUSH1 0x24 DUP2 ADD DUP6 SWAP1 MSTORE SWAP1 MLOAD SWAP4 SWAP5 POP SWAP2 AND SWAP2 PUSH4 0xA9059CBB SWAP2 PUSH1 0x44 DUP1 DUP3 ADD SWAP3 PUSH1 0x20 SWAP3 SWAP1 SWAP2 SWAP1 DUP3 SWAP1 SUB ADD DUP2 PUSH1 0x0 DUP8 DUP1 EXTCODESIZE ISZERO DUP1 ISZERO PUSH2 0xE51 JUMPI PUSH1 0x0 DUP1 REVERT JUMPDEST POP GAS CALL ISZERO DUP1 ISZERO PUSH2 0xE65 JUMPI RETURNDATASIZE PUSH1 0x0 DUP1 RETURNDATACOPY RETURNDATASIZE PUSH1 0x0 REVERT JUMPDEST POP POP POP POP PUSH1 0x40 MLOAD RETURNDATASIZE PUSH1 0x20 DUP2 LT ISZERO PUSH2 0xE7B JUMPI PUSH1 0x0 DUP1 REVERT JUMPDEST POP POP PUSH1 0x8 SLOAD PUSH1 0x0 SWAP1 PUSH2 0xE95 SWAP1 PUSH1 0x1 PUSH1 0x1 PUSH1 0xA0 SHL SUB AND PUSH2 0x3418 JUMP JUMPDEST PUSH1 0x15 SLOAD PUSH1 0x40 DUP1 MLOAD DUP1 DUP3 ADD DUP3 MSTORE PUSH1 0x0 DUP1 DUP3 MSTORE PUSH1 0x20 DUP1 DUP4 ADD SWAP2 SWAP1 SWAP2 MSTORE PUSH1 0x7 SLOAD DUP4 MLOAD PUSH4 0xDFE1681 PUSH1 0xE0 SHL DUP2 MSTORE SWAP4 MLOAD SWAP6 SWAP7 POP PUSH1 0x1 PUSH1 0x1 PUSH1 0xA0 SHL SUB SWAP5 DUP6 AND SWAP6 PUSH4 0xE2BE73AD SWAP6 ADDRESS SWAP6 DUP13 SWAP6 SWAP5 DUP13 SWAP5 SWAP1 SWAP3 AND SWAP3 PUSH4 0xDFE1681 SWAP3 PUSH1 0x4 DUP1 DUP5 ADD SWAP4 SWAP2 SWAP3 SWAP2 DUP3 SWAP1 SUB ADD DUP2 DUP7 DUP1 EXTCODESIZE ISZERO DUP1 ISZERO PUSH2 0xF03 JUMPI PUSH1 0x0 DUP1 REVERT JUMPDEST POP GAS STATICCALL ISZERO DUP1 ISZERO PUSH2 0xF17 JUMPI RETURNDATASIZE PUSH1 0x0 DUP1 RETURNDATACOPY RETURNDATASIZE PUSH1 0x0 REVERT JUMPDEST POP POP POP POP PUSH1 0x40 MLOAD RETURNDATASIZE PUSH1 0x20 DUP2 LT ISZERO PUSH2 0xF2D JUMPI PUSH1 0x0 DUP1 REVERT JUMPDEST POP MLOAD PUSH1 0x7 SLOAD PUSH1 0x40 DUP1 MLOAD PUSH4 0xD21220A7 PUSH1 0xE0 SHL DUP2 MSTORE SWAP1 MLOAD PUSH1 0x1 PUSH1 0x1 PUSH1 0xA0 SHL SUB SWAP1 SWAP3 AND SWAP2 PUSH4 0xD21220A7 SWAP2 PUSH1 0x4 DUP1 DUP3 ADD SWAP3 PUSH1 0x20 SWAP3 SWAP1 SWAP2 SWAP1 DUP3 SWAP1 SUB ADD DUP2 DUP7 DUP1 EXTCODESIZE ISZERO DUP1 ISZERO PUSH2 0xF74 JUMPI PUSH1 0x0 DUP1 REVERT JUMPDEST POP GAS STATICCALL ISZERO DUP1 ISZERO PUSH2 0xF88 JUMPI RETURNDATASIZE PUSH1 0x0 DUP1 RETURNDATACOPY RETURNDATASIZE PUSH1 0x0 REVERT JUMPDEST POP POP POP POP PUSH1 0x40 MLOAD RETURNDATASIZE PUSH1 0x20 DUP2 LT ISZERO PUSH2 0xF9E JUMPI PUSH1 0x0 DUP1 REVERT JUMPDEST POP MLOAD PUSH1 0x40 DUP1 MLOAD PUSH1 0x1 PUSH1 0x1 PUSH1 0xA0 SHL SUB SWAP4 DUP5 AND PUSH1 0x20 DUP3 ADD MSTORE SWAP2 DUP4 AND DUP3 DUP3 ADD MSTORE PUSH2 0x2710 PUSH1 0x60 DUP4 ADD MSTORE PUSH1 0x2 PUSH1 0x80 DUP1 DUP5 ADD SWAP2 SWAP1 SWAP2 MSTORE DUP2 MLOAD DUP1 DUP5 SUB SWAP1 SWAP2 ADD DUP2 MSTORE PUSH1 0xA0 DUP4 ADD DUP1 DUP4 MSTORE PUSH1 0x1 PUSH1 0x1 PUSH1 0xE0 SHL SUB NOT PUSH1 0xE0 DUP12 SWAP1 SHL AND SWAP1 MSTORE SWAP3 DUP8 AND PUSH1 0xA4 DUP4 ADD SWAP1 DUP2 MSTORE SWAP2 PUSH1 0xC4 ADD SWAP1 DUP7 SWAP1 DUP1 DUP3 DUP5 CALLDATACOPY PUSH1 0x0 DUP2 DUP5 ADD MSTORE PUSH1 0x1F NOT PUSH1 0x1F DUP3 ADD AND SWAP1 POP DUP1 DUP4 ADD SWAP3 POP POP POP DUP5 PUSH1 0x2 PUSH1 0x20 MUL DUP1 DUP4 DUP4 PUSH1 0x0 JUMPDEST DUP4 DUP2 LT ISZERO PUSH2 0x1040 JUMPI DUP2 DUP2 ADD MLOAD DUP4 DUP3 ADD MSTORE PUSH1 0x20 ADD PUSH2 0x1028 JUMP JUMPDEST POP POP POP POP SWAP1 POP ADD DUP4 PUSH1 0x2 PUSH1 0x20 MUL DUP1 DUP3 DUP5 CALLDATACOPY PUSH1 0x0 DUP2 DUP5 ADD MSTORE PUSH1 0x1F NOT PUSH1 0x1F DUP3 ADD AND SWAP1 POP DUP1 DUP4 ADD SWAP3 POP POP POP DUP1 PUSH1 0x20 ADD DUP3 DUP2 SUB DUP3 MSTORE DUP4 DUP2 DUP2 MLOAD DUP2 MSTORE PUSH1 0x20 ADD SWAP2 POP DUP1 MLOAD SWAP1 PUSH1 0x20 ADD SWAP1 DUP1 DUP4 DUP4 PUSH1 0x0 JUMPDEST DUP4 DUP2 LT ISZERO PUSH2 0x10A1 JUMPI DUP2 DUP2 ADD MLOAD DUP4 DUP3 ADD MSTORE PUSH1 0x20 ADD PUSH2 0x1089 JUMP JUMPDEST POP POP POP POP SWAP1 POP SWAP1 DUP2 ADD SWAP1 PUSH1 0x1F AND DUP1 ISZERO PUSH2 0x10CE JUMPI DUP1 DUP3 SUB DUP1 MLOAD PUSH1 0x1 DUP4 PUSH1 0x20 SUB PUSH2 0x100 EXP SUB NOT AND DUP2 MSTORE PUSH1 0x20 ADD SWAP2 POP JUMPDEST POP SWAP7 POP POP POP POP POP POP POP PUSH1 0x40 DUP1 MLOAD DUP1 DUP4 SUB DUP2 PUSH1 0x0 DUP8 DUP1 EXTCODESIZE ISZERO DUP1 ISZERO PUSH2 0x10F0 JUMPI PUSH1 0x0 DUP1 REVERT JUMPDEST POP GAS CALL ISZERO DUP1 ISZERO PUSH2 0x1104 JUMPI RETURNDATASIZE PUSH1 0x0 DUP1 RETURNDATACOPY RETURNDATASIZE PUSH1 0x0 REVERT JUMPDEST POP POP POP POP PUSH1 0x40 MLOAD RETURNDATASIZE PUSH1 0x1F NOT PUSH1 0x1F DUP3 ADD AND DUP3 ADD DUP1 PUSH1 0x40 MSTORE POP PUSH1 0x40 DUP2 LT ISZERO PUSH2 0x1129 JUMPI PUSH1 0x0 DUP1 REVERT JUMPDEST POP POP PUSH1 0x8 SLOAD DUP2 SWAP1 PUSH2 0x1142 SWAP1 PUSH1 0x1 PUSH1 0x1 PUSH1 0xA0 SHL SUB AND PUSH2 0x3418 JUMP JUMPDEST GT ISZERO PUSH2 0x1167 JUMPI PUSH1 0x8 SLOAD DUP2 SWAP1 PUSH2 0x115F SWAP1 PUSH1 0x1 PUSH1 0x1 PUSH1 0xA0 SHL SUB AND PUSH2 0x3418 JUMP JUMPDEST SUB SWAP1 POP PUSH2 0x116B JUMP JUMPDEST POP PUSH1 0x0 JUMPDEST PUSH1 0x4 SLOAD PUSH1 0x8 SLOAD PUSH1 0x1 PUSH1 0x1 PUSH1 0xA0 SHL SUB SWAP2 DUP3 AND SWAP2 PUSH4 0xB6B55F25 SWAP2 PUSH2 0x1199 SWAP2 DUP6 SWAP2 PUSH2 0x1193 SWAP2 AND PUSH2 0x3418 JUMP JUMPDEST SWAP1 PUSH2 0x30A1 JUMP JUMPDEST PUSH1 0x40 MLOAD DUP3 PUSH4 0xFFFFFFFF AND PUSH1 0xE0 SHL DUP2 MSTORE PUSH1 0x4 ADD DUP1 DUP3 DUP2 MSTORE PUSH1 0x20 ADD SWAP2 POP POP PUSH1 0x0 PUSH1 0x40 MLOAD DUP1 DUP4 SUB DUP2 PUSH1 0x0 DUP8 DUP1 EXTCODESIZE ISZERO DUP1 ISZERO PUSH2 0x11CF JUMPI PUSH1 0x0 DUP1 REVERT JUMPDEST POP GAS CALL ISZERO DUP1 ISZERO PUSH2 0x11E3 JUMPI RETURNDATASIZE PUSH1 0x0 DUP1 RETURNDATACOPY RETURNDATASIZE PUSH1 0x0 REVERT JUMPDEST POP POP POP POP PUSH2 0x11EF PUSH2 0x3B7A JUMP JUMPDEST PUSH1 0x0 JUMPDEST PUSH1 0x2 DUP2 LT ISZERO PUSH2 0x12FD JUMPI PUSH1 0x0 DUP7 DUP3 PUSH1 0x2 DUP2 LT PUSH2 0x1209 JUMPI INVALID JUMPDEST PUSH1 0x20 MUL ADD CALLDATALOAD PUSH1 0x1 PUSH1 0x1 PUSH1 0xA0 SHL SUB AND PUSH1 0x1 PUSH1 0x1 PUSH1 0xA0 SHL SUB AND EQ ISZERO PUSH2 0x1257 JUMPI SELFBALANCE DUP3 DUP3 PUSH1 0x2 DUP2 LT PUSH2 0x1233 JUMPI INVALID JUMPDEST PUSH1 0x20 MUL ADD MSTORE PUSH2 0x1252 CALLER DUP4 DUP4 PUSH1 0x2 DUP2 LT PUSH2 0x1248 JUMPI INVALID JUMPDEST PUSH1 0x20 MUL ADD MLOAD PUSH2 0x349B JUMP JUMPDEST PUSH2 0x12DA JUMP JUMPDEST PUSH2 0x1282 DUP7 DUP3 PUSH1 0x2 DUP2 LT PUSH2 0x1266 JUMPI INVALID JUMPDEST PUSH1 0x20 MUL ADD CALLDATALOAD PUSH1 0x1 PUSH1 0x1 PUSH1 0xA0 SHL SUB AND PUSH1 0x1 PUSH1 0x1 PUSH1 0xA0 SHL SUB AND PUSH2 0x3418 JUMP JUMPDEST DUP3 DUP3 PUSH1 0x2 DUP2 LT PUSH2 0x128E JUMPI INVALID JUMPDEST PUSH1 0x20 MUL ADD MSTORE PUSH2 0x12DA CALLER DUP4 DUP4 PUSH1 0x2 DUP2 LT PUSH2 0x12A3 JUMPI INVALID JUMPDEST PUSH1 0x20 MUL ADD MLOAD DUP9 DUP5 PUSH1 0x2 DUP2 LT PUSH2 0x12B4 JUMPI INVALID JUMPDEST PUSH1 0x20 MUL ADD CALLDATALOAD PUSH1 0x1 PUSH1 0x1 PUSH1 0xA0 SHL SUB AND PUSH1 0x1 PUSH1 0x1 PUSH1 0xA0 SHL SUB AND PUSH2 0x3129 SWAP1 SWAP3 SWAP2 SWAP1 PUSH4 0xFFFFFFFF AND JUMP JUMPDEST PUSH1 0x0 DUP9 DUP2 MSTORE PUSH1 0x13 PUSH1 0x20 MSTORE PUSH1 0x40 DUP2 KECCAK256 DUP3 PUSH1 0x2 DUP2 LT PUSH2 0x12F3 JUMPI INVALID JUMPDEST ADD SSTORE PUSH1 0x1 ADD PUSH2 0x11F2 JUMP JUMPDEST POP DUP7 PUSH32 0x1F360A4B3409F88D8BA44894322AA45BA66784AA465BC8473C91C34A93B77F68 PUSH1 0x7 PUSH1 0x0 SWAP1 SLOAD SWAP1 PUSH2 0x100 EXP SWAP1 DIV PUSH1 0x1 PUSH1 0x1 PUSH1 0xA0 SHL SUB AND DUP6 DUP9 DUP6 PUSH1 0x40 MLOAD DUP1 DUP6 PUSH1 0x1 PUSH1 0x1 PUSH1 0xA0 SHL SUB AND DUP2 MSTORE PUSH1 0x20 ADD DUP5 DUP2 MSTORE PUSH1 0x20 ADD DUP4 PUSH1 0x2 PUSH1 0x20 MUL DUP1 DUP3 DUP5 CALLDATACOPY PUSH1 0x0 DUP2 DUP5 ADD MSTORE PUSH1 0x1F NOT PUSH1 0x1F DUP3 ADD AND SWAP1 POP DUP1 DUP4 ADD SWAP3 POP POP POP DUP3 PUSH1 0x2 PUSH1 0x20 MUL DUP1 DUP4 DUP4 PUSH1 0x0 JUMPDEST DUP4 DUP2 LT ISZERO PUSH2 0x1397 JUMPI DUP2 DUP2 ADD MLOAD DUP4 DUP3 ADD MSTORE PUSH1 0x20 ADD PUSH2 0x137F JUMP JUMPDEST POP POP POP POP SWAP1 POP ADD SWAP5 POP POP POP POP POP PUSH1 0x40 MLOAD DUP1 SWAP2 SUB SWAP1 LOG2 POP POP PUSH1 0x1 DUP1 SSTORE POP POP POP POP POP JUMP JUMPDEST PUSH2 0x13C2 DUP2 PUSH2 0x327C JUMP JUMPDEST PUSH1 0x1 PUSH1 0x1 PUSH1 0xA0 SHL SUB DUP2 AND PUSH1 0x0 SWAP1 DUP2 MSTORE PUSH1 0x11 PUSH1 0x20 MSTORE PUSH1 0x40 SWAP1 KECCAK256 PUSH1 0x1 DUP2 ADD SLOAD ISZERO PUSH2 0x14F8 JUMPI PUSH1 0x4 DUP1 SLOAD PUSH1 0x40 DUP1 MLOAD PUSH4 0x5931C793 PUSH1 0xE0 SHL DUP2 MSTORE PUSH1 0x1 PUSH1 0x1 PUSH1 0xA0 SHL SUB DUP7 DUP2 AND SWAP5 DUP3 ADD SWAP5 SWAP1 SWAP5 MSTORE SWAP1 MLOAD SWAP3 SWAP1 SWAP2 AND SWAP2 PUSH4 0x2E1A7D4D SWAP2 DUP4 SWAP2 PUSH4 0x5931C793 SWAP2 PUSH1 0x24 DUP1 DUP3 ADD SWAP3 PUSH1 0x20 SWAP3 SWAP1 SWAP2 SWAP1 DUP3 SWAP1 SUB ADD DUP2 DUP7 DUP1 EXTCODESIZE ISZERO DUP1 ISZERO PUSH2 0x143D JUMPI PUSH1 0x0 DUP1 REVERT JUMPDEST POP GAS STATICCALL ISZERO DUP1 ISZERO PUSH2 0x1451 JUMPI RETURNDATASIZE PUSH1 0x0 DUP1 RETURNDATACOPY RETURNDATASIZE PUSH1 0x0 REVERT JUMPDEST POP POP POP POP PUSH1 0x40 MLOAD RETURNDATASIZE PUSH1 0x20 DUP2 LT ISZERO PUSH2 0x1467 JUMPI PUSH1 0x0 DUP1 REVERT JUMPDEST POP MLOAD PUSH1 0x40 DUP1 MLOAD PUSH1 0x1 PUSH1 0x1 PUSH1 0xE0 SHL SUB NOT PUSH1 0xE0 DUP6 SWAP1 SHL AND DUP2 MSTORE PUSH1 0x4 DUP2 ADD SWAP3 SWAP1 SWAP3 MSTORE MLOAD PUSH1 0x24 DUP1 DUP4 ADD SWAP3 PUSH1 0x0 SWAP3 SWAP2 SWAP1 DUP3 SWAP1 SUB ADD DUP2 DUP4 DUP8 DUP1 EXTCODESIZE ISZERO DUP1 ISZERO PUSH2 0x14A7 JUMPI PUSH1 0x0 DUP1 REVERT JUMPDEST POP GAS CALL ISZERO DUP1 ISZERO PUSH2 0x14BB JUMPI RETURNDATASIZE PUSH1 0x0 DUP1 RETURNDATACOPY RETURNDATASIZE PUSH1 0x0 REVERT JUMPDEST POP POP POP PUSH1 0x1 DUP3 ADD SLOAD PUSH1 0x8 SLOAD PUSH2 0x14DC SWAP3 POP PUSH1 0x1 PUSH1 0x1 PUSH1 0xA0 SHL SUB AND SWAP1 DUP5 SWAP1 PUSH2 0x3129 JUMP JUMPDEST PUSH1 0x1 DUP2 ADD SLOAD PUSH1 0xE SLOAD PUSH2 0x14ED SWAP2 PUSH2 0x30A1 JUMP JUMPDEST PUSH1 0xE SSTORE PUSH1 0x0 PUSH1 0x1 DUP3 ADD SSTORE JUMPDEST PUSH1 0x2 SLOAD PUSH1 0x3 SLOAD PUSH1 0x40 DUP1 MLOAD PUSH4 0x3C212B1F PUSH1 0xE0 SHL DUP2 MSTORE PUSH1 0x4 DUP2 ADD SWAP3 SWAP1 SWAP3 MSTORE PUSH1 0x1 PUSH1 0x1 PUSH1 0xA0 SHL SUB DUP6 DUP2 AND PUSH1 0x24 DUP5 ADD MSTORE SWAP1 MLOAD SWAP3 AND SWAP2 PUSH4 0x3C212B1F SWAP2 PUSH1 0x44 DUP1 DUP3 ADD SWAP3 PUSH1 0x0 SWAP3 SWAP1 SWAP2 SWAP1 DUP3 SWAP1 SUB ADD DUP2 DUP4 DUP8 DUP1 EXTCODESIZE ISZERO DUP1 ISZERO PUSH2 0x1550 JUMPI PUSH1 0x0 DUP1 REVERT JUMPDEST POP GAS CALL ISZERO DUP1 ISZERO PUSH2 0x1564 JUMPI RETURNDATASIZE PUSH1 0x0 DUP1 RETURNDATACOPY RETURNDATASIZE PUSH1 0x0 REVERT JUMPDEST POP POP POP POP POP POP JUMP JUMPDEST PUSH1 0x2 SLOAD PUSH1 0x1 PUSH1 0x1 PUSH1 0xA0 SHL SUB AND DUP2 JUMP JUMPDEST PUSH1 0x3 SLOAD DUP2 JUMP JUMPDEST PUSH1 0xC SLOAD PUSH1 0x1 PUSH1 0x1 PUSH1 0xA0 SHL SUB AND DUP2 JUMP JUMPDEST PUSH1 0xA SLOAD PUSH1 0x0 SWAP1 DUP4 CALLDATALOAD PUSH1 0x1 PUSH1 0x1 PUSH1 0xA0 SHL SUB SWAP1 DUP2 AND SWAP2 AND EQ DUP1 PUSH2 0x15C0 JUMPI POP PUSH1 0xB SLOAD DUP4 CALLDATALOAD PUSH1 0x1 PUSH1 0x1 PUSH1 0xA0 SHL SUB SWAP1 DUP2 AND SWAP2 AND EQ JUMPDEST DUP1 PUSH2 0x15D3 JUMPI POP PUSH1 0x1 PUSH1 0x1 PUSH1 0xA0 SHL SUB DUP4 CALLDATALOAD AND ISZERO JUMPDEST PUSH2 0x160E JUMPI PUSH1 0x40 MLOAD PUSH3 0x461BCD PUSH1 0xE5 SHL DUP2 MSTORE PUSH1 0x4 ADD DUP1 DUP1 PUSH1 0x20 ADD DUP3 DUP2 SUB DUP3 MSTORE PUSH1 0x25 DUP2 MSTORE PUSH1 0x20 ADD DUP1 PUSH2 0x3BE5 PUSH1 0x25 SWAP2 CODECOPY PUSH1 0x40 ADD SWAP2 POP POP PUSH1 0x40 MLOAD DUP1 SWAP2 SUB SWAP1 REVERT JUMPDEST PUSH1 0xA SLOAD PUSH1 0x20 DUP5 ADD CALLDATALOAD PUSH1 0x1 PUSH1 0x1 PUSH1 0xA0 SHL SUB SWAP1 DUP2 AND SWAP2 AND EQ DUP1 PUSH2 0x1641 JUMPI POP PUSH1 0xB SLOAD PUSH1 0x20 DUP5 ADD CALLDATALOAD PUSH1 0x1 PUSH1 0x1 PUSH1 0xA0 SHL SUB SWAP1 DUP2 AND SWAP2 AND EQ JUMPDEST DUP1 PUSH2 0x1657 JUMPI POP PUSH1 0x1 PUSH1 0x1 PUSH1 0xA0 SHL SUB PUSH1 0x20 DUP5 ADD CALLDATALOAD AND ISZERO JUMPDEST PUSH2 0x1692 JUMPI PUSH1 0x40 MLOAD PUSH3 0x461BCD PUSH1 0xE5 SHL DUP2 MSTORE PUSH1 0x4 ADD DUP1 DUP1 PUSH1 0x20 ADD DUP3 DUP2 SUB DUP3 MSTORE PUSH1 0x25 DUP2 MSTORE PUSH1 0x20 ADD DUP1 PUSH2 0x3C93 PUSH1 0x25 SWAP2 CODECOPY PUSH1 0x40 ADD SWAP2 POP POP PUSH1 0x40 MLOAD DUP1 SWAP2 SUB SWAP1 REVERT JUMPDEST PUSH1 0x0 DUP5 DUP2 MSTORE PUSH1 0x12 PUSH1 0x20 SWAP1 DUP2 MSTORE PUSH1 0x40 DUP1 DUP4 KECCAK256 SLOAD PUSH1 0x13 SWAP1 SWAP3 MSTORE SWAP1 SWAP2 KECCAK256 DUP1 SLOAD ISZERO ISZERO DUP1 PUSH2 0x16BF JUMPI POP PUSH1 0x0 DUP2 PUSH1 0x1 ADD SLOAD GT JUMPDEST ISZERO PUSH2 0x18B2 JUMPI PUSH1 0x7 SLOAD PUSH1 0x40 DUP1 MLOAD PUSH4 0x18160DDD PUSH1 0xE0 SHL DUP2 MSTORE SWAP1 MLOAD PUSH1 0x0 SWAP3 PUSH1 0x1 PUSH1 0x1 PUSH1 0xA0 SHL SUB AND SWAP2 PUSH4 0x18160DDD SWAP2 PUSH1 0x4 DUP1 DUP4 ADD SWAP3 PUSH1 0x20 SWAP3 SWAP2 SWAP1 DUP3 SWAP1 SUB ADD DUP2 DUP7 DUP1 EXTCODESIZE ISZERO DUP1 ISZERO PUSH2 0x1709 JUMPI PUSH1 0x0 DUP1 REVERT JUMPDEST POP GAS STATICCALL ISZERO DUP1 ISZERO PUSH2 0x171D JUMPI RETURNDATASIZE PUSH1 0x0 DUP1 RETURNDATACOPY RETURNDATASIZE PUSH1 0x0 REVERT JUMPDEST POP POP POP POP PUSH1 0x40 MLOAD RETURNDATASIZE PUSH1 0x20 DUP2 LT ISZERO PUSH2 0x1733 JUMPI PUSH1 0x0 DUP1 REVERT JUMPDEST POP MLOAD PUSH1 0x7 SLOAD PUSH1 0x40 DUP1 MLOAD PUSH4 0x240BC6B PUSH1 0xE2 SHL DUP2 MSTORE SWAP1 MLOAD SWAP3 SWAP4 POP PUSH1 0x0 SWAP3 DUP4 SWAP3 PUSH1 0x1 PUSH1 0x1 PUSH1 0xA0 SHL SUB AND SWAP2 PUSH4 0x902F1AC SWAP2 PUSH1 0x4 DUP1 DUP4 ADD SWAP3 PUSH1 0x60 SWAP3 SWAP2 SWAP1 DUP3 SWAP1 SUB ADD DUP2 DUP7 DUP1 EXTCODESIZE ISZERO DUP1 ISZERO PUSH2 0x177F JUMPI PUSH1 0x0 DUP1 REVERT JUMPDEST POP GAS STATICCALL ISZERO DUP1 ISZERO PUSH2 0x1793 JUMPI RETURNDATASIZE PUSH1 0x0 DUP1 RETURNDATACOPY RETURNDATASIZE PUSH1 0x0 REVERT JUMPDEST POP POP POP POP PUSH1 0x40 MLOAD RETURNDATASIZE PUSH1 0x60 DUP2 LT ISZERO PUSH2 0x17A9 JUMPI PUSH1 0x0 DUP1 REVERT JUMPDEST POP DUP1 MLOAD PUSH1 0x20 SWAP1 SWAP2 ADD MLOAD PUSH1 0xB SLOAD PUSH1 0x1 PUSH1 0x1 PUSH1 0x70 SHL SUB SWAP3 DUP4 AND SWAP5 POP SWAP2 AND SWAP2 POP DUP9 CALLDATALOAD PUSH1 0x1 PUSH1 0x1 PUSH1 0xA0 SHL SUB SWAP1 DUP2 AND SWAP2 AND EQ DUP1 PUSH2 0x1804 JUMPI POP PUSH1 0x1 PUSH1 0x1 PUSH1 0xA0 SHL SUB DUP9 CALLDATALOAD AND ISZERO DUP1 ISZERO PUSH2 0x1804 JUMPI POP PUSH1 0x9 SLOAD PUSH1 0xB SLOAD PUSH1 0x1 PUSH1 0x1 PUSH1 0xA0 SHL SUB SWAP1 DUP2 AND SWAP2 AND EQ JUMPDEST ISZERO PUSH2 0x180B JUMPI SWAP1 JUMPDEST PUSH1 0x0 PUSH2 0x1821 DUP5 PUSH2 0x181B DUP9 DUP7 PUSH2 0x3048 JUMP JUMPDEST SWAP1 PUSH2 0x30E3 JUMP JUMPDEST SWAP1 POP PUSH1 0x0 PUSH2 0x1833 DUP6 PUSH2 0x181B DUP10 DUP7 PUSH2 0x3048 JUMP JUMPDEST SWAP1 POP PUSH2 0x183F DUP5 DUP4 PUSH2 0x30A1 JUMP JUMPDEST SWAP4 POP PUSH2 0x184B DUP4 DUP3 PUSH2 0x30A1 JUMP JUMPDEST DUP7 SLOAD SWAP1 SWAP4 POP ISZERO PUSH2 0x1890 JUMPI PUSH1 0x0 PUSH2 0x186A DUP6 DUP6 DUP13 CALLDATALOAD PUSH1 0x20 DUP15 ADD CALLDATALOAD DUP8 DUP8 PUSH2 0x3597 JUMP JUMPDEST SWAP1 POP PUSH2 0x1881 DUP8 PUSH1 0x0 JUMPDEST ADD SLOAD PUSH2 0x181B DUP4 PUSH2 0x2710 PUSH2 0x3048 JUMP JUMPDEST SWAP9 POP POP POP POP POP POP POP POP POP PUSH2 0xA40 JUMP JUMPDEST PUSH1 0x0 PUSH2 0x18A5 DUP5 DUP7 PUSH1 0x20 DUP14 ADD CALLDATALOAD DUP14 CALLDATALOAD DUP7 DUP9 PUSH2 0x3597 JUMP JUMPDEST SWAP1 POP PUSH2 0x1881 DUP8 PUSH1 0x1 PUSH2 0x1873 JUMP JUMPDEST PUSH2 0x2710 SWAP3 POP POP POP PUSH2 0xA40 JUMP JUMPDEST PUSH1 0x1 PUSH1 0x1 PUSH1 0xA0 SHL SUB DUP2 AND PUSH1 0x0 SWAP1 DUP2 MSTORE PUSH1 0x11 PUSH1 0x20 MSTORE PUSH1 0x40 DUP2 KECCAK256 PUSH1 0x1 DUP2 ADD SLOAD PUSH1 0x2 DUP3 ADD SLOAD DUP4 SWAP3 SWAP2 PUSH2 0x1913 SWAP2 PUSH2 0x190D SWAP1 PUSH8 0xDE0B6B3A7640000 SWAP1 PUSH2 0x181B SWAP1 PUSH2 0x1905 SWAP1 PUSH2 0x1193 PUSH2 0x28FE JUMP JUMPDEST DUP7 SLOAD SWAP1 PUSH2 0x3048 JUMP JUMPDEST SWAP1 PUSH2 0x2FE5 JUMP JUMPDEST PUSH1 0x2 SLOAD PUSH1 0x3 SLOAD PUSH1 0x40 DUP1 MLOAD PUSH4 0x1F46938B PUSH1 0xE1 SHL DUP2 MSTORE PUSH1 0x4 DUP2 ADD SWAP3 SWAP1 SWAP3 MSTORE PUSH1 0x1 PUSH1 0x1 PUSH1 0xA0 SHL SUB DUP9 DUP2 AND PUSH1 0x24 DUP5 ADD MSTORE SWAP1 MLOAD SWAP3 AND SWAP2 PUSH4 0x3E8D2716 SWAP2 PUSH1 0x44 DUP1 DUP3 ADD SWAP3 PUSH1 0x20 SWAP3 SWAP1 SWAP2 SWAP1 DUP3 SWAP1 SUB ADD DUP2 DUP7 DUP1 EXTCODESIZE ISZERO DUP1 ISZERO PUSH2 0x196A JUMPI PUSH1 0x0 DUP1 REVERT JUMPDEST POP GAS STATICCALL ISZERO DUP1 ISZERO PUSH2 0x197E JUMPI RETURNDATASIZE PUSH1 0x0 DUP1 RETURNDATACOPY RETURNDATASIZE PUSH1 0x0 REVERT JUMPDEST POP POP POP POP PUSH1 0x40 MLOAD RETURNDATASIZE PUSH1 0x20 DUP2 LT ISZERO PUSH2 0x1994 JUMPI PUSH1 0x0 DUP1 REVERT JUMPDEST POP MLOAD SWAP1 SWAP4 POP SWAP2 POP POP SWAP2 POP SWAP2 JUMP JUMPDEST PUSH1 0x7 SLOAD PUSH1 0x1 PUSH1 0x1 PUSH1 0xA0 SHL SUB AND DUP2 JUMP JUMPDEST PUSH2 0x19B8 PUSH2 0x3125 JUMP JUMPDEST PUSH1 0x0 SLOAD PUSH1 0x1 PUSH1 0x1 PUSH1 0xA0 SHL SUB SWAP1 DUP2 AND SWAP2 AND EQ PUSH2 0x1A08 JUMPI PUSH1 0x40 DUP1 MLOAD PUSH3 0x461BCD PUSH1 0xE5 SHL DUP2 MSTORE PUSH1 0x20 PUSH1 0x4 DUP3 ADD DUP2 SWAP1 MSTORE PUSH1 0x24 DUP3 ADD MSTORE PUSH1 0x0 DUP1 MLOAD PUSH1 0x20 PUSH2 0x3C73 DUP4 CODECOPY DUP2 MLOAD SWAP2 MSTORE PUSH1 0x44 DUP3 ADD MSTORE SWAP1 MLOAD SWAP1 DUP2 SWAP1 SUB PUSH1 0x64 ADD SWAP1 REVERT JUMPDEST PUSH1 0x0 DUP1 SLOAD PUSH1 0x40 MLOAD PUSH1 0x1 PUSH1 0x1 PUSH1 0xA0 SHL SUB SWAP1 SWAP2 AND SWAP1 PUSH32 0x8BE0079C531659141344CD1FD0A4F28419497F9722A3DAAFE3B4186F6B6457E0 SWAP1 DUP4 SWAP1 LOG3 PUSH1 0x0 DUP1 SLOAD PUSH1 0x1 PUSH1 0x1 PUSH1 0xA0 SHL SUB NOT AND SWAP1 SSTORE JUMP JUMPDEST PUSH1 0x14 PUSH1 0x20 MSTORE PUSH1 0x0 SWAP1 DUP2 MSTORE PUSH1 0x40 SWAP1 KECCAK256 SLOAD PUSH1 0xFF AND DUP2 JUMP JUMPDEST PUSH1 0x6 SLOAD DUP2 JUMP JUMPDEST PUSH1 0x15 SLOAD PUSH1 0x1 PUSH1 0x1 PUSH1 0xA0 SHL SUB AND DUP2 JUMP JUMPDEST PUSH1 0x0 DUP4 PUSH2 0x1A8B JUMPI POP PUSH1 0x0 PUSH2 0xA40 JUMP JUMPDEST PUSH1 0x0 DUP4 GT DUP1 ISZERO PUSH2 0x1A9B JUMPI POP PUSH1 0x0 DUP3 GT JUMPDEST PUSH2 0x1AE1 JUMPI PUSH1 0x40 DUP1 MLOAD PUSH3 0x461BCD PUSH1 0xE5 SHL DUP2 MSTORE PUSH1 0x20 PUSH1 0x4 DUP3 ADD MSTORE PUSH1 0x12 PUSH1 0x24 DUP3 ADD MSTORE PUSH18 0x62616420726573657276652076616C756573 PUSH1 0x70 SHL PUSH1 0x44 DUP3 ADD MSTORE SWAP1 MLOAD SWAP1 DUP2 SWAP1 SUB PUSH1 0x64 ADD SWAP1 REVERT JUMPDEST PUSH2 0x1AEF DUP5 PUSH2 0x181B DUP6 DUP6 PUSH2 0x3048 JUMP JUMPDEST SWAP5 SWAP4 POP POP POP POP JUMP JUMPDEST PUSH1 0x0 SLOAD PUSH1 0x1 PUSH1 0x1 PUSH1 0xA0 SHL SUB AND SWAP1 JUMP JUMPDEST PUSH1 0xC SLOAD PUSH1 0x1 PUSH1 0x1 PUSH1 0xA0 SHL SUB AND CALLER EQ PUSH2 0x1B54 JUMPI PUSH1 0x40 DUP1 MLOAD PUSH3 0x461BCD PUSH1 0xE5 SHL DUP2 MSTORE PUSH1 0x20 PUSH1 0x4 DUP3 ADD MSTORE PUSH1 0xC PUSH1 0x24 DUP3 ADD MSTORE PUSH12 0x3737BA1037B832B930BA37B9 PUSH1 0xA1 SHL PUSH1 0x44 DUP3 ADD MSTORE SWAP1 MLOAD SWAP1 DUP2 SWAP1 SUB PUSH1 0x64 ADD SWAP1 REVERT JUMPDEST PUSH1 0x2 PUSH1 0x1 SLOAD EQ ISZERO PUSH2 0x1BAC JUMPI PUSH1 0x40 DUP1 MLOAD PUSH3 0x461BCD PUSH1 0xE5 SHL DUP2 MSTORE PUSH1 0x20 PUSH1 0x4 DUP3 ADD MSTORE PUSH1 0x1F PUSH1 0x24 DUP3 ADD MSTORE PUSH32 0x5265656E7472616E637947756172643A207265656E7472616E742063616C6C00 PUSH1 0x44 DUP3 ADD MSTORE SWAP1 MLOAD SWAP1 DUP2 SWAP1 SUB PUSH1 0x64 ADD SWAP1 REVERT JUMPDEST PUSH1 0x2 PUSH1 0x1 SSTORE DUP5 CALLDATALOAD PUSH1 0x1 PUSH1 0x1 PUSH1 0xA0 SHL SUB SWAP1 DUP2 AND PUSH1 0x20 DUP8 ADD CALLDATALOAD SWAP1 SWAP2 AND EQ ISZERO PUSH2 0x1BD1 JUMPI PUSH1 0x0 DUP1 REVERT JUMPDEST PUSH1 0xA SLOAD DUP6 CALLDATALOAD PUSH1 0x1 PUSH1 0x1 PUSH1 0xA0 SHL SUB SWAP1 DUP2 AND SWAP2 AND EQ DUP1 PUSH2 0x1BFE JUMPI POP PUSH1 0xB SLOAD DUP6 CALLDATALOAD PUSH1 0x1 PUSH1 0x1 PUSH1 0xA0 SHL SUB SWAP1 DUP2 AND SWAP2 AND EQ JUMPDEST DUP1 PUSH2 0x1C11 JUMPI POP PUSH1 0x1 PUSH1 0x1 PUSH1 0xA0 SHL SUB DUP6 CALLDATALOAD AND ISZERO JUMPDEST PUSH2 0x1C4C JUMPI PUSH1 0x40 MLOAD PUSH3 0x461BCD PUSH1 0xE5 SHL DUP2 MSTORE PUSH1 0x4 ADD DUP1 DUP1 PUSH1 0x20 ADD DUP3 DUP2 SUB DUP3 MSTORE PUSH1 0x22 DUP2 MSTORE PUSH1 0x20 ADD DUP1 PUSH2 0x3C30 PUSH1 0x22 SWAP2 CODECOPY PUSH1 0x40 ADD SWAP2 POP POP PUSH1 0x40 MLOAD DUP1 SWAP2 SUB SWAP1 REVERT JUMPDEST PUSH1 0xA SLOAD PUSH1 0x20 DUP7 ADD CALLDATALOAD PUSH1 0x1 PUSH1 0x1 PUSH1 0xA0 SHL SUB SWAP1 DUP2 AND SWAP2 AND EQ DUP1 PUSH2 0x1C7F JUMPI POP PUSH1 0xB SLOAD PUSH1 0x20 DUP7 ADD CALLDATALOAD PUSH1 0x1 PUSH1 0x1 PUSH1 0xA0 SHL SUB SWAP1 DUP2 AND SWAP2 AND EQ JUMPDEST DUP1 PUSH2 0x1C95 JUMPI POP PUSH1 0x1 PUSH1 0x1 PUSH1 0xA0 SHL SUB PUSH1 0x20 DUP7 ADD CALLDATALOAD AND ISZERO JUMPDEST PUSH2 0x1CD0 JUMPI PUSH1 0x40 MLOAD PUSH3 0x461BCD PUSH1 0xE5 SHL DUP2 MSTORE PUSH1 0x4 ADD DUP1 DUP1 PUSH1 0x20 ADD DUP3 DUP2 SUB DUP3 MSTORE PUSH1 0x22 DUP2 MSTORE PUSH1 0x20 ADD DUP1 PUSH2 0x3C30 PUSH1 0x22 SWAP2 CODECOPY PUSH1 0x40 ADD SWAP2 POP POP PUSH1 0x40 MLOAD DUP1 SWAP2 SUB SWAP1 REVERT JUMPDEST PUSH2 0x1CD8 PUSH2 0x3B98 JUMP JUMPDEST PUSH2 0x1CE1 DUP8 PUSH2 0x327C JUMP JUMPDEST PUSH1 0x0 DUP9 DUP2 MSTORE PUSH1 0x12 PUSH1 0x20 MSTORE PUSH1 0x40 SWAP1 KECCAK256 SLOAD DUP2 MSTORE PUSH2 0x1CFC DUP9 DUP9 PUSH2 0x331B JUMP JUMPDEST PUSH1 0x0 PUSH1 0x60 DUP5 DUP5 PUSH1 0x40 DUP2 LT ISZERO PUSH2 0x1D10 JUMPI PUSH1 0x0 DUP1 REVERT JUMPDEST PUSH1 0x1 PUSH1 0x1 PUSH1 0xA0 SHL SUB DUP3 CALLDATALOAD AND SWAP2 SWAP1 DUP2 ADD SWAP1 PUSH1 0x40 DUP2 ADD PUSH1 0x20 DUP3 ADD CALLDATALOAD PUSH5 0x100000000 DUP2 GT ISZERO PUSH2 0x1D3B JUMPI PUSH1 0x0 DUP1 REVERT JUMPDEST DUP3 ADD DUP4 PUSH1 0x20 DUP3 ADD GT ISZERO PUSH2 0x1D4D JUMPI PUSH1 0x0 DUP1 REVERT JUMPDEST DUP1 CALLDATALOAD SWAP1 PUSH1 0x20 ADD SWAP2 DUP5 PUSH1 0x1 DUP4 MUL DUP5 ADD GT PUSH5 0x100000000 DUP4 GT OR ISZERO PUSH2 0x1D6F JUMPI PUSH1 0x0 DUP1 REVERT JUMPDEST SWAP2 SWAP1 DUP1 DUP1 PUSH1 0x1F ADD PUSH1 0x20 DUP1 SWAP2 DIV MUL PUSH1 0x20 ADD PUSH1 0x40 MLOAD SWAP1 DUP2 ADD PUSH1 0x40 MSTORE DUP1 SWAP4 SWAP3 SWAP2 SWAP1 DUP2 DUP2 MSTORE PUSH1 0x20 ADD DUP4 DUP4 DUP1 DUP3 DUP5 CALLDATACOPY PUSH1 0x0 SWAP3 ADD DUP3 SWAP1 MSTORE POP PUSH1 0x1 PUSH1 0x1 PUSH1 0xA0 SHL SUB DUP10 AND DUP2 MSTORE PUSH1 0x14 PUSH1 0x20 MSTORE PUSH1 0x40 SWAP1 KECCAK256 SLOAD SWAP8 SWAP10 POP SWAP3 SWAP8 POP POP PUSH1 0xFF SWAP1 SWAP6 AND SWAP5 POP PUSH2 0x1E1B SWAP4 POP POP POP POP JUMPI PUSH1 0x40 DUP1 MLOAD PUSH3 0x461BCD PUSH1 0xE5 SHL DUP2 MSTORE PUSH1 0x20 PUSH1 0x4 DUP3 ADD MSTORE PUSH1 0x18 PUSH1 0x24 DUP3 ADD MSTORE PUSH32 0x756E617070726F76656420776F726B2073747261746567790000000000000000 PUSH1 0x44 DUP3 ADD MSTORE SWAP1 MLOAD SWAP1 DUP2 SWAP1 SUB PUSH1 0x64 ADD SWAP1 REVERT JUMPDEST PUSH1 0x7 SLOAD PUSH1 0x40 DUP1 MLOAD PUSH4 0x70A08231 PUSH1 0xE0 SHL DUP2 MSTORE ADDRESS PUSH1 0x4 DUP3 ADD MSTORE SWAP1 MLOAD PUSH1 0x1 PUSH1 0x1 PUSH1 0xA0 SHL SUB SWAP1 SWAP3 AND SWAP2 PUSH4 0xA9059CBB SWAP2 DUP6 SWAP2 DUP5 SWAP2 PUSH4 0x70A08231 SWAP2 PUSH1 0x24 DUP1 DUP4 ADD SWAP3 PUSH1 0x20 SWAP3 SWAP2 SWAP1 DUP3 SWAP1 SUB ADD DUP2 DUP7 DUP1 EXTCODESIZE ISZERO DUP1 ISZERO PUSH2 0x1E6F JUMPI PUSH1 0x0 DUP1 REVERT JUMPDEST POP GAS STATICCALL ISZERO DUP1 ISZERO PUSH2 0x1E83 JUMPI RETURNDATASIZE PUSH1 0x0 DUP1 RETURNDATACOPY RETURNDATASIZE PUSH1 0x0 REVERT JUMPDEST POP POP POP POP PUSH1 0x40 MLOAD RETURNDATASIZE PUSH1 0x20 DUP2 LT ISZERO PUSH2 0x1E99 JUMPI PUSH1 0x0 DUP1 REVERT JUMPDEST POP MLOAD PUSH1 0x40 DUP1 MLOAD PUSH1 0x1 PUSH1 0x1 PUSH1 0xE0 SHL SUB NOT PUSH1 0xE0 DUP7 SWAP1 SHL AND DUP2 MSTORE PUSH1 0x1 PUSH1 0x1 PUSH1 0xA0 SHL SUB SWAP1 SWAP4 AND PUSH1 0x4 DUP5 ADD MSTORE PUSH1 0x24 DUP4 ADD SWAP2 SWAP1 SWAP2 MSTORE MLOAD PUSH1 0x44 DUP1 DUP4 ADD SWAP3 PUSH1 0x20 SWAP3 SWAP2 SWAP1 DUP3 SWAP1 SUB ADD DUP2 PUSH1 0x0 DUP8 DUP1 EXTCODESIZE ISZERO DUP1 ISZERO PUSH2 0x1EEA JUMPI PUSH1 0x0 DUP1 REVERT JUMPDEST POP GAS CALL ISZERO DUP1 ISZERO PUSH2 0x1EFE JUMPI RETURNDATASIZE PUSH1 0x0 DUP1 RETURNDATACOPY RETURNDATASIZE PUSH1 0x0 REVERT JUMPDEST POP POP POP POP PUSH1 0x40 MLOAD RETURNDATASIZE PUSH1 0x20 DUP2 LT ISZERO PUSH2 0x1F14 JUMPI PUSH1 0x0 DUP1 REVERT JUMPDEST POP PUSH1 0x0 SWAP1 POP JUMPDEST PUSH1 0x2 DUP2 LT ISZERO PUSH2 0x2007 JUMPI PUSH1 0x0 DUP9 DUP3 PUSH1 0x2 DUP2 LT PUSH2 0x1F31 JUMPI INVALID JUMPDEST PUSH1 0x20 MUL ADD CALLDATALOAD GT DUP1 ISZERO PUSH2 0x1F66 JUMPI POP PUSH1 0x0 DUP10 DUP3 PUSH1 0x2 DUP2 LT PUSH2 0x1F4C JUMPI INVALID JUMPDEST PUSH1 0x20 MUL ADD CALLDATALOAD PUSH1 0x1 PUSH1 0x1 PUSH1 0xA0 SHL SUB AND PUSH1 0x1 PUSH1 0x1 PUSH1 0xA0 SHL SUB AND EQ ISZERO JUMPDEST ISZERO PUSH2 0x1FFF JUMPI PUSH2 0x1FB4 CALLER ADDRESS DUP11 DUP5 PUSH1 0x2 DUP2 LT PUSH2 0x1F7C JUMPI INVALID JUMPDEST PUSH1 0x20 MUL ADD CALLDATALOAD DUP13 DUP6 PUSH1 0x2 DUP2 LT PUSH2 0x1F8D JUMPI INVALID JUMPDEST PUSH1 0x20 MUL ADD CALLDATALOAD PUSH1 0x1 PUSH1 0x1 PUSH1 0xA0 SHL SUB AND PUSH1 0x1 PUSH1 0x1 PUSH1 0xA0 SHL SUB AND PUSH2 0x3641 SWAP1 SWAP4 SWAP3 SWAP2 SWAP1 PUSH4 0xFFFFFFFF AND JUMP JUMPDEST PUSH2 0x1FEC DUP4 PUSH1 0x0 DUP12 DUP5 PUSH1 0x2 DUP2 LT PUSH2 0x1FC6 JUMPI INVALID JUMPDEST PUSH1 0x20 MUL ADD CALLDATALOAD PUSH1 0x1 PUSH1 0x1 PUSH1 0xA0 SHL SUB AND PUSH1 0x1 PUSH1 0x1 PUSH1 0xA0 SHL SUB AND PUSH2 0x2E93 SWAP1 SWAP3 SWAP2 SWAP1 PUSH4 0xFFFFFFFF AND JUMP JUMPDEST PUSH2 0x1FFF DUP4 PUSH1 0x0 NOT DUP12 DUP5 PUSH1 0x2 DUP2 LT PUSH2 0x1FC6 JUMPI INVALID JUMPDEST PUSH1 0x1 ADD PUSH2 0x1F1A JUMP JUMPDEST POP PUSH1 0x8 SLOAD PUSH2 0x201D SWAP1 PUSH1 0x1 PUSH1 0x1 PUSH1 0xA0 SHL SUB AND PUSH2 0x3418 JUMP JUMPDEST PUSH1 0x40 DUP5 ADD MSTORE PUSH2 0x202A PUSH2 0x3B7A JUMP JUMPDEST DUP3 PUSH1 0x1 PUSH1 0x1 PUSH1 0xA0 SHL SUB AND PUSH4 0xE2BE73AD CALLVALUE DUP13 DUP13 DUP13 DUP13 DUP9 PUSH1 0x40 MLOAD DUP8 PUSH4 0xFFFFFFFF AND PUSH1 0xE0 SHL DUP2 MSTORE PUSH1 0x4 ADD DUP1 DUP7 PUSH1 0x1 PUSH1 0x1 PUSH1 0xA0 SHL SUB AND DUP2 MSTORE PUSH1 0x20 ADD DUP6 PUSH1 0x2 PUSH1 0x20 MUL DUP1 DUP3 DUP5 CALLDATACOPY PUSH1 0x0 DUP4 DUP3 ADD MSTORE PUSH1 0x1F ADD PUSH1 0x1F NOT AND SWAP1 SWAP2 ADD SWAP1 POP DUP5 PUSH1 0x40 DUP1 DUP3 DUP5 CALLDATACOPY PUSH1 0x0 DUP4 DUP3 ADD MSTORE PUSH1 0x1F ADD PUSH1 0x1F NOT AND SWAP1 SWAP2 ADD SWAP1 POP DUP4 PUSH1 0x40 DUP1 DUP3 DUP5 CALLDATACOPY PUSH1 0x0 DUP2 DUP5 ADD MSTORE PUSH1 0x1F NOT PUSH1 0x1F DUP3 ADD AND SWAP1 POP DUP1 DUP4 ADD SWAP3 POP POP POP DUP1 PUSH1 0x20 ADD DUP3 DUP2 SUB DUP3 MSTORE DUP4 DUP2 DUP2 MLOAD DUP2 MSTORE PUSH1 0x20 ADD SWAP2 POP DUP1 MLOAD SWAP1 PUSH1 0x20 ADD SWAP1 DUP1 DUP4 DUP4 PUSH1 0x0 JUMPDEST DUP4 DUP2 LT ISZERO PUSH2 0x20ED JUMPI DUP2 DUP2 ADD MLOAD DUP4 DUP3 ADD MSTORE PUSH1 0x20 ADD PUSH2 0x20D5 JUMP JUMPDEST POP POP POP POP SWAP1 POP SWAP1 DUP2 ADD SWAP1 PUSH1 0x1F AND DUP1 ISZERO PUSH2 0x211A JUMPI DUP1 DUP3 SUB DUP1 MLOAD PUSH1 0x1 DUP4 PUSH1 0x20 SUB PUSH2 0x100 EXP SUB NOT AND DUP2 MSTORE PUSH1 0x20 ADD SWAP2 POP JUMPDEST POP SWAP7 POP POP POP POP POP POP POP PUSH1 0x40 DUP1 MLOAD DUP1 DUP4 SUB DUP2 DUP6 DUP9 DUP1 EXTCODESIZE ISZERO DUP1 ISZERO PUSH2 0x213B JUMPI PUSH1 0x0 DUP1 REVERT JUMPDEST POP GAS CALL ISZERO DUP1 ISZERO PUSH2 0x214F JUMPI RETURNDATASIZE PUSH1 0x0 DUP1 RETURNDATACOPY RETURNDATASIZE PUSH1 0x0 REVERT JUMPDEST POP POP POP POP POP PUSH1 0x40 MLOAD RETURNDATASIZE PUSH1 0x1F NOT PUSH1 0x1F DUP3 ADD AND DUP3 ADD DUP1 PUSH1 0x40 MSTORE POP PUSH1 0x40 DUP2 LT ISZERO PUSH2 0x2175 JUMPI PUSH1 0x0 DUP1 REVERT JUMPDEST POP PUSH1 0x40 DUP6 ADD MLOAD PUSH1 0x8 SLOAD SWAP2 SWAP3 POP SWAP1 PUSH2 0x2194 SWAP1 PUSH1 0x1 PUSH1 0x1 PUSH1 0xA0 SHL SUB AND PUSH2 0x3418 JUMP JUMPDEST GT ISZERO PUSH2 0x21BF JUMPI PUSH1 0x40 DUP5 ADD MLOAD PUSH1 0x8 SLOAD PUSH2 0x21B4 SWAP1 PUSH1 0x1 PUSH1 0x1 PUSH1 0xA0 SHL SUB AND PUSH2 0x3418 JUMP JUMPDEST SUB PUSH1 0x40 DUP6 ADD MSTORE PUSH2 0x21C7 JUMP JUMPDEST PUSH1 0x0 PUSH1 0x40 DUP6 ADD MSTORE JUMPDEST PUSH2 0x21D1 DUP12 DUP12 PUSH2 0x37A0 JUMP JUMPDEST PUSH1 0x4 SLOAD PUSH1 0x40 DUP6 ADD MLOAD PUSH1 0x8 SLOAD PUSH1 0x1 PUSH1 0x1 PUSH1 0xA0 SHL SUB SWAP3 DUP4 AND SWAP3 PUSH4 0xB6B55F25 SWAP3 PUSH2 0x21FE SWAP3 SWAP1 SWAP2 PUSH2 0x1193 SWAP2 AND PUSH2 0x3418 JUMP JUMPDEST PUSH1 0x40 MLOAD DUP3 PUSH4 0xFFFFFFFF AND PUSH1 0xE0 SHL DUP2 MSTORE PUSH1 0x4 ADD DUP1 DUP3 DUP2 MSTORE PUSH1 0x20 ADD SWAP2 POP POP PUSH1 0x0 PUSH1 0x40 MLOAD DUP1 DUP4 SUB DUP2 PUSH1 0x0 DUP8 DUP1 EXTCODESIZE ISZERO DUP1 ISZERO PUSH2 0x2234 JUMPI PUSH1 0x0 DUP1 REVERT JUMPDEST POP GAS CALL ISZERO DUP1 ISZERO PUSH2 0x2248 JUMPI RETURNDATASIZE PUSH1 0x0 DUP1 RETURNDATACOPY RETURNDATASIZE PUSH1 0x0 REVERT JUMPDEST POP POP POP PUSH1 0x0 DUP13 DUP2 MSTORE PUSH1 0x12 PUSH1 0x20 SWAP1 DUP2 MSTORE PUSH1 0x40 DUP1 DUP4 KECCAK256 SLOAD DUP9 DUP4 ADD MSTORE DUP15 DUP4 MSTORE PUSH1 0x13 SWAP1 SWAP2 MSTORE DUP1 DUP3 KECCAK256 PUSH1 0x7 SLOAD DUP3 MLOAD PUSH4 0x240BC6B PUSH1 0xE2 SHL DUP2 MSTORE SWAP3 MLOAD SWAP2 SWAP5 POP DUP4 SWAP3 PUSH1 0x1 PUSH1 0x1 PUSH1 0xA0 SHL SUB SWAP1 SWAP2 AND SWAP2 PUSH4 0x902F1AC SWAP2 PUSH1 0x4 DUP1 DUP3 ADD SWAP3 PUSH1 0x60 SWAP3 SWAP1 SWAP2 SWAP1 DUP3 SWAP1 SUB ADD DUP2 DUP7 DUP1 EXTCODESIZE ISZERO DUP1 ISZERO PUSH2 0x22B4 JUMPI PUSH1 0x0 DUP1 REVERT JUMPDEST POP GAS STATICCALL ISZERO DUP1 ISZERO PUSH2 0x22C8 JUMPI RETURNDATASIZE PUSH1 0x0 DUP1 RETURNDATACOPY RETURNDATASIZE PUSH1 0x0 REVERT JUMPDEST POP POP POP POP PUSH1 0x40 MLOAD RETURNDATASIZE PUSH1 0x60 DUP2 LT ISZERO PUSH2 0x22DE JUMPI PUSH1 0x0 DUP1 REVERT JUMPDEST POP DUP1 MLOAD PUSH1 0x20 SWAP1 SWAP2 ADD MLOAD PUSH1 0xB SLOAD PUSH1 0x1 PUSH1 0x1 PUSH1 0x70 SHL SUB SWAP3 DUP4 AND SWAP5 POP SWAP2 AND SWAP2 POP DUP13 CALLDATALOAD PUSH1 0x1 PUSH1 0x1 PUSH1 0xA0 SHL SUB SWAP1 DUP2 AND SWAP2 AND EQ DUP1 PUSH2 0x2339 JUMPI POP PUSH1 0x1 PUSH1 0x1 PUSH1 0xA0 SHL SUB DUP13 CALLDATALOAD AND ISZERO DUP1 ISZERO PUSH2 0x2339 JUMPI POP PUSH1 0x9 SLOAD PUSH1 0xB SLOAD PUSH1 0x1 PUSH1 0x1 PUSH1 0xA0 SHL SUB SWAP1 DUP2 AND SWAP2 AND EQ JUMPDEST ISZERO PUSH2 0x2340 JUMPI SWAP1 JUMPDEST PUSH1 0x20 DUP8 ADD MLOAD DUP8 MLOAD GT ISZERO PUSH2 0x24DF JUMPI PUSH1 0x20 DUP8 ADD MLOAD DUP8 MLOAD PUSH2 0x235D SWAP2 PUSH2 0x30A1 JUMP JUMPDEST DUP8 PUSH1 0x60 ADD DUP2 DUP2 MSTORE POP POP PUSH1 0x2 PUSH1 0x0 SWAP1 SLOAD SWAP1 PUSH2 0x100 EXP SWAP1 DIV PUSH1 0x1 PUSH1 0x1 PUSH1 0xA0 SHL SUB AND PUSH1 0x1 PUSH1 0x1 PUSH1 0xA0 SHL SUB AND PUSH4 0xE63697C8 PUSH1 0x3 SLOAD DUP16 DUP11 PUSH1 0x60 ADD MLOAD PUSH1 0x40 MLOAD DUP5 PUSH4 0xFFFFFFFF AND PUSH1 0xE0 SHL DUP2 MSTORE PUSH1 0x4 ADD DUP1 DUP5 DUP2 MSTORE PUSH1 0x20 ADD DUP4 PUSH1 0x1 PUSH1 0x1 PUSH1 0xA0 SHL SUB AND DUP2 MSTORE PUSH1 0x20 ADD DUP3 DUP2 MSTORE PUSH1 0x20 ADD SWAP4 POP POP POP POP PUSH1 0x0 PUSH1 0x40 MLOAD DUP1 DUP4 SUB DUP2 PUSH1 0x0 DUP8 DUP1 EXTCODESIZE ISZERO DUP1 ISZERO PUSH2 0x23E0 JUMPI PUSH1 0x0 DUP1 REVERT JUMPDEST POP GAS CALL ISZERO DUP1 ISZERO PUSH2 0x23F4 JUMPI RETURNDATASIZE PUSH1 0x0 DUP1 RETURNDATACOPY RETURNDATASIZE PUSH1 0x0 REVERT JUMPDEST POP POP POP POP PUSH1 0x0 DUP5 PUSH1 0x0 PUSH1 0x2 DUP2 LT PUSH2 0x2407 JUMPI INVALID JUMPDEST PUSH1 0x20 MUL ADD MLOAD GT DUP1 PUSH2 0x241B JUMPI POP PUSH1 0x20 DUP5 ADD MLOAD ISZERO ISZERO JUMPDEST ISZERO PUSH2 0x24DA JUMPI DUP3 SLOAD ISZERO PUSH2 0x2486 JUMPI PUSH1 0x0 PUSH2 0x243B DUP6 PUSH1 0x1 PUSH1 0x20 MUL ADD MLOAD DUP5 DUP5 PUSH2 0x1A7C JUMP JUMPDEST SWAP1 POP PUSH2 0x2450 DUP2 DUP7 PUSH1 0x0 JUMPDEST PUSH1 0x20 MUL ADD MLOAD SWAP1 PUSH2 0x2FE5 JUMP JUMPDEST DUP5 SLOAD GT ISZERO PUSH2 0x2477 JUMPI DUP5 MLOAD PUSH2 0x2470 SWAP1 DUP3 SWAP1 PUSH2 0x1193 SWAP1 DUP8 PUSH1 0x0 JUMPDEST ADD SLOAD SWAP1 PUSH2 0x30A1 JUMP JUMPDEST DUP5 SSTORE PUSH2 0x2480 JUMP JUMPDEST PUSH1 0x1 DUP5 PUSH1 0x0 JUMPDEST ADD SSTORE JUMPDEST POP PUSH2 0x24DA JUMP JUMPDEST DUP4 MLOAD PUSH1 0x0 SWAP1 PUSH2 0x2496 SWAP1 DUP4 DUP6 PUSH2 0x1A7C JUMP JUMPDEST SWAP1 POP PUSH2 0x24A4 DUP2 DUP7 PUSH1 0x1 PUSH2 0x2445 JUMP JUMPDEST DUP5 PUSH1 0x1 ADD SLOAD GT ISZERO PUSH2 0x24D0 JUMPI PUSH2 0x24C6 DUP2 PUSH2 0x1193 DUP8 PUSH1 0x1 PUSH1 0x20 MUL ADD MLOAD DUP8 PUSH1 0x1 PUSH2 0x2468 JUMP JUMPDEST DUP5 PUSH1 0x1 ADD SSTORE PUSH2 0x24D8 JUMP JUMPDEST PUSH1 0x1 DUP5 DUP2 JUMPDEST ADD SSTORE JUMPDEST POP JUMPDEST PUSH2 0x26B0 JUMP JUMPDEST PUSH1 0x20 DUP8 ADD MLOAD DUP8 MLOAD LT ISZERO PUSH2 0x26B0 JUMPI DUP7 MLOAD PUSH1 0x20 DUP9 ADD MLOAD PUSH2 0x24FC SWAP2 PUSH2 0x30A1 JUMP JUMPDEST DUP8 PUSH1 0x60 ADD DUP2 DUP2 MSTORE POP POP PUSH1 0x2 PUSH1 0x0 SWAP1 SLOAD SWAP1 PUSH2 0x100 EXP SWAP1 DIV PUSH1 0x1 PUSH1 0x1 PUSH1 0xA0 SHL SUB AND PUSH1 0x1 PUSH1 0x1 PUSH1 0xA0 SHL SUB AND PUSH4 0x6E9C931C PUSH1 0x3 SLOAD DUP16 DUP11 PUSH1 0x60 ADD MLOAD PUSH1 0x40 MLOAD DUP5 PUSH4 0xFFFFFFFF AND PUSH1 0xE0 SHL DUP2 MSTORE PUSH1 0x4 ADD DUP1 DUP5 DUP2 MSTORE PUSH1 0x20 ADD DUP4 PUSH1 0x1 PUSH1 0x1 PUSH1 0xA0 SHL SUB AND DUP2 MSTORE PUSH1 0x20 ADD DUP3 DUP2 MSTORE PUSH1 0x20 ADD SWAP4 POP POP POP POP PUSH1 0x0 PUSH1 0x40 MLOAD DUP1 DUP4 SUB DUP2 PUSH1 0x0 DUP8 DUP1 EXTCODESIZE ISZERO DUP1 ISZERO PUSH2 0x257F JUMPI PUSH1 0x0 DUP1 REVERT JUMPDEST POP GAS CALL ISZERO DUP1 ISZERO PUSH2 0x2593 JUMPI RETURNDATASIZE PUSH1 0x0 DUP1 RETURNDATACOPY RETURNDATASIZE PUSH1 0x0 REVERT JUMPDEST POP POP POP POP DUP3 PUSH1 0x0 PUSH1 0x2 DUP2 LT PUSH2 0x25A4 JUMPI INVALID JUMPDEST ADD SLOAD ISZERO DUP1 ISZERO PUSH2 0x25B5 JUMPI POP DUP3 PUSH1 0x1 ADD SLOAD ISZERO JUMPDEST ISZERO PUSH2 0x2634 JUMPI PUSH2 0x25CD DUP3 DUP6 PUSH1 0x1 JUMPDEST PUSH1 0x20 MUL ADD MLOAD SWAP1 PUSH2 0x3048 JUMP JUMPDEST PUSH2 0x25D9 DUP3 DUP7 PUSH1 0x0 PUSH2 0x25C2 JUMP JUMPDEST GT ISZERO PUSH2 0x260A JUMPI PUSH1 0x0 PUSH2 0x25F4 DUP6 PUSH1 0x1 JUMPDEST PUSH1 0x20 MUL ADD MLOAD DUP4 DUP6 PUSH2 0x2770 JUMP JUMPDEST SWAP1 POP PUSH2 0x2602 DUP2 DUP7 PUSH1 0x0 PUSH2 0x2445 JUMP JUMPDEST DUP5 PUSH1 0x0 PUSH2 0x247D JUMP JUMPDEST PUSH1 0x0 PUSH2 0x261E DUP6 DUP3 JUMPDEST PUSH1 0x20 MUL ADD MLOAD DUP5 DUP5 PUSH2 0x2770 JUMP JUMPDEST SWAP1 POP PUSH2 0x262C DUP2 DUP7 PUSH1 0x1 PUSH2 0x2445 JUMP JUMPDEST DUP5 PUSH1 0x1 PUSH2 0x24D5 JUMP JUMPDEST DUP4 MLOAD ISZERO ISZERO DUP1 PUSH2 0x2646 JUMPI POP PUSH1 0x20 DUP5 ADD MLOAD ISZERO ISZERO JUMPDEST ISZERO PUSH2 0x26B0 JUMPI DUP3 SLOAD ISZERO PUSH2 0x2684 JUMPI PUSH1 0x0 PUSH2 0x265F DUP6 PUSH1 0x1 PUSH2 0x25E8 JUMP JUMPDEST SWAP1 POP PUSH2 0x267C DUP2 PUSH2 0x190D DUP8 PUSH1 0x0 PUSH1 0x20 MUL ADD MLOAD DUP8 PUSH1 0x0 JUMPDEST ADD SLOAD SWAP1 PUSH2 0x2FE5 JUMP JUMPDEST DUP5 PUSH1 0x0 PUSH2 0x24D5 JUMP JUMPDEST PUSH1 0x0 PUSH2 0x2690 DUP6 DUP3 PUSH2 0x2612 JUMP JUMPDEST SWAP1 POP PUSH2 0x26A9 DUP2 PUSH2 0x190D DUP8 PUSH1 0x1 PUSH1 0x20 MUL ADD MLOAD DUP8 PUSH1 0x1 PUSH2 0x2674 JUMP JUMPDEST DUP5 PUSH1 0x1 ADD SSTORE POP JUMPDEST PUSH1 0x0 JUMPDEST PUSH1 0x2 DUP2 LT ISZERO PUSH2 0x273D JUMPI PUSH1 0x0 DUP14 DUP3 PUSH1 0x2 DUP2 LT PUSH2 0x26CA JUMPI INVALID JUMPDEST PUSH1 0x20 MUL ADD CALLDATALOAD PUSH1 0x1 PUSH1 0x1 PUSH1 0xA0 SHL SUB AND PUSH1 0x1 PUSH1 0x1 PUSH1 0xA0 SHL SUB AND EQ ISZERO PUSH2 0x26F6 JUMPI PUSH2 0x26F1 CALLER SELFBALANCE PUSH2 0x349B JUMP JUMPDEST PUSH2 0x2735 JUMP JUMPDEST PUSH1 0x0 PUSH2 0x2707 DUP15 DUP4 PUSH1 0x2 DUP2 LT PUSH2 0x1266 JUMPI INVALID JUMPDEST SWAP1 POP DUP1 ISZERO PUSH2 0x2733 JUMPI PUSH2 0x2733 DUP15 DUP4 PUSH1 0x2 DUP2 LT PUSH2 0x271E JUMPI INVALID JUMPDEST PUSH1 0x20 MUL ADD CALLDATALOAD PUSH1 0x1 PUSH1 0x1 PUSH1 0xA0 SHL SUB AND CALLER DUP4 PUSH2 0x3129 JUMP JUMPDEST POP JUMPDEST PUSH1 0x1 ADD PUSH2 0x26B3 JUMP JUMPDEST POP POP PUSH1 0x1 DUP1 SSTORE POP POP POP POP POP POP POP POP POP POP POP POP POP JUMP JUMPDEST PUSH1 0x9 SLOAD PUSH1 0x1 PUSH1 0x1 PUSH1 0xA0 SHL SUB AND DUP2 JUMP JUMPDEST PUSH1 0xB SLOAD PUSH1 0x1 PUSH1 0x1 PUSH1 0xA0 SHL SUB AND DUP2 JUMP JUMPDEST PUSH1 0x0 DUP4 PUSH2 0x277F JUMPI POP PUSH1 0x0 PUSH2 0xA40 JUMP JUMPDEST PUSH1 0x0 DUP4 GT DUP1 ISZERO PUSH2 0x278F JUMPI POP PUSH1 0x0 DUP3 GT JUMPDEST PUSH2 0x27D5 JUMPI PUSH1 0x40 DUP1 MLOAD PUSH3 0x461BCD PUSH1 0xE5 SHL DUP2 MSTORE PUSH1 0x20 PUSH1 0x4 DUP3 ADD MSTORE PUSH1 0x12 PUSH1 0x24 DUP3 ADD MSTORE PUSH18 0x62616420726573657276652076616C756573 PUSH1 0x70 SHL PUSH1 0x44 DUP3 ADD MSTORE SWAP1 MLOAD SWAP1 DUP2 SWAP1 SUB PUSH1 0x64 ADD SWAP1 REVERT JUMPDEST PUSH1 0x0 PUSH2 0x27E3 DUP6 PUSH2 0x3E5 PUSH2 0x3048 JUMP JUMPDEST SWAP1 POP PUSH1 0x0 PUSH2 0x27F1 DUP3 DUP6 PUSH2 0x3048 JUMP JUMPDEST SWAP1 POP PUSH1 0x0 PUSH2 0x2805 DUP4 PUSH2 0x190D DUP9 PUSH2 0x3E8 PUSH2 0x3048 JUMP JUMPDEST SWAP1 POP PUSH2 0x2811 DUP3 DUP3 PUSH2 0x30E3 JUMP JUMPDEST SWAP8 SWAP7 POP POP POP POP POP POP POP JUMP JUMPDEST PUSH1 0x8 SLOAD PUSH1 0x1 PUSH1 0x1 PUSH1 0xA0 SHL SUB AND DUP2 JUMP JUMPDEST PUSH2 0x2833 PUSH2 0x3125 JUMP JUMPDEST PUSH1 0x0 SLOAD PUSH1 0x1 PUSH1 0x1 PUSH1 0xA0 SHL SUB SWAP1 DUP2 AND SWAP2 AND EQ PUSH2 0x2883 JUMPI PUSH1 0x40 DUP1 MLOAD PUSH3 0x461BCD PUSH1 0xE5 SHL DUP2 MSTORE PUSH1 0x20 PUSH1 0x4 DUP3 ADD DUP2 SWAP1 MSTORE PUSH1 0x24 DUP3 ADD MSTORE PUSH1 0x0 DUP1 MLOAD PUSH1 0x20 PUSH2 0x3C73 DUP4 CODECOPY DUP2 MLOAD SWAP2 MSTORE PUSH1 0x44 DUP3 ADD MSTORE SWAP1 MLOAD SWAP1 DUP2 SWAP1 SUB PUSH1 0x64 ADD SWAP1 REVERT JUMPDEST DUP2 PUSH1 0x0 JUMPDEST DUP2 DUP2 LT ISZERO PUSH2 0x28D9 JUMPI DUP3 PUSH1 0x14 PUSH1 0x0 DUP8 DUP8 DUP6 DUP2 DUP2 LT PUSH2 0x28A0 JUMPI INVALID JUMPDEST PUSH1 0x20 SWAP1 DUP2 MUL SWAP3 SWAP1 SWAP3 ADD CALLDATALOAD PUSH1 0x1 PUSH1 0x1 PUSH1 0xA0 SHL SUB AND DUP4 MSTORE POP DUP2 ADD SWAP2 SWAP1 SWAP2 MSTORE PUSH1 0x40 ADD PUSH1 0x0 KECCAK256 DUP1 SLOAD PUSH1 0xFF NOT AND SWAP2 ISZERO ISZERO SWAP2 SWAP1 SWAP2 OR SWAP1 SSTORE PUSH1 0x1 ADD PUSH2 0x2887 JUMP JUMPDEST POP POP POP POP POP JUMP JUMPDEST PUSH1 0x5 SLOAD PUSH1 0x1 PUSH1 0x1 PUSH1 0xA0 SHL SUB AND DUP2 JUMP JUMPDEST PUSH1 0xD SLOAD PUSH1 0xE SLOAD PUSH1 0xF SLOAD PUSH1 0x10 SLOAD DUP5 JUMP JUMPDEST PUSH1 0xD SLOAD PUSH1 0x0 SWAP1 ISZERO PUSH2 0x293F JUMPI PUSH2 0x2938 PUSH1 0xD PUSH1 0x2 ADD SLOAD PUSH2 0x190D PUSH1 0xD PUSH1 0x0 ADD SLOAD PUSH2 0x181B PUSH8 0xDE0B6B3A7640000 PUSH2 0xA15 PUSH1 0xD PUSH1 0x1 ADD SLOAD PUSH2 0x1193 PUSH2 0x84E JUMP JUMPDEST SWAP1 POP PUSH2 0x95E JUMP JUMPDEST POP PUSH1 0xF SLOAD PUSH2 0x95E JUMP JUMPDEST PUSH1 0x12 PUSH1 0x20 MSTORE PUSH1 0x0 SWAP1 DUP2 MSTORE PUSH1 0x40 SWAP1 KECCAK256 SLOAD DUP2 JUMP JUMPDEST PUSH2 0x2962 PUSH2 0x3125 JUMP JUMPDEST PUSH1 0x0 SLOAD PUSH1 0x1 PUSH1 0x1 PUSH1 0xA0 SHL SUB SWAP1 DUP2 AND SWAP2 AND EQ PUSH2 0x29B2 JUMPI PUSH1 0x40 DUP1 MLOAD PUSH3 0x461BCD PUSH1 0xE5 SHL DUP2 MSTORE PUSH1 0x20 PUSH1 0x4 DUP3 ADD DUP2 SWAP1 MSTORE PUSH1 0x24 DUP3 ADD MSTORE PUSH1 0x0 DUP1 MLOAD PUSH1 0x20 PUSH2 0x3C73 DUP4 CODECOPY DUP2 MLOAD SWAP2 MSTORE PUSH1 0x44 DUP3 ADD MSTORE SWAP1 MLOAD SWAP1 DUP2 SWAP1 SUB PUSH1 0x64 ADD SWAP1 REVERT JUMPDEST PUSH1 0x1 PUSH1 0x1 PUSH1 0xA0 SHL SUB DUP2 AND PUSH2 0x29F7 JUMPI PUSH1 0x40 MLOAD PUSH3 0x461BCD PUSH1 0xE5 SHL DUP2 MSTORE PUSH1 0x4 ADD DUP1 DUP1 PUSH1 0x20 ADD DUP3 DUP2 SUB DUP3 MSTORE PUSH1 0x26 DUP2 MSTORE PUSH1 0x20 ADD DUP1 PUSH2 0x3C0A PUSH1 0x26 SWAP2 CODECOPY PUSH1 0x40 ADD SWAP2 POP POP PUSH1 0x40 MLOAD DUP1 SWAP2 SUB SWAP1 REVERT JUMPDEST PUSH1 0x0 DUP1 SLOAD PUSH1 0x40 MLOAD PUSH1 0x1 PUSH1 0x1 PUSH1 0xA0 SHL SUB DUP1 DUP6 AND SWAP4 SWAP3 AND SWAP2 PUSH32 0x8BE0079C531659141344CD1FD0A4F28419497F9722A3DAAFE3B4186F6B6457E0 SWAP2 LOG3 PUSH1 0x0 DUP1 SLOAD PUSH1 0x1 PUSH1 0x1 PUSH1 0xA0 SHL SUB NOT AND PUSH1 0x1 PUSH1 0x1 PUSH1 0xA0 SHL SUB SWAP3 SWAP1 SWAP3 AND SWAP2 SWAP1 SWAP2 OR SWAP1 SSTORE JUMP JUMPDEST PUSH2 0x2A5A PUSH2 0x3125 JUMP JUMPDEST PUSH1 0x0 SLOAD PUSH1 0x1 PUSH1 0x1 PUSH1 0xA0 SHL SUB SWAP1 DUP2 AND SWAP2 AND EQ PUSH2 0x2AAA JUMPI PUSH1 0x40 DUP1 MLOAD PUSH3 0x461BCD PUSH1 0xE5 SHL DUP2 MSTORE PUSH1 0x20 PUSH1 0x4 DUP3 ADD DUP2 SWAP1 MSTORE PUSH1 0x24 DUP3 ADD MSTORE PUSH1 0x0 DUP1 MLOAD PUSH1 0x20 PUSH2 0x3C73 DUP4 CODECOPY DUP2 MLOAD SWAP2 MSTORE PUSH1 0x44 DUP3 ADD MSTORE SWAP1 MLOAD SWAP1 DUP2 SWAP1 SUB PUSH1 0x64 ADD SWAP1 REVERT JUMPDEST PUSH1 0x15 DUP1 SLOAD PUSH1 0x1 PUSH1 0x1 PUSH1 0xA0 SHL SUB NOT AND PUSH1 0x1 PUSH1 0x1 PUSH1 0xA0 SHL SUB SWAP3 SWAP1 SWAP3 AND SWAP2 SWAP1 SWAP2 OR SWAP1 SSTORE JUMP JUMPDEST PUSH1 0x13 PUSH1 0x20 MSTORE DUP2 PUSH1 0x0 MSTORE PUSH1 0x40 PUSH1 0x0 KECCAK256 DUP2 PUSH1 0x2 DUP2 LT PUSH2 0x2AE5 JUMPI INVALID JUMPDEST ADD SLOAD SWAP2 POP DUP3 SWAP1 POP JUMP JUMPDEST PUSH2 0x2AF6 PUSH2 0x3B7A JUMP JUMPDEST PUSH1 0xA SLOAD DUP4 CALLDATALOAD PUSH1 0x1 PUSH1 0x1 PUSH1 0xA0 SHL SUB SWAP1 DUP2 AND SWAP2 AND EQ DUP1 PUSH2 0x2B23 JUMPI POP PUSH1 0xB SLOAD DUP4 CALLDATALOAD PUSH1 0x1 PUSH1 0x1 PUSH1 0xA0 SHL SUB SWAP1 DUP2 AND SWAP2 AND EQ JUMPDEST DUP1 PUSH2 0x2B36 JUMPI POP PUSH1 0x1 PUSH1 0x1 PUSH1 0xA0 SHL SUB DUP4 CALLDATALOAD AND ISZERO JUMPDEST PUSH2 0x2B71 JUMPI PUSH1 0x40 MLOAD PUSH3 0x461BCD PUSH1 0xE5 SHL DUP2 MSTORE PUSH1 0x4 ADD DUP1 DUP1 PUSH1 0x20 ADD DUP3 DUP2 SUB DUP3 MSTORE PUSH1 0x25 DUP2 MSTORE PUSH1 0x20 ADD DUP1 PUSH2 0x3BE5 PUSH1 0x25 SWAP2 CODECOPY PUSH1 0x40 ADD SWAP2 POP POP PUSH1 0x40 MLOAD DUP1 SWAP2 SUB SWAP1 REVERT JUMPDEST PUSH1 0xA SLOAD PUSH1 0x20 DUP5 ADD CALLDATALOAD PUSH1 0x1 PUSH1 0x1 PUSH1 0xA0 SHL SUB SWAP1 DUP2 AND SWAP2 AND EQ DUP1 PUSH2 0x2BA4 JUMPI POP PUSH1 0xB SLOAD PUSH1 0x20 DUP5 ADD CALLDATALOAD PUSH1 0x1 PUSH1 0x1 PUSH1 0xA0 SHL SUB SWAP1 DUP2 AND SWAP2 AND EQ JUMPDEST DUP1 PUSH2 0x2BBA JUMPI POP PUSH1 0x1 PUSH1 0x1 PUSH1 0xA0 SHL SUB PUSH1 0x20 DUP5 ADD CALLDATALOAD AND ISZERO JUMPDEST PUSH2 0x2BF5 JUMPI PUSH1 0x40 MLOAD PUSH3 0x461BCD PUSH1 0xE5 SHL DUP2 MSTORE PUSH1 0x4 ADD DUP1 DUP1 PUSH1 0x20 ADD DUP3 DUP2 SUB DUP3 MSTORE PUSH1 0x25 DUP2 MSTORE PUSH1 0x20 ADD DUP1 PUSH2 0x3C93 PUSH1 0x25 SWAP2 CODECOPY PUSH1 0x40 ADD SWAP2 POP POP PUSH1 0x40 MLOAD DUP1 SWAP2 SUB SWAP1 REVERT JUMPDEST PUSH1 0x0 DUP5 DUP2 MSTORE PUSH1 0x12 PUSH1 0x20 SWAP1 DUP2 MSTORE PUSH1 0x40 DUP1 DUP4 KECCAK256 SLOAD PUSH1 0x7 SLOAD DUP3 MLOAD PUSH4 0x18160DDD PUSH1 0xE0 SHL DUP2 MSTORE SWAP3 MLOAD SWAP2 SWAP5 SWAP4 PUSH1 0x1 PUSH1 0x1 PUSH1 0xA0 SHL SUB SWAP1 SWAP2 AND SWAP3 PUSH4 0x18160DDD SWAP3 PUSH1 0x4 DUP1 DUP4 ADD SWAP4 SWAP3 DUP3 SWAP1 SUB ADD DUP2 DUP7 DUP1 EXTCODESIZE ISZERO DUP1 ISZERO PUSH2 0x2C48 JUMPI PUSH1 0x0 DUP1 REVERT JUMPDEST POP GAS STATICCALL ISZERO DUP1 ISZERO PUSH2 0x2C5C JUMPI RETURNDATASIZE PUSH1 0x0 DUP1 RETURNDATACOPY RETURNDATASIZE PUSH1 0x0 REVERT JUMPDEST POP POP POP POP PUSH1 0x40 MLOAD RETURNDATASIZE PUSH1 0x20 DUP2 LT ISZERO PUSH2 0x2C72 JUMPI PUSH1 0x0 DUP1 REVERT JUMPDEST POP MLOAD PUSH1 0x7 SLOAD PUSH1 0x40 DUP1 MLOAD PUSH4 0x240BC6B PUSH1 0xE2 SHL DUP2 MSTORE SWAP1 MLOAD SWAP3 SWAP4 POP PUSH1 0x0 SWAP3 DUP4 SWAP3 PUSH1 0x1 PUSH1 0x1 PUSH1 0xA0 SHL SUB AND SWAP2 PUSH4 0x902F1AC SWAP2 PUSH1 0x4 DUP1 DUP4 ADD SWAP3 PUSH1 0x60 SWAP3 SWAP2 SWAP1 DUP3 SWAP1 SUB ADD DUP2 DUP7 DUP1 EXTCODESIZE ISZERO DUP1 ISZERO PUSH2 0x2CBE JUMPI PUSH1 0x0 DUP1 REVERT JUMPDEST POP GAS STATICCALL ISZERO DUP1 ISZERO PUSH2 0x2CD2 JUMPI RETURNDATASIZE PUSH1 0x0 DUP1 RETURNDATACOPY RETURNDATASIZE PUSH1 0x0 REVERT JUMPDEST POP POP POP POP PUSH1 0x40 MLOAD RETURNDATASIZE PUSH1 0x60 DUP2 LT ISZERO PUSH2 0x2CE8 JUMPI PUSH1 0x0 DUP1 REVERT JUMPDEST POP DUP1 MLOAD PUSH1 0x20 SWAP1 SWAP2 ADD MLOAD PUSH1 0xB SLOAD PUSH1 0x1 PUSH1 0x1 PUSH1 0x70 SHL SUB SWAP3 DUP4 AND SWAP5 POP SWAP2 AND SWAP2 POP DUP8 CALLDATALOAD PUSH1 0x1 PUSH1 0x1 PUSH1 0xA0 SHL SUB SWAP1 DUP2 AND SWAP2 AND EQ DUP1 PUSH2 0x2D43 JUMPI POP PUSH1 0x1 PUSH1 0x1 PUSH1 0xA0 SHL SUB DUP8 CALLDATALOAD AND ISZERO DUP1 ISZERO PUSH2 0x2D43 JUMPI POP PUSH1 0x9 SLOAD PUSH1 0xB SLOAD PUSH1 0x1 PUSH1 0x1 PUSH1 0xA0 SHL SUB SWAP1 DUP2 AND SWAP2 AND EQ JUMPDEST ISZERO PUSH2 0x2D4A JUMPI SWAP1 JUMPDEST PUSH1 0x0 PUSH2 0x2D5A DUP5 PUSH2 0x181B DUP8 DUP7 PUSH2 0x3048 JUMP JUMPDEST SWAP1 POP PUSH1 0x0 PUSH2 0x2D6C DUP6 PUSH2 0x181B DUP9 DUP7 PUSH2 0x3048 JUMP JUMPDEST SWAP1 POP PUSH2 0x2D78 DUP5 DUP4 PUSH2 0x30A1 JUMP JUMPDEST SWAP4 POP PUSH2 0x2D84 DUP4 DUP3 PUSH2 0x30A1 JUMP JUMPDEST SWAP3 POP DUP8 CALLDATALOAD PUSH1 0x20 DUP10 ADD CALLDATALOAD PUSH2 0x2DA6 PUSH11 0x84595161401484A000000 PUSH2 0x190D DUP6 DUP6 PUSH2 0x3048 JUMP JUMPDEST PUSH2 0x2DB0 DUP6 DUP4 PUSH2 0x3048 JUMP JUMPDEST GT ISZERO PUSH2 0x2E02 JUMPI PUSH1 0x0 PUSH2 0x2DC6 DUP8 DUP8 DUP6 DUP6 DUP10 DUP10 PUSH2 0x391C JUMP JUMPDEST SWAP1 POP DUP5 DUP2 GT PUSH2 0x2DD5 JUMPI DUP1 PUSH2 0x2DD7 JUMP JUMPDEST DUP5 JUMPDEST SWAP1 POP PUSH2 0x2DE3 DUP6 DUP3 PUSH2 0x30A1 JUMP JUMPDEST SWAP5 POP PUSH2 0x2DFA PUSH2 0x2DF3 DUP3 DUP10 DUP10 PUSH2 0x2770 JUMP JUMPDEST DUP6 SWAP1 PUSH2 0x2FE5 JUMP JUMPDEST SWAP4 POP POP PUSH2 0x2E73 JUMP JUMPDEST PUSH2 0x2E0C DUP4 DUP4 PUSH2 0x3048 JUMP JUMPDEST PUSH2 0x2E25 PUSH11 0x84595161401484A000000 PUSH2 0x190D DUP8 DUP6 PUSH2 0x3048 JUMP JUMPDEST LT ISZERO PUSH2 0x2E73 JUMPI PUSH1 0x0 PUSH2 0x2E3B DUP7 DUP9 DUP5 DUP7 DUP9 DUP11 PUSH2 0x391C JUMP JUMPDEST SWAP1 POP DUP4 DUP2 GT PUSH2 0x2E4A JUMPI DUP1 PUSH2 0x2E4C JUMP JUMPDEST DUP4 JUMPDEST SWAP1 POP PUSH2 0x2E63 PUSH2 0x2E5C DUP3 DUP9 DUP11 PUSH2 0x2770 JUMP JUMPDEST DUP7 SWAP1 PUSH2 0x2FE5 JUMP JUMPDEST SWAP5 POP PUSH2 0x2E6F DUP5 DUP3 PUSH2 0x30A1 JUMP JUMPDEST SWAP4 POP POP JUMPDEST POP POP PUSH1 0x40 DUP1 MLOAD DUP1 DUP3 ADD SWAP1 SWAP2 MSTORE SWAP2 DUP3 MSTORE PUSH1 0x20 DUP3 ADD MSTORE SWAP9 SWAP8 POP POP POP POP POP POP POP POP JUMP JUMPDEST PUSH1 0x40 DUP1 MLOAD PUSH1 0x1 PUSH1 0x1 PUSH1 0xA0 SHL SUB DUP5 DUP2 AND PUSH1 0x24 DUP4 ADD MSTORE PUSH1 0x44 DUP1 DUP4 ADD DUP6 SWAP1 MSTORE DUP4 MLOAD DUP1 DUP5 SUB SWAP1 SWAP2 ADD DUP2 MSTORE PUSH1 0x64 SWAP1 SWAP3 ADD DUP4 MSTORE PUSH1 0x20 DUP3 ADD DUP1 MLOAD PUSH1 0x1 PUSH1 0x1 PUSH1 0xE0 SHL SUB AND PUSH4 0x95EA7B3 PUSH1 0xE0 SHL OR DUP2 MSTORE SWAP3 MLOAD DUP3 MLOAD PUSH1 0x0 SWAP5 PUSH1 0x60 SWAP5 SWAP4 DUP10 AND SWAP4 SWAP3 SWAP2 DUP3 SWAP2 SWAP1 DUP1 DUP4 DUP4 JUMPDEST PUSH1 0x20 DUP4 LT PUSH2 0x2F10 JUMPI DUP1 MLOAD DUP3 MSTORE PUSH1 0x1F NOT SWAP1 SWAP3 ADD SWAP2 PUSH1 0x20 SWAP2 DUP3 ADD SWAP2 ADD PUSH2 0x2EF1 JUMP JUMPDEST PUSH1 0x1 DUP4 PUSH1 0x20 SUB PUSH2 0x100 EXP SUB DUP1 NOT DUP3 MLOAD AND DUP2 DUP5 MLOAD AND DUP1 DUP3 OR DUP6 MSTORE POP POP POP POP POP POP SWAP1 POP ADD SWAP2 POP POP PUSH1 0x0 PUSH1 0x40 MLOAD DUP1 DUP4 SUB DUP2 PUSH1 0x0 DUP7 GAS CALL SWAP2 POP POP RETURNDATASIZE DUP1 PUSH1 0x0 DUP2 EQ PUSH2 0x2F72 JUMPI PUSH1 0x40 MLOAD SWAP2 POP PUSH1 0x1F NOT PUSH1 0x3F RETURNDATASIZE ADD AND DUP3 ADD PUSH1 0x40 MSTORE RETURNDATASIZE DUP3 MSTORE RETURNDATASIZE PUSH1 0x0 PUSH1 0x20 DUP5 ADD RETURNDATACOPY PUSH2 0x2F77 JUMP JUMPDEST PUSH1 0x60 SWAP2 POP JUMPDEST POP SWAP2 POP SWAP2 POP DUP2 DUP1 ISZERO PUSH2 0x2FA5 JUMPI POP DUP1 MLOAD ISZERO DUP1 PUSH2 0x2FA5 JUMPI POP DUP1 DUP1 PUSH1 0x20 ADD SWAP1 MLOAD PUSH1 0x20 DUP2 LT ISZERO PUSH2 0x2FA2 JUMPI PUSH1 0x0 DUP1 REVERT JUMPDEST POP MLOAD JUMPDEST PUSH2 0x28D9 JUMPI PUSH1 0x40 DUP1 MLOAD PUSH3 0x461BCD PUSH1 0xE5 SHL DUP2 MSTORE PUSH1 0x20 PUSH1 0x4 DUP3 ADD MSTORE PUSH1 0xC PUSH1 0x24 DUP3 ADD MSTORE PUSH12 0x2173616665417070726F7665 PUSH1 0xA0 SHL PUSH1 0x44 DUP3 ADD MSTORE SWAP1 MLOAD SWAP1 DUP2 SWAP1 SUB PUSH1 0x64 ADD SWAP1 REVERT JUMPDEST PUSH1 0x0 DUP3 DUP3 ADD DUP4 DUP2 LT ISZERO PUSH2 0x303F JUMPI PUSH1 0x40 DUP1 MLOAD PUSH3 0x461BCD PUSH1 0xE5 SHL DUP2 MSTORE PUSH1 0x20 PUSH1 0x4 DUP3 ADD MSTORE PUSH1 0x1B PUSH1 0x24 DUP3 ADD MSTORE PUSH32 0x536166654D6174683A206164646974696F6E206F766572666C6F770000000000 PUSH1 0x44 DUP3 ADD MSTORE SWAP1 MLOAD SWAP1 DUP2 SWAP1 SUB PUSH1 0x64 ADD SWAP1 REVERT JUMPDEST SWAP1 POP JUMPDEST SWAP3 SWAP2 POP POP JUMP JUMPDEST PUSH1 0x0 DUP3 PUSH2 0x3057 JUMPI POP PUSH1 0x0 PUSH2 0x3042 JUMP JUMPDEST DUP3 DUP3 MUL DUP3 DUP5 DUP3 DUP2 PUSH2 0x3064 JUMPI INVALID JUMPDEST DIV EQ PUSH2 0x303F JUMPI PUSH1 0x40 MLOAD PUSH3 0x461BCD PUSH1 0xE5 SHL DUP2 MSTORE PUSH1 0x4 ADD DUP1 DUP1 PUSH1 0x20 ADD DUP3 DUP2 SUB DUP3 MSTORE PUSH1 0x21 DUP2 MSTORE PUSH1 0x20 ADD DUP1 PUSH2 0x3C52 PUSH1 0x21 SWAP2 CODECOPY PUSH1 0x40 ADD SWAP2 POP POP PUSH1 0x40 MLOAD DUP1 SWAP2 SUB SWAP1 REVERT JUMPDEST PUSH1 0x0 PUSH2 0x303F DUP4 DUP4 PUSH1 0x40 MLOAD DUP1 PUSH1 0x40 ADD PUSH1 0x40 MSTORE DUP1 PUSH1 0x1E DUP2 MSTORE PUSH1 0x20 ADD PUSH32 0x536166654D6174683A207375627472616374696F6E206F766572666C6F770000 DUP2 MSTORE POP PUSH2 0x3A2D JUMP JUMPDEST PUSH1 0x0 PUSH2 0x303F DUP4 DUP4 PUSH1 0x40 MLOAD DUP1 PUSH1 0x40 ADD PUSH1 0x40 MSTORE DUP1 PUSH1 0x1A DUP2 MSTORE PUSH1 0x20 ADD PUSH32 0x536166654D6174683A206469766973696F6E206279207A65726F000000000000 DUP2 MSTORE POP PUSH2 0x3AC4 JUMP JUMPDEST CALLER SWAP1 JUMP JUMPDEST PUSH1 0x40 DUP1 MLOAD PUSH1 0x1 PUSH1 0x1 PUSH1 0xA0 SHL SUB DUP5 DUP2 AND PUSH1 0x24 DUP4 ADD MSTORE PUSH1 0x44 DUP1 DUP4 ADD DUP6 SWAP1 MSTORE DUP4 MLOAD DUP1 DUP5 SUB SWAP1 SWAP2 ADD DUP2 MSTORE PUSH1 0x64 SWAP1 SWAP3 ADD DUP4 MSTORE PUSH1 0x20 DUP3 ADD DUP1 MLOAD PUSH1 0x1 PUSH1 0x1 PUSH1 0xE0 SHL SUB AND PUSH4 0xA9059CBB PUSH1 0xE0 SHL OR DUP2 MSTORE SWAP3 MLOAD DUP3 MLOAD PUSH1 0x0 SWAP5 PUSH1 0x60 SWAP5 SWAP4 DUP10 AND SWAP4 SWAP3 SWAP2 DUP3 SWAP2 SWAP1 DUP1 DUP4 DUP4 JUMPDEST PUSH1 0x20 DUP4 LT PUSH2 0x31A6 JUMPI DUP1 MLOAD DUP3 MSTORE PUSH1 0x1F NOT SWAP1 SWAP3 ADD SWAP2 PUSH1 0x20 SWAP2 DUP3 ADD SWAP2 ADD PUSH2 0x3187 JUMP JUMPDEST PUSH1 0x1 DUP4 PUSH1 0x20 SUB PUSH2 0x100 EXP SUB DUP1 NOT DUP3 MLOAD AND DUP2 DUP5 MLOAD AND DUP1 DUP3 OR DUP6 MSTORE POP POP POP POP POP POP SWAP1 POP ADD SWAP2 POP POP PUSH1 0x0 PUSH1 0x40 MLOAD DUP1 DUP4 SUB DUP2 PUSH1 0x0 DUP7 GAS CALL SWAP2 POP POP RETURNDATASIZE DUP1 PUSH1 0x0 DUP2 EQ PUSH2 0x3208 JUMPI PUSH1 0x40 MLOAD SWAP2 POP PUSH1 0x1F NOT PUSH1 0x3F RETURNDATASIZE ADD AND DUP3 ADD PUSH1 0x40 MSTORE RETURNDATASIZE DUP3 MSTORE RETURNDATASIZE PUSH1 0x0 PUSH1 0x20 DUP5 ADD RETURNDATACOPY PUSH2 0x320D JUMP JUMPDEST PUSH1 0x60 SWAP2 POP JUMPDEST POP SWAP2 POP SWAP2 POP DUP2 DUP1 ISZERO PUSH2 0x323B JUMPI POP DUP1 MLOAD ISZERO DUP1 PUSH2 0x323B JUMPI POP DUP1 DUP1 PUSH1 0x20 ADD SWAP1 MLOAD PUSH1 0x20 DUP2 LT ISZERO PUSH2 0x3238 JUMPI PUSH1 0x0 DUP1 REVERT JUMPDEST POP MLOAD JUMPDEST PUSH2 0x28D9 JUMPI PUSH1 0x40 DUP1 MLOAD PUSH3 0x461BCD PUSH1 0xE5 SHL DUP2 MSTORE PUSH1 0x20 PUSH1 0x4 DUP3 ADD MSTORE PUSH1 0xD PUSH1 0x24 DUP3 ADD MSTORE PUSH13 0x10B9B0B332AA3930B739B332B9 PUSH1 0x99 SHL PUSH1 0x44 DUP3 ADD MSTORE SWAP1 MLOAD SWAP1 DUP2 SWAP1 SUB PUSH1 0x64 ADD SWAP1 REVERT JUMPDEST PUSH1 0x10 SLOAD TIMESTAMP EQ PUSH2 0x32A0 JUMPI PUSH2 0x328D PUSH2 0x28FE JUMP JUMPDEST PUSH1 0xF SSTORE PUSH2 0x3298 PUSH2 0x84E JUMP JUMPDEST PUSH1 0xE SSTORE TIMESTAMP PUSH1 0x10 SSTORE JUMPDEST PUSH1 0x1 PUSH1 0x1 PUSH1 0xA0 SHL SUB DUP2 AND PUSH1 0x0 DUP2 DUP2 MSTORE PUSH1 0x11 PUSH1 0x20 MSTORE PUSH1 0x40 SWAP1 KECCAK256 SWAP1 ISZERO DUP1 ISZERO SWAP1 PUSH2 0x32CB JUMPI POP TIMESTAMP DUP2 PUSH1 0x3 ADD SLOAD EQ ISZERO JUMPDEST ISZERO PUSH2 0x3317 JUMPI PUSH2 0x3303 DUP2 PUSH1 0x1 ADD SLOAD PUSH2 0x190D PUSH8 0xDE0B6B3A7640000 PUSH2 0x181B PUSH2 0x1905 DUP7 PUSH1 0x2 ADD SLOAD PUSH1 0xD PUSH1 0x2 ADD SLOAD PUSH2 0x30A1 SWAP1 SWAP2 SWAP1 PUSH4 0xFFFFFFFF AND JUMP JUMPDEST PUSH1 0x1 DUP3 ADD SSTORE PUSH1 0xF SLOAD PUSH1 0x2 DUP3 ADD SSTORE TIMESTAMP PUSH1 0x3 DUP3 ADD SSTORE JUMPDEST POP POP JUMP JUMPDEST PUSH1 0x0 DUP3 DUP2 MSTORE PUSH1 0x12 PUSH1 0x20 MSTORE PUSH1 0x40 SWAP1 KECCAK256 SLOAD DUP1 ISZERO PUSH2 0x3413 JUMPI PUSH1 0x1 PUSH1 0x1 PUSH1 0xA0 SHL SUB DUP1 DUP4 AND PUSH1 0x0 SWAP1 DUP2 MSTORE PUSH1 0x11 PUSH1 0x20 MSTORE PUSH1 0x40 DUP1 DUP3 KECCAK256 PUSH1 0x5 SLOAD PUSH1 0x6 SLOAD DUP4 MLOAD PUSH4 0x441A3E7 PUSH1 0xE4 SHL DUP2 MSTORE PUSH1 0x4 DUP2 ADD SWAP2 SWAP1 SWAP2 MSTORE PUSH1 0x24 DUP2 ADD DUP8 SWAP1 MSTORE SWAP3 MLOAD SWAP2 SWAP5 AND SWAP3 PUSH4 0x441A3E70 SWAP3 PUSH1 0x44 DUP1 DUP3 ADD SWAP4 SWAP2 DUP3 SWAP1 SUB ADD DUP2 DUP4 DUP8 DUP1 EXTCODESIZE ISZERO DUP1 ISZERO PUSH2 0x3393 JUMPI PUSH1 0x0 DUP1 REVERT JUMPDEST POP GAS CALL ISZERO DUP1 ISZERO PUSH2 0x33A7 JUMPI RETURNDATASIZE PUSH1 0x0 DUP1 RETURNDATACOPY RETURNDATASIZE PUSH1 0x0 REVERT JUMPDEST POP POP PUSH1 0xD SLOAD PUSH2 0x33B9 SWAP3 POP SWAP1 POP DUP4 PUSH2 0x30A1 JUMP JUMPDEST PUSH1 0xD SSTORE DUP1 SLOAD PUSH2 0x33C8 SWAP1 DUP4 PUSH2 0x30A1 JUMP JUMPDEST DUP2 SSTORE PUSH1 0x0 DUP5 DUP2 MSTORE PUSH1 0x12 PUSH1 0x20 SWAP1 DUP2 MSTORE PUSH1 0x40 DUP1 DUP4 KECCAK256 SWAP3 SWAP1 SWAP3 SSTORE DUP2 MLOAD DUP5 DUP2 MSTORE SWAP2 MLOAD DUP7 SWAP3 PUSH32 0xC84A6B5196FC6FB3BC943120255D7F3EFEE1424717DA5BBC24F922ED8426EA2C SWAP3 SWAP1 DUP3 SWAP1 SUB ADD SWAP1 LOG2 POP JUMPDEST POP POP POP JUMP JUMPDEST PUSH1 0x0 DUP2 PUSH1 0x1 PUSH1 0x1 PUSH1 0xA0 SHL SUB AND PUSH4 0x70A08231 ADDRESS PUSH1 0x40 MLOAD DUP3 PUSH4 0xFFFFFFFF AND PUSH1 0xE0 SHL DUP2 MSTORE PUSH1 0x4 ADD DUP1 DUP3 PUSH1 0x1 PUSH1 0x1 PUSH1 0xA0 SHL SUB AND DUP2 MSTORE PUSH1 0x20 ADD SWAP2 POP POP PUSH1 0x20 PUSH1 0x40 MLOAD DUP1 DUP4 SUB DUP2 DUP7 DUP1 EXTCODESIZE ISZERO DUP1 ISZERO PUSH2 0x3467 JUMPI PUSH1 0x0 DUP1 REVERT JUMPDEST POP GAS STATICCALL ISZERO DUP1 ISZERO PUSH2 0x347B JUMPI RETURNDATASIZE PUSH1 0x0 DUP1 RETURNDATACOPY RETURNDATASIZE PUSH1 0x0 REVERT JUMPDEST POP POP POP POP PUSH1 0x40 MLOAD RETURNDATASIZE PUSH1 0x20 DUP2 LT ISZERO PUSH2 0x3491 JUMPI PUSH1 0x0 DUP1 REVERT JUMPDEST POP MLOAD SWAP1 POP JUMPDEST SWAP2 SWAP1 POP JUMP JUMPDEST PUSH1 0x40 DUP1 MLOAD PUSH1 0x0 DUP1 DUP3 MSTORE PUSH1 0x20 DUP3 ADD SWAP1 SWAP3 MSTORE PUSH1 0x1 PUSH1 0x1 PUSH1 0xA0 SHL SUB DUP5 AND SWAP1 DUP4 SWAP1 PUSH1 0x40 MLOAD DUP1 DUP3 DUP1 MLOAD SWAP1 PUSH1 0x20 ADD SWAP1 DUP1 DUP4 DUP4 JUMPDEST PUSH1 0x20 DUP4 LT PUSH2 0x34E7 JUMPI DUP1 MLOAD DUP3 MSTORE PUSH1 0x1F NOT SWAP1 SWAP3 ADD SWAP2 PUSH1 0x20 SWAP2 DUP3 ADD SWAP2 ADD PUSH2 0x34C8 JUMP JUMPDEST PUSH1 0x1 DUP4 PUSH1 0x20 SUB PUSH2 0x100 EXP SUB DUP1 NOT DUP3 MLOAD AND DUP2 DUP5 MLOAD AND DUP1 DUP3 OR DUP6 MSTORE POP POP POP POP POP POP SWAP1 POP ADD SWAP2 POP POP PUSH1 0x0 PUSH1 0x40 MLOAD DUP1 DUP4 SUB DUP2 DUP6 DUP8 GAS CALL SWAP3 POP POP POP RETURNDATASIZE DUP1 PUSH1 0x0 DUP2 EQ PUSH2 0x3549 JUMPI PUSH1 0x40 MLOAD SWAP2 POP PUSH1 0x1F NOT PUSH1 0x3F RETURNDATASIZE ADD AND DUP3 ADD PUSH1 0x40 MSTORE RETURNDATASIZE DUP3 MSTORE RETURNDATASIZE PUSH1 0x0 PUSH1 0x20 DUP5 ADD RETURNDATACOPY PUSH2 0x354E JUMP JUMPDEST PUSH1 0x60 SWAP2 POP JUMPDEST POP POP SWAP1 POP DUP1 PUSH2 0x3413 JUMPI PUSH1 0x40 DUP1 MLOAD PUSH3 0x461BCD PUSH1 0xE5 SHL DUP2 MSTORE PUSH1 0x20 PUSH1 0x4 DUP3 ADD MSTORE PUSH1 0x10 PUSH1 0x24 DUP3 ADD MSTORE PUSH16 0x42E6C2CCCAA8E4C2DCE6CCCAE48AA89 PUSH1 0x83 SHL PUSH1 0x44 DUP3 ADD MSTORE SWAP1 MLOAD SWAP1 DUP2 SWAP1 SUB PUSH1 0x64 ADD SWAP1 REVERT JUMPDEST PUSH1 0x0 DUP4 DUP3 GT ISZERO PUSH2 0x35E3 JUMPI PUSH1 0x0 PUSH2 0x35B0 DUP6 DUP5 SUB DUP9 DUP11 PUSH2 0x2770 JUMP JUMPDEST SWAP1 POP DUP6 PUSH2 0x35BD DUP6 DUP4 PUSH2 0x2FE5 JUMP JUMPDEST GT ISZERO PUSH2 0x35D8 JUMPI PUSH2 0x35D1 DUP7 PUSH2 0x1193 DUP7 DUP5 PUSH2 0x2FE5 JUMP JUMPDEST SWAP4 POP PUSH2 0x35DD JUMP JUMPDEST PUSH1 0x0 SWAP4 POP JUMPDEST POP PUSH2 0x3634 JUMP JUMPDEST DUP6 DUP3 DUP6 SUB GT ISZERO PUSH2 0x35F6 JUMPI PUSH1 0x0 SWAP3 POP PUSH2 0x3634 JUMP JUMPDEST PUSH1 0x0 PUSH2 0x3605 DUP4 DUP7 SUB DUP10 DUP10 PUSH2 0x961 JUMP JUMPDEST SWAP1 POP PUSH2 0x3611 DUP7 DUP3 PUSH2 0x2FE5 JUMP JUMPDEST DUP5 GT ISZERO PUSH2 0x362D JUMPI PUSH2 0x3626 DUP7 PUSH2 0x1193 DUP7 DUP5 PUSH2 0x30A1 JUMP JUMPDEST SWAP4 POP PUSH2 0x3632 JUMP JUMPDEST PUSH1 0x0 SWAP4 POP JUMPDEST POP JUMPDEST POP DUP2 JUMPDEST SWAP7 SWAP6 POP POP POP POP POP POP JUMP JUMPDEST PUSH1 0x40 DUP1 MLOAD PUSH1 0x1 PUSH1 0x1 PUSH1 0xA0 SHL SUB DUP6 DUP2 AND PUSH1 0x24 DUP4 ADD MSTORE DUP5 DUP2 AND PUSH1 0x44 DUP4 ADD MSTORE PUSH1 0x64 DUP1 DUP4 ADD DUP6 SWAP1 MSTORE DUP4 MLOAD DUP1 DUP5 SUB SWAP1 SWAP2 ADD DUP2 MSTORE PUSH1 0x84 SWAP1 SWAP3 ADD DUP4 MSTORE PUSH1 0x20 DUP3 ADD DUP1 MLOAD PUSH1 0x1 PUSH1 0x1 PUSH1 0xE0 SHL SUB AND PUSH4 0x23B872DD PUSH1 0xE0 SHL OR DUP2 MSTORE SWAP3 MLOAD DUP3 MLOAD PUSH1 0x0 SWAP5 PUSH1 0x60 SWAP5 SWAP4 DUP11 AND SWAP4 SWAP3 SWAP2 DUP3 SWAP2 SWAP1 DUP1 DUP4 DUP4 JUMPDEST PUSH1 0x20 DUP4 LT PUSH2 0x36C6 JUMPI DUP1 MLOAD DUP3 MSTORE PUSH1 0x1F NOT SWAP1 SWAP3 ADD SWAP2 PUSH1 0x20 SWAP2 DUP3 ADD SWAP2 ADD PUSH2 0x36A7 JUMP JUMPDEST PUSH1 0x1 DUP4 PUSH1 0x20 SUB PUSH2 0x100 EXP SUB DUP1 NOT DUP3 MLOAD AND DUP2 DUP5 MLOAD AND DUP1 DUP3 OR DUP6 MSTORE POP POP POP POP POP POP SWAP1 POP ADD SWAP2 POP POP PUSH1 0x0 PUSH1 0x40 MLOAD DUP1 DUP4 SUB DUP2 PUSH1 0x0 DUP7 GAS CALL SWAP2 POP POP RETURNDATASIZE DUP1 PUSH1 0x0 DUP2 EQ PUSH2 0x3728 JUMPI PUSH1 0x40 MLOAD SWAP2 POP PUSH1 0x1F NOT PUSH1 0x3F RETURNDATASIZE ADD AND DUP3 ADD PUSH1 0x40 MSTORE RETURNDATASIZE DUP3 MSTORE RETURNDATASIZE PUSH1 0x0 PUSH1 0x20 DUP5 ADD RETURNDATACOPY PUSH2 0x372D JUMP JUMPDEST PUSH1 0x60 SWAP2 POP JUMPDEST POP SWAP2 POP SWAP2 POP DUP2 DUP1 ISZERO PUSH2 0x375B JUMPI POP DUP1 MLOAD ISZERO DUP1 PUSH2 0x375B JUMPI POP DUP1 DUP1 PUSH1 0x20 ADD SWAP1 MLOAD PUSH1 0x20 DUP2 LT ISZERO PUSH2 0x3758 JUMPI PUSH1 0x0 DUP1 REVERT JUMPDEST POP MLOAD JUMPDEST PUSH2 0x1564 JUMPI PUSH1 0x40 DUP1 MLOAD PUSH3 0x461BCD PUSH1 0xE5 SHL DUP2 MSTORE PUSH1 0x20 PUSH1 0x4 DUP3 ADD MSTORE PUSH1 0x11 PUSH1 0x24 DUP3 ADD MSTORE PUSH17 0x21736166655472616E7366657246726F6D PUSH1 0x78 SHL PUSH1 0x44 DUP3 ADD MSTORE SWAP1 MLOAD SWAP1 DUP2 SWAP1 SUB PUSH1 0x64 ADD SWAP1 REVERT JUMPDEST PUSH1 0x7 SLOAD PUSH1 0x40 DUP1 MLOAD PUSH4 0x70A08231 PUSH1 0xE0 SHL DUP2 MSTORE ADDRESS PUSH1 0x4 DUP3 ADD MSTORE SWAP1 MLOAD PUSH1 0x0 SWAP3 PUSH1 0x1 PUSH1 0x1 PUSH1 0xA0 SHL SUB AND SWAP2 PUSH4 0x70A08231 SWAP2 PUSH1 0x24 DUP1 DUP4 ADD SWAP3 PUSH1 0x20 SWAP3 SWAP2 SWAP1 DUP3 SWAP1 SUB ADD DUP2 DUP7 DUP1 EXTCODESIZE ISZERO DUP1 ISZERO PUSH2 0x37EB JUMPI PUSH1 0x0 DUP1 REVERT JUMPDEST POP GAS STATICCALL ISZERO DUP1 ISZERO PUSH2 0x37FF JUMPI RETURNDATASIZE PUSH1 0x0 DUP1 RETURNDATACOPY RETURNDATASIZE PUSH1 0x0 REVERT JUMPDEST POP POP POP POP PUSH1 0x40 MLOAD RETURNDATASIZE PUSH1 0x20 DUP2 LT ISZERO PUSH2 0x3815 JUMPI PUSH1 0x0 DUP1 REVERT JUMPDEST POP MLOAD SWAP1 POP DUP1 ISZERO PUSH2 0x3413 JUMPI PUSH1 0x1 PUSH1 0x1 PUSH1 0xA0 SHL SUB DUP1 DUP4 AND PUSH1 0x0 SWAP1 DUP2 MSTORE PUSH1 0x11 PUSH1 0x20 MSTORE PUSH1 0x40 DUP1 DUP3 KECCAK256 PUSH1 0x5 SLOAD PUSH1 0x6 SLOAD DUP4 MLOAD PUSH4 0x1C57762B PUSH1 0xE3 SHL DUP2 MSTORE PUSH1 0x4 DUP2 ADD SWAP2 SWAP1 SWAP2 MSTORE PUSH1 0x24 DUP2 ADD DUP8 SWAP1 MSTORE SWAP3 MLOAD SWAP2 SWAP5 AND SWAP3 PUSH4 0xE2BBB158 SWAP3 PUSH1 0x44 DUP1 DUP3 ADD SWAP4 SWAP2 DUP3 SWAP1 SUB ADD DUP2 DUP4 DUP8 DUP1 EXTCODESIZE ISZERO DUP1 ISZERO PUSH2 0x3882 JUMPI PUSH1 0x0 DUP1 REVERT JUMPDEST POP GAS CALL ISZERO DUP1 ISZERO PUSH2 0x3896 JUMPI RETURNDATASIZE PUSH1 0x0 DUP1 RETURNDATACOPY RETURNDATASIZE PUSH1 0x0 REVERT JUMPDEST POP POP POP PUSH1 0x0 DUP6 DUP2 MSTORE PUSH1 0x12 PUSH1 0x20 MSTORE PUSH1 0x40 SWAP1 KECCAK256 SLOAD PUSH2 0x38B3 SWAP2 POP DUP4 PUSH2 0x2FE5 JUMP JUMPDEST PUSH1 0x0 DUP6 DUP2 MSTORE PUSH1 0x12 PUSH1 0x20 MSTORE PUSH1 0x40 SWAP1 KECCAK256 SSTORE PUSH1 0xD SLOAD PUSH2 0x38CF SWAP1 DUP4 PUSH2 0x2FE5 JUMP JUMPDEST PUSH1 0xD SSTORE DUP1 SLOAD PUSH2 0x38DE SWAP1 DUP4 PUSH2 0x2FE5 JUMP JUMPDEST DUP2 SSTORE PUSH1 0x40 DUP1 MLOAD DUP4 DUP2 MSTORE SWAP1 MLOAD DUP6 SWAP2 PUSH32 0x575F7E3945A96ACA9EB04485EDAD4D0525B0CF2F686B62C51A4D7E089AC00585 SWAP2 SWAP1 DUP2 SWAP1 SUB PUSH1 0x20 ADD SWAP1 LOG2 POP POP POP POP JUMP JUMPDEST PUSH1 0x0 PUSH2 0x3928 DUP3 DUP7 PUSH2 0x3048 JUMP JUMPDEST PUSH2 0x3932 DUP5 DUP7 PUSH2 0x3048 JUMP JUMPDEST GT PUSH2 0x3984 JUMPI PUSH1 0x40 DUP1 MLOAD PUSH3 0x461BCD PUSH1 0xE5 SHL DUP2 MSTORE PUSH1 0x20 PUSH1 0x4 DUP3 ADD MSTORE PUSH1 0x1D PUSH1 0x24 DUP3 ADD MSTORE PUSH32 0x6E612F64612073686F756C64206C61676572207468616E206E622F6462000000 PUSH1 0x44 DUP3 ADD MSTORE SWAP1 MLOAD SWAP1 DUP2 SWAP1 SUB PUSH1 0x64 ADD SWAP1 REVERT JUMPDEST DUP5 PUSH2 0x3990 JUMPI POP DUP2 PUSH2 0x3637 JUMP JUMPDEST PUSH1 0x0 PUSH2 0x39AA PUSH2 0x39A3 DUP7 PUSH2 0x181B DUP7 DUP11 PUSH2 0x3048 JUMP JUMPDEST DUP6 SWAP1 PUSH2 0x30A1 JUMP JUMPDEST SWAP1 POP PUSH1 0x0 PUSH2 0x39C0 PUSH2 0x3E5 PUSH2 0x181B DUP12 PUSH2 0x3E8 PUSH2 0x3048 JUMP JUMPDEST SWAP1 POP PUSH1 0x0 PUSH2 0x39D2 DUP8 PUSH2 0x181B DUP11 DUP13 PUSH2 0x3048 JUMP JUMPDEST SWAP1 POP PUSH1 0x0 PUSH2 0x39E4 DUP5 PUSH2 0x1193 DUP6 DUP6 PUSH2 0x2FE5 JUMP JUMPDEST SWAP1 POP PUSH1 0x0 PUSH2 0x39F2 DUP6 DUP6 PUSH2 0x3048 JUMP JUMPDEST SWAP1 POP PUSH2 0x3A1D PUSH1 0x2 PUSH2 0x181B DUP5 PUSH2 0x1193 PUSH2 0x3A18 PUSH2 0x3A0E DUP8 PUSH1 0x4 PUSH2 0x3048 JUMP JUMPDEST PUSH2 0x190D DUP10 DUP1 PUSH2 0x3048 JUMP JUMPDEST PUSH2 0x3B29 JUMP JUMPDEST SWAP13 SWAP12 POP POP POP POP POP POP POP POP POP POP POP POP JUMP JUMPDEST PUSH1 0x0 DUP2 DUP5 DUP5 GT ISZERO PUSH2 0x3ABC JUMPI PUSH1 0x40 MLOAD PUSH3 0x461BCD PUSH1 0xE5 SHL DUP2 MSTORE PUSH1 0x4 ADD DUP1 DUP1 PUSH1 0x20 ADD DUP3 DUP2 SUB DUP3 MSTORE DUP4 DUP2 DUP2 MLOAD DUP2 MSTORE PUSH1 0x20 ADD SWAP2 POP DUP1 MLOAD SWAP1 PUSH1 0x20 ADD SWAP1 DUP1 DUP4 DUP4 PUSH1 0x0 JUMPDEST DUP4 DUP2 LT ISZERO PUSH2 0x3A81 JUMPI DUP2 DUP2 ADD MLOAD DUP4 DUP3 ADD MSTORE PUSH1 0x20 ADD PUSH2 0x3A69 JUMP JUMPDEST POP POP POP POP SWAP1 POP SWAP1 DUP2 ADD SWAP1 PUSH1 0x1F AND DUP1 ISZERO PUSH2 0x3AAE JUMPI DUP1 DUP3 SUB DUP1 MLOAD PUSH1 0x1 DUP4 PUSH1 0x20 SUB PUSH2 0x100 EXP SUB NOT AND DUP2 MSTORE PUSH1 0x20 ADD SWAP2 POP JUMPDEST POP SWAP3 POP POP POP PUSH1 0x40 MLOAD DUP1 SWAP2 SUB SWAP1 REVERT JUMPDEST POP POP POP SWAP1 SUB SWAP1 JUMP JUMPDEST PUSH1 0x0 DUP2 DUP4 PUSH2 0x3B13 JUMPI PUSH1 0x40 MLOAD PUSH3 0x461BCD PUSH1 0xE5 SHL DUP2 MSTORE PUSH1 0x20 PUSH1 0x4 DUP3 ADD DUP2 DUP2 MSTORE DUP4 MLOAD PUSH1 0x24 DUP5 ADD MSTORE DUP4 MLOAD SWAP1 SWAP3 DUP4 SWAP3 PUSH1 0x44 SWAP1 SWAP2 ADD SWAP2 SWAP1 DUP6 ADD SWAP1 DUP1 DUP4 DUP4 PUSH1 0x0 DUP4 ISZERO PUSH2 0x3A81 JUMPI DUP2 DUP2 ADD MLOAD DUP4 DUP3 ADD MSTORE PUSH1 0x20 ADD PUSH2 0x3A69 JUMP JUMPDEST POP PUSH1 0x0 DUP4 DUP6 DUP2 PUSH2 0x3B1F JUMPI INVALID JUMPDEST DIV SWAP6 SWAP5 POP POP POP POP POP JUMP JUMPDEST PUSH1 0x0 PUSH1 0x3 DUP3 GT ISZERO PUSH2 0x3B6C JUMPI POP DUP1 PUSH1 0x1 PUSH1 0x2 DUP3 DIV ADD JUMPDEST DUP2 DUP2 LT ISZERO PUSH2 0x3B66 JUMPI DUP1 SWAP2 POP PUSH1 0x2 DUP2 DUP3 DUP6 DUP2 PUSH2 0x3B55 JUMPI INVALID JUMPDEST DIV ADD DUP2 PUSH2 0x3B5E JUMPI INVALID JUMPDEST DIV SWAP1 POP PUSH2 0x3B3E JUMP JUMPDEST POP PUSH2 0x3496 JUMP JUMPDEST DUP2 ISZERO PUSH2 0x3496 JUMPI POP PUSH1 0x1 SWAP2 SWAP1 POP JUMP JUMPDEST PUSH1 0x40 MLOAD DUP1 PUSH1 0x40 ADD PUSH1 0x40 MSTORE DUP1 PUSH1 0x2 SWAP1 PUSH1 0x20 DUP3 MUL DUP1 CALLDATASIZE DUP4 CALLDATACOPY POP SWAP2 SWAP3 SWAP2 POP POP JUMP JUMPDEST PUSH1 0x40 MLOAD DUP1 PUSH1 0x80 ADD PUSH1 0x40 MSTORE DUP1 PUSH1 0x0 DUP2 MSTORE PUSH1 0x20 ADD PUSH1 0x0 DUP2 MSTORE PUSH1 0x20 ADD PUSH1 0x0 DUP2 MSTORE PUSH1 0x20 ADD PUSH1 0x0 DUP2 MSTORE POP SWAP1 JUMP INVALID SELFBALANCE PUSH6 0x742073656C6C KECCAK256 PUSH10 0x6E20616D6F756E742C20 PUSH19 0x4F7574206D757374203E20614F7574626F7272 PUSH16 0x77546F6B656E735B305D206E6F742074 PUSH16 0x6B656E3020616E6420746F6B656E314F PUSH24 0x6E61626C653A206E6577206F776E65722069732074686520 PUSH27 0x65726F2061646472657373626F72726F77546F6B656E73206E6F74 KECCAK256 PUSH21 0x6F6B656E3020616E6420746F6B656E31536166654D PUSH2 0x7468 GASPRICE KECCAK256 PUSH14 0x756C7469706C69636174696F6E20 PUSH16 0x766572666C6F774F776E61626C653A20 PUSH4 0x616C6C65 PUSH19 0x206973206E6F7420746865206F776E6572626F PUSH19 0x726F77546F6B656E735B315D206E6F7420746F PUSH12 0x656E3020616E6420746F6B65 PUSH15 0x31A26469706673582212203B4F0EFF PUSH21 0xD25BA6801ECCDF449BAFBD6A637EB88259DE185CE0 DIFFICULTY 0xD2 BLOCKHASH 0x5E 0xE6 NOT PUSH5 0x736F6C6343 STOP MOD 0xC STOP CALLER "
		},
		"gasEstimates": {
			"creation": {
				"codeDepositCost": "3119400",
				"executionCost": "infinite",
				"totalCost": "infinite"
			},
			"external": {
				"bscPool()": "1104",
				"bscPoolId()": "1109",
				"cake()": "1148",
				"farm()": "1149",
				"getAllRewards(address)": "infinite",
				"getEqAmount(uint256,uint256,uint256)": "infinite",
				"getMktSellAmount(uint256,uint256,uint256)": "infinite",
				"getMktSellInAmount(uint256,uint256,uint256)": "infinite",
				"globalInfo()": "3559",
				"health(uint256,address[2],uint256[2])": "infinite",
				"liqStrategy()": "1083",
				"liquidate(uint256,address,address[2],uint256[2])": "infinite",
				"lpToken()": "1082",
				"newHealth(uint256,address[2],uint256[2])": "infinite",
				"operator()": "1105",
				"owner()": "1127",
				"poolId()": "1044",
				"posLPAmount(uint256)": "1150",
				"principal(uint256,uint256)": "1267",
				"recover(address,address,uint256)": "infinite",
				"renounceOwnership()": "infinite",
				"rewardPerLp()": "infinite",
				"setCriticalStrategies(address)": "infinite",
				"setStrategyOk(address[],bool)": "infinite",
				"strategiesOk(address)": "1225",
				"token0()": "1084",
				"token1()": "1104",
				"totalRewards()": "infinite",
				"transferOwnership(address)": "infinite",
				"userEarnedAmount(address)": "infinite",
				"userInfo(address)": "3745",
				"wBNB()": "1082",
				"work(uint256,address,address[2],uint256[2],uint256[2],bytes)": "infinite"
			},
			"internal": {
				"_addPosition(uint256,address)": "infinite",
				"_removePosition(uint256,address)": "infinite",
				"_repayDeptsAndSwapLeftToA(uint256,uint256,uint256,uint256,uint256,uint256)": "infinite",
				"_swapAToBWithDebtsRatio(uint256,uint256,uint256,uint256,uint256,uint256)": "infinite",
				"_updatePool(address)": "infinite"
			}
		},
		"methodIdentifiers": {
			"bscPool()": "ea3ec12d",
			"bscPoolId()": "7697f368",
			"cake()": "dce17484",
			"farm()": "36e9332d",
			"getAllRewards(address)": "362a3fad",
			"getEqAmount(uint256,uint256,uint256)": "8046326e",
			"getMktSellAmount(uint256,uint256,uint256)": "d75734c8",
			"getMktSellInAmount(uint256,uint256,uint256)": "17fc3ac7",
			"globalInfo()": "f04b5fa0",
			"health(uint256,address[2],uint256[2])": "ff43f9e7",
			"liqStrategy()": "785629b8",
			"liquidate(uint256,address,address[2],uint256[2])": "2bd417d9",
			"lpToken()": "5fcbd285",
			"newHealth(uint256,address[2],uint256[2])": "57dd5650",
			"operator()": "570ca735",
			"owner()": "8da5cb5b",
			"poolId()": "3e0dc34e",
			"posLPAmount(uint256)": "f204b9c5",
			"principal(uint256,uint256)": "fe05cdea",
			"recover(address,address,uint256)": "1ec82cb8",
			"renounceOwnership()": "715018a6",
			"rewardPerLp()": "f128b5f4",
			"setCriticalStrategies(address)": "f88acf8c",
			"setStrategyOk(address[],bool)": "e7956f21",
			"strategiesOk(address)": "7637b237",
			"token0()": "0dfe1681",
			"token1()": "d21220a7",
			"totalRewards()": "0e15561a",
			"transferOwnership(address)": "f2fde38b",
			"userEarnedAmount(address)": "5931c793",
			"userInfo(address)": "1959a002",
			"wBNB()": "d02eb3f4",
			"work(uint256,address,address[2],uint256[2],uint256[2],bytes)": "c186c29b"
		}
	},
	"abi": [
		{
			"inputs": [
				{
					"internalType": "address",
					"name": "_operator",
					"type": "address"
				},
				{
					"internalType": "contract IFarm",
					"name": "_farm",
					"type": "address"
				},
				{
					"internalType": "uint256",
					"name": "_poolId",
					"type": "uint256"
				},
				{
					"internalType": "contract ICakeinvestment",
					"name": "_reinvestment",
					"type": "address"
				},
				{
					"internalType": "contract IMasterChef",
					"name": "_bscPool",
					"type": "address"
				},
				{
					"internalType": "uint256",
					"name": "_bscPoolId",
					"type": "uint256"
				},
				{
					"internalType": "contract IPancakeRouter02",
					"name": "_router",
					"type": "address"
				},
				{
					"internalType": "address",
					"name": "_cake",
					"type": "address"
				},
				{
					"internalType": "address",
					"name": "_token0",
					"type": "address"
				},
				{
					"internalType": "address",
					"name": "_token1",
					"type": "address"
				},
				{
					"internalType": "contract IStrategy",
					"name": "_liqStrategy",
					"type": "address"
				}
			],
			"stateMutability": "nonpayable",
			"type": "constructor"
		},
		{
			"anonymous": false,
			"inputs": [
				{
					"indexed": true,
					"internalType": "uint256",
					"name": "id",
					"type": "uint256"
				},
				{
					"indexed": false,
					"internalType": "uint256",
					"name": "lpAmount",
					"type": "uint256"
				}
			],
			"name": "AddPosition",
			"type": "event"
		},
		{
			"anonymous": false,
			"inputs": [
				{
					"indexed": true,
					"internalType": "uint256",
					"name": "id",
					"type": "uint256"
				},
				{
					"indexed": false,
					"internalType": "address",
					"name": "lpTokenAddress",
					"type": "address"
				},
				{
					"indexed": false,
					"internalType": "uint256",
					"name": "lpAmount",
					"type": "uint256"
				},
				{
					"indexed": false,
					"internalType": "address[2]",
					"name": "debtToken",
					"type": "address[2]"
				},
				{
					"indexed": false,
					"internalType": "uint256[2]",
					"name": "liqAmount",
					"type": "uint256[2]"
				}
			],
			"name": "Liquidate",
			"type": "event"
		},
		{
			"anonymous": false,
			"inputs": [
				{
					"indexed": true,
					"internalType": "address",
					"name": "previousOwner",
					"type": "address"
				},
				{
					"indexed": true,
					"internalType": "address",
					"name": "newOwner",
					"type": "address"
				}
			],
			"name": "OwnershipTransferred",
			"type": "event"
		},
		{
			"anonymous": false,
			"inputs": [
				{
					"indexed": true,
					"internalType": "uint256",
					"name": "id",
					"type": "uint256"
				},
				{
					"indexed": false,
					"internalType": "uint256",
					"name": "lpAmount",
					"type": "uint256"
				}
			],
			"name": "RemovePosition",
			"type": "event"
		},
		{
			"anonymous": false,
			"inputs": [
				{
					"indexed": true,
					"internalType": "address",
					"name": "user",
					"type": "address"
				},
				{
					"indexed": false,
					"internalType": "uint256",
					"name": "amount",
					"type": "uint256"
				}
			],
			"name": "StakedbscPool",
			"type": "event"
		},
		{
			"anonymous": false,
			"inputs": [
				{
					"indexed": true,
					"internalType": "address",
					"name": "user",
					"type": "address"
				},
				{
					"indexed": false,
					"internalType": "uint256",
					"name": "amount",
					"type": "uint256"
				}
			],
			"name": "WithdrawnbscPool",
			"type": "event"
		},
		{
			"inputs": [],
			"name": "bscPool",
			"outputs": [
				{
					"internalType": "contract IMasterChef",
					"name": "",
					"type": "address"
				}
			],
			"stateMutability": "view",
			"type": "function"
		},
		{
			"inputs": [],
			"name": "bscPoolId",
			"outputs": [
				{
					"internalType": "uint256",
					"name": "",
					"type": "uint256"
				}
			],
			"stateMutability": "view",
			"type": "function"
		},
		{
			"inputs": [],
			"name": "cake",
			"outputs": [
				{
					"internalType": "address",
					"name": "",
					"type": "address"
				}
			],
			"stateMutability": "view",
			"type": "function"
		},
		{
			"inputs": [],
			"name": "farm",
			"outputs": [
				{
					"internalType": "contract IFarm",
					"name": "",
					"type": "address"
				}
			],
			"stateMutability": "view",
			"type": "function"
		},
		{
			"inputs": [
				{
					"internalType": "address",
					"name": "account",
					"type": "address"
				}
			],
			"name": "getAllRewards",
			"outputs": [],
			"stateMutability": "nonpayable",
			"type": "function"
		},
		{
			"inputs": [
				{
					"internalType": "uint256",
					"name": "aIn",
					"type": "uint256"
				},
				{
					"internalType": "uint256",
					"name": "rIn",
					"type": "uint256"
				},
				{
					"internalType": "uint256",
					"name": "rOut",
					"type": "uint256"
				}
			],
			"name": "getEqAmount",
			"outputs": [
				{
					"internalType": "uint256",
					"name": "",
					"type": "uint256"
				}
			],
			"stateMutability": "pure",
			"type": "function"
		},
		{
			"inputs": [
				{
					"internalType": "uint256",
					"name": "aIn",
					"type": "uint256"
				},
				{
					"internalType": "uint256",
					"name": "rIn",
					"type": "uint256"
				},
				{
					"internalType": "uint256",
					"name": "rOut",
					"type": "uint256"
				}
			],
			"name": "getMktSellAmount",
			"outputs": [
				{
					"internalType": "uint256",
					"name": "",
					"type": "uint256"
				}
			],
			"stateMutability": "pure",
			"type": "function"
		},
		{
			"inputs": [
				{
					"internalType": "uint256",
					"name": "aOut",
					"type": "uint256"
				},
				{
					"internalType": "uint256",
					"name": "rIn",
					"type": "uint256"
				},
				{
					"internalType": "uint256",
					"name": "rOut",
					"type": "uint256"
				}
			],
			"name": "getMktSellInAmount",
			"outputs": [
				{
					"internalType": "uint256",
					"name": "",
					"type": "uint256"
				}
			],
			"stateMutability": "pure",
			"type": "function"
		},
		{
			"inputs": [],
			"name": "globalInfo",
			"outputs": [
				{
					"internalType": "uint256",
					"name": "totalLp",
					"type": "uint256"
				},
				{
					"internalType": "uint256",
					"name": "totalCake",
					"type": "uint256"
				},
				{
					"internalType": "uint256",
					"name": "accCakePerLp",
					"type": "uint256"
				},
				{
					"internalType": "uint256",
					"name": "lastUpdateTime",
					"type": "uint256"
				}
			],
			"stateMutability": "view",
			"type": "function"
		},
		{
			"inputs": [
				{
					"internalType": "uint256",
					"name": "id",
					"type": "uint256"
				},
				{
					"internalType": "address[2]",
					"name": "borrowTokens",
					"type": "address[2]"
				},
				{
					"internalType": "uint256[2]",
					"name": "debts",
					"type": "uint256[2]"
				}
			],
			"name": "health",
			"outputs": [
				{
					"internalType": "uint256[2]",
					"name": "",
					"type": "uint256[2]"
				}
			],
			"stateMutability": "view",
			"type": "function"
		},
		{
			"inputs": [],
			"name": "liqStrategy",
			"outputs": [
				{
					"internalType": "contract IStrategy",
					"name": "",
					"type": "address"
				}
			],
			"stateMutability": "view",
			"type": "function"
		},
		{
			"inputs": [
				{
					"internalType": "uint256",
					"name": "id",
					"type": "uint256"
				},
				{
					"internalType": "address",
					"name": "account",
					"type": "address"
				},
				{
					"internalType": "address[2]",
					"name": "borrowTokens",
					"type": "address[2]"
				},
				{
					"internalType": "uint256[2]",
					"name": "debts",
					"type": "uint256[2]"
				}
			],
			"name": "liquidate",
			"outputs": [],
			"stateMutability": "nonpayable",
			"type": "function"
		},
		{
			"inputs": [],
			"name": "lpToken",
			"outputs": [
				{
					"internalType": "contract IPancakePair",
					"name": "",
					"type": "address"
				}
			],
			"stateMutability": "view",
			"type": "function"
		},
		{
			"inputs": [
				{
					"internalType": "uint256",
					"name": "id",
					"type": "uint256"
				},
				{
					"internalType": "address[2]",
					"name": "borrowTokens",
					"type": "address[2]"
				},
				{
					"internalType": "uint256[2]",
					"name": "debts",
					"type": "uint256[2]"
				}
			],
			"name": "newHealth",
			"outputs": [
				{
					"internalType": "uint256",
					"name": "",
					"type": "uint256"
				}
			],
			"stateMutability": "view",
			"type": "function"
		},
		{
			"inputs": [],
			"name": "operator",
			"outputs": [
				{
					"internalType": "address",
					"name": "",
					"type": "address"
				}
			],
			"stateMutability": "view",
			"type": "function"
		},
		{
			"inputs": [],
			"name": "owner",
			"outputs": [
				{
					"internalType": "address",
					"name": "",
					"type": "address"
				}
			],
			"stateMutability": "view",
			"type": "function"
		},
		{
			"inputs": [],
			"name": "poolId",
			"outputs": [
				{
					"internalType": "uint256",
					"name": "",
					"type": "uint256"
				}
			],
			"stateMutability": "view",
			"type": "function"
		},
		{
			"inputs": [
				{
					"internalType": "uint256",
					"name": "",
					"type": "uint256"
				}
			],
			"name": "posLPAmount",
			"outputs": [
				{
					"internalType": "uint256",
					"name": "",
					"type": "uint256"
				}
			],
			"stateMutability": "view",
			"type": "function"
		},
		{
			"inputs": [
				{
					"internalType": "uint256",
					"name": "",
					"type": "uint256"
				},
				{
					"internalType": "uint256",
					"name": "",
					"type": "uint256"
				}
			],
			"name": "principal",
			"outputs": [
				{
					"internalType": "uint256",
					"name": "",
					"type": "uint256"
				}
			],
			"stateMutability": "view",
			"type": "function"
		},
		{
			"inputs": [
				{
					"internalType": "address",
					"name": "token",
					"type": "address"
				},
				{
					"internalType": "address",
					"name": "to",
					"type": "address"
				},
				{
					"internalType": "uint256",
					"name": "value",
					"type": "uint256"
				}
			],
			"name": "recover",
			"outputs": [],
			"stateMutability": "nonpayable",
			"type": "function"
		},
		{
			"inputs": [],
			"name": "renounceOwnership",
			"outputs": [],
			"stateMutability": "nonpayable",
			"type": "function"
		},
		{
			"inputs": [],
			"name": "rewardPerLp",
			"outputs": [
				{
					"internalType": "uint256",
					"name": "",
					"type": "uint256"
				}
			],
			"stateMutability": "view",
			"type": "function"
		},
		{
			"inputs": [
				{
					"internalType": "contract IStrategy",
					"name": "_liqStrategy",
					"type": "address"
				}
			],
			"name": "setCriticalStrategies",
			"outputs": [],
			"stateMutability": "nonpayable",
			"type": "function"
		},
		{
			"inputs": [
				{
					"internalType": "address[]",
					"name": "strategies",
					"type": "address[]"
				},
				{
					"internalType": "bool",
					"name": "isOk",
					"type": "bool"
				}
			],
			"name": "setStrategyOk",
			"outputs": [],
			"stateMutability": "nonpayable",
			"type": "function"
		},
		{
			"inputs": [
				{
					"internalType": "address",
					"name": "",
					"type": "address"
				}
			],
			"name": "strategiesOk",
			"outputs": [
				{
					"internalType": "bool",
					"name": "",
					"type": "bool"
				}
			],
			"stateMutability": "view",
			"type": "function"
		},
		{
			"inputs": [],
			"name": "token0",
			"outputs": [
				{
					"internalType": "address",
					"name": "",
					"type": "address"
				}
			],
			"stateMutability": "view",
			"type": "function"
		},
		{
			"inputs": [],
			"name": "token1",
			"outputs": [
				{
					"internalType": "address",
					"name": "",
					"type": "address"
				}
			],
			"stateMutability": "view",
			"type": "function"
		},
		{
			"inputs": [],
			"name": "totalRewards",
			"outputs": [
				{
					"internalType": "uint256",
					"name": "",
					"type": "uint256"
				}
			],
			"stateMutability": "view",
			"type": "function"
		},
		{
			"inputs": [
				{
					"internalType": "address",
					"name": "newOwner",
					"type": "address"
				}
			],
			"name": "transferOwnership",
			"outputs": [],
			"stateMutability": "nonpayable",
			"type": "function"
		},
		{
			"inputs": [
				{
					"internalType": "address",
					"name": "account",
					"type": "address"
				}
			],
			"name": "userEarnedAmount",
			"outputs": [
				{
					"internalType": "uint256",
					"name": "",
					"type": "uint256"
				},
				{
					"internalType": "uint256",
					"name": "",
					"type": "uint256"
				}
			],
			"stateMutability": "view",
			"type": "function"
		},
		{
			"inputs": [
				{
					"internalType": "address",
					"name": "",
					"type": "address"
				}
			],
			"name": "userInfo",
			"outputs": [
				{
					"internalType": "uint256",
					"name": "totalLp",
					"type": "uint256"
				},
				{
					"internalType": "uint256",
					"name": "earnedCakeStored",
					"type": "uint256"
				},
				{
					"internalType": "uint256",
					"name": "accCakePerLpStored",
					"type": "uint256"
				},
				{
					"internalType": "uint256",
					"name": "lastUpdateTime",
					"type": "uint256"
				}
			],
			"stateMutability": "view",
			"type": "function"
		},
		{
			"inputs": [],
			"name": "wBNB",
			"outputs": [
				{
					"internalType": "address",
					"name": "",
					"type": "address"
				}
			],
			"stateMutability": "view",
			"type": "function"
		},
		{
			"inputs": [
				{
					"internalType": "uint256",
					"name": "id",
					"type": "uint256"
				},
				{
					"internalType": "address",
					"name": "account",
					"type": "address"
				},
				{
					"internalType": "address[2]",
					"name": "borrowTokens",
					"type": "address[2]"
				},
				{
					"internalType": "uint256[2]",
					"name": "borrowAmounts",
					"type": "uint256[2]"
				},
				{
					"internalType": "uint256[2]",
					"name": "debts",
					"type": "uint256[2]"
				},
				{
					"internalType": "bytes",
					"name": "data",
					"type": "bytes"
				}
			],
			"name": "work",
			"outputs": [],
			"stateMutability": "payable",
			"type": "function"
		},
		{
			"stateMutability": "payable",
			"type": "receive"
		}
	]
}